{
  "contractName": "AAiTStudent",
  "abi": [
    {
      "inputs": [],
      "stateMutability": "nonpayable",
      "type": "constructor"
    },
    {
      "anonymous": false,
      "inputs": [
        {
          "indexed": true,
          "internalType": "address",
          "name": "userAddress",
          "type": "address"
        },
        {
          "indexed": false,
          "internalType": "uint256",
          "name": "index",
          "type": "uint256"
        }
      ],
      "name": "LogDeleteCandidate",
      "type": "event"
    },
    {
      "anonymous": false,
      "inputs": [
        {
          "indexed": true,
          "internalType": "address",
          "name": "userAddress",
          "type": "address"
        },
        {
          "indexed": false,
          "internalType": "uint256",
          "name": "index",
          "type": "uint256"
        }
      ],
      "name": "LogDeleteVoter",
      "type": "event"
    },
    {
      "anonymous": false,
      "inputs": [
        {
          "components": [
            {
              "internalType": "uint256",
              "name": "index",
              "type": "uint256"
            },
            {
              "internalType": "string",
              "name": "studentId",
              "type": "string"
            },
            {
              "internalType": "string",
              "name": "fName",
              "type": "string"
            },
            {
              "internalType": "string",
              "name": "lName",
              "type": "string"
            },
            {
              "internalType": "string",
              "name": "gName",
              "type": "string"
            },
            {
              "internalType": "uint256",
              "name": "DOB",
              "type": "uint256"
            },
            {
              "internalType": "uint256",
              "name": "currentYear",
              "type": "uint256"
            },
            {
              "internalType": "uint256",
              "name": "currentSection",
              "type": "uint256"
            },
            {
              "internalType": "string",
              "name": "currentDepartment",
              "type": "string"
            },
            {
              "internalType": "address",
              "name": "userAddress",
              "type": "address"
            }
          ],
          "indexed": false,
          "internalType": "struct AAiTStudent.UserStruct",
          "name": "candidateInfo",
          "type": "tuple"
        },
        {
          "indexed": false,
          "internalType": "string",
          "name": "candidateEmail",
          "type": "string"
        },
        {
          "indexed": false,
          "internalType": "string",
          "name": "candidatePassword",
          "type": "string"
        },
        {
          "indexed": false,
          "internalType": "string",
          "name": "candidateBio",
          "type": "string"
        },
        {
          "indexed": false,
          "internalType": "string",
          "name": "candidateProfilePicture",
          "type": "string"
        }
      ],
      "name": "LogNewCandidate",
      "type": "event"
    },
    {
      "anonymous": false,
      "inputs": [
        {
          "components": [
            {
              "internalType": "uint256",
              "name": "index",
              "type": "uint256"
            },
            {
              "internalType": "string",
              "name": "studentId",
              "type": "string"
            },
            {
              "internalType": "string",
              "name": "fName",
              "type": "string"
            },
            {
              "internalType": "string",
              "name": "lName",
              "type": "string"
            },
            {
              "internalType": "string",
              "name": "gName",
              "type": "string"
            },
            {
              "internalType": "uint256",
              "name": "DOB",
              "type": "uint256"
            },
            {
              "internalType": "uint256",
              "name": "currentYear",
              "type": "uint256"
            },
            {
              "internalType": "uint256",
              "name": "currentSection",
              "type": "uint256"
            },
            {
              "internalType": "string",
              "name": "currentDepartment",
              "type": "string"
            },
            {
              "internalType": "address",
              "name": "userAddress",
              "type": "address"
            }
          ],
          "indexed": false,
          "internalType": "struct AAiTStudent.UserStruct",
          "name": "voterInfo",
          "type": "tuple"
        },
        {
          "indexed": false,
          "internalType": "string",
          "name": "voterEmail",
          "type": "string"
        },
        {
          "indexed": false,
          "internalType": "string",
          "name": "voterPassword",
          "type": "string"
        }
      ],
      "name": "LogNewVoter",
      "type": "event"
    },
    {
      "anonymous": false,
      "inputs": [
        {
          "components": [
            {
              "internalType": "uint256",
              "name": "index",
              "type": "uint256"
            },
            {
              "internalType": "string",
              "name": "studentId",
              "type": "string"
            },
            {
              "internalType": "string",
              "name": "fName",
              "type": "string"
            },
            {
              "internalType": "string",
              "name": "lName",
              "type": "string"
            },
            {
              "internalType": "string",
              "name": "gName",
              "type": "string"
            },
            {
              "internalType": "uint256",
              "name": "DOB",
              "type": "uint256"
            },
            {
              "internalType": "uint256",
              "name": "currentYear",
              "type": "uint256"
            },
            {
              "internalType": "uint256",
              "name": "currentSection",
              "type": "uint256"
            },
            {
              "internalType": "string",
              "name": "currentDepartment",
              "type": "string"
            },
            {
              "internalType": "address",
              "name": "userAddress",
              "type": "address"
            }
          ],
          "indexed": false,
          "internalType": "struct AAiTStudent.UserStruct",
          "name": "candidateInfo",
          "type": "tuple"
        },
        {
          "indexed": false,
          "internalType": "string",
          "name": "candidateEmail",
          "type": "string"
        },
        {
          "indexed": false,
          "internalType": "string",
          "name": "candidatePassword",
          "type": "string"
        },
        {
          "indexed": false,
          "internalType": "string",
          "name": "candidateBio",
          "type": "string"
        },
        {
          "indexed": false,
          "internalType": "string",
          "name": "candidateProfilePicture",
          "type": "string"
        }
      ],
      "name": "LogUpdateCandidate",
      "type": "event"
    },
    {
      "anonymous": false,
      "inputs": [
        {
          "components": [
            {
              "internalType": "uint256",
              "name": "index",
              "type": "uint256"
            },
            {
              "internalType": "string",
              "name": "studentId",
              "type": "string"
            },
            {
              "internalType": "string",
              "name": "fName",
              "type": "string"
            },
            {
              "internalType": "string",
              "name": "lName",
              "type": "string"
            },
            {
              "internalType": "string",
              "name": "gName",
              "type": "string"
            },
            {
              "internalType": "uint256",
              "name": "DOB",
              "type": "uint256"
            },
            {
              "internalType": "uint256",
              "name": "currentYear",
              "type": "uint256"
            },
            {
              "internalType": "uint256",
              "name": "currentSection",
              "type": "uint256"
            },
            {
              "internalType": "string",
              "name": "currentDepartment",
              "type": "string"
            },
            {
              "internalType": "address",
              "name": "userAddress",
              "type": "address"
            }
          ],
          "indexed": false,
          "internalType": "struct AAiTStudent.UserStruct",
          "name": "voterInfo",
          "type": "tuple"
        },
        {
          "indexed": false,
          "internalType": "string",
          "name": "voterEmail",
          "type": "string"
        },
        {
          "indexed": false,
          "internalType": "string",
          "name": "voterPassword",
          "type": "string"
        }
      ],
      "name": "LogUpdateVoter",
      "type": "event"
    },
    {
      "inputs": [
        {
          "internalType": "address",
          "name": "userAddress",
          "type": "address"
        }
      ],
      "name": "isVoter",
      "outputs": [
        {
          "internalType": "bool",
          "name": "",
          "type": "bool"
        }
      ],
      "stateMutability": "view",
      "type": "function",
      "constant": true
    },
    {
      "inputs": [
        {
          "components": [
            {
              "internalType": "uint256",
              "name": "index",
              "type": "uint256"
            },
            {
              "internalType": "string",
              "name": "studentId",
              "type": "string"
            },
            {
              "internalType": "string",
              "name": "fName",
              "type": "string"
            },
            {
              "internalType": "string",
              "name": "lName",
              "type": "string"
            },
            {
              "internalType": "string",
              "name": "gName",
              "type": "string"
            },
            {
              "internalType": "uint256",
              "name": "DOB",
              "type": "uint256"
            },
            {
              "internalType": "uint256",
              "name": "currentYear",
              "type": "uint256"
            },
            {
              "internalType": "uint256",
              "name": "currentSection",
              "type": "uint256"
            },
            {
              "internalType": "string",
              "name": "currentDepartment",
              "type": "string"
            },
            {
              "internalType": "address",
              "name": "userAddress",
              "type": "address"
            }
          ],
          "internalType": "struct AAiTStudent.UserStruct",
          "name": "voterInfo",
          "type": "tuple"
        },
        {
          "internalType": "string",
          "name": "email",
          "type": "string"
        },
        {
          "internalType": "string",
          "name": "password",
          "type": "string"
        }
      ],
      "name": "insertVoter",
      "outputs": [
        {
          "internalType": "uint256",
          "name": "",
          "type": "uint256"
        }
      ],
      "stateMutability": "nonpayable",
      "type": "function"
    },
    {
      "inputs": [
        {
          "internalType": "address",
          "name": "userAddress",
          "type": "address"
        }
      ],
      "name": "removeVoter",
      "outputs": [
        {
          "internalType": "bool",
          "name": "success",
          "type": "bool"
        }
      ],
      "stateMutability": "nonpayable",
      "type": "function"
    },
    {
      "inputs": [
        {
          "internalType": "address",
          "name": "userAddress",
          "type": "address"
        }
      ],
      "name": "isCandidate",
      "outputs": [
        {
          "internalType": "bool",
          "name": "isIndeed",
          "type": "bool"
        }
      ],
      "stateMutability": "view",
      "type": "function",
      "constant": true
    },
    {
      "inputs": [
        {
          "components": [
            {
              "internalType": "uint256",
              "name": "index",
              "type": "uint256"
            },
            {
              "internalType": "string",
              "name": "studentId",
              "type": "string"
            },
            {
              "internalType": "string",
              "name": "fName",
              "type": "string"
            },
            {
              "internalType": "string",
              "name": "lName",
              "type": "string"
            },
            {
              "internalType": "string",
              "name": "gName",
              "type": "string"
            },
            {
              "internalType": "uint256",
              "name": "DOB",
              "type": "uint256"
            },
            {
              "internalType": "uint256",
              "name": "currentYear",
              "type": "uint256"
            },
            {
              "internalType": "uint256",
              "name": "currentSection",
              "type": "uint256"
            },
            {
              "internalType": "string",
              "name": "currentDepartment",
              "type": "string"
            },
            {
              "internalType": "address",
              "name": "userAddress",
              "type": "address"
            }
          ],
          "internalType": "struct AAiTStudent.UserStruct",
          "name": "candidateInfo",
          "type": "tuple"
        },
        {
          "internalType": "string",
          "name": "email",
          "type": "string"
        },
        {
          "internalType": "string",
          "name": "password",
          "type": "string"
        },
        {
          "internalType": "string",
          "name": "bio",
          "type": "string"
        },
        {
          "internalType": "string",
          "name": "profilePicture",
          "type": "string"
        }
      ],
      "name": "insertCandidate",
      "outputs": [
        {
          "internalType": "uint256",
          "name": "index",
          "type": "uint256"
        }
      ],
      "stateMutability": "nonpayable",
      "type": "function"
    },
    {
      "inputs": [
        {
          "internalType": "address",
          "name": "userAddress",
          "type": "address"
        }
      ],
      "name": "removeCandidate",
      "outputs": [
        {
          "internalType": "bool",
          "name": "success",
          "type": "bool"
        }
      ],
      "stateMutability": "nonpayable",
      "type": "function"
    },
    {
      "inputs": [
        {
          "internalType": "address",
          "name": "userAddress",
          "type": "address"
        }
      ],
      "name": "getVoter",
      "outputs": [
        {
          "components": [
            {
              "components": [
                {
                  "internalType": "uint256",
                  "name": "index",
                  "type": "uint256"
                },
                {
                  "internalType": "string",
                  "name": "studentId",
                  "type": "string"
                },
                {
                  "internalType": "string",
                  "name": "fName",
                  "type": "string"
                },
                {
                  "internalType": "string",
                  "name": "lName",
                  "type": "string"
                },
                {
                  "internalType": "string",
                  "name": "gName",
                  "type": "string"
                },
                {
                  "internalType": "uint256",
                  "name": "DOB",
                  "type": "uint256"
                },
                {
                  "internalType": "uint256",
                  "name": "currentYear",
                  "type": "uint256"
                },
                {
                  "internalType": "uint256",
                  "name": "currentSection",
                  "type": "uint256"
                },
                {
                  "internalType": "string",
                  "name": "currentDepartment",
                  "type": "string"
                },
                {
                  "internalType": "address",
                  "name": "userAddress",
                  "type": "address"
                }
              ],
              "internalType": "struct AAiTStudent.UserStruct",
              "name": "voterInfo",
              "type": "tuple"
            },
            {
              "internalType": "uint256",
              "name": "vindex",
              "type": "uint256"
            },
            {
              "internalType": "string",
              "name": "voterEmail",
              "type": "string"
            },
            {
              "internalType": "string",
              "name": "voterPassword",
              "type": "string"
            }
          ],
          "internalType": "struct AAiTStudent.VoterStruct",
          "name": "",
          "type": "tuple"
        }
      ],
      "stateMutability": "view",
      "type": "function",
      "constant": true
    },
    {
      "inputs": [],
      "name": "getAllVoters",
      "outputs": [
        {
          "components": [
            {
              "components": [
                {
                  "internalType": "uint256",
                  "name": "index",
                  "type": "uint256"
                },
                {
                  "internalType": "string",
                  "name": "studentId",
                  "type": "string"
                },
                {
                  "internalType": "string",
                  "name": "fName",
                  "type": "string"
                },
                {
                  "internalType": "string",
                  "name": "lName",
                  "type": "string"
                },
                {
                  "internalType": "string",
                  "name": "gName",
                  "type": "string"
                },
                {
                  "internalType": "uint256",
                  "name": "DOB",
                  "type": "uint256"
                },
                {
                  "internalType": "uint256",
                  "name": "currentYear",
                  "type": "uint256"
                },
                {
                  "internalType": "uint256",
                  "name": "currentSection",
                  "type": "uint256"
                },
                {
                  "internalType": "string",
                  "name": "currentDepartment",
                  "type": "string"
                },
                {
                  "internalType": "address",
                  "name": "userAddress",
                  "type": "address"
                }
              ],
              "internalType": "struct AAiTStudent.UserStruct",
              "name": "voterInfo",
              "type": "tuple"
            },
            {
              "internalType": "uint256",
              "name": "vindex",
              "type": "uint256"
            },
            {
              "internalType": "string",
              "name": "voterEmail",
              "type": "string"
            },
            {
              "internalType": "string",
              "name": "voterPassword",
              "type": "string"
            }
          ],
          "internalType": "struct AAiTStudent.VoterStruct[]",
          "name": "",
          "type": "tuple[]"
        }
      ],
      "stateMutability": "view",
      "type": "function",
      "constant": true
    },
    {
      "inputs": [
        {
          "internalType": "address",
          "name": "userAddress",
          "type": "address"
        }
      ],
      "name": "getCandidate",
      "outputs": [
        {
          "components": [
            {
              "components": [
                {
                  "internalType": "uint256",
                  "name": "index",
                  "type": "uint256"
                },
                {
                  "internalType": "string",
                  "name": "studentId",
                  "type": "string"
                },
                {
                  "internalType": "string",
                  "name": "fName",
                  "type": "string"
                },
                {
                  "internalType": "string",
                  "name": "lName",
                  "type": "string"
                },
                {
                  "internalType": "string",
                  "name": "gName",
                  "type": "string"
                },
                {
                  "internalType": "uint256",
                  "name": "DOB",
                  "type": "uint256"
                },
                {
                  "internalType": "uint256",
                  "name": "currentYear",
                  "type": "uint256"
                },
                {
                  "internalType": "uint256",
                  "name": "currentSection",
                  "type": "uint256"
                },
                {
                  "internalType": "string",
                  "name": "currentDepartment",
                  "type": "string"
                },
                {
                  "internalType": "address",
                  "name": "userAddress",
                  "type": "address"
                }
              ],
              "internalType": "struct AAiTStudent.UserStruct",
              "name": "candidateInfo",
              "type": "tuple"
            },
            {
              "internalType": "uint256",
              "name": "vindex",
              "type": "uint256"
            },
            {
              "internalType": "string",
              "name": "candidateEmail",
              "type": "string"
            },
            {
              "internalType": "string",
              "name": "candidatePassword",
              "type": "string"
            },
            {
              "internalType": "string",
              "name": "candidateBio",
              "type": "string"
            },
            {
              "internalType": "string",
              "name": "candidateProfilePicture",
              "type": "string"
            }
          ],
          "internalType": "struct AAiTStudent.CandidateStruct",
          "name": "",
          "type": "tuple"
        }
      ],
      "stateMutability": "view",
      "type": "function",
      "constant": true
    },
    {
      "inputs": [],
      "name": "getAllCandidates",
      "outputs": [
        {
          "components": [
            {
              "components": [
                {
                  "internalType": "uint256",
                  "name": "index",
                  "type": "uint256"
                },
                {
                  "internalType": "string",
                  "name": "studentId",
                  "type": "string"
                },
                {
                  "internalType": "string",
                  "name": "fName",
                  "type": "string"
                },
                {
                  "internalType": "string",
                  "name": "lName",
                  "type": "string"
                },
                {
                  "internalType": "string",
                  "name": "gName",
                  "type": "string"
                },
                {
                  "internalType": "uint256",
                  "name": "DOB",
                  "type": "uint256"
                },
                {
                  "internalType": "uint256",
                  "name": "currentYear",
                  "type": "uint256"
                },
                {
                  "internalType": "uint256",
                  "name": "currentSection",
                  "type": "uint256"
                },
                {
                  "internalType": "string",
                  "name": "currentDepartment",
                  "type": "string"
                },
                {
                  "internalType": "address",
                  "name": "userAddress",
                  "type": "address"
                }
              ],
              "internalType": "struct AAiTStudent.UserStruct",
              "name": "candidateInfo",
              "type": "tuple"
            },
            {
              "internalType": "uint256",
              "name": "vindex",
              "type": "uint256"
            },
            {
              "internalType": "string",
              "name": "candidateEmail",
              "type": "string"
            },
            {
              "internalType": "string",
              "name": "candidatePassword",
              "type": "string"
            },
            {
              "internalType": "string",
              "name": "candidateBio",
              "type": "string"
            },
            {
              "internalType": "string",
              "name": "candidateProfilePicture",
              "type": "string"
            }
          ],
          "internalType": "struct AAiTStudent.CandidateStruct[]",
          "name": "",
          "type": "tuple[]"
        }
      ],
      "stateMutability": "view",
      "type": "function",
      "constant": true
    }
  ],
  "bytecode": "0x608060405234801561001057600080fd5b5033600660006101000a81548173ffffffffffffffffffffffffffffffffffffffff021916908373ffffffffffffffffffffffffffffffffffffffff160217905550615539806100616000396000f3fe608060405234801561001057600080fd5b506004361061009e5760003560e01c806386c1ff681161006657806386c1ff681461016f578063a7771ee31461019f578063b7adcf1d146101cf578063d4f50f98146101ff578063d51b9e931461022f5761009e565b80632e6997fe146100a357806335bbe70e146100c15780633d5a861e146100df578063522280f81461010f5780636dd091f91461013f575b600080fd5b6100ab61025f565b6040516100b89190614491565b60405180910390f35b6100c961087d565b6040516100d691906145e6565b60405180910390f35b6100f960048036038101906100f49190614935565b610d77565b6040516101069190614a4b565b60405180910390f35b61012960048036038101906101249190614a66565b6115a2565b6040516101369190614a4b565b60405180910390f35b61015960048036038101906101549190614b0d565b611cc2565b6040516101669190614b55565b60405180910390f35b61018960048036038101906101849190614b0d565b6124f6565b6040516101969190614b55565b60405180910390f35b6101b960048036038101906101b49190614b0d565b612c9e565b6040516101c69190614b55565b60405180910390f35b6101e960048036038101906101e49190614b0d565b612d83565b6040516101f69190614c15565b60405180910390f35b61021960048036038101906102149190614b0d565b6133e3565b6040516102269190614ca8565b60405180910390f35b61024960048036038101906102449190614b0d565b61391e565b6040516102569190614b55565b60405180910390f35b60606005805480602002602001604051908101604052809291908181526020016000905b8282101561087457838290600052602060002090600f02016040518060c00160405290816000820160405180610140016040529081600082015481526020016001820180546102d190614cf9565b80601f01602080910402602001604051908101604052809291908181526020018280546102fd90614cf9565b801561034a5780601f1061031f5761010080835404028352916020019161034a565b820191906000526020600020905b81548152906001019060200180831161032d57829003601f168201915b5050505050815260200160028201805461036390614cf9565b80601f016020809104026020016040519081016040528092919081815260200182805461038f90614cf9565b80156103dc5780601f106103b1576101008083540402835291602001916103dc565b820191906000526020600020905b8154815290600101906020018083116103bf57829003601f168201915b505050505081526020016003820180546103f590614cf9565b80601f016020809104026020016040519081016040528092919081815260200182805461042190614cf9565b801561046e5780601f106104435761010080835404028352916020019161046e565b820191906000526020600020905b81548152906001019060200180831161045157829003601f168201915b5050505050815260200160048201805461048790614cf9565b80601f01602080910402602001604051908101604052809291908181526020018280546104b390614cf9565b80156105005780601f106104d557610100808354040283529160200191610500565b820191906000526020600020905b8154815290600101906020018083116104e357829003601f168201915b5050505050815260200160058201548152602001600682015481526020016007820154815260200160088201805461053790614cf9565b80601f016020809104026020016040519081016040528092919081815260200182805461056390614cf9565b80156105b05780601f10610585576101008083540402835291602001916105b0565b820191906000526020600020905b81548152906001019060200180831161059357829003601f168201915b505050505081526020016009820160009054906101000a900473ffffffffffffffffffffffffffffffffffffffff1673ffffffffffffffffffffffffffffffffffffffff1673ffffffffffffffffffffffffffffffffffffffff16815250508152602001600a8201548152602001600b8201805461062d90614cf9565b80601f016020809104026020016040519081016040528092919081815260200182805461065990614cf9565b80156106a65780601f1061067b576101008083540402835291602001916106a6565b820191906000526020600020905b81548152906001019060200180831161068957829003601f168201915b50505050508152602001600c820180546106bf90614cf9565b80601f01602080910402602001604051908101604052809291908181526020018280546106eb90614cf9565b80156107385780601f1061070d57610100808354040283529160200191610738565b820191906000526020600020905b81548152906001019060200180831161071b57829003601f168201915b50505050508152602001600d8201805461075190614cf9565b80601f016020809104026020016040519081016040528092919081815260200182805461077d90614cf9565b80156107ca5780601f1061079f576101008083540402835291602001916107ca565b820191906000526020600020905b8154815290600101906020018083116107ad57829003601f168201915b50505050508152602001600e820180546107e390614cf9565b80601f016020809104026020016040519081016040528092919081815260200182805461080f90614cf9565b801561085c5780601f106108315761010080835404028352916020019161085c565b820191906000526020600020905b81548152906001019060200180831161083f57829003601f168201915b50505050508152505081526020019060010190610283565b50505050905090565b60606002805480602002602001604051908101604052809291908181526020016000905b82821015610d6e57838290600052602060002090600d02016040518060800160405290816000820160405180610140016040529081600082015481526020016001820180546108ef90614cf9565b80601f016020809104026020016040519081016040528092919081815260200182805461091b90614cf9565b80156109685780601f1061093d57610100808354040283529160200191610968565b820191906000526020600020905b81548152906001019060200180831161094b57829003601f168201915b5050505050815260200160028201805461098190614cf9565b80601f01602080910402602001604051908101604052809291908181526020018280546109ad90614cf9565b80156109fa5780601f106109cf576101008083540402835291602001916109fa565b820191906000526020600020905b8154815290600101906020018083116109dd57829003601f168201915b50505050508152602001600382018054610a1390614cf9565b80601f0160208091040260200160405190810160405280929190818152602001828054610a3f90614cf9565b8015610a8c5780601f10610a6157610100808354040283529160200191610a8c565b820191906000526020600020905b815481529060010190602001808311610a6f57829003601f168201915b50505050508152602001600482018054610aa590614cf9565b80601f0160208091040260200160405190810160405280929190818152602001828054610ad190614cf9565b8015610b1e5780601f10610af357610100808354040283529160200191610b1e565b820191906000526020600020905b815481529060010190602001808311610b0157829003601f168201915b50505050508152602001600582015481526020016006820154815260200160078201548152602001600882018054610b5590614cf9565b80601f0160208091040260200160405190810160405280929190818152602001828054610b8190614cf9565b8015610bce5780601f10610ba357610100808354040283529160200191610bce565b820191906000526020600020905b815481529060010190602001808311610bb157829003601f168201915b505050505081526020016009820160009054906101000a900473ffffffffffffffffffffffffffffffffffffffff1673ffffffffffffffffffffffffffffffffffffffff1673ffffffffffffffffffffffffffffffffffffffff16815250508152602001600a8201548152602001600b82018054610c4b90614cf9565b80601f0160208091040260200160405190810160405280929190818152602001828054610c7790614cf9565b8015610cc45780601f10610c9957610100808354040283529160200191610cc4565b820191906000526020600020905b815481529060010190602001808311610ca757829003601f168201915b50505050508152602001600c82018054610cdd90614cf9565b80601f0160208091040260200160405190810160405280929190818152602001828054610d0990614cf9565b8015610d565780601f10610d2b57610100808354040283529160200191610d56565b820191906000526020600020905b815481529060010190602001808311610d3957829003601f168201915b505050505081525050815260200190600101906108a1565b50505050905090565b6000600660009054906101000a900473ffffffffffffffffffffffffffffffffffffffff1673ffffffffffffffffffffffffffffffffffffffff1686610120015173ffffffffffffffffffffffffffffffffffffffff161415610e0f576040517f08c379a0000000000000000000000000000000000000000000000000000000008152600401610e0690614d88565b60405180910390fd5b610e1d866101200151612c9e565b15610e5d576040517f08c379a0000000000000000000000000000000000000000000000000000000008152600401610e5490614df4565b60405180910390fd5b610e6b86610120015161391e565b15610eab576040517f08c379a0000000000000000000000000000000000000000000000000000000008152600401610ea290614e60565b60405180910390fd5b610eb88660200151613a04565b15610ef8576040517f08c379a0000000000000000000000000000000000000000000000000000000008152600401610eef90614e60565b60405180910390fd5b610f0185613abc565b15610f41576040517f08c379a0000000000000000000000000000000000000000000000000000000008152600401610f3890614e60565b60405180910390fd5b610f58866040015187606001518860800151613b71565b15610f98576040517f08c379a0000000000000000000000000000000000000000000000000000000008152600401610f8f90614e60565b60405180910390fd5b856003600088610120015173ffffffffffffffffffffffffffffffffffffffff1673ffffffffffffffffffffffffffffffffffffffff168152602001908152602001600020600001600082015181600001556020820151816001019080519060200190611006929190613efe565b506040820151816002019080519060200190611023929190613efe565b506060820151816003019080519060200190611040929190613efe565b50608082015181600401908051906020019061105d929190613efe565b5060a0820151816005015560c0820151816006015560e08201518160070155610100820151816008019080519060200190611099929190613efe565b506101208201518160090160006101000a81548173ffffffffffffffffffffffffffffffffffffffff021916908373ffffffffffffffffffffffffffffffffffffffff160217905550905050846003600088610120015173ffffffffffffffffffffffffffffffffffffffff1673ffffffffffffffffffffffffffffffffffffffff168152602001908152602001600020600b019080519060200190611140929190613efe565b50836003600088610120015173ffffffffffffffffffffffffffffffffffffffff1673ffffffffffffffffffffffffffffffffffffffff168152602001908152602001600020600c01908051906020019061119c929190613efe565b50826003600088610120015173ffffffffffffffffffffffffffffffffffffffff1673ffffffffffffffffffffffffffffffffffffffff168152602001908152602001600020600d0190805190602001906111f8929190613efe565b50816003600088610120015173ffffffffffffffffffffffffffffffffffffffff1673ffffffffffffffffffffffffffffffffffffffff168152602001908152602001600020600e019080519060200190611254929190613efe565b5060048661012001519080600181540180825580915050600190039060005260206000200160009091909190916101000a81548173ffffffffffffffffffffffffffffffffffffffff021916908373ffffffffffffffffffffffffffffffffffffffff16021790555060016004805490506112cf9190614eaf565b6003600088610120015173ffffffffffffffffffffffffffffffffffffffff1673ffffffffffffffffffffffffffffffffffffffff168152602001908152602001600020600a018190555060056040518060c00160405280888152602001600360008a610120015173ffffffffffffffffffffffffffffffffffffffff1673ffffffffffffffffffffffffffffffffffffffff168152602001908152602001600020600a015481526020018781526020018681526020018581526020018481525090806001815401808255809150506001900390600052602060002090600f02016000909190919091506000820151816000016000820151816000015560208201518160010190805190602001906113e8929190613efe565b506040820151816002019080519060200190611405929190613efe565b506060820151816003019080519060200190611422929190613efe565b50608082015181600401908051906020019061143f929190613efe565b5060a0820151816005015560c0820151816006015560e0820151816007015561010082015181600801908051906020019061147b929190613efe565b506101208201518160090160006101000a81548173ffffffffffffffffffffffffffffffffffffffff021916908373ffffffffffffffffffffffffffffffffffffffff1602179055505050602082015181600a0155604082015181600b0190805190602001906114ec929190613efe565b50606082015181600c019080519060200190611509929190613efe565b50608082015181600d019080519060200190611526929190613efe565b5060a082015181600e019080519060200190611543929190613efe565b5050507f4db6e23c9180f00d3bd12eb5b2f0f3c130233228707379a46800aa5d67b0c0ab868686868660405161157d959493929190615012565b60405180910390a160016004805490506115979190614eaf565b905095945050505050565b6000600660009054906101000a900473ffffffffffffffffffffffffffffffffffffffff1673ffffffffffffffffffffffffffffffffffffffff1684610120015173ffffffffffffffffffffffffffffffffffffffff16141561163a576040517f08c379a000000000000000000000000000000000000000000000000000000000815260040161163190614d88565b60405180910390fd5b61164884610120015161391e565b15611688576040517f08c379a000000000000000000000000000000000000000000000000000000000815260040161167f906150d4565b60405180910390fd5b611696846101200151612c9e565b156116d6576040517f08c379a00000000000000000000000000000000000000000000000000000000081526004016116cd90615140565b60405180910390fd5b6116e38460200151613c81565b15611723576040517f08c379a000000000000000000000000000000000000000000000000000000000815260040161171a90615140565b60405180910390fd5b61172c83613d39565b1561176c576040517f08c379a000000000000000000000000000000000000000000000000000000000815260040161176390615140565b60405180910390fd5b611783846040015185606001518660800151613dee565b156117c3576040517f08c379a00000000000000000000000000000000000000000000000000000000081526004016117ba90615140565b60405180910390fd5b8360008086610120015173ffffffffffffffffffffffffffffffffffffffff1673ffffffffffffffffffffffffffffffffffffffff168152602001908152602001600020600001600082015181600001556020820151816001019080519060200190611830929190613efe565b50604082015181600201908051906020019061184d929190613efe565b50606082015181600301908051906020019061186a929190613efe565b506080820151816004019080519060200190611887929190613efe565b5060a0820151816005015560c0820151816006015560e082015181600701556101008201518160080190805190602001906118c3929190613efe565b506101208201518160090160006101000a81548173ffffffffffffffffffffffffffffffffffffffff021916908373ffffffffffffffffffffffffffffffffffffffff1602179055509050508260008086610120015173ffffffffffffffffffffffffffffffffffffffff1673ffffffffffffffffffffffffffffffffffffffff168152602001908152602001600020600b019080519060200190611969929190613efe565b508160008086610120015173ffffffffffffffffffffffffffffffffffffffff1673ffffffffffffffffffffffffffffffffffffffff168152602001908152602001600020600c0190805190602001906119c4929190613efe565b5060018461012001519080600181540180825580915050600190039060005260206000200160009091909190916101000a81548173ffffffffffffffffffffffffffffffffffffffff021916908373ffffffffffffffffffffffffffffffffffffffff16021790555060018080549050611a3e9190614eaf565b60008086610120015173ffffffffffffffffffffffffffffffffffffffff1673ffffffffffffffffffffffffffffffffffffffff168152602001908152602001600020600a01819055506002604051806080016040528086815260200160008088610120015173ffffffffffffffffffffffffffffffffffffffff1673ffffffffffffffffffffffffffffffffffffffff168152602001908152602001600020600a015481526020018581526020018481525090806001815401808255809150506001900390600052602060002090600d0201600090919091909150600082015181600001600082015181600001556020820151816001019080519060200190611b49929190613efe565b506040820151816002019080519060200190611b66929190613efe565b506060820151816003019080519060200190611b83929190613efe565b506080820151816004019080519060200190611ba0929190613efe565b5060a0820151816005015560c0820151816006015560e08201518160070155610100820151816008019080519060200190611bdc929190613efe565b506101208201518160090160006101000a81548173ffffffffffffffffffffffffffffffffffffffff021916908373ffffffffffffffffffffffffffffffffffffffff1602179055505050602082015181600a0155604082015181600b019080519060200190611c4d929190613efe565b50606082015181600c019080519060200190611c6a929190613efe565b5050507fcaac06aaf1d995e52194c01906830f3f20c76b59cbfb7b354fbd591dcfe47796848484604051611ca093929190615160565b60405180910390a160018080549050611cb99190614eaf565b90509392505050565b6000611ccd8261391e565b611d0c576040517f08c379a0000000000000000000000000000000000000000000000000000000008152600401611d03906151f8565b60405180910390fd5b60046001600480549050611d209190614eaf565b81548110611d3157611d30615218565b5b9060005260206000200160009054906101000a900473ffffffffffffffffffffffffffffffffffffffff166004600360008573ffffffffffffffffffffffffffffffffffffffff1673ffffffffffffffffffffffffffffffffffffffff168152602001908152602001600020600a015481548110611db257611db1615218565b5b9060005260206000200160006101000a81548173ffffffffffffffffffffffffffffffffffffffff021916908373ffffffffffffffffffffffffffffffffffffffff160217905550600360008373ffffffffffffffffffffffffffffffffffffffff1673ffffffffffffffffffffffffffffffffffffffff168152602001908152602001600020600a01546003600060046001600480549050611e559190614eaf565b81548110611e6657611e65615218565b5b9060005260206000200160009054906101000a900473ffffffffffffffffffffffffffffffffffffffff1673ffffffffffffffffffffffffffffffffffffffff1673ffffffffffffffffffffffffffffffffffffffff168152602001908152602001600020600a018190555060056001600580549050611ee69190614eaf565b81548110611ef757611ef6615218565b5b90600052602060002090600f02016005600360008573ffffffffffffffffffffffffffffffffffffffff1673ffffffffffffffffffffffffffffffffffffffff168152602001908152602001600020600a015481548110611f5b57611f5a615218565b5b90600052602060002090600f02016000820181600001600082015481600001556001820181600101908054611f8f90614cf9565b611f9a929190613f84565b506002820181600201908054611faf90614cf9565b611fba929190613f84565b506003820181600301908054611fcf90614cf9565b611fda929190613f84565b506004820181600401908054611fef90614cf9565b611ffa929190613f84565b50600582015481600501556006820154816006015560078201548160070155600882018160080190805461202d90614cf9565b612038929190613f84565b506009820160009054906101000a900473ffffffffffffffffffffffffffffffffffffffff168160090160006101000a81548173ffffffffffffffffffffffffffffffffffffffff021916908373ffffffffffffffffffffffffffffffffffffffff1602179055505050600a82015481600a0155600b820181600b019080546120c090614cf9565b6120cb929190613f84565b50600c820181600c019080546120e090614cf9565b6120eb929190613f84565b50600d820181600d0190805461210090614cf9565b61210b929190613f84565b50600e820181600e0190805461212090614cf9565b61212b929190613f84565b50905050600360008373ffffffffffffffffffffffffffffffffffffffff1673ffffffffffffffffffffffffffffffffffffffff168152602001908152602001600020600a01546005600360008573ffffffffffffffffffffffffffffffffffffffff1673ffffffffffffffffffffffffffffffffffffffff168152602001908152602001600020600a0154815481106121c8576121c7615218565b5b90600052602060002090600f0201600a018190555060058054806121ef576121ee615247565b5b60019003818190600052602060002090600f020160008082016000808201600090556001820160006122219190614011565b6002820160006122319190614011565b6003820160006122419190614011565b6004820160006122519190614011565b6005820160009055600682016000905560078201600090556008820160006122799190614011565b6009820160006101000a81549073ffffffffffffffffffffffffffffffffffffffff02191690555050600a820160009055600b820160006122ba9190614011565b600c820160006122ca9190614011565b600d820160006122da9190614011565b600e820160006122ea9190614011565b505090556004805480612300576122ff615247565b5b6001900381819060005260206000200160006101000a81549073ffffffffffffffffffffffffffffffffffffffff02191690559055600360008373ffffffffffffffffffffffffffffffffffffffff1673ffffffffffffffffffffffffffffffffffffffff16815260200190815260200160002060008082016000808201600090556001820160006123929190614011565b6002820160006123a29190614011565b6003820160006123b29190614011565b6004820160006123c29190614011565b6005820160009055600682016000905560078201600090556008820160006123ea9190614011565b6009820160006101000a81549073ffffffffffffffffffffffffffffffffffffffff02191690555050600a820160009055600b8201600061242b9190614011565b600c8201600061243b9190614011565b600d8201600061244b9190614011565b600e8201600061245b9190614011565b50508173ffffffffffffffffffffffffffffffffffffffff167f2bd8a8e84d8bfb37ad6a2180ee9e45fcb8c8327db02c37b5a1baaeed5bf559d9600360008573ffffffffffffffffffffffffffffffffffffffff1673ffffffffffffffffffffffffffffffffffffffff168152602001908152602001600020600a01546040516124e59190614a4b565b60405180910390a260019050919050565b600061250182612c9e565b612540576040517f08c379a0000000000000000000000000000000000000000000000000000000008152600401612537906152c2565b60405180910390fd5b60018080805490506125529190614eaf565b8154811061256357612562615218565b5b9060005260206000200160009054906101000a900473ffffffffffffffffffffffffffffffffffffffff1660016000808573ffffffffffffffffffffffffffffffffffffffff1673ffffffffffffffffffffffffffffffffffffffff168152602001908152602001600020600a0154815481106125e3576125e2615218565b5b9060005260206000200160006101000a81548173ffffffffffffffffffffffffffffffffffffffff021916908373ffffffffffffffffffffffffffffffffffffffff1602179055506000808373ffffffffffffffffffffffffffffffffffffffff1673ffffffffffffffffffffffffffffffffffffffff168152602001908152602001600020600a015460008060018080805490506126829190614eaf565b8154811061269357612692615218565b5b9060005260206000200160009054906101000a900473ffffffffffffffffffffffffffffffffffffffff1673ffffffffffffffffffffffffffffffffffffffff1673ffffffffffffffffffffffffffffffffffffffff168152602001908152602001600020600a0181905550600260016002805490506127139190614eaf565b8154811061272457612723615218565b5b90600052602060002090600d020160026000808573ffffffffffffffffffffffffffffffffffffffff1673ffffffffffffffffffffffffffffffffffffffff168152602001908152602001600020600a01548154811061278757612786615218565b5b90600052602060002090600d020160008201816000016000820154816000015560018201816001019080546127bb90614cf9565b6127c6929190613f84565b5060028201816002019080546127db90614cf9565b6127e6929190613f84565b5060038201816003019080546127fb90614cf9565b612806929190613f84565b50600482018160040190805461281b90614cf9565b612826929190613f84565b50600582015481600501556006820154816006015560078201548160070155600882018160080190805461285990614cf9565b612864929190613f84565b506009820160009054906101000a900473ffffffffffffffffffffffffffffffffffffffff168160090160006101000a81548173ffffffffffffffffffffffffffffffffffffffff021916908373ffffffffffffffffffffffffffffffffffffffff1602179055505050600a82015481600a0155600b820181600b019080546128ec90614cf9565b6128f7929190613f84565b50600c820181600c0190805461290c90614cf9565b612917929190613f84565b509050506000808373ffffffffffffffffffffffffffffffffffffffff1673ffffffffffffffffffffffffffffffffffffffff168152602001908152602001600020600a015460026000808573ffffffffffffffffffffffffffffffffffffffff1673ffffffffffffffffffffffffffffffffffffffff168152602001908152602001600020600a0154815481106129b2576129b1615218565b5b90600052602060002090600d0201600a018190555060028054806129d9576129d8615247565b5b60019003818190600052602060002090600d02016000808201600080820160009055600182016000612a0b9190614011565b600282016000612a1b9190614011565b600382016000612a2b9190614011565b600482016000612a3b9190614011565b600582016000905560068201600090556007820160009055600882016000612a639190614011565b6009820160006101000a81549073ffffffffffffffffffffffffffffffffffffffff02191690555050600a820160009055600b82016000612aa49190614011565b600c82016000612ab49190614011565b505090556001805480612aca57612ac9615247565b5b6001900381819060005260206000200160006101000a81549073ffffffffffffffffffffffffffffffffffffffff021916905590556000808373ffffffffffffffffffffffffffffffffffffffff1673ffffffffffffffffffffffffffffffffffffffff1681526020019081526020016000206000808201600080820160009055600182016000612b5b9190614011565b600282016000612b6b9190614011565b600382016000612b7b9190614011565b600482016000612b8b9190614011565b600582016000905560068201600090556007820160009055600882016000612bb39190614011565b6009820160006101000a81549073ffffffffffffffffffffffffffffffffffffffff02191690555050600a820160009055600b82016000612bf49190614011565b600c82016000612c049190614011565b50508173ffffffffffffffffffffffffffffffffffffffff167f6022a81f5fdb172bcc1728d681f14da036857b10ed770b53b03cb65bbb99bb486000808573ffffffffffffffffffffffffffffffffffffffff1673ffffffffffffffffffffffffffffffffffffffff168152602001908152602001600020600a0154604051612c8d9190614a4b565b60405180910390a260019050919050565b6000806001805490501415612cb65760009050612d7e565b60006004805490501415612ccd5760009050612d7e565b8173ffffffffffffffffffffffffffffffffffffffff1660016000808573ffffffffffffffffffffffffffffffffffffffff1673ffffffffffffffffffffffffffffffffffffffff168152602001908152602001600020600a015481548110612d3957612d38615218565b5b9060005260206000200160009054906101000a900473ffffffffffffffffffffffffffffffffffffffff1673ffffffffffffffffffffffffffffffffffffffff161490505b919050565b612d8b614051565b612d948261391e565b612dd3576040517f08c379a0000000000000000000000000000000000000000000000000000000008152600401612dca906151f8565b60405180910390fd5b600360008373ffffffffffffffffffffffffffffffffffffffff1673ffffffffffffffffffffffffffffffffffffffff1681526020019081526020016000206040518060c0016040529081600082016040518061014001604052908160008201548152602001600182018054612e4890614cf9565b80601f0160208091040260200160405190810160405280929190818152602001828054612e7490614cf9565b8015612ec15780601f10612e9657610100808354040283529160200191612ec1565b820191906000526020600020905b815481529060010190602001808311612ea457829003601f168201915b50505050508152602001600282018054612eda90614cf9565b80601f0160208091040260200160405190810160405280929190818152602001828054612f0690614cf9565b8015612f535780601f10612f2857610100808354040283529160200191612f53565b820191906000526020600020905b815481529060010190602001808311612f3657829003601f168201915b50505050508152602001600382018054612f6c90614cf9565b80601f0160208091040260200160405190810160405280929190818152602001828054612f9890614cf9565b8015612fe55780601f10612fba57610100808354040283529160200191612fe5565b820191906000526020600020905b815481529060010190602001808311612fc857829003601f168201915b50505050508152602001600482018054612ffe90614cf9565b80601f016020809104026020016040519081016040528092919081815260200182805461302a90614cf9565b80156130775780601f1061304c57610100808354040283529160200191613077565b820191906000526020600020905b81548152906001019060200180831161305a57829003601f168201915b505050505081526020016005820154815260200160068201548152602001600782015481526020016008820180546130ae90614cf9565b80601f01602080910402602001604051908101604052809291908181526020018280546130da90614cf9565b80156131275780601f106130fc57610100808354040283529160200191613127565b820191906000526020600020905b81548152906001019060200180831161310a57829003601f168201915b505050505081526020016009820160009054906101000a900473ffffffffffffffffffffffffffffffffffffffff1673ffffffffffffffffffffffffffffffffffffffff1673ffffffffffffffffffffffffffffffffffffffff16815250508152602001600a8201548152602001600b820180546131a490614cf9565b80601f01602080910402602001604051908101604052809291908181526020018280546131d090614cf9565b801561321d5780601f106131f25761010080835404028352916020019161321d565b820191906000526020600020905b81548152906001019060200180831161320057829003601f168201915b50505050508152602001600c8201805461323690614cf9565b80601f016020809104026020016040519081016040528092919081815260200182805461326290614cf9565b80156132af5780601f10613284576101008083540402835291602001916132af565b820191906000526020600020905b81548152906001019060200180831161329257829003601f168201915b50505050508152602001600d820180546132c890614cf9565b80601f01602080910402602001604051908101604052809291908181526020018280546132f490614cf9565b80156133415780601f1061331657610100808354040283529160200191613341565b820191906000526020600020905b81548152906001019060200180831161332457829003601f168201915b50505050508152602001600e8201805461335a90614cf9565b80601f016020809104026020016040519081016040528092919081815260200182805461338690614cf9565b80156133d35780601f106133a8576101008083540402835291602001916133d3565b820191906000526020600020905b8154815290600101906020018083116133b657829003601f168201915b5050505050815250509050919050565b6133eb61408d565b6133f482612c9e565b613433576040517f08c379a000000000000000000000000000000000000000000000000000000000815260040161342a906152c2565b60405180910390fd5b6000808373ffffffffffffffffffffffffffffffffffffffff1673ffffffffffffffffffffffffffffffffffffffff1681526020019081526020016000206040518060800160405290816000820160405180610140016040529081600082015481526020016001820180546134a790614cf9565b80601f01602080910402602001604051908101604052809291908181526020018280546134d390614cf9565b80156135205780601f106134f557610100808354040283529160200191613520565b820191906000526020600020905b81548152906001019060200180831161350357829003601f168201915b5050505050815260200160028201805461353990614cf9565b80601f016020809104026020016040519081016040528092919081815260200182805461356590614cf9565b80156135b25780601f10613587576101008083540402835291602001916135b2565b820191906000526020600020905b81548152906001019060200180831161359557829003601f168201915b505050505081526020016003820180546135cb90614cf9565b80601f01602080910402602001604051908101604052809291908181526020018280546135f790614cf9565b80156136445780601f1061361957610100808354040283529160200191613644565b820191906000526020600020905b81548152906001019060200180831161362757829003601f168201915b5050505050815260200160048201805461365d90614cf9565b80601f016020809104026020016040519081016040528092919081815260200182805461368990614cf9565b80156136d65780601f106136ab576101008083540402835291602001916136d6565b820191906000526020600020905b8154815290600101906020018083116136b957829003601f168201915b5050505050815260200160058201548152602001600682015481526020016007820154815260200160088201805461370d90614cf9565b80601f016020809104026020016040519081016040528092919081815260200182805461373990614cf9565b80156137865780601f1061375b57610100808354040283529160200191613786565b820191906000526020600020905b81548152906001019060200180831161376957829003601f168201915b505050505081526020016009820160009054906101000a900473ffffffffffffffffffffffffffffffffffffffff1673ffffffffffffffffffffffffffffffffffffffff1673ffffffffffffffffffffffffffffffffffffffff16815250508152602001600a8201548152602001600b8201805461380390614cf9565b80601f016020809104026020016040519081016040528092919081815260200182805461382f90614cf9565b801561387c5780601f106138515761010080835404028352916020019161387c565b820191906000526020600020905b81548152906001019060200180831161385f57829003601f168201915b50505050508152602001600c8201805461389590614cf9565b80601f01602080910402602001604051908101604052809291908181526020018280546138c190614cf9565b801561390e5780601f106138e35761010080835404028352916020019161390e565b820191906000526020600020905b8154815290600101906020018083116138f157829003601f168201915b5050505050815250509050919050565b600080600480549050141561393657600090506139ff565b6000600180549050141561394d57600090506139ff565b8173ffffffffffffffffffffffffffffffffffffffff166004600360008573ffffffffffffffffffffffffffffffffffffffff1673ffffffffffffffffffffffffffffffffffffffff168152602001908152602001600020600a0154815481106139ba576139b9615218565b5b9060005260206000200160009054906101000a900473ffffffffffffffffffffffffffffffffffffffff1673ffffffffffffffffffffffffffffffffffffffff161490505b919050565b600080600090505b600580549050811015613ab15782604051602001613a2a919061531e565b6040516020818303038152906040528051906020012060058281548110613a5457613a53615218565b5b90600052602060002090600f0201600001600101604051602001613a7891906153c9565b604051602081830303815290604052805190602001201415613a9e576001915050613ab7565b8080613aa9906153e0565b915050613a0c565b50600090505b919050565b600080600090505b600580549050811015613b665782604051602001613ae2919061531e565b6040516020818303038152906040528051906020012060058281548110613b0c57613b0b615218565b5b90600052602060002090600f0201600b01604051602001613b2d91906153c9565b604051602081830303815290604052805190602001201415613b53576001915050613b6c565b8080613b5e906153e0565b915050613ac4565b50600090505b919050565b600080600090505b600580549050811015613c7457848484604051602001613b9b93929190615475565b6040516020818303038152906040528051906020012060058281548110613bc557613bc4615218565b5b90600052602060002090600f020160000160020160058381548110613bed57613bec615218565b5b90600052602060002090600f020160000160030160058481548110613c1557613c14615218565b5b90600052602060002090600f0201600001600401604051602001613c3b939291906154bc565b604051602081830303815290604052805190602001201415613c61576001915050613c7a565b8080613c6c906153e0565b915050613b79565b50600090505b9392505050565b600080600090505b600280549050811015613d2e5782604051602001613ca7919061531e565b6040516020818303038152906040528051906020012060028281548110613cd157613cd0615218565b5b90600052602060002090600d0201600001600101604051602001613cf591906153c9565b604051602081830303815290604052805190602001201415613d1b576001915050613d34565b8080613d26906153e0565b915050613c89565b50600090505b919050565b600080600090505b600280549050811015613de35782604051602001613d5f919061531e565b6040516020818303038152906040528051906020012060028281548110613d8957613d88615218565b5b90600052602060002090600d0201600b01604051602001613daa91906153c9565b604051602081830303815290604052805190602001201415613dd0576001915050613de9565b8080613ddb906153e0565b915050613d41565b50600090505b919050565b600080600090505b600280549050811015613ef157848484604051602001613e1893929190615475565b6040516020818303038152906040528051906020012060028281548110613e4257613e41615218565b5b90600052602060002090600d020160000160020160028381548110613e6a57613e69615218565b5b90600052602060002090600d020160000160030160028481548110613e9257613e91615218565b5b90600052602060002090600d0201600001600401604051602001613eb8939291906154bc565b604051602081830303815290604052805190602001201415613ede576001915050613ef7565b8080613ee9906153e0565b915050613df6565b50600090505b9392505050565b828054613f0a90614cf9565b90600052602060002090601f016020900481019282613f2c5760008555613f73565b82601f10613f4557805160ff1916838001178555613f73565b82800160010185558215613f73579182015b82811115613f72578251825591602001919060010190613f57565b5b509050613f8091906140bb565b5090565b828054613f9090614cf9565b90600052602060002090601f016020900481019282613fb25760008555614000565b82601f10613fc35780548555614000565b8280016001018555821561400057600052602060002091601f016020900482015b82811115613fff578254825591600101919060010190613fe4565b5b50905061400d91906140bb565b5090565b50805461401d90614cf9565b6000825580601f1061402f575061404e565b601f01602090049060005260206000209081019061404d91906140bb565b5b50565b6040518060c001604052806140646140d8565b815260200160008152602001606081526020016060815260200160608152602001606081525090565b60405180608001604052806140a06140d8565b81526020016000815260200160608152602001606081525090565b5b808211156140d45760008160009055506001016140bc565b5090565b604051806101400160405280600081526020016060815260200160608152602001606081526020016060815260200160008152602001600081526020016000815260200160608152602001600073ffffffffffffffffffffffffffffffffffffffff1681525090565b600081519050919050565b600082825260208201905092915050565b6000819050602082019050919050565b6000819050919050565b6141808161416d565b82525050565b600081519050919050565b600082825260208201905092915050565b60005b838110156141c05780820151818401526020810190506141a5565b838111156141cf576000848401525b50505050565b6000601f19601f8301169050919050565b60006141f182614186565b6141fb8185614191565b935061420b8185602086016141a2565b614214816141d5565b840191505092915050565b600073ffffffffffffffffffffffffffffffffffffffff82169050919050565b600061424a8261421f565b9050919050565b61425a8161423f565b82525050565b6000610140830160008301516142796000860182614177565b506020830151848203602086015261429182826141e6565b915050604083015184820360408601526142ab82826141e6565b915050606083015184820360608601526142c582826141e6565b915050608083015184820360808601526142df82826141e6565b91505060a08301516142f460a0860182614177565b5060c083015161430760c0860182614177565b5060e083015161431a60e0860182614177565b5061010083015184820361010086015261433482826141e6565b91505061012083015161434b610120860182614251565b508091505092915050565b600060c08301600083015184820360008601526143738282614260565b91505060208301516143886020860182614177565b50604083015184820360408601526143a082826141e6565b915050606083015184820360608601526143ba82826141e6565b915050608083015184820360808601526143d482826141e6565b91505060a083015184820360a08601526143ee82826141e6565b9150508091505092915050565b60006144078383614356565b905092915050565b6000602082019050919050565b600061442782614141565b614431818561414c565b9350836020820285016144438561415d565b8060005b8581101561447f578484038952815161446085826143fb565b945061446b8361440f565b925060208a01995050600181019050614447565b50829750879550505050505092915050565b600060208201905081810360008301526144ab818461441c565b905092915050565b600081519050919050565b600082825260208201905092915050565b6000819050602082019050919050565b600060808301600083015184820360008601526144fc8282614260565b91505060208301516145116020860182614177565b506040830151848203604086015261452982826141e6565b9150506060830151848203606086015261454382826141e6565b9150508091505092915050565b600061455c83836144df565b905092915050565b6000602082019050919050565b600061457c826144b3565b61458681856144be565b935083602082028501614598856144cf565b8060005b858110156145d457848403895281516145b58582614550565b94506145c083614564565b925060208a0199505060018101905061459c565b50829750879550505050505092915050565b600060208201905081810360008301526146008184614571565b905092915050565b6000604051905090565b600080fd5b600080fd5b600080fd5b7f4e487b7100000000000000000000000000000000000000000000000000000000600052604160045260246000fd5b614659826141d5565b810181811067ffffffffffffffff8211171561467857614677614621565b5b80604052505050565b600061468b614608565b90506146978282614650565b919050565b600080fd5b6146aa8161416d565b81146146b557600080fd5b50565b6000813590506146c7816146a1565b92915050565b600080fd5b600080fd5b600067ffffffffffffffff8211156146f2576146f1614621565b5b6146fb826141d5565b9050602081019050919050565b82818337600083830152505050565b600061472a614725846146d7565b614681565b905082815260208101848484011115614746576147456146d2565b5b614751848285614708565b509392505050565b600082601f83011261476e5761476d6146cd565b5b813561477e848260208601614717565b91505092915050565b6147908161423f565b811461479b57600080fd5b50565b6000813590506147ad81614787565b92915050565b600061014082840312156147ca576147c961461c565b5b6147d5610140614681565b905060006147e5848285016146b8565b600083015250602082013567ffffffffffffffff8111156148095761480861469c565b5b61481584828501614759565b602083015250604082013567ffffffffffffffff8111156148395761483861469c565b5b61484584828501614759565b604083015250606082013567ffffffffffffffff8111156148695761486861469c565b5b61487584828501614759565b606083015250608082013567ffffffffffffffff8111156148995761489861469c565b5b6148a584828501614759565b60808301525060a06148b9848285016146b8565b60a08301525060c06148cd848285016146b8565b60c08301525060e06148e1848285016146b8565b60e08301525061010082013567ffffffffffffffff8111156149065761490561469c565b5b61491284828501614759565b610100830152506101206149288482850161479e565b6101208301525092915050565b600080600080600060a0868803121561495157614950614612565b5b600086013567ffffffffffffffff81111561496f5761496e614617565b5b61497b888289016147b3565b955050602086013567ffffffffffffffff81111561499c5761499b614617565b5b6149a888828901614759565b945050604086013567ffffffffffffffff8111156149c9576149c8614617565b5b6149d588828901614759565b935050606086013567ffffffffffffffff8111156149f6576149f5614617565b5b614a0288828901614759565b925050608086013567ffffffffffffffff811115614a2357614a22614617565b5b614a2f88828901614759565b9150509295509295909350565b614a458161416d565b82525050565b6000602082019050614a606000830184614a3c565b92915050565b600080600060608486031215614a7f57614a7e614612565b5b600084013567ffffffffffffffff811115614a9d57614a9c614617565b5b614aa9868287016147b3565b935050602084013567ffffffffffffffff811115614aca57614ac9614617565b5b614ad686828701614759565b925050604084013567ffffffffffffffff811115614af757614af6614617565b5b614b0386828701614759565b9150509250925092565b600060208284031215614b2357614b22614612565b5b6000614b318482850161479e565b91505092915050565b60008115159050919050565b614b4f81614b3a565b82525050565b6000602082019050614b6a6000830184614b46565b92915050565b600060c0830160008301518482036000860152614b8d8282614260565b9150506020830151614ba26020860182614177565b5060408301518482036040860152614bba82826141e6565b91505060608301518482036060860152614bd482826141e6565b91505060808301518482036080860152614bee82826141e6565b91505060a083015184820360a0860152614c0882826141e6565b9150508091505092915050565b60006020820190508181036000830152614c2f8184614b70565b905092915050565b60006080830160008301518482036000860152614c548282614260565b9150506020830151614c696020860182614177565b5060408301518482036040860152614c8182826141e6565b91505060608301518482036060860152614c9b82826141e6565b9150508091505092915050565b60006020820190508181036000830152614cc28184614c37565b905092915050565b7f4e487b7100000000000000000000000000000000000000000000000000000000600052602260045260246000fd5b60006002820490506001821680614d1157607f821691505b60208210811415614d2557614d24614cca565b5b50919050565b600082825260208201905092915050565b7f5065726d697373696f6e2044656e696564000000000000000000000000000000600082015250565b6000614d72601183614d2b565b9150614d7d82614d3c565b602082019050919050565b60006020820190508181036000830152614da181614d65565b9050919050565b7f5573657220416c7265616479206120566f746572000000000000000000000000600082015250565b6000614dde601483614d2b565b9150614de982614da8565b602082019050919050565b60006020820190508181036000830152614e0d81614dd1565b9050919050565b7f43616e64696461746520416c7265616479204578697374730000000000000000600082015250565b6000614e4a601883614d2b565b9150614e5582614e14565b602082019050919050565b60006020820190508181036000830152614e7981614e3d565b9050919050565b7f4e487b7100000000000000000000000000000000000000000000000000000000600052601160045260246000fd5b6000614eba8261416d565b9150614ec58361416d565b925082821015614ed857614ed7614e80565b5b828203905092915050565b600061014083016000830151614efc6000860182614177565b5060208301518482036020860152614f1482826141e6565b91505060408301518482036040860152614f2e82826141e6565b91505060608301518482036060860152614f4882826141e6565b91505060808301518482036080860152614f6282826141e6565b91505060a0830151614f7760a0860182614177565b5060c0830151614f8a60c0860182614177565b5060e0830151614f9d60e0860182614177565b50610100830151848203610100860152614fb782826141e6565b915050610120830151614fce610120860182614251565b508091505092915050565b6000614fe482614186565b614fee8185614d2b565b9350614ffe8185602086016141a2565b615007816141d5565b840191505092915050565b600060a082019050818103600083015261502c8188614ee3565b905081810360208301526150408187614fd9565b905081810360408301526150548186614fd9565b905081810360608301526150688185614fd9565b9050818103608083015261507c8184614fd9565b90509695505050505050565b7f5573657220416c726561647920612043616e6469646174650000000000000000600082015250565b60006150be601883614d2b565b91506150c982615088565b602082019050919050565b600060208201905081810360008301526150ed816150b1565b9050919050565b7f566f74657220416c726561647920457869737473000000000000000000000000600082015250565b600061512a601483614d2b565b9150615135826150f4565b602082019050919050565b600060208201905081810360008301526151598161511d565b9050919050565b6000606082019050818103600083015261517a8186614ee3565b9050818103602083015261518e8185614fd9565b905081810360408301526151a28184614fd9565b9050949350505050565b7f43616e64696461746520446f6573206e6f742065786973740000000000000000600082015250565b60006151e2601883614d2b565b91506151ed826151ac565b602082019050919050565b60006020820190508181036000830152615211816151d5565b9050919050565b7f4e487b7100000000000000000000000000000000000000000000000000000000600052603260045260246000fd5b7f4e487b7100000000000000000000000000000000000000000000000000000000600052603160045260246000fd5b7f566f74657220446f6573206e6f74206578697374000000000000000000000000600082015250565b60006152ac601483614d2b565b91506152b782615276565b602082019050919050565b600060208201905081810360008301526152db8161529f565b9050919050565b600081905092915050565b60006152f882614186565b61530281856152e2565b93506153128185602086016141a2565b80840191505092915050565b600061532a82846152ed565b915081905092915050565b60008190508160005260206000209050919050565b6000815461535781614cf9565b61536181866152e2565b9450600182166000811461537c576001811461538d576153c0565b60ff198316865281860193506153c0565b61539685615335565b60005b838110156153b857815481890152600182019150602081019050615399565b838801955050505b50505092915050565b60006153d5828461534a565b915081905092915050565b60006153eb8261416d565b91507fffffffffffffffffffffffffffffffffffffffffffffffffffffffffffffffff82141561541e5761541d614e80565b5b600182019050919050565b7f2000000000000000000000000000000000000000000000000000000000000000600082015250565b600061545f6001836152e2565b915061546a82615429565b600182019050919050565b600061548182866152ed565b915061548c82615452565b915061549882856152ed565b91506154a382615452565b91506154af82846152ed565b9150819050949350505050565b60006154c8828661534a565b91506154d382615452565b91506154df828561534a565b91506154ea82615452565b91506154f6828461534a565b915081905094935050505056fea2646970667358221220ac9103fac6cf1bedd6e10a35a0d48222b2003ff48af281a2c75d276f5a8b1d4164736f6c634300080a0033",
  "immutableReferences": {},
  "source": "// SPDX-License-Identifier: MIT\r\npragma solidity ^0.8.9;\r\n\r\ncontract AAiTStudent {\r\n    struct UserStruct {\r\n        uint256 index;\r\n        string studentId;\r\n        string fName;\r\n        string lName;\r\n        string gName;\r\n        uint256 DOB;\r\n        uint256 currentYear;\r\n        uint256 currentSection;\r\n        string currentDepartment;\r\n        address userAddress;\r\n    }\r\n\r\n    struct VoterStruct {\r\n        UserStruct voterInfo;\r\n        uint256 vindex;\r\n        string voterEmail;\r\n        string voterPassword;\r\n    }\r\n\r\n    struct CandidateStruct {\r\n        UserStruct candidateInfo;\r\n        uint256 vindex;\r\n        string candidateEmail;\r\n        string candidatePassword;\r\n        string candidateBio;\r\n        string candidateProfilePicture;\r\n    }\r\n\r\n    mapping(address => VoterStruct) private voterStructsMapping;\r\n    address[] private voterIndex;\r\n    VoterStruct[] private voterValue;\r\n\r\n    event LogNewVoter(\r\n        UserStruct voterInfo,\r\n        string voterEmail,\r\n        string voterPassword\r\n    );\r\n    event LogUpdateVoter(\r\n        UserStruct voterInfo,\r\n        string voterEmail,\r\n        string voterPassword\r\n    );\r\n    event LogDeleteVoter(address indexed userAddress, uint256 index);\r\n\r\n    // mapping(address => UserStruct) private userStructsMapping;\r\n    // address[] private userIndex;\r\n    // UserStruct[] private userValue;\r\n\r\n    // event LogNewUser(\r\n    //     address indexed userAddress,\r\n    //     uint256 index,\r\n    //     string studentId,\r\n    //     string fName,\r\n    //     string lName,\r\n    //     string gName,\r\n    //     uint256 DOB,\r\n    //     uint256 currentYear,\r\n    //     uint256 currentSection,\r\n    //     string currentDepartment\r\n    // );\r\n    // event LogUpdateUser(\r\n    //     address indexed userAddress,\r\n    //     uint256 index,\r\n    //     string studentId,\r\n    //     string fName,\r\n    //     string lName,\r\n    //     string gName,\r\n    //     uint256 DOB,\r\n    //     uint256 currentYear,\r\n    //     uint256 currentSection,\r\n    //     string currentDepartment\r\n    // );\r\n    // event LogDeleteUser(address indexed userAddress, uint256 index);\r\n\r\n    mapping(address => CandidateStruct) private candidateStructsMapping;\r\n    address[] private candidateIndex;\r\n    CandidateStruct[] private candidateValue;\r\n\r\n    event LogNewCandidate(\r\n        UserStruct candidateInfo,\r\n        string candidateEmail,\r\n        string candidatePassword,\r\n        string candidateBio,\r\n        string candidateProfilePicture\r\n    );\r\n    event LogUpdateCandidate(\r\n        UserStruct candidateInfo,\r\n        string candidateEmail,\r\n        string candidatePassword,\r\n        string candidateBio,\r\n        string candidateProfilePicture\r\n    );\r\n    event LogDeleteCandidate(address indexed userAddress, uint256 index);\r\n\r\n    address private owner;\r\n\r\n    modifier onlyOwner() {\r\n        require(msg.sender == owner);\r\n        _;\r\n    }\r\n\r\n    constructor() {\r\n        owner = msg.sender;\r\n        // AAiTVoteTokenAddress = _AAiTVoteTokenAddress;\r\n    }\r\n\r\n    // function findUserByStudentId(string memory newStudentId)\r\n    //     internal\r\n    //     view\r\n    //     returns (bool)\r\n    // {\r\n    //     for (uint256 i = 0; i < userValue.length; i++) {\r\n    //         if (\r\n    //             keccak256(abi.encodePacked(userValue[i].studentId)) ==\r\n    //             keccak256(abi.encodePacked(newStudentId))\r\n    //         ) {\r\n    //             return true;\r\n    //         }\r\n    //     }\r\n    //     return false;\r\n    // }\r\n\r\n    // function findUserByFullName(\r\n    //     string memory newfName,\r\n    //     string memory newlName,\r\n    //     string memory newgName\r\n    // ) internal view returns (bool) {\r\n    //     for (uint256 i = 0; i < userValue.length; i++) {\r\n    //         if (\r\n    //             keccak256(\r\n    //                 abi.encodePacked(\r\n    //                     userValue[i].fName,\r\n    //                     \" \",\r\n    //                     userValue[i].lName,\r\n    //                     \" \",\r\n    //                     userValue[i].gName\r\n    //                 )\r\n    //             ) ==\r\n    //             keccak256(\r\n    //                 abi.encodePacked(newfName, \" \", newlName, \" \", newgName)\r\n    //             )\r\n    //         ) {\r\n    //             return true;\r\n    //         }\r\n    //     }\r\n    //     return false;\r\n    // }\r\n\r\n    // function isUser(address userAddress) internal view returns (bool) {\r\n    //     if (userIndex.length == 0) return false;\r\n    //     return (userIndex[userStructsMapping[userAddress].index] ==\r\n    //         userAddress);\r\n    // }\r\n\r\n    // function insertUser(\r\n    //     address userAddress,\r\n    //     string memory studentId,\r\n    //     string memory fName,\r\n    //     string memory lName,\r\n    //     string memory gName,\r\n    //     uint256 DOB,\r\n    //     uint256 currentYear,\r\n    //     uint256 currentSection,\r\n    //     string memory currentDepartment\r\n    // ) external returns (uint256 index) {\r\n    //     require(userAddress != owner, \"Permission Denied\");\r\n    //     require(!isUser(userAddress), \"User Already Exists\");\r\n    //     require(!findUserByStudentId(studentId), \"User Already Exists\");\r\n    //     require(\r\n    //         !findUserByFullName(fName, lName, gName),\r\n    //         \"User Already Exists\"\r\n    //     );\r\n\r\n    //     userStructsMapping[userAddress].studentId = studentId;\r\n    //     userStructsMapping[userAddress].fName = fName;\r\n    //     userStructsMapping[userAddress].lName = lName;\r\n    //     userStructsMapping[userAddress].gName = gName;\r\n    //     userStructsMapping[userAddress].DOB = DOB;\r\n    //     userStructsMapping[userAddress].currentYear = currentYear;\r\n    //     userStructsMapping[userAddress].currentSection = currentSection;\r\n    //     userStructsMapping[userAddress].currentDepartment = currentDepartment;\r\n    //     userStructsMapping[userAddress].userAddress = userAddress;\r\n    //     userIndex.push(userAddress);\r\n    //     userStructsMapping[userAddress].index = userIndex.length - 1;\r\n    //     userValue.push(\r\n    //         UserStruct(\r\n    //             userStructsMapping[userAddress].index,\r\n    //             studentId,\r\n    //             fName,\r\n    //             lName,\r\n    //             gName,\r\n    //             DOB,\r\n    //             currentYear,\r\n    //             currentSection,\r\n    //             currentDepartment,\r\n    //             userAddress\r\n    //         )\r\n    //     );\r\n    //     emit LogNewUser(\r\n    //         userAddress,\r\n    //         userStructsMapping[userAddress].index,\r\n    //         studentId,\r\n    //         fName,\r\n    //         lName,\r\n    //         gName,\r\n    //         DOB,\r\n    //         currentYear,\r\n    //         currentSection,\r\n    //         currentDepartment\r\n    //     );\r\n    //     return userIndex.length - 1;\r\n    // }\r\n\r\n    // function getUser(address userAddress)\r\n    //     external\r\n    //     view\r\n    //     returns (UserStruct memory)\r\n    // {\r\n    //     // if (!isUser(userAddress)) throw;\r\n    //     require(isUser(userAddress), \"User Does not exist\");\r\n\r\n    //     return (userStructsMapping[userAddress]);\r\n    // }\r\n\r\n    // function removeUser(address userAddress) external returns (bool success) {\r\n    //     require(isUser(userAddress), \"User Does not exist\");\r\n    //     // Candidate deployedCandidate = Candidate(candidateContractAddress);\r\n    //     // Voter deployedVoter = Voter(voterContractAddress);\r\n\r\n    //     if (isVoter(userAddress)) {\r\n    //         removeVoter(userAddress);\r\n    //     }\r\n    //     if (isCandidate(userAddress)) {\r\n    //         removeCandidate(userAddress);\r\n    //     }\r\n\r\n    //     userIndex[userStructsMapping[userAddress].index] = userIndex[userIndex.length - 1];\r\n    //     userStructsMapping[userIndex[userIndex.length - 1]].index = userStructsMapping[userAddress].index;\r\n\r\n    //     userValue[userStructsMapping[userAddress].index] = userValue[userValue.length - 1];\r\n    //     userValue[userStructsMapping[userAddress].index].index = userStructsMapping[userAddress].index;\r\n    //     userValue.pop();\r\n    //     userIndex.pop();\r\n    //     delete userStructsMapping[userAddress];\r\n    //     emit LogDeleteUser(userAddress, userStructsMapping[userAddress].index);\r\n\r\n    //     return true;\r\n    // }\r\n\r\n    // VOTER FUNCTIONS\r\n\r\n    function findVoterByStudentId(string memory newStudentId)\r\n        internal\r\n        view\r\n        returns (bool)\r\n    {\r\n        for (uint256 i = 0; i < voterValue.length; i++) {\r\n            if (\r\n                keccak256(\r\n                    abi.encodePacked(voterValue[i].voterInfo.studentId)\r\n                ) == keccak256(abi.encodePacked(newStudentId))\r\n            ) {\r\n                return true;\r\n            }\r\n        }\r\n        return false;\r\n        // return isIndeed;\r\n    }\r\n\r\n    function findVoterByEmail(string memory newEmail)\r\n        internal\r\n        view\r\n        returns (bool)\r\n    {\r\n        for (uint256 i = 0; i < voterValue.length; i++) {\r\n            if (\r\n                keccak256(abi.encodePacked(voterValue[i].voterEmail)) ==\r\n                keccak256(abi.encodePacked(newEmail))\r\n            ) {\r\n                return true;\r\n            }\r\n        }\r\n        return false;\r\n        // return isIndeed;\r\n    }\r\n\r\n    function findVoterByFullName(\r\n        string memory newfName,\r\n        string memory newlName,\r\n        string memory newgName\r\n    ) internal view returns (bool) {\r\n        for (uint256 i = 0; i < voterValue.length; i++) {\r\n            if (\r\n                keccak256(\r\n                    abi.encodePacked(\r\n                        voterValue[i].voterInfo.fName,\r\n                        \" \",\r\n                        voterValue[i].voterInfo.lName,\r\n                        \" \",\r\n                        voterValue[i].voterInfo.gName\r\n                    )\r\n                ) ==\r\n                keccak256(\r\n                    abi.encodePacked(newfName, \" \", newlName, \" \", newgName)\r\n                )\r\n            ) {\r\n                return true;\r\n            }\r\n        }\r\n        return false;\r\n    }\r\n\r\n    function isVoter(address userAddress) public view returns (bool) {\r\n        // UserStruct[] memory tempUsers = deployedUser.getAllUsers();\r\n        // require(isUser(userAddress), \"User Does not Exist\");\r\n\r\n        if (voterIndex.length == 0) return false;\r\n        if (candidateIndex.length == 0) return false;\r\n        return (voterIndex[voterStructsMapping[userAddress].vindex] ==\r\n            userAddress);\r\n    }\r\n\r\n    function insertVoter(\r\n        UserStruct memory voterInfo,\r\n        string memory email,\r\n        string memory password\r\n    ) public returns (uint256) {\r\n        // if (isUser(userAddress)) throw;\r\n        require(voterInfo.userAddress != owner, \"Permission Denied\");\r\n\r\n        require(!isCandidate(voterInfo.userAddress), \"User Already a Candidate\");\r\n        require(!isVoter(voterInfo.userAddress), \"Voter Already Exists\");\r\n        require(\r\n            !findVoterByStudentId(voterInfo.studentId),\r\n            \"Voter Already Exists\"\r\n        );\r\n        require(!findVoterByEmail(email), \"Voter Already Exists\");\r\n        require(\r\n            !findVoterByFullName(\r\n                voterInfo.fName,\r\n                voterInfo.lName,\r\n                voterInfo.gName\r\n            ),\r\n            \"Voter Already Exists\"\r\n        );\r\n\r\n        voterStructsMapping[voterInfo.userAddress].voterInfo = voterInfo;\r\n        voterStructsMapping[voterInfo.userAddress].voterEmail = email;\r\n        voterStructsMapping[voterInfo.userAddress].voterPassword = password;\r\n\r\n        voterIndex.push(voterInfo.userAddress);\r\n        voterStructsMapping[voterInfo.userAddress].vindex =\r\n            voterIndex.length -\r\n            1;\r\n        voterValue.push(\r\n            VoterStruct(\r\n                voterInfo,\r\n                voterStructsMapping[voterInfo.userAddress].vindex,\r\n                email,\r\n                password\r\n            )\r\n        );\r\n        emit LogNewVoter(voterInfo, email, password);\r\n        return voterIndex.length - 1;\r\n    }\r\n\r\n    function removeVoter(address userAddress) external returns (bool success) {\r\n        require(isVoter(userAddress), \"Voter Does not exist\");\r\n        // uint256 rowToDelete = voterStructsMapping[userAddress].vindex;\r\n        // address keyToMove = voterIndex[voterIndex.length - 1];\r\n        voterIndex[voterStructsMapping[userAddress].vindex] = voterIndex[\r\n            voterIndex.length - 1\r\n        ];\r\n        voterStructsMapping[voterIndex[voterIndex.length - 1]]\r\n            .vindex = voterStructsMapping[userAddress].vindex;\r\n\r\n        voterValue[voterStructsMapping[userAddress].vindex] = voterValue[\r\n            voterValue.length - 1\r\n        ];\r\n        voterValue[voterStructsMapping[userAddress].vindex]\r\n            .vindex = voterStructsMapping[userAddress].vindex;\r\n        voterValue.pop();\r\n        voterIndex.pop();\r\n        delete voterStructsMapping[userAddress];\r\n\r\n        emit LogDeleteVoter(\r\n            userAddress,\r\n            voterStructsMapping[userAddress].vindex\r\n        );\r\n\r\n        return true;\r\n    }\r\n\r\n    // CANDIDATE FUNCITONS\r\n\r\n    function findCandidateByStudentId(string memory newStudentId)\r\n        internal\r\n        view\r\n        returns (bool isIndeed)\r\n    {\r\n        // CandidateStruct[] memory temp = candidateValue;\r\n        for (uint256 i = 0; i < candidateValue.length; i++) {\r\n            if (\r\n                keccak256(\r\n                    abi.encodePacked(candidateValue[i].candidateInfo.studentId)\r\n                ) == keccak256(abi.encodePacked(newStudentId))\r\n            ) {\r\n                return true;\r\n            }\r\n        }\r\n        return false;\r\n        // return isIndeed;\r\n    }\r\n\r\n    function findCandidateByEmail(string memory newEmail)\r\n        internal\r\n        view\r\n        returns (bool isIndeed)\r\n    {\r\n        // CandidateStruct[] memory temp = candidateValue;\r\n        for (uint256 i = 0; i < candidateValue.length; i++) {\r\n            if (\r\n                keccak256(abi.encodePacked(candidateValue[i].candidateEmail)) ==\r\n                keccak256(abi.encodePacked(newEmail))\r\n            ) {\r\n                return true;\r\n            }\r\n        }\r\n        return false;\r\n        // return isIndeed;\r\n    }\r\n\r\n    function findCandidateByFullName(\r\n        string memory newfName,\r\n        string memory newlName,\r\n        string memory newgName\r\n    ) internal view returns (bool isIndeed) {\r\n        // CandidateStruct[] memory temp = candidateValue;\r\n        for (uint256 i = 0; i < candidateValue.length; i++) {\r\n            if (\r\n                keccak256(\r\n                    abi.encodePacked(\r\n                        candidateValue[i].candidateInfo.fName,\r\n                        \" \",\r\n                        candidateValue[i].candidateInfo.lName,\r\n                        \" \",\r\n                        candidateValue[i].candidateInfo.gName\r\n                    )\r\n                ) ==\r\n                keccak256(\r\n                    abi.encodePacked(newfName, \" \", newlName, \" \", newgName)\r\n                )\r\n            ) {\r\n                return true;\r\n            }\r\n        }\r\n        return false;\r\n    }\r\n\r\n    function isCandidate(address userAddress)\r\n        public\r\n        view\r\n        returns (bool isIndeed)\r\n    {\r\n        // UserStruct[] memory tempUsers = deployedUser.getAllUsers();\r\n        // require(isUser(userAddress), \"User Does not Exist\");\r\n        if (candidateIndex.length == 0) return false;\r\n\r\n        if (voterIndex.length == 0) return false;\r\n        // require(candidateIndex[candidateStructsMapping[userAddress].vindex] ==\r\n        //     userAddress,\"index out of bounds error over here\");\r\n        return (candidateIndex[candidateStructsMapping[userAddress].vindex] ==\r\n            userAddress);\r\n    }\r\n\r\n    function insertCandidate(\r\n        UserStruct memory candidateInfo,\r\n        string memory email,\r\n        string memory password,\r\n        string memory bio,\r\n        string memory profilePicture\r\n    ) public returns (uint256 index) {\r\n        // if (isUser(userAddress)) throw;\r\n        require(candidateInfo.userAddress != owner, \"Permission Denied\");\r\n\r\n        require(!isVoter(candidateInfo.userAddress), \"User Already a Voter\");\r\n        require(\r\n            !isCandidate(candidateInfo.userAddress),\r\n            \"Candidate Already Exists\"\r\n        );\r\n        require(\r\n            !findCandidateByStudentId(candidateInfo.studentId),\r\n            \"Candidate Already Exists\"\r\n        );\r\n        require(!findCandidateByEmail(email), \"Candidate Already Exists\");\r\n        require(\r\n            !findCandidateByFullName(\r\n                candidateInfo.fName,\r\n                candidateInfo.lName,\r\n                candidateInfo.gName\r\n            ),\r\n            \"Candidate Already Exists\"\r\n        );\r\n\r\n        candidateStructsMapping[candidateInfo.userAddress]\r\n            .candidateInfo = candidateInfo;\r\n        candidateStructsMapping[candidateInfo.userAddress]\r\n            .candidateEmail = email;\r\n        candidateStructsMapping[candidateInfo.userAddress]\r\n            .candidatePassword = password;\r\n        candidateStructsMapping[candidateInfo.userAddress].candidateBio = bio;\r\n        candidateStructsMapping[candidateInfo.userAddress]\r\n            .candidateProfilePicture = profilePicture;\r\n        // userStructsMapping[userAddress].gName = gName;\r\n        // userStructsMapping[userAddress].userAddress = userAddress;\r\n        candidateIndex.push(candidateInfo.userAddress);\r\n        candidateStructsMapping[candidateInfo.userAddress].vindex =\r\n            candidateIndex.length -\r\n            1;\r\n        candidateValue.push(\r\n            CandidateStruct(\r\n                candidateInfo,\r\n                candidateStructsMapping[candidateInfo.userAddress].vindex,\r\n                email,\r\n                password,\r\n                bio,\r\n                profilePicture\r\n            )\r\n        );\r\n        emit LogNewCandidate(\r\n            candidateInfo,\r\n            email,\r\n            password,\r\n            bio,\r\n            profilePicture\r\n        );\r\n        return candidateIndex.length - 1;\r\n    }\r\n\r\n    function removeCandidate(address userAddress)\r\n        public\r\n        returns (bool success)\r\n    {\r\n        require(isCandidate(userAddress), \"Candidate Does not exist\");\r\n        // uint256 rowToDelete = candidateStructsMapping[userAddress].vindex;\r\n        // address keyToMove = candidateIndex[candidateIndex.length - 1];\r\n        candidateIndex[\r\n            candidateStructsMapping[userAddress].vindex\r\n        ] = candidateIndex[candidateIndex.length - 1];\r\n        candidateStructsMapping[candidateIndex[candidateIndex.length - 1]]\r\n            .vindex = candidateStructsMapping[userAddress].vindex;\r\n\r\n        candidateValue[\r\n            candidateStructsMapping[userAddress].vindex\r\n        ] = candidateValue[candidateValue.length - 1];\r\n        candidateValue[candidateStructsMapping[userAddress].vindex]\r\n            .vindex = candidateStructsMapping[userAddress].vindex;\r\n        candidateValue.pop();\r\n        candidateIndex.pop();\r\n        delete candidateStructsMapping[userAddress];\r\n        emit LogDeleteCandidate(\r\n            userAddress,\r\n            candidateStructsMapping[userAddress].vindex\r\n        );\r\n\r\n        return true;\r\n    }\r\n\r\n    // function getAllUsers() public view returns (UserStruct[] memory) {\r\n    //     return userValue;\r\n    // }\r\n\r\n    function getVoter(address userAddress)\r\n        public\r\n        view\r\n        returns (VoterStruct memory)\r\n    {\r\n        // if (!isUser(userAddress)) throw;\r\n        require(isVoter(userAddress), \"Voter Does not exist\");\r\n\r\n        return (voterStructsMapping[userAddress]);\r\n    }\r\n\r\n    function getAllVoters() public view returns (VoterStruct[] memory) {\r\n        return voterValue;\r\n    }\r\n\r\n    function getCandidate(address userAddress)\r\n        public\r\n        view\r\n        returns (CandidateStruct memory)\r\n    {\r\n        // if (!isUser(userAddress)) throw;\r\n        require(isCandidate(userAddress), \"Candidate Does not exist\");\r\n\r\n        return (candidateStructsMapping[userAddress]);\r\n    }\r\n\r\n    function getAllCandidates() public view returns (CandidateStruct[] memory) {\r\n        return candidateValue;\r\n    }\r\n}\r\n",
  "sourcePath": "C:\\Users\\Kaleb\\Desktop\\blockchain_based_voting_system\\blockchain_based_voting_system\\dvbst_smart_contracts\\contracts\\AAiTStudent.sol",
  "compiler": {
    "name": "solc",
    "version": "0.8.10+commit.fc410830.Emscripten.clang"
  },
  "schemaVersion": "3.4.4",
  "updatedAt": "2022-05-11T22:57:54.725Z",
  "networkType": "ethereum",
  "devdoc": {
    "kind": "dev",
    "methods": {},
    "version": 1
  },
  "userdoc": {
    "kind": "user",
    "methods": {},
    "version": 1
  }
}