{
  "contractName": "AAiTElectionTimer",
  "abi": [
    {
      "inputs": [],
      "stateMutability": "nonpayable",
      "type": "constructor"
    },
    {
      "anonymous": false,
      "inputs": [
        {
          "indexed": false,
          "internalType": "string",
          "name": "currentPhase",
          "type": "string"
        }
      ],
      "name": "LogCurrentElectionPhase",
      "type": "event"
    },
    {
      "inputs": [],
      "name": "owner",
      "outputs": [
        {
          "internalType": "address",
          "name": "",
          "type": "address"
        }
      ],
      "stateMutability": "view",
      "type": "function",
      "constant": true
    },
    {
      "inputs": [],
      "name": "phase",
      "outputs": [
        {
          "internalType": "enum AAiTElectionTimer.PHASE_NAME",
          "name": "phaseName",
          "type": "uint8"
        },
        {
          "internalType": "uint256",
          "name": "start",
          "type": "uint256"
        },
        {
          "internalType": "uint256",
          "name": "end",
          "type": "uint256"
        }
      ],
      "stateMutability": "view",
      "type": "function",
      "constant": true
    },
    {
      "inputs": [
        {
          "internalType": "uint256",
          "name": "_votingDuration",
          "type": "uint256"
        },
        {
          "internalType": "uint256",
          "name": "_breakDuration",
          "type": "uint256"
        }
      ],
      "name": "startTimer",
      "outputs": [],
      "stateMutability": "nonpayable",
      "type": "function"
    },
    {
      "inputs": [],
      "name": "stopTimer",
      "outputs": [],
      "stateMutability": "nonpayable",
      "type": "function"
    },
    {
      "inputs": [],
      "name": "getRemainingTime",
      "outputs": [
        {
          "internalType": "uint256",
          "name": "",
          "type": "uint256"
        }
      ],
      "stateMutability": "view",
      "type": "function",
      "constant": true
    },
    {
      "inputs": [],
      "name": "getCurrentPhase",
      "outputs": [
        {
          "components": [
            {
              "internalType": "enum AAiTElectionTimer.PHASE_NAME",
              "name": "phaseName",
              "type": "uint8"
            },
            {
              "internalType": "uint256",
              "name": "start",
              "type": "uint256"
            },
            {
              "internalType": "uint256",
              "name": "end",
              "type": "uint256"
            }
          ],
          "internalType": "struct AAiTElectionTimer.ElectionPhase",
          "name": "",
          "type": "tuple"
        }
      ],
      "stateMutability": "view",
      "type": "function",
      "constant": true
    },
    {
      "inputs": [],
      "name": "checkCurrentPhase",
      "outputs": [],
      "stateMutability": "nonpayable",
      "type": "function"
    }
  ],
  "bytecode": "0x60a060405234801561001057600080fd5b503373ffffffffffffffffffffffffffffffffffffffff1660808173ffffffffffffffffffffffffffffffffffffffff16815250506040518060600160405280600680811115610063576100626100c2565b5b8152602001600081526020016000815250600360008201518160000160006101000a81548160ff021916908360068111156100a1576100a06100c2565b5b021790555060208201518160010155604082015181600201559050506100f1565b7f4e487b7100000000000000000000000000000000000000000000000000000000600052602160045260246000fd5b608051610fb2610121600039600081816106d80152818161078a0152818161085c01526109e90152610fb26000f3fe608060405234801561001057600080fd5b506004361061007d5760003560e01c8063b1c9fe6e1161005b578063b1c9fe6e146100c8578063d473eb2b146100e8578063d90199e9146100f2578063efb98bcf1461010e5761007d565b806363af57b0146100825780638da5cb5b1461008c578063a3a40ea5146100aa575b600080fd5b61008a61012c565b005b6100946106d6565b6040516100a19190610c37565b60405180910390f35b6100b26106fa565b6040516100bf9190610d24565b60405180910390f35b6100d0610763565b6040516100df93929190610d5d565b60405180910390f35b6100f0610788565b005b61010c60048036038101906101079190610dc5565b61085a565b005b610116610987565b6040516101239190610e05565b60405180910390f35b600060068111156101405761013f610c52565b5b600360000160009054906101000a900460ff16600681111561016557610164610c52565b5b1415610208576003600201544210610187576101826000546109e7565b6106d4565b6040518060600160405280600060068111156101a6576101a5610c52565b5b8152602001428152602001600360020154815250600360008201518160000160006101000a81548160ff021916908360068111156101e7576101e6610c52565b5b021790555060208201518160010155604082015181600201559050506106d3565b6001600681111561021c5761021b610c52565b5b600360000160009054906101000a900460ff16600681111561024157610240610c52565b5b14156102e45760036002015442106102635761025e6001546109e7565b6106d4565b60405180606001604052806001600681111561028257610281610c52565b5b8152602001428152602001600360020154815250600360008201518160000160006101000a81548160ff021916908360068111156102c3576102c2610c52565b5b021790555060208201518160010155604082015181600201559050506106d2565b600260068111156102f8576102f7610c52565b5b600360000160009054906101000a900460ff16600681111561031d5761031c610c52565b5b14156103c057600360020154421061033f5761033a6000546109e7565b6106d4565b60405180606001604052806002600681111561035e5761035d610c52565b5b8152602001428152602001600360020154815250600360008201518160000160006101000a81548160ff0219169083600681111561039f5761039e610c52565b5b021790555060208201518160010155604082015181600201559050506106d1565b600360068111156103d4576103d3610c52565b5b600360000160009054906101000a900460ff1660068111156103f9576103f8610c52565b5b141561049c57600360020154421061041b576104166001546109e7565b6106d4565b60405180606001604052806003600681111561043a57610439610c52565b5b8152602001428152602001600360020154815250600360008201518160000160006101000a81548160ff0219169083600681111561047b5761047a610c52565b5b021790555060208201518160010155604082015181600201559050506106d0565b600460068111156104b0576104af610c52565b5b600360000160009054906101000a900460ff1660068111156104d5576104d4610c52565b5b14156105785760036002015442106104f7576104f26000546109e7565b6106d4565b60405180606001604052806004600681111561051657610515610c52565b5b8152602001428152602001600360020154815250600360008201518160000160006101000a81548160ff0219169083600681111561055757610556610c52565b5b021790555060208201518160010155604082015181600201559050506106cf565b6005600681111561058c5761058b610c52565b5b600360000160009054906101000a900460ff1660068111156105b1576105b0610c52565b5b14156106515760036002015442106105d0576105cb610788565b6106d4565b6040518060600160405280600560068111156105ef576105ee610c52565b5b8152602001428152602001600360020154815250600360008201518160000160006101000a81548160ff021916908360068111156106305761062f610c52565b5b021790555060208201518160010155604082015181600201559050506106ce565b604051806060016040528060068081111561066f5761066e610c52565b5b8152602001600081526020016000815250600360008201518160000160006101000a81548160ff021916908360068111156106ad576106ac610c52565b5b021790555060208201518160010155604082015181600201559050506106d4565b5b5b5b5b5b5b565b7f000000000000000000000000000000000000000000000000000000000000000081565b610702610bc3565b60036040518060600160405290816000820160009054906101000a900460ff16600681111561073457610733610c52565b5b600681111561074657610745610c52565b5b815260200160018201548152602001600282015481525050905090565b60038060000160009054906101000a900460ff16908060010154908060020154905083565b7f000000000000000000000000000000000000000000000000000000000000000073ffffffffffffffffffffffffffffffffffffffff163373ffffffffffffffffffffffffffffffffffffffff16146107e057600080fd5b60405180606001604052806006808111156107fe576107fd610c52565b5b8152602001600081526020016000815250600360008201518160000160006101000a81548160ff0219169083600681111561083c5761083b610c52565b5b02179055506020820151816001015560408201518160020155905050565b7f000000000000000000000000000000000000000000000000000000000000000073ffffffffffffffffffffffffffffffffffffffff163373ffffffffffffffffffffffffffffffffffffffff16146108b257600080fd5b6006808111156108c5576108c4610c52565b5b600360000160009054906101000a900460ff1660068111156108ea576108e9610c52565b5b141561098357816000819055508060018190555060405180606001604052806000600681111561091d5761091c610c52565b5b8152602001428152602001600054426109369190610e4f565b815250600360008201518160000160006101000a81548160ff0219169083600681111561096657610965610c52565b5b021790555060208201518160010155604082015181600201559050505b5050565b600060068081111561099c5761099b610c52565b5b600360000160009054906101000a900460ff1660068111156109c1576109c0610c52565b5b14156109d057600090506109e4565b426003600201546109e19190610ea5565b90505b90565b7f000000000000000000000000000000000000000000000000000000000000000073ffffffffffffffffffffffffffffffffffffffff163373ffffffffffffffffffffffffffffffffffffffff1614610a75576040517f08c379a0000000000000000000000000000000000000000000000000000000008152600401610a6c90610f5c565b60405180910390fd5b60056006811115610a8957610a88610c52565b5b600360000160009054906101000a900460ff166006811115610aae57610aad610c52565b5b1415610b31576040518060600160405280600680811115610ad257610ad1610c52565b5b8152602001600081526020016000815250600360008201518160000160006101000a81548160ff02191690836006811115610b1057610b0f610c52565b5b02179055506020820151816001015560408201518160020155905050610bc0565b6001600360000160009054906101000a900460ff166006811115610b5857610b57610c52565b5b610b629190610e4f565b6006811115610b7457610b73610c52565b5b600360000160006101000a81548160ff02191690836006811115610b9b57610b9a610c52565b5b0217905550426003600101819055508042610bb69190610e4f565b6003600201819055505b50565b604051806060016040528060006006811115610be257610be1610c52565b5b815260200160008152602001600081525090565b600073ffffffffffffffffffffffffffffffffffffffff82169050919050565b6000610c2182610bf6565b9050919050565b610c3181610c16565b82525050565b6000602082019050610c4c6000830184610c28565b92915050565b7f4e487b7100000000000000000000000000000000000000000000000000000000600052602160045260246000fd5b60078110610c9257610c91610c52565b5b50565b6000819050610ca382610c81565b919050565b6000610cb382610c95565b9050919050565b610cc381610ca8565b82525050565b6000819050919050565b610cdc81610cc9565b82525050565b606082016000820151610cf86000850182610cba565b506020820151610d0b6020850182610cd3565b506040820151610d1e6040850182610cd3565b50505050565b6000606082019050610d396000830184610ce2565b92915050565b610d4881610ca8565b82525050565b610d5781610cc9565b82525050565b6000606082019050610d726000830186610d3f565b610d7f6020830185610d4e565b610d8c6040830184610d4e565b949350505050565b600080fd5b610da281610cc9565b8114610dad57600080fd5b50565b600081359050610dbf81610d99565b92915050565b60008060408385031215610ddc57610ddb610d94565b5b6000610dea85828601610db0565b9250506020610dfb85828601610db0565b9150509250929050565b6000602082019050610e1a6000830184610d4e565b92915050565b7f4e487b7100000000000000000000000000000000000000000000000000000000600052601160045260246000fd5b6000610e5a82610cc9565b9150610e6583610cc9565b9250827fffffffffffffffffffffffffffffffffffffffffffffffffffffffffffffffff03821115610e9a57610e99610e20565b5b828201905092915050565b6000610eb082610cc9565b9150610ebb83610cc9565b925082821015610ece57610ecd610e20565b5b828203905092915050565b600082825260208201905092915050565b7f4f6e6c7920746865206f776e65722063616e206368616e67652074686520706860008201527f6173650000000000000000000000000000000000000000000000000000000000602082015250565b6000610f46602383610ed9565b9150610f5182610eea565b604082019050919050565b60006020820190508181036000830152610f7581610f39565b905091905056fea2646970667358221220494ab5c0335b182e87af285f3323869fbba201c028f8e697ac00d4feaa07049d64736f6c634300080a0033",
  "immutableReferences": {
    "7": [
      {
        "length": 32,
        "start": 1752
      },
      {
        "length": 32,
        "start": 1930
      },
      {
        "length": 32,
        "start": 2140
      },
      {
        "length": 32,
        "start": 2537
      }
    ]
  },
  "source": "// SPDX-License-Identifier: MIT\npragma solidity ^0.8.9;\n\ncontract AAiTElectionTimer {\n    uint256 private votingDuration;\n    uint256 private breakDuration;\n    address public immutable owner;\n    string private val;\n\n    enum PHASE_NAME {\n        REGISTRATION,\n        SECTION_ELECTION,\n        SECTION_ELECTION_BREAK,\n        BATCH_ELECTION,\n        BATCH_ELECTION_BREAK,\n        DEPARTMENT_ELECTION,\n        COMPLETED\n    }\n\n    struct ElectionPhase {\n        PHASE_NAME phaseName;\n        uint256 start;\n        uint256 end;\n    }\n\n    ElectionPhase public phase;\n\n    event LogCurrentElectionPhase(string currentPhase);\n\n    modifier onlyOwner() {\n        require(msg.sender == owner);\n        _;\n    }\n\n    constructor() {\n        owner = msg.sender;\n        phase = ElectionPhase(PHASE_NAME.COMPLETED, 0, 0);\n        // val = \"unos\";\n    }\n\n    // function changeVal(string memory _newVal) internal {\n    //     require(msg.sender == owner, \"Only the owner can change the value\");\n    //     val = _newVal;\n    //     // IERC20(token).transferFrom(msg.sender, address(this), amount);\n    // }\n\n    // function getPhaseEnd() public view returns (uint256) {\n    //     return end;\n    // }\n\n    function startTimer(uint256 _votingDuration, uint256 _breakDuration)\n        public\n        onlyOwner\n    {\n        if (phase.phaseName == PHASE_NAME.COMPLETED) {\n            votingDuration = _votingDuration;\n            breakDuration = _breakDuration;\n            phase = ElectionPhase(\n                PHASE_NAME.REGISTRATION,\n                block.timestamp,\n                block.timestamp + votingDuration\n            );\n        }\n    }\n\n    function stopTimer() public onlyOwner {\n        phase = ElectionPhase(PHASE_NAME.COMPLETED, 0, 0);\n    }\n\n    function changePhase(uint256 _newEnd) internal {\n        require(msg.sender == owner, \"Only the owner can change the phase\");\n\n        if (phase.phaseName == PHASE_NAME.DEPARTMENT_ELECTION) {\n            phase = ElectionPhase(PHASE_NAME.COMPLETED, 0, 0);\n            // changeVal(\"unos\");\n            return;\n        }\n        phase.phaseName = PHASE_NAME(uint256(phase.phaseName) + 1);\n        phase.start = block.timestamp;\n        phase.end = block.timestamp + _newEnd;\n    }\n\n    function getRemainingTime() external view returns (uint256) {\n        if (phase.phaseName == PHASE_NAME.COMPLETED) {\n            return 0;\n        }\n        return phase.end - block.timestamp;\n    }\n\n    // function getVal() public view returns (string memory) {\n    //     return val;\n    // }\n\n    // function getCurrentPhase()\n    //     internal\n    //     view\n    //     returns (string memory)\n    // {\n    //     if (phase.phaseName == PHASE_NAME.INITIAL) {\n    //         return \"ON INITIAL\";\n    //     } else if (phase.phaseName == PHASE_NAME.INITIAL_BREAK) {\n    //         return \"ON INITIAL_BREAK\";\n    //     } else if (phase.phaseName == PHASE_NAME.MIDDLE) {\n    //         return \"ON MIDDLE\";\n    //     } else if (phase.phaseName == PHASE_NAME.MIDDLE_BREAK) {\n    //         return \"ON MIDDLE_BREAK\";\n    //     } else if (phase.phaseName == PHASE_NAME.FINAL) {\n    //         return \"ON FINAL\";\n    //     }\n    //     return \"ON UNKNOWN\";\n    // }\n\n    function getCurrentPhase() public view returns (ElectionPhase memory) {\n        return phase;\n    }\n\n    function checkCurrentPhase() external {\n        // require(msg.sender == owner, \"only owner\");\n        if (phase.phaseName == PHASE_NAME.REGISTRATION) {\n            if (block.timestamp >= phase.end) {\n                changePhase(votingDuration);\n                return;\n                // return \"ON REGISTRATION\";\n                // return phase;\n            }\n            phase = ElectionPhase(\n                PHASE_NAME.REGISTRATION,\n                block.timestamp,\n                phase.end\n            );\n            // return \"SECTION ELECTION INITIATED\";\n            // return phase;\n\n            // changeVal(\"initial phase\");\n        } else if (phase.phaseName == PHASE_NAME.SECTION_ELECTION) {\n            if (block.timestamp >= phase.end) {\n                changePhase(breakDuration);\n                return;\n\n                // return \"ON SECTION_ELECTION\";\n                // return phase;\n            }\n            phase = ElectionPhase(\n                PHASE_NAME.SECTION_ELECTION,\n                block.timestamp,\n                phase.end\n            );\n            // return \"SECTION ELECTION DONE\";\n            // return phase;\n        } else if (phase.phaseName == PHASE_NAME.SECTION_ELECTION_BREAK) {\n            if (block.timestamp >= phase.end) {\n                changePhase(votingDuration);\n                return;\n\n                // return \"ON SECTION ELECTION BREAK\";\n                // return phase;\n            }\n            phase = ElectionPhase(\n                PHASE_NAME.SECTION_ELECTION_BREAK,\n                block.timestamp,\n                phase.end\n            );\n            // return \"BATCH ELECTION INITIATED\";\n            // return phase;\n\n            // changeVal(\"initial phase\");\n        } else if (phase.phaseName == PHASE_NAME.BATCH_ELECTION) {\n            if (block.timestamp >= phase.end) {\n                changePhase(breakDuration);\n                return;\n\n                // return \"ON BATCH ELECTION\";\n            }\n            phase = ElectionPhase(\n                PHASE_NAME.BATCH_ELECTION,\n                block.timestamp,\n                phase.end\n            );\n            // return phase;\n            // return \"BATCH ELECTION DONE\";\n        } else if (phase.phaseName == PHASE_NAME.BATCH_ELECTION_BREAK) {\n            if (block.timestamp >= phase.end) {\n                changePhase(votingDuration);\n                return;\n\n                // return phase;\n                // return \"ON BATCH ELECTION BREAK\";\n            }\n            phase = ElectionPhase(\n                PHASE_NAME.BATCH_ELECTION_BREAK,\n                block.timestamp,\n                phase.end\n            );\n            // return phase;\n            // return \"DEPARTMENT ELECTION INITIATED\";\n            // changeVal(\"initial phase\");\n        } else if (phase.phaseName == PHASE_NAME.DEPARTMENT_ELECTION) {\n            if (block.timestamp >= phase.end) {\n                stopTimer();\n                return;\n\n                // return phase;\n                // return \"ON DEPARTMENT ELECTION\";\n            }\n            phase = ElectionPhase(\n                PHASE_NAME.DEPARTMENT_ELECTION,\n                block.timestamp,\n                phase.end\n            );\n            // return phase;\n            // return \"DEPARTMENT ELECTION DONE\";\n        } else {\n            phase = ElectionPhase(PHASE_NAME.COMPLETED, 0, 0);\n            return;\n\n            // return \"UNKNOWN PHASE\";\n            // return phase;\n        }\n        // changeVal(\"to this\");\n        // if(token == address(0)) {\n        //   owner.transfer(amount);\n        // } else {\n        //   IERC20(token).transfer(owner, amount);\n        // }\n    }\n}\n",
  "sourcePath": "/home/dannyterefe/Documents/VSCode_Projects/Final_Project/blockchain_based_voting_system/dvbst_smart_contracts/contracts/AAiTElectionTimer.sol",
  "compiler": {
    "name": "solc",
    "version": "0.8.10+commit.fc410830.Emscripten.clang"
  },
  "schemaVersion": "3.4.4",
  "updatedAt": "2022-05-15T07:34:08.879Z",
  "networkType": "ethereum",
  "devdoc": {
    "kind": "dev",
    "methods": {},
    "version": 1
  },
  "userdoc": {
    "kind": "user",
    "methods": {},
    "version": 1
  }
}