{
  "contractName": "AAiTElectionHandler",
  "abi": [
    {
      "inputs": [
        {
          "internalType": "address",
          "name": "_AAiTVoteTokenAddress",
          "type": "address"
        },
        {
          "internalType": "address",
          "name": "_AAiTStudentAddress",
          "type": "address"
        },
        {
          "internalType": "address",
          "name": "_AAiTElectionTimerAddress",
          "type": "address"
        }
      ],
      "stateMutability": "nonpayable",
      "type": "constructor"
    },
    {
      "inputs": [],
      "name": "burnAllTokens",
      "outputs": [],
      "stateMutability": "nonpayable",
      "type": "function"
    },
    {
      "inputs": [],
      "name": "mintAndSendTokens",
      "outputs": [],
      "stateMutability": "nonpayable",
      "type": "function"
    }
  ],
  "bytecode": "0x60806040523480156200001157600080fd5b5060405162001265380380620012658339818101604052810190620000379190620001ad565b336000806101000a81548173ffffffffffffffffffffffffffffffffffffffff021916908373ffffffffffffffffffffffffffffffffffffffff16021790555082600160006101000a81548173ffffffffffffffffffffffffffffffffffffffff021916908373ffffffffffffffffffffffffffffffffffffffff16021790555081600260006101000a81548173ffffffffffffffffffffffffffffffffffffffff021916908373ffffffffffffffffffffffffffffffffffffffff16021790555080600360006101000a81548173ffffffffffffffffffffffffffffffffffffffff021916908373ffffffffffffffffffffffffffffffffffffffff16021790555050505062000209565b600080fd5b600073ffffffffffffffffffffffffffffffffffffffff82169050919050565b6000620001758262000148565b9050919050565b620001878162000168565b81146200019357600080fd5b50565b600081519050620001a7816200017c565b92915050565b600080600060608486031215620001c957620001c862000143565b5b6000620001d98682870162000196565b9350506020620001ec8682870162000196565b9250506040620001ff8682870162000196565b9150509250925092565b61104c80620002196000396000f3fe608060405234801561001057600080fd5b50600436106100365760003560e01c80637bc029671461003b578063c17e2aa114610045575b600080fd5b61004361004f565b005b61004d6102a3565b005b60008054906101000a900473ffffffffffffffffffffffffffffffffffffffff1673ffffffffffffffffffffffffffffffffffffffff163373ffffffffffffffffffffffffffffffffffffffff16146100a757600080fd5b6000600160009054906101000a900473ffffffffffffffffffffffffffffffffffffffff1690506000600260009054906101000a900473ffffffffffffffffffffffffffffffffffffffff16905060008173ffffffffffffffffffffffffffffffffffffffff166335bbe70e6040518163ffffffff1660e01b8152600401600060405180830381865afa158015610142573d6000803e3d6000fd5b505050506040513d6000823e3d601f19601f8201168201806040525081019061016b9190610b9d565b90506000815190508373ffffffffffffffffffffffffffffffffffffffff1663a0712d6883516040518263ffffffff1660e01b81526004016101ad9190610bf5565b600060405180830381600087803b1580156101c757600080fd5b505af11580156101db573d6000803e3d6000fd5b5050505060005b825181101561029c578473ffffffffffffffffffffffffffffffffffffffff1663a9059cbb84838151811061021a57610219610c10565b5b60200260200101516020015160016040518363ffffffff1660e01b8152600401610245929190610c93565b6020604051808303816000875af1158015610264573d6000803e3d6000fd5b505050506040513d601f19601f820116820180604052508101906102889190610cf4565b50808061029490610d50565b9150506101e2565b5050505050565b60008054906101000a900473ffffffffffffffffffffffffffffffffffffffff1673ffffffffffffffffffffffffffffffffffffffff163373ffffffffffffffffffffffffffffffffffffffff16146102fb57600080fd5b6000600160009054906101000a900473ffffffffffffffffffffffffffffffffffffffff1690506000600260009054906101000a900473ffffffffffffffffffffffffffffffffffffffff16905060008173ffffffffffffffffffffffffffffffffffffffff16632e6997fe6040518163ffffffff1660e01b8152600401600060405180830381865afa158015610396573d6000803e3d6000fd5b505050506040513d6000823e3d601f19601f820116820180604052508101906103bf9190610fb2565b905060008273ffffffffffffffffffffffffffffffffffffffff166335bbe70e6040518163ffffffff1660e01b8152600401600060405180830381865afa15801561040e573d6000803e3d6000fd5b505050506040513d6000823e3d601f19601f820116820180604052508101906104379190610b9d565b905060005b82518110156104e1578473ffffffffffffffffffffffffffffffffffffffff166389afcb4484838151811061047457610473610c10565b5b6020026020010151602001516040518263ffffffff1660e01b815260040161049c9190610ffb565b600060405180830381600087803b1580156104b657600080fd5b505af11580156104ca573d6000803e3d6000fd5b5050505080806104d990610d50565b91505061043c565b5060005b815181101561058a578473ffffffffffffffffffffffffffffffffffffffff166389afcb4483838151811061051d5761051c610c10565b5b6020026020010151602001516040518263ffffffff1660e01b81526004016105459190610ffb565b600060405180830381600087803b15801561055f57600080fd5b505af1158015610573573d6000803e3d6000fd5b50505050808061058290610d50565b9150506104e5565b508373ffffffffffffffffffffffffffffffffffffffff166389afcb4460008054906101000a900473ffffffffffffffffffffffffffffffffffffffff166040518263ffffffff1660e01b81526004016105e49190610ffb565b600060405180830381600087803b1580156105fe57600080fd5b505af1158015610612573d6000803e3d6000fd5b5050505050505050565b6000604051905090565b600080fd5b600080fd5b600080fd5b6000601f19601f8301169050919050565b7f4e487b7100000000000000000000000000000000000000000000000000000000600052604160045260246000fd5b61067e82610635565b810181811067ffffffffffffffff8211171561069d5761069c610646565b5b80604052505050565b60006106b061061c565b90506106bc8282610675565b919050565b600067ffffffffffffffff8211156106dc576106db610646565b5b602082029050602081019050919050565b600080fd5b600080fd5b600080fd5b6000819050919050565b61070f816106fc565b811461071a57600080fd5b50565b60008151905061072c81610706565b92915050565b600080fd5b600067ffffffffffffffff82111561075257610751610646565b5b61075b82610635565b9050602081019050919050565b60005b8381101561078657808201518184015260208101905061076b565b83811115610795576000848401525b50505050565b60006107ae6107a984610737565b6106a6565b9050828152602081018484840111156107ca576107c9610732565b5b6107d5848285610768565b509392505050565b600082601f8301126107f2576107f1610630565b5b815161080284826020860161079b565b91505092915050565b6002811061081857600080fd5b50565b60008151905061082a8161080b565b92915050565b60006101408284031215610847576108466106f2565b5b6108526101406106a6565b905060006108628482850161071d565b600083015250602082015167ffffffffffffffff811115610886576108856106f7565b5b610892848285016107dd565b602083015250604082015167ffffffffffffffff8111156108b6576108b56106f7565b5b6108c2848285016107dd565b604083015250606082015167ffffffffffffffff8111156108e6576108e56106f7565b5b6108f2848285016107dd565b606083015250608082015167ffffffffffffffff811115610916576109156106f7565b5b610922848285016107dd565b60808301525060a06109368482850161071d565b60a08301525060c061094a8482850161071d565b60c08301525060e061095e8482850161071d565b60e0830152506101006109738482850161081b565b6101008301525061012082015167ffffffffffffffff811115610999576109986106f7565b5b6109a5848285016107dd565b6101208301525092915050565b6000604082840312156109c8576109c76106f2565b5b6109d260406106a6565b9050600082015167ffffffffffffffff8111156109f2576109f16106f7565b5b6109fe84828501610830565b6000830152506020610a128482850161071d565b60208301525092915050565b600073ffffffffffffffffffffffffffffffffffffffff82169050919050565b6000610a4982610a1e565b9050919050565b610a5981610a3e565b8114610a6457600080fd5b50565b600081519050610a7681610a50565b92915050565b600060408284031215610a9257610a916106f2565b5b610a9c60406106a6565b9050600082015167ffffffffffffffff811115610abc57610abb6106f7565b5b610ac8848285016109b2565b6000830152506020610adc84828501610a67565b60208301525092915050565b6000610afb610af6846106c1565b6106a6565b90508083825260208201905060208402830185811115610b1e57610b1d6106ed565b5b835b81811015610b6557805167ffffffffffffffff811115610b4357610b42610630565b5b808601610b508982610a7c565b85526020850194505050602081019050610b20565b5050509392505050565b600082601f830112610b8457610b83610630565b5b8151610b94848260208601610ae8565b91505092915050565b600060208284031215610bb357610bb2610626565b5b600082015167ffffffffffffffff811115610bd157610bd061062b565b5b610bdd84828501610b6f565b91505092915050565b610bef816106fc565b82525050565b6000602082019050610c0a6000830184610be6565b92915050565b7f4e487b7100000000000000000000000000000000000000000000000000000000600052603260045260246000fd5b610c4881610a3e565b82525050565b6000819050919050565b6000819050919050565b6000610c7d610c78610c7384610c4e565b610c58565b6106fc565b9050919050565b610c8d81610c62565b82525050565b6000604082019050610ca86000830185610c3f565b610cb56020830184610c84565b9392505050565b60008115159050919050565b610cd181610cbc565b8114610cdc57600080fd5b50565b600081519050610cee81610cc8565b92915050565b600060208284031215610d0a57610d09610626565b5b6000610d1884828501610cdf565b91505092915050565b7f4e487b7100000000000000000000000000000000000000000000000000000000600052601160045260246000fd5b6000610d5b826106fc565b91507fffffffffffffffffffffffffffffffffffffffffffffffffffffffffffffffff821415610d8e57610d8d610d21565b5b600182019050919050565b600067ffffffffffffffff821115610db457610db3610646565b5b602082029050602081019050919050565b600060808284031215610ddb57610dda6106f2565b5b610de560806106a6565b9050600082015167ffffffffffffffff811115610e0557610e046106f7565b5b610e1184828501610830565b6000830152506020610e258482850161071d565b602083015250604082015167ffffffffffffffff811115610e4957610e486106f7565b5b610e55848285016107dd565b604083015250606082015167ffffffffffffffff811115610e7957610e786106f7565b5b610e85848285016107dd565b60608301525092915050565b600060408284031215610ea757610ea66106f2565b5b610eb160406106a6565b9050600082015167ffffffffffffffff811115610ed157610ed06106f7565b5b610edd84828501610dc5565b6000830152506020610ef184828501610a67565b60208301525092915050565b6000610f10610f0b84610d99565b6106a6565b90508083825260208201905060208402830185811115610f3357610f326106ed565b5b835b81811015610f7a57805167ffffffffffffffff811115610f5857610f57610630565b5b808601610f658982610e91565b85526020850194505050602081019050610f35565b5050509392505050565b600082601f830112610f9957610f98610630565b5b8151610fa9848260208601610efd565b91505092915050565b600060208284031215610fc857610fc7610626565b5b600082015167ffffffffffffffff811115610fe657610fe561062b565b5b610ff284828501610f84565b91505092915050565b60006020820190506110106000830184610c3f565b9291505056fea26469706673582212204f1981d369c5401a114d73d0ce2046a04b4144a1b6db92d5424eb238ea63651164736f6c634300080a0033",
  "immutableReferences": {},
  "source": "// SPDX-License-Identifier: MIT\npragma solidity ^0.8.9;\n\nimport \"./AAiTElection.sol\";\nimport \"./AAiTVoteToken.sol\";\nimport \"./AAiTStudent.sol\";\nimport \"./AAiTElectionTimer.sol\";\n\ncontract AAiTElectionHandler{\n address private owner;\n    address private AAiTVoteTokenAddress;\n    address private AAiTStudentAddress;\n    address private AAiTElectionTimerAddress;\n    // address private AAiTElectionAddress;\n\n     modifier onlyOwner() {\n        require(msg.sender == owner);\n        _;\n    }\n\n\n    constructor(\n        address _AAiTVoteTokenAddress,\n        address _AAiTStudentAddress,\n        address _AAiTElectionTimerAddress\n        // address _AAiTElectionAddress\n    ) {\n        owner = msg.sender;\n        AAiTVoteTokenAddress = _AAiTVoteTokenAddress;\n        AAiTStudentAddress = _AAiTStudentAddress;\n        AAiTElectionTimerAddress = _AAiTElectionTimerAddress;\n        // AAiTElectionAddress = _AAiTElectionAddress;\n    }\n    function burnAllTokens() public onlyOwner {\n        AAiTVoteToken tempToken = AAiTVoteToken(AAiTVoteTokenAddress);\n        AAiTStudent tempStudent = AAiTStudent(AAiTStudentAddress);\n        AAiTStudent.CandidateStruct[] memory tempCandidate = tempStudent.getAllCandidates();\n        AAiTStudent.VoterStruct[] memory tempVoter = tempStudent.getAllVoters();\n        for (uint256 i = 0; i < tempCandidate.length; i++) {\n            tempToken.burn(tempCandidate[i].candidateAddress);\n        }\n        for (uint256 i = 0; i < tempVoter.length; i++) {\n            tempToken.burn(tempVoter[i].voterAddress);\n        }\n        tempToken.burn(owner);\n        // temp.burnRemainingTokens(owner);\n    }\n\n    function mintAndSendTokens() public onlyOwner {\n        AAiTVoteToken tempToken = AAiTVoteToken(AAiTVoteTokenAddress);\n        AAiTStudent tempStudent = AAiTStudent(AAiTStudentAddress);\n        AAiTStudent.VoterStruct[] memory tempVoters = tempStudent\n            .getAllVoters();\n        uint256 totalTokenCount = tempVoters.length;\n        tempToken.mint(tempVoters.length);\n        for (uint256 i = 0; i < tempVoters.length; i++) {\n            tempToken.transfer(tempVoters[i].voterAddress, 1);\n        }\n    }\n\n    function generateVotersForElection(\n        uint256 year,\n        uint256 section,\n        AAiTElection.DEPTARTMENT_TYPE department\n    ) internal view returns (address[] memory) {\n        AAiTStudent tempStudent = AAiTStudent(AAiTStudentAddress);\n        AAiTStudent.VoterStruct[] memory tempVoters = tempStudent\n            .getAllVoters();\n        address[] memory newVoters = new address[](tempVoters.length);\n        // if (year == 0 && section == 0) {\n        //     for (uint256 i = 0; i < tempVoters.length; i++) {\n        //         if (\n        //             uint256(tempVoters[i].voterInfo.currentDepartment) ==\n        //             uint256(department)\n        //         ) {\n        //             newVoters[i] = tempVoters[i].voterAddress;\n        //         }\n        //     }\n        // } else if (section == 0) {\n        //     for (uint256 i = 0; i < tempVoters.length; i++) {\n        //         if (\n        //             tempVoters[i].voterInfo.currentYear == year &&\n        //             uint256(tempVoters[i].voterInfo.currentDepartment) ==\n        //             uint256(department)\n        //         ) {\n        //             newVoters[i] = tempVoters[i].voterAddress;\n        //         }\n        //     }\n        // } else {\n            for (uint256 i = 0; i < tempVoters.length; i++) {\n                if (\n                    tempVoters[i].voterInfo.voterInfo.currentYear == year &&\n                    tempVoters[i].voterInfo.voterInfo.currentSection == section &&\n                    uint256(tempVoters[i].voterInfo.voterInfo.currentDepartment) ==\n                    uint256(department)\n                ) {\n                    newVoters[i] = tempVoters[i].voterAddress;\n                }\n            }\n        // }\n        return newVoters;\n    }\n\n    function generateCandidatesForElection(\n        uint256 year,\n        uint256 section,\n        AAiTElection.DEPTARTMENT_TYPE department\n    ) internal view returns (address[] memory) {\n        AAiTStudent tempStudent = AAiTStudent(AAiTStudentAddress);\n        AAiTStudent.CandidateStruct[] memory tempCandidates = tempStudent\n            .getAllCandidates();\n        address[] memory newCandidates = new address[](tempCandidates.length);\n        // if (year == 0 && section == 0) {\n        //     for (uint256 i = 0; i < tempCandidates.length; i++) {\n        //         if (\n        //             uint256(\n        //                 tempCandidates[i].candidateInfo.currentDepartment\n        //             ) == uint256(department)\n        //         ) {\n        //             newCandidates[i] = tempCandidates[i].candidateAddress;\n        //         }\n        //     }\n        // } else if (section == 0) {\n        //     for (uint256 i = 0; i < tempCandidates.length; i++) {\n        //         if (\n        //             tempCandidates[i].candidateInfo.currentYear == year &&\n        //             uint256(\n        //                 tempCandidates[i].candidateInfo.currentDepartment\n        //             ) ==\n        //             uint256(department)\n        //         ) {\n        //             newCandidates[i] = tempCandidates[i].candidateAddress;\n        //         }\n        //     }\n        // } else {\n            for (uint256 i = 0; i < tempCandidates.length; i++) {\n                if (\n                    tempCandidates[i].candidateInfo.candidateInfo.currentYear == year &&\n                    tempCandidates[i].candidateInfo.candidateInfo.currentSection == section &&\n                    uint256(\n                        tempCandidates[i].candidateInfo.candidateInfo.currentDepartment\n                    ) ==\n                    uint256(department)\n                ) {\n                    newCandidates[i] = tempCandidates[i].candidateAddress;\n                }\n            }\n        // }\n        return newCandidates;\n    }\n\n    function mergeCandidates(\n        uint256 year,\n        uint256 section,\n        AAiTElection.DEPTARTMENT_TYPE department,\n        AAiTElection.ElectionStruct[] memory allElections\n    ) internal view returns (address[] memory) {\n        address[] memory newCandidates = new address[](3);\n        // AAiTElection tempElection = AAiTElection(AAiTElectionAddress);\n        // AAiTElection.ElectionStruct[] memory allElections = tempElection\n        //     .getAllElections();\n\n        if (year == 0 && section == 0) {\n            for (uint256 i = 0; i < allElections.length; i++) {\n                if (allElections[i].department == department) {\n                    // candidates.push(candidates[i].candidateInfo.userAddress);\n                    for (\n                        uint256 j = 0;\n                        j < allElections[i].winners.length;\n                        j++\n                    ) {\n                        newCandidates[j] = allElections[i].winners[j];\n                    }\n                }\n            }\n        } else if (section == 0) {\n            for (uint256 i = 0; i < allElections.length; i++) {\n                if (\n                    allElections[i].department == department &&\n                    allElections[i].year == year\n                ) {\n                    // candidates.push(candidates[i].candidateInfo.userAddress);\n                    for (\n                        uint256 j = 0;\n                        j < allElections[i].winners.length;\n                        j++\n                    ) {\n                        newCandidates[j] = allElections[i].winners[j];\n                    }\n                }\n            }\n        } else {\n            return newCandidates;\n        }\n\n        return newCandidates;\n    }\n\n    function mergeVoters(\n        uint256 year,\n        uint256 section,\n        AAiTElection.DEPTARTMENT_TYPE department,\n        AAiTElection.ElectionStruct[] memory allElections\n    ) internal view returns (address[] memory) {\n        address[] memory newVoters = new address[](3);\n        //  AAiTElection tempElection = AAiTElection(AAiTElectionAddress);\n        // AAiTElection.ElectionStruct[] memory allElections = tempElection\n        //     .getAllElections();\n        if (year == 0 && section == 0) {\n            for (uint256 i = 0; i < allElections.length; i++) {\n                if (allElections[i].department == department) {\n                    for (\n                        uint256 j = 0;\n                        j < allElections[i].voters.length;\n                        j++\n                    ) {\n                        newVoters[j] = allElections[i].voters[j];\n                    }\n                }\n            }\n        } else if (section == 0) {\n            for (uint256 i = 0; i < allElections.length; i++) {\n                if (\n                    allElections[i].department == department &&\n                    allElections[i].year == year\n                ) {\n                    for (\n                        uint256 j = 0;\n                        j < allElections[i].voters.length;\n                        j++\n                    ) {\n                        newVoters[j] = allElections[i].voters[j];\n                    }\n                }\n            }\n        } else {\n            return newVoters;\n        }\n\n        return newVoters;\n    }\n\n\n}",
  "sourcePath": "/home/dannyterefe/Documents/VSCode_Projects/Final_Project/blockchain_based_voting_system/dvbst_smart_contracts/contracts/AAiTElectionHandler.sol",
  "compiler": {
    "name": "solc",
    "version": "0.8.10+commit.fc410830.Emscripten.clang"
  },
  "schemaVersion": "3.4.4",
  "updatedAt": "2022-05-18T19:49:22.103Z",
  "networkType": "ethereum",
  "devdoc": {
    "kind": "dev",
    "methods": {},
    "version": 1
  },
  "userdoc": {
    "kind": "user",
    "methods": {},
    "version": 1
  }
}