{
  "contractName": "AAiTElection",
  "abi": [
    {
      "inputs": [
        {
          "internalType": "address",
          "name": "_AAiTVoteTokenAddress",
          "type": "address"
        },
        {
          "internalType": "address",
          "name": "_AAiTStudentAddress",
          "type": "address"
        }
      ],
      "stateMutability": "nonpayable",
      "type": "constructor"
    },
    {
      "anonymous": false,
      "inputs": [
        {
          "indexed": false,
          "internalType": "uint256",
          "name": "index",
          "type": "uint256"
        },
        {
          "indexed": false,
          "internalType": "string",
          "name": "name",
          "type": "string"
        },
        {
          "indexed": false,
          "internalType": "string",
          "name": "electionType",
          "type": "string"
        },
        {
          "indexed": false,
          "internalType": "string",
          "name": "startDate",
          "type": "string"
        },
        {
          "indexed": false,
          "internalType": "string",
          "name": "endDate",
          "type": "string"
        },
        {
          "indexed": false,
          "internalType": "address[]",
          "name": "candidates",
          "type": "address[]"
        },
        {
          "indexed": false,
          "internalType": "address[]",
          "name": "winners",
          "type": "address[]"
        },
        {
          "indexed": false,
          "internalType": "address[]",
          "name": "voters",
          "type": "address[]"
        },
        {
          "indexed": false,
          "internalType": "address[]",
          "name": "voted",
          "type": "address[]"
        },
        {
          "indexed": false,
          "internalType": "uint256",
          "name": "year",
          "type": "uint256"
        },
        {
          "indexed": false,
          "internalType": "uint256",
          "name": "section",
          "type": "uint256"
        },
        {
          "indexed": false,
          "internalType": "string",
          "name": "department",
          "type": "string"
        }
      ],
      "name": "LogNewElection",
      "type": "event"
    },
    {
      "anonymous": false,
      "inputs": [
        {
          "indexed": false,
          "internalType": "uint256",
          "name": "index",
          "type": "uint256"
        },
        {
          "indexed": false,
          "internalType": "string",
          "name": "name",
          "type": "string"
        },
        {
          "indexed": false,
          "internalType": "string",
          "name": "electionType",
          "type": "string"
        },
        {
          "indexed": false,
          "internalType": "string",
          "name": "startDate",
          "type": "string"
        },
        {
          "indexed": false,
          "internalType": "string",
          "name": "endDate",
          "type": "string"
        },
        {
          "indexed": false,
          "internalType": "address[]",
          "name": "candidates",
          "type": "address[]"
        },
        {
          "indexed": false,
          "internalType": "address[]",
          "name": "winners",
          "type": "address[]"
        },
        {
          "indexed": false,
          "internalType": "address[]",
          "name": "voters",
          "type": "address[]"
        },
        {
          "indexed": false,
          "internalType": "address[]",
          "name": "voted",
          "type": "address[]"
        },
        {
          "indexed": false,
          "internalType": "uint256",
          "name": "year",
          "type": "uint256"
        },
        {
          "indexed": false,
          "internalType": "uint256",
          "name": "section",
          "type": "uint256"
        },
        {
          "indexed": false,
          "internalType": "string",
          "name": "department",
          "type": "string"
        }
      ],
      "name": "LogUpdateElection",
      "type": "event"
    },
    {
      "inputs": [
        {
          "internalType": "string",
          "name": "name",
          "type": "string"
        },
        {
          "internalType": "string",
          "name": "electionType",
          "type": "string"
        },
        {
          "internalType": "string",
          "name": "startDate",
          "type": "string"
        },
        {
          "internalType": "string",
          "name": "endDate",
          "type": "string"
        },
        {
          "internalType": "address[]",
          "name": "candidates",
          "type": "address[]"
        },
        {
          "internalType": "address[]",
          "name": "voters",
          "type": "address[]"
        },
        {
          "internalType": "uint256",
          "name": "year",
          "type": "uint256"
        },
        {
          "internalType": "uint256",
          "name": "section",
          "type": "uint256"
        },
        {
          "internalType": "string",
          "name": "department",
          "type": "string"
        }
      ],
      "name": "addElection",
      "outputs": [],
      "stateMutability": "nonpayable",
      "type": "function"
    },
    {
      "inputs": [
        {
          "internalType": "address",
          "name": "voterAddress",
          "type": "address"
        },
        {
          "internalType": "address",
          "name": "candidateAddress",
          "type": "address"
        }
      ],
      "name": "vote",
      "outputs": [],
      "stateMutability": "nonpayable",
      "type": "function"
    },
    {
      "inputs": [],
      "name": "burnAllTokens",
      "outputs": [],
      "stateMutability": "nonpayable",
      "type": "function"
    },
    {
      "inputs": [
        {
          "internalType": "string",
          "name": "electionName",
          "type": "string"
        },
        {
          "internalType": "address[]",
          "name": "winners",
          "type": "address[]"
        }
      ],
      "name": "declareWinner",
      "outputs": [],
      "stateMutability": "view",
      "type": "function",
      "constant": true
    },
    {
      "inputs": [],
      "name": "getAllElections",
      "outputs": [
        {
          "components": [
            {
              "internalType": "uint256",
              "name": "index",
              "type": "uint256"
            },
            {
              "internalType": "string",
              "name": "name",
              "type": "string"
            },
            {
              "internalType": "string",
              "name": "electionType",
              "type": "string"
            },
            {
              "internalType": "string",
              "name": "startDate",
              "type": "string"
            },
            {
              "internalType": "string",
              "name": "endDate",
              "type": "string"
            },
            {
              "internalType": "address[]",
              "name": "candidates",
              "type": "address[]"
            },
            {
              "internalType": "address[]",
              "name": "winners",
              "type": "address[]"
            },
            {
              "internalType": "address[]",
              "name": "voters",
              "type": "address[]"
            },
            {
              "internalType": "address[]",
              "name": "voted",
              "type": "address[]"
            },
            {
              "internalType": "uint256",
              "name": "year",
              "type": "uint256"
            },
            {
              "internalType": "uint256",
              "name": "section",
              "type": "uint256"
            },
            {
              "internalType": "string",
              "name": "department",
              "type": "string"
            }
          ],
          "internalType": "struct AAiTElection.ElectionStruct[]",
          "name": "",
          "type": "tuple[]"
        }
      ],
      "stateMutability": "view",
      "type": "function",
      "constant": true
    }
  ],
  "bytecode": "0x60806040523480156200001157600080fd5b506040516200396d3803806200396d83398181016040528101906200003791906200016b565b336000806101000a81548173ffffffffffffffffffffffffffffffffffffffff021916908373ffffffffffffffffffffffffffffffffffffffff16021790555081600160006101000a81548173ffffffffffffffffffffffffffffffffffffffff021916908373ffffffffffffffffffffffffffffffffffffffff16021790555080600260006101000a81548173ffffffffffffffffffffffffffffffffffffffff021916908373ffffffffffffffffffffffffffffffffffffffff1602179055505050620001b2565b600080fd5b600073ffffffffffffffffffffffffffffffffffffffff82169050919050565b6000620001338262000106565b9050919050565b620001458162000126565b81146200015157600080fd5b50565b60008151905062000165816200013a565b92915050565b6000806040838503121562000185576200018462000101565b5b6000620001958582860162000154565b9250506020620001a88582860162000154565b9150509250929050565b6137ab80620001c26000396000f3fe608060405234801561001057600080fd5b50600436106100575760003560e01c80631afa74e51461005c5780637fd5f268146100785780639ca37aab14610096578063c17e2aa1146100b2578063f0673ee1146100bc575b600080fd5b61007660048036038101906100719190612807565b6100d8565b005b6100806104b7565b60405161008d9190612bb5565b60405180910390f35b6100b060048036038101906100ab9190612dd4565b610a47565b005b6100ba610fb3565b005b6100d660048036038101906100d19190612e78565b6110c0565b005b6000600160009054906101000a900473ffffffffffffffffffffffffffffffffffffffff1690506000600260009054906101000a900473ffffffffffffffffffffffffffffffffffffffff1690508273ffffffffffffffffffffffffffffffffffffffff168473ffffffffffffffffffffffffffffffffffffffff161415610195576040517f08c379a000000000000000000000000000000000000000000000000000000000815260040161018c90613063565b60405180910390fd5b60008054906101000a900473ffffffffffffffffffffffffffffffffffffffff1673ffffffffffffffffffffffffffffffffffffffff168473ffffffffffffffffffffffffffffffffffffffff1614158061023c575060008054906101000a900473ffffffffffffffffffffffffffffffffffffffff1673ffffffffffffffffffffffffffffffffffffffff168373ffffffffffffffffffffffffffffffffffffffff1614155b61027b576040517f08c379a0000000000000000000000000000000000000000000000000000000008152600401610272906130cf565b60405180910390fd5b8073ffffffffffffffffffffffffffffffffffffffff1663a7771ee3856040518263ffffffff1660e01b81526004016102b491906130fe565b602060405180830381865afa1580156102d1573d6000803e3d6000fd5b505050506040513d601f19601f820116820180604052508101906102f59190613151565b610334576040517f08c379a000000000000000000000000000000000000000000000000000000000815260040161032b906131ca565b60405180910390fd5b60008273ffffffffffffffffffffffffffffffffffffffff166370a08231866040518263ffffffff1660e01b815260040161036f91906130fe565b602060405180830381865afa15801561038c573d6000803e3d6000fd5b505050506040513d601f19601f820116820180604052508101906103b091906131ff565b116103f0576040517f08c379a00000000000000000000000000000000000000000000000000000000081526004016103e790613278565b60405180910390fd5b8173ffffffffffffffffffffffffffffffffffffffff166323b872dd858560016040518463ffffffff1660e01b815260040161042e939291906132dd565b6020604051808303816000875af115801561044d573d6000803e3d6000fd5b505050506040513d601f19601f820116820180604052508101906104719190613151565b506104b1846040518060400160405280600c81526020017f656c656374696f6e4e616d6500000000000000000000000000000000000000008152506114ad565b50505050565b60606006805480602002602001604051908101604052809291908181526020016000905b82821015610a3e57838290600052602060002090600c0201604051806101800160405290816000820154815260200160018201805461051990613343565b80601f016020809104026020016040519081016040528092919081815260200182805461054590613343565b80156105925780601f1061056757610100808354040283529160200191610592565b820191906000526020600020905b81548152906001019060200180831161057557829003601f168201915b505050505081526020016002820180546105ab90613343565b80601f01602080910402602001604051908101604052809291908181526020018280546105d790613343565b80156106245780601f106105f957610100808354040283529160200191610624565b820191906000526020600020905b81548152906001019060200180831161060757829003601f168201915b5050505050815260200160038201805461063d90613343565b80601f016020809104026020016040519081016040528092919081815260200182805461066990613343565b80156106b65780601f1061068b576101008083540402835291602001916106b6565b820191906000526020600020905b81548152906001019060200180831161069957829003601f168201915b505050505081526020016004820180546106cf90613343565b80601f01602080910402602001604051908101604052809291908181526020018280546106fb90613343565b80156107485780601f1061071d57610100808354040283529160200191610748565b820191906000526020600020905b81548152906001019060200180831161072b57829003601f168201915b50505050508152602001600582018054806020026020016040519081016040528092919081815260200182805480156107d657602002820191906000526020600020905b8160009054906101000a900473ffffffffffffffffffffffffffffffffffffffff1673ffffffffffffffffffffffffffffffffffffffff168152602001906001019080831161078c575b505050505081526020016006820180548060200260200160405190810160405280929190818152602001828054801561086457602002820191906000526020600020905b8160009054906101000a900473ffffffffffffffffffffffffffffffffffffffff1673ffffffffffffffffffffffffffffffffffffffff168152602001906001019080831161081a575b50505050508152602001600782018054806020026020016040519081016040528092919081815260200182805480156108f257602002820191906000526020600020905b8160009054906101000a900473ffffffffffffffffffffffffffffffffffffffff1673ffffffffffffffffffffffffffffffffffffffff16815260200190600101908083116108a8575b505050505081526020016008820180548060200260200160405190810160405280929190818152602001828054801561098057602002820191906000526020600020905b8160009054906101000a900473ffffffffffffffffffffffffffffffffffffffff1673ffffffffffffffffffffffffffffffffffffffff1681526020019060010190808311610936575b5050505050815260200160098201548152602001600a8201548152602001600b820180546109ad90613343565b80601f01602080910402602001604051908101604052809291908181526020018280546109d990613343565b8015610a265780601f106109fb57610100808354040283529160200191610a26565b820191906000526020600020905b815481529060010190602001808311610a0957829003601f168201915b505050505081525050815260200190600101906104db565b50505050905090565b6000600383604051610a5991906133b1565b90815260200160405180910390206040518061018001604052908160008201548152602001600182018054610a8d90613343565b80601f0160208091040260200160405190810160405280929190818152602001828054610ab990613343565b8015610b065780601f10610adb57610100808354040283529160200191610b06565b820191906000526020600020905b815481529060010190602001808311610ae957829003601f168201915b50505050508152602001600282018054610b1f90613343565b80601f0160208091040260200160405190810160405280929190818152602001828054610b4b90613343565b8015610b985780601f10610b6d57610100808354040283529160200191610b98565b820191906000526020600020905b815481529060010190602001808311610b7b57829003601f168201915b50505050508152602001600382018054610bb190613343565b80601f0160208091040260200160405190810160405280929190818152602001828054610bdd90613343565b8015610c2a5780601f10610bff57610100808354040283529160200191610c2a565b820191906000526020600020905b815481529060010190602001808311610c0d57829003601f168201915b50505050508152602001600482018054610c4390613343565b80601f0160208091040260200160405190810160405280929190818152602001828054610c6f90613343565b8015610cbc5780601f10610c9157610100808354040283529160200191610cbc565b820191906000526020600020905b815481529060010190602001808311610c9f57829003601f168201915b5050505050815260200160058201805480602002602001604051908101604052809291908181526020018280548015610d4a57602002820191906000526020600020905b8160009054906101000a900473ffffffffffffffffffffffffffffffffffffffff1673ffffffffffffffffffffffffffffffffffffffff1681526020019060010190808311610d00575b5050505050815260200160068201805480602002602001604051908101604052809291908181526020018280548015610dd857602002820191906000526020600020905b8160009054906101000a900473ffffffffffffffffffffffffffffffffffffffff1673ffffffffffffffffffffffffffffffffffffffff1681526020019060010190808311610d8e575b5050505050815260200160078201805480602002602001604051908101604052809291908181526020018280548015610e6657602002820191906000526020600020905b8160009054906101000a900473ffffffffffffffffffffffffffffffffffffffff1673ffffffffffffffffffffffffffffffffffffffff1681526020019060010190808311610e1c575b5050505050815260200160088201805480602002602001604051908101604052809291908181526020018280548015610ef457602002820191906000526020600020905b8160009054906101000a900473ffffffffffffffffffffffffffffffffffffffff1673ffffffffffffffffffffffffffffffffffffffff1681526020019060010190808311610eaa575b5050505050815260200160098201548152602001600a8201548152602001600b82018054610f2190613343565b80601f0160208091040260200160405190810160405280929190818152602001828054610f4d90613343565b8015610f9a5780601f10610f6f57610100808354040283529160200191610f9a565b820191906000526020600020905b815481529060010190602001808311610f7d57829003601f168201915b5050505050815250509050818160c00181905250505050565b60008054906101000a900473ffffffffffffffffffffffffffffffffffffffff1673ffffffffffffffffffffffffffffffffffffffff163373ffffffffffffffffffffffffffffffffffffffff161461100b57600080fd5b6000600160009054906101000a900473ffffffffffffffffffffffffffffffffffffffff1690508073ffffffffffffffffffffffffffffffffffffffff1663aff1034760008054906101000a900473ffffffffffffffffffffffffffffffffffffffff166040518263ffffffff1660e01b815260040161108b91906130fe565b600060405180830381600087803b1580156110a557600080fd5b505af11580156110b9573d6000803e3d6000fd5b5050505050565b6110c9896118c6565b15611109576040517f08c379a000000000000000000000000000000000000000000000000000000000815260040161110090613414565b60405180910390fd5b611114838383611efc565b15611154576040517f08c379a000000000000000000000000000000000000000000000000000000000815260040161114b90613414565b60405180910390fd5b6000600680549050905060606040518061018001604052808381526020018c81526020018b81526020018a81526020018981526020018881526020018281526020018781526020018281526020018681526020018581526020018481525060038c6040516111c291906133b1565b90815260200160405180910390206000820151816000015560208201518160010190805190602001906111f6929190612589565b506040820151816002019080519060200190611213929190612589565b506060820151816003019080519060200190611230929190612589565b50608082015181600401908051906020019061124d929190612589565b5060a082015181600501908051906020019061126a92919061260f565b5060c082015181600601908051906020019061128792919061260f565b5060e08201518160070190805190602001906112a492919061260f565b506101008201518160080190805190602001906112c292919061260f565b50610120820151816009015561014082015181600a015561016082015181600b0190805190602001906112f6929190612589565b5090505060066040518061018001604052808481526020018d81526020018c81526020018b81526020018a81526020018981526020018381526020018881526020018381526020018781526020018681526020018581525090806001815401808255809150506001900390600052602060002090600c020160009091909190915060008201518160000155602082015181600101908051906020019061139d929190612589565b5060408201518160020190805190602001906113ba929190612589565b5060608201518160030190805190602001906113d7929190612589565b5060808201518160040190805190602001906113f4929190612589565b5060a082015181600501908051906020019061141192919061260f565b5060c082015181600601908051906020019061142e92919061260f565b5060e082015181600701908051906020019061144b92919061260f565b5061010082015181600801908051906020019061146992919061260f565b50610120820151816009015561014082015181600a015561016082015181600b01908051906020019061149d929190612589565b5050505050505050505050505050565b60006003826040516114bf91906133b1565b90815260200160405180910390206000015490506003826040516114e391906133b1565b9081526020016040518091039020600801839080600181540180825580915050600190039060005260206000200160009091909190916101000a81548173ffffffffffffffffffffffffffffffffffffffff021916908373ffffffffffffffffffffffffffffffffffffffff16021790555060038260405161156591906133b1565b9081526020016040518091039020600701818154811061158857611587613434565b5b9060005260206000200160006101000a81549073ffffffffffffffffffffffffffffffffffffffff02191690556003826040516115c591906133b1565b9081526020016040518091039020600582815481106115e7576115e6613434565b5b90600052602060002090600c020160008201548160000155600182018160010190805461161390613343565b61161e929190612699565b50600282018160020190805461163390613343565b61163e929190612699565b50600382018160030190805461165390613343565b61165e929190612699565b50600482018160040190805461167390613343565b61167e929190612699565b506005820181600501908054611695929190612726565b5060068201816006019080546116ac929190612726565b5060078201816007019080546116c3929190612726565b5060088201816008019080546116da929190612726565b5060098201548160090155600a82015481600a0155600b820181600b0190805461170390613343565b61170e929190612699565b509050507fd9ee61d5d0678be9aaaabfa3f77317f329a8f8c978bdcc15a7f423d9201bfda48160038460405161174491906133b1565b908152602001604051809103902060010160038560405161176591906133b1565b908152602001604051809103902060020160038660405161178691906133b1565b90815260200160405180910390206003016003876040516117a791906133b1565b90815260200160405180910390206004016003886040516117c891906133b1565b90815260200160405180910390206005016003896040516117e991906133b1565b908152602001604051809103902060060160038a60405161180a91906133b1565b908152602001604051809103902060070160038b60405161182b91906133b1565b908152602001604051809103902060080160038c60405161184c91906133b1565b90815260200160405180910390206009015460038d60405161186e91906133b1565b9081526020016040518091039020600a015460038e60405161189091906133b1565b9081526020016040518091039020600b016040516118b99c9b9a99989796959493929190613604565b60405180910390a1505050565b6000806006805480602002602001604051908101604052809291908181526020016000905b82821015611e4e57838290600052602060002090600c0201604051806101800160405290816000820154815260200160018201805461192990613343565b80601f016020809104026020016040519081016040528092919081815260200182805461195590613343565b80156119a25780601f10611977576101008083540402835291602001916119a2565b820191906000526020600020905b81548152906001019060200180831161198557829003601f168201915b505050505081526020016002820180546119bb90613343565b80601f01602080910402602001604051908101604052809291908181526020018280546119e790613343565b8015611a345780601f10611a0957610100808354040283529160200191611a34565b820191906000526020600020905b815481529060010190602001808311611a1757829003601f168201915b50505050508152602001600382018054611a4d90613343565b80601f0160208091040260200160405190810160405280929190818152602001828054611a7990613343565b8015611ac65780601f10611a9b57610100808354040283529160200191611ac6565b820191906000526020600020905b815481529060010190602001808311611aa957829003601f168201915b50505050508152602001600482018054611adf90613343565b80601f0160208091040260200160405190810160405280929190818152602001828054611b0b90613343565b8015611b585780601f10611b2d57610100808354040283529160200191611b58565b820191906000526020600020905b815481529060010190602001808311611b3b57829003601f168201915b5050505050815260200160058201805480602002602001604051908101604052809291908181526020018280548015611be657602002820191906000526020600020905b8160009054906101000a900473ffffffffffffffffffffffffffffffffffffffff1673ffffffffffffffffffffffffffffffffffffffff1681526020019060010190808311611b9c575b5050505050815260200160068201805480602002602001604051908101604052809291908181526020018280548015611c7457602002820191906000526020600020905b8160009054906101000a900473ffffffffffffffffffffffffffffffffffffffff1673ffffffffffffffffffffffffffffffffffffffff1681526020019060010190808311611c2a575b5050505050815260200160078201805480602002602001604051908101604052809291908181526020018280548015611d0257602002820191906000526020600020905b8160009054906101000a900473ffffffffffffffffffffffffffffffffffffffff1673ffffffffffffffffffffffffffffffffffffffff1681526020019060010190808311611cb8575b5050505050815260200160088201805480602002602001604051908101604052809291908181526020018280548015611d9057602002820191906000526020600020905b8160009054906101000a900473ffffffffffffffffffffffffffffffffffffffff1673ffffffffffffffffffffffffffffffffffffffff1681526020019060010190808311611d46575b5050505050815260200160098201548152602001600a8201548152602001600b82018054611dbd90613343565b80601f0160208091040260200160405190810160405280929190818152602001828054611de990613343565b8015611e365780601f10611e0b57610100808354040283529160200191611e36565b820191906000526020600020905b815481529060010190602001808311611e1957829003601f168201915b505050505081525050815260200190600101906118eb565b50505050905060005b8151811015611ef05783604051602001611e7191906133b1565b60405160208183030381529060405280519060200120828281518110611e9a57611e99613434565b5b602002602001015160200151604051602001611eb691906133b1565b604051602081830303815290604052805190602001201415611edd57600192505050611ef7565b8080611ee89061372c565b915050611e57565b5060009150505b919050565b6000806006805480602002602001604051908101604052809291908181526020016000905b8282101561248457838290600052602060002090600c02016040518061018001604052908160008201548152602001600182018054611f5f90613343565b80601f0160208091040260200160405190810160405280929190818152602001828054611f8b90613343565b8015611fd85780601f10611fad57610100808354040283529160200191611fd8565b820191906000526020600020905b815481529060010190602001808311611fbb57829003601f168201915b50505050508152602001600282018054611ff190613343565b80601f016020809104026020016040519081016040528092919081815260200182805461201d90613343565b801561206a5780601f1061203f5761010080835404028352916020019161206a565b820191906000526020600020905b81548152906001019060200180831161204d57829003601f168201915b5050505050815260200160038201805461208390613343565b80601f01602080910402602001604051908101604052809291908181526020018280546120af90613343565b80156120fc5780601f106120d1576101008083540402835291602001916120fc565b820191906000526020600020905b8154815290600101906020018083116120df57829003601f168201915b5050505050815260200160048201805461211590613343565b80601f016020809104026020016040519081016040528092919081815260200182805461214190613343565b801561218e5780601f106121635761010080835404028352916020019161218e565b820191906000526020600020905b81548152906001019060200180831161217157829003601f168201915b505050505081526020016005820180548060200260200160405190810160405280929190818152602001828054801561221c57602002820191906000526020600020905b8160009054906101000a900473ffffffffffffffffffffffffffffffffffffffff1673ffffffffffffffffffffffffffffffffffffffff16815260200190600101908083116121d2575b50505050508152602001600682018054806020026020016040519081016040528092919081815260200182805480156122aa57602002820191906000526020600020905b8160009054906101000a900473ffffffffffffffffffffffffffffffffffffffff1673ffffffffffffffffffffffffffffffffffffffff1681526020019060010190808311612260575b505050505081526020016007820180548060200260200160405190810160405280929190818152602001828054801561233857602002820191906000526020600020905b8160009054906101000a900473ffffffffffffffffffffffffffffffffffffffff1673ffffffffffffffffffffffffffffffffffffffff16815260200190600101908083116122ee575b50505050508152602001600882018054806020026020016040519081016040528092919081815260200182805480156123c657602002820191906000526020600020905b8160009054906101000a900473ffffffffffffffffffffffffffffffffffffffff1673ffffffffffffffffffffffffffffffffffffffff168152602001906001019080831161237c575b5050505050815260200160098201548152602001600a8201548152602001600b820180546123f390613343565b80601f016020809104026020016040519081016040528092919081815260200182805461241f90613343565b801561246c5780601f106124415761010080835404028352916020019161246c565b820191906000526020600020905b81548152906001019060200180831161244f57829003601f168201915b50505050508152505081526020019060010190611f21565b50505050905060005b815181101561257b57858282815181106124aa576124a9613434565b5b602002602001015161012001511480156124e25750848282815181106124d3576124d2613434565b5b60200260200101516101400151145b80156125585750836040516020016124fa91906133b1565b6040516020818303038152906040528051906020012082828151811061252357612522613434565b5b6020026020010151610160015160405160200161254091906133b1565b60405160208183030381529060405280519060200120145b1561256857600192505050612582565b80806125739061372c565b91505061248d565b5060009150505b9392505050565b82805461259590613343565b90600052602060002090601f0160209004810192826125b757600085556125fe565b82601f106125d057805160ff19168380011785556125fe565b828001600101855582156125fe579182015b828111156125fd5782518255916020019190600101906125e2565b5b50905061260b9190612778565b5090565b828054828255906000526020600020908101928215612688579160200282015b828111156126875782518260006101000a81548173ffffffffffffffffffffffffffffffffffffffff021916908373ffffffffffffffffffffffffffffffffffffffff1602179055509160200191906001019061262f565b5b5090506126959190612778565b5090565b8280546126a590613343565b90600052602060002090601f0160209004810192826126c75760008555612715565b82601f106126d85780548555612715565b8280016001018555821561271557600052602060002091601f016020900482015b828111156127145782548255916001019190600101906126f9565b5b5090506127229190612778565b5090565b8280548282559060005260206000209081019282156127675760005260206000209182015b8281111561276657825482559160010191906001019061274b565b5b5090506127749190612778565b5090565b5b80821115612791576000816000905550600101612779565b5090565b6000604051905090565b600080fd5b600080fd5b600073ffffffffffffffffffffffffffffffffffffffff82169050919050565b60006127d4826127a9565b9050919050565b6127e4816127c9565b81146127ef57600080fd5b50565b600081359050612801816127db565b92915050565b6000806040838503121561281e5761281d61279f565b5b600061282c858286016127f2565b925050602061283d858286016127f2565b9150509250929050565b600081519050919050565b600082825260208201905092915050565b6000819050602082019050919050565b6000819050919050565b61288681612873565b82525050565b600081519050919050565b600082825260208201905092915050565b60005b838110156128c65780820151818401526020810190506128ab565b838111156128d5576000848401525b50505050565b6000601f19601f8301169050919050565b60006128f78261288c565b6129018185612897565b93506129118185602086016128a8565b61291a816128db565b840191505092915050565b600081519050919050565b600082825260208201905092915050565b6000819050602082019050919050565b61295a816127c9565b82525050565b600061296c8383612951565b60208301905092915050565b6000602082019050919050565b600061299082612925565b61299a8185612930565b93506129a583612941565b8060005b838110156129d65781516129bd8882612960565b97506129c883612978565b9250506001810190506129a9565b5085935050505092915050565b6000610180830160008301516129fc600086018261287d565b5060208301518482036020860152612a1482826128ec565b91505060408301518482036040860152612a2e82826128ec565b91505060608301518482036060860152612a4882826128ec565b91505060808301518482036080860152612a6282826128ec565b91505060a083015184820360a0860152612a7c8282612985565b91505060c083015184820360c0860152612a968282612985565b91505060e083015184820360e0860152612ab08282612985565b915050610100830151848203610100860152612acc8282612985565b915050610120830151612ae361012086018261287d565b50610140830151612af861014086018261287d565b50610160830151848203610160860152612b1282826128ec565b9150508091505092915050565b6000612b2b83836129e3565b905092915050565b6000602082019050919050565b6000612b4b82612847565b612b558185612852565b935083602082028501612b6785612863565b8060005b85811015612ba35784840389528151612b848582612b1f565b9450612b8f83612b33565b925060208a01995050600181019050612b6b565b50829750879550505050505092915050565b60006020820190508181036000830152612bcf8184612b40565b905092915050565b600080fd5b600080fd5b7f4e487b7100000000000000000000000000000000000000000000000000000000600052604160045260246000fd5b612c19826128db565b810181811067ffffffffffffffff82111715612c3857612c37612be1565b5b80604052505050565b6000612c4b612795565b9050612c578282612c10565b919050565b600067ffffffffffffffff821115612c7757612c76612be1565b5b612c80826128db565b9050602081019050919050565b82818337600083830152505050565b6000612caf612caa84612c5c565b612c41565b905082815260208101848484011115612ccb57612cca612bdc565b5b612cd6848285612c8d565b509392505050565b600082601f830112612cf357612cf2612bd7565b5b8135612d03848260208601612c9c565b91505092915050565b600067ffffffffffffffff821115612d2757612d26612be1565b5b602082029050602081019050919050565b600080fd5b6000612d50612d4b84612d0c565b612c41565b90508083825260208201905060208402830185811115612d7357612d72612d38565b5b835b81811015612d9c5780612d8888826127f2565b845260208401935050602081019050612d75565b5050509392505050565b600082601f830112612dbb57612dba612bd7565b5b8135612dcb848260208601612d3d565b91505092915050565b60008060408385031215612deb57612dea61279f565b5b600083013567ffffffffffffffff811115612e0957612e086127a4565b5b612e1585828601612cde565b925050602083013567ffffffffffffffff811115612e3657612e356127a4565b5b612e4285828601612da6565b9150509250929050565b612e5581612873565b8114612e6057600080fd5b50565b600081359050612e7281612e4c565b92915050565b60008060008060008060008060006101208a8c031215612e9b57612e9a61279f565b5b60008a013567ffffffffffffffff811115612eb957612eb86127a4565b5b612ec58c828d01612cde565b99505060208a013567ffffffffffffffff811115612ee657612ee56127a4565b5b612ef28c828d01612cde565b98505060408a013567ffffffffffffffff811115612f1357612f126127a4565b5b612f1f8c828d01612cde565b97505060608a013567ffffffffffffffff811115612f4057612f3f6127a4565b5b612f4c8c828d01612cde565b96505060808a013567ffffffffffffffff811115612f6d57612f6c6127a4565b5b612f798c828d01612da6565b95505060a08a013567ffffffffffffffff811115612f9a57612f996127a4565b5b612fa68c828d01612da6565b94505060c0612fb78c828d01612e63565b93505060e0612fc88c828d01612e63565b9250506101008a013567ffffffffffffffff811115612fea57612fe96127a4565b5b612ff68c828d01612cde565b9150509295985092959850929598565b600082825260208201905092915050565b7f5065726d697373696f6e2044656e696564000000000000000000000000000000600082015250565b600061304d601183613006565b915061305882613017565b602082019050919050565b6000602082019050818103600083015261307c81613040565b9050919050565b7f496e76616c6964204f7065726174696f6e000000000000000000000000000000600082015250565b60006130b9601183613006565b91506130c482613083565b602082019050919050565b600060208201905081810360008301526130e8816130ac565b9050919050565b6130f8816127c9565b82525050565b600060208201905061311360008301846130ef565b92915050565b60008115159050919050565b61312e81613119565b811461313957600080fd5b50565b60008151905061314b81613125565b92915050565b6000602082840312156131675761316661279f565b5b60006131758482850161313c565b91505092915050565b7f596f752063616e206e6f7420766f746500000000000000000000000000000000600082015250565b60006131b4601083613006565b91506131bf8261317e565b602082019050919050565b600060208201905081810360008301526131e3816131a7565b9050919050565b6000815190506131f981612e4c565b92915050565b6000602082840312156132155761321461279f565b5b6000613223848285016131ea565b91505092915050565b7f496e73756666696369656e7420546f6b656e0000000000000000000000000000600082015250565b6000613262601283613006565b915061326d8261322c565b602082019050919050565b6000602082019050818103600083015261329181613255565b9050919050565b6000819050919050565b6000819050919050565b60006132c76132c26132bd84613298565b6132a2565b612873565b9050919050565b6132d7816132ac565b82525050565b60006060820190506132f260008301866130ef565b6132ff60208301856130ef565b61330c60408301846132ce565b949350505050565b7f4e487b7100000000000000000000000000000000000000000000000000000000600052602260045260246000fd5b6000600282049050600182168061335b57607f821691505b6020821081141561336f5761336e613314565b5b50919050565b600081905092915050565b600061338b8261288c565b6133958185613375565b93506133a58185602086016128a8565b80840191505092915050565b60006133bd8284613380565b915081905092915050565b7f456c656374696f6e20616c726561647920657869737473000000000000000000600082015250565b60006133fe601783613006565b9150613409826133c8565b602082019050919050565b6000602082019050818103600083015261342d816133f1565b9050919050565b7f4e487b7100000000000000000000000000000000000000000000000000000000600052603260045260246000fd5b61346c81612873565b82525050565b60008190508160005260206000209050919050565b6000815461349481613343565b61349e8186613006565b945060018216600081146134b957600181146134cb576134fe565b60ff19831686526020860193506134fe565b6134d485613472565b60005b838110156134f6578154818901526001820191506020810190506134d7565b808801955050505b50505092915050565b600081549050919050565b600082825260208201905092915050565b60008190508160005260206000209050919050565b60008160001c9050919050565b600073ffffffffffffffffffffffffffffffffffffffff82169050919050565b600061357861357383613538565b613545565b9050919050565b600061358b8254613565565b9050919050565b6000600182019050919050565b60006135aa82613507565b6135b48185613512565b93506135bf83613523565b8060005b838110156135f7576135d48261357f565b6135de8882612960565b97506135e983613592565b9250506001810190506135c3565b5085935050505092915050565b60006101808201905061361a600083018f613463565b818103602083015261362c818e613487565b90508181036040830152613640818d613487565b90508181036060830152613654818c613487565b90508181036080830152613668818b613487565b905081810360a083015261367c818a61359f565b905081810360c0830152613690818961359f565b905081810360e08301526136a4818861359f565b90508181036101008301526136b9818761359f565b90506136c9610120830186613463565b6136d7610140830185613463565b8181036101608301526136ea8184613487565b90509d9c50505050505050505050505050565b7f4e487b7100000000000000000000000000000000000000000000000000000000600052601160045260246000fd5b600061373782612873565b91507fffffffffffffffffffffffffffffffffffffffffffffffffffffffffffffffff82141561376a576137696136fd565b5b60018201905091905056fea26469706673582212207359c300ce3899c6429598a628a934d80cd693887621ab6324908ed69ba7756c64736f6c634300080a0033",
  "immutableReferences": {},
  "source": "// SPDX-License-Identifier: MIT\npragma solidity ^0.8.9;\n\n// import \"./Candidate.sol\";\n// import \"./Voter.sol\";\nimport \"./AAiTVoteToken.sol\";\nimport \"./AAiTStudent.sol\";\n\ncontract AAiTElection {\n    struct ElectionStruct {\n        uint256 index;\n        string name;\n        string electionType;\n        string startDate;\n        string endDate;\n        address[] candidates;\n        address[] winners;\n        address[] voters;\n        address[] voted;\n        uint256 year;\n        uint256 section;\n        string department;\n    }\n\n    address private owner;\n    address private AAiTVoteTokenAddress;\n    address private AAiTStudentAddress;\n\n    mapping(string => ElectionStruct) private electionStructsMapping;\n    string[] private electionIndex;\n    ElectionStruct[] private electionValue;\n    ElectionStruct[] private allElections;\n    ElectionStruct[] private previousElections;\n\n    event LogNewElection(\n        uint256 index,\n        string name,\n        string electionType,\n        string startDate,\n        string endDate,\n        address[] candidates,\n        address[] winners,\n        address[] voters,\n        address[] voted,\n        uint256 year,\n        uint256 section,\n        string department\n    );\n    event LogUpdateElection(\n        uint256 index,\n        string name,\n        string electionType,\n        string startDate,\n        string endDate,\n        address[] candidates,\n        address[] winners,\n        address[] voters,\n        address[] voted,\n        uint256 year,\n        uint256 section,\n        string department\n    );\n\n    modifier onlyOwner() {\n        require(msg.sender == owner);\n        _;\n    }\n\n    constructor(address _AAiTVoteTokenAddress, address _AAiTStudentAddress) {\n        owner = msg.sender;\n        AAiTVoteTokenAddress = _AAiTVoteTokenAddress;\n        AAiTStudentAddress = _AAiTStudentAddress;\n    }\n\n    // ELECTION FUNCTIONS\n\n    function findElectionByName(string memory _name)\n        private\n        view\n        returns (bool)\n    {\n        ElectionStruct[] memory temp = allElections;\n        for (uint256 i = 0; i < temp.length; i++) {\n            if (\n                keccak256(abi.encodePacked(temp[i].name)) ==\n                keccak256(abi.encodePacked(_name))\n            ) {\n                return true;\n            }\n        }\n        return false;\n    }\n\n    function findElectionByType(\n        uint256 year,\n        uint256 section,\n        string memory department\n    ) private view returns (bool) {\n        ElectionStruct[] memory temp = allElections;\n        for (uint256 i = 0; i < temp.length; i++) {\n            if (\n                temp[i].year == year &&\n                temp[i].section == section &&\n                keccak256(abi.encodePacked(temp[i].department)) ==\n                keccak256(abi.encodePacked(department))\n            ) {\n                return true;\n            }\n        }\n        return false;\n    }\n\n    function addElection(\n        string memory name,\n        string memory electionType,\n        string memory startDate,\n        string memory endDate,\n        address[] memory candidates,\n        address[] memory voters,\n        uint256 year,\n        uint256 section,\n        string memory department\n    ) public {\n        require(!findElectionByName(name), \"Election already exists\");\n        require(\n            !findElectionByType(year, section, department),\n            \"Election already exists\"\n        );\n        uint256 index = allElections.length;\n        address[] memory empty;\n        electionStructsMapping[name] = ElectionStruct(\n            index,\n            name,\n            electionType,\n            startDate,\n            endDate,\n            candidates,\n            empty,\n            voters,\n            empty,\n            year,\n            section,\n            department\n        );\n        allElections.push(\n            ElectionStruct({\n                index: index,\n                name: name,\n                electionType: electionType,\n                startDate: startDate,\n                endDate: endDate,\n                candidates: candidates,\n                winners: empty,\n                voters: voters,\n                voted: empty,\n                year: year,\n                section: section,\n                department: department\n            })\n        );\n    }\n\n    function removeElection(string memory name) internal onlyOwner {\n        require(\n            findElectionByName(name),\n            \"Election with this name does not exist\"\n        );\n        // uint256 rowToDelete = electionStructsMapping[name].index;\n        // string memory keyToMove = electionIndex[electionIndex.length - 1];\n        electionIndex[electionStructsMapping[name].index] = electionIndex[\n            electionIndex.length - 1\n        ];\n        electionStructsMapping[electionIndex[electionIndex.length - 1]]\n            .index = electionStructsMapping[name].index;\n\n        electionValue[electionStructsMapping[name].index] = electionValue[\n            electionValue.length - 1\n        ];\n        electionValue[electionStructsMapping[name].index]\n            .index = electionStructsMapping[name].index;\n        electionValue.pop();\n        electionIndex.pop();\n        delete allElections[electionStructsMapping[name].index];\n        previousElections.push(\n            electionStructsMapping[electionIndex[electionIndex.length - 1]]\n        );\n        delete electionStructsMapping[electionIndex[electionIndex.length - 1]];\n    }\n\n    function vote(address voterAddress, address candidateAddress) public {\n        AAiTVoteToken tempToken = AAiTVoteToken(AAiTVoteTokenAddress);\n        AAiTStudent tempStudent = AAiTStudent(AAiTStudentAddress);\n        require(voterAddress != candidateAddress, \"Permission Denied\");\n        require(\n            voterAddress != owner || candidateAddress != owner,\n            \"Invalid Operation\"\n        );\n        require(tempStudent.isVoter(voterAddress), \"You can not vote\");\n        require(tempToken.balanceOf(voterAddress) > 0, \"Insufficient Token\");\n\n        tempToken.transferFrom(voterAddress, candidateAddress, 1);\n        moveToVoted(voterAddress, \"electionName\");\n    }\n\n    function burnAllTokens() public onlyOwner {\n        AAiTVoteToken temp = AAiTVoteToken(AAiTVoteTokenAddress);\n        temp.burnRemainingTokens(owner);\n    }\n\n    function declareWinner(string memory electionName, address[] memory winners)\n        public\n        view\n    {\n        ElectionStruct memory temp = electionStructsMapping[electionName];\n        temp.winners = winners;\n\n        // removeElection(electionName);\n\n        // uint256 index = electionStructsMapping[electionName].index;\n        // uint256 winnerIndex = electionStructsMapping[electionName].winners.length;\n        // electionStructsMapping[electionName].winners.push(electionStructsMapping[electionName].candidates[winnerIndex]);\n    }\n\n    function moveToVoted(address voterAddress, string memory electionName)\n        private\n    {\n        uint256 index = electionStructsMapping[electionName].index;\n\n        electionStructsMapping[electionName].voted.push(voterAddress);\n        delete electionStructsMapping[electionName].voters[index];\n        // uint256 index = electionStructsMapping[electionName].index;\n        electionValue[index] = electionStructsMapping[electionName];\n        emit LogUpdateElection(\n            index,\n            electionStructsMapping[electionName].name,\n            electionStructsMapping[electionName].electionType,\n            electionStructsMapping[electionName].startDate,\n            electionStructsMapping[electionName].endDate,\n            electionStructsMapping[electionName].candidates,\n            electionStructsMapping[electionName].winners,\n            electionStructsMapping[electionName].voters,\n            electionStructsMapping[electionName].voted,\n            electionStructsMapping[electionName].year,\n            electionStructsMapping[electionName].section,\n            electionStructsMapping[electionName].department\n        );\n    }\n\n    // GET FUNCTIONS\n\n    function getAllElections() public view returns (ElectionStruct[] memory) {\n        return allElections;\n    }\n}\n",
  "sourcePath": "/home/dannyterefe/Documents/VSCode_Projects/Final_Project/blockchain_based_voting_system/dvbst_smart_contracts/contracts/AAiTElection.sol",
  "compiler": {
    "name": "solc",
    "version": "0.8.10+commit.fc410830.Emscripten.clang"
  },
  "schemaVersion": "3.4.4",
  "updatedAt": "2022-05-14T08:29:40.808Z",
  "networkType": "ethereum",
  "devdoc": {
    "kind": "dev",
    "methods": {},
    "version": 1
  },
  "userdoc": {
    "kind": "user",
    "methods": {},
    "version": 1
  }
}