{
  "contractName": "AAiTElection",
  "abi": [
    {
      "inputs": [
        {
          "internalType": "address",
          "name": "_AAiTVoteTokenAddress",
          "type": "address"
        },
        {
          "internalType": "address",
          "name": "_AAiTStudentAddress",
          "type": "address"
        },
        {
          "internalType": "address",
          "name": "_AAiTElectionTimerAddress",
          "type": "address"
        }
      ],
      "stateMutability": "nonpayable",
      "type": "constructor"
    },
    {
      "anonymous": false,
      "inputs": [
        {
          "indexed": false,
          "internalType": "uint256",
          "name": "index",
          "type": "uint256"
        },
        {
          "indexed": false,
          "internalType": "string",
          "name": "name",
          "type": "string"
        },
        {
          "indexed": false,
          "internalType": "enum AAiTElection.ELECTION_TYPE",
          "name": "electionType",
          "type": "uint8"
        },
        {
          "indexed": false,
          "internalType": "string",
          "name": "startDate",
          "type": "string"
        },
        {
          "indexed": false,
          "internalType": "string",
          "name": "endDate",
          "type": "string"
        },
        {
          "indexed": false,
          "internalType": "address[]",
          "name": "candidates",
          "type": "address[]"
        },
        {
          "indexed": false,
          "internalType": "address[]",
          "name": "winners",
          "type": "address[]"
        },
        {
          "indexed": false,
          "internalType": "address[]",
          "name": "voters",
          "type": "address[]"
        },
        {
          "indexed": false,
          "internalType": "address[]",
          "name": "voted",
          "type": "address[]"
        },
        {
          "indexed": false,
          "internalType": "uint256",
          "name": "year",
          "type": "uint256"
        },
        {
          "indexed": false,
          "internalType": "uint256",
          "name": "section",
          "type": "uint256"
        },
        {
          "indexed": false,
          "internalType": "enum AAiTElection.DEPTARTMENT_TYPE",
          "name": "department",
          "type": "uint8"
        }
      ],
      "name": "LogNewElection",
      "type": "event"
    },
    {
      "anonymous": false,
      "inputs": [
        {
          "indexed": false,
          "internalType": "uint256",
          "name": "index",
          "type": "uint256"
        },
        {
          "indexed": false,
          "internalType": "string",
          "name": "name",
          "type": "string"
        },
        {
          "indexed": false,
          "internalType": "enum AAiTElection.ELECTION_TYPE",
          "name": "electionType",
          "type": "uint8"
        },
        {
          "indexed": false,
          "internalType": "string",
          "name": "startDate",
          "type": "string"
        },
        {
          "indexed": false,
          "internalType": "string",
          "name": "endDate",
          "type": "string"
        },
        {
          "indexed": false,
          "internalType": "address[]",
          "name": "candidates",
          "type": "address[]"
        },
        {
          "indexed": false,
          "internalType": "address[]",
          "name": "winners",
          "type": "address[]"
        },
        {
          "indexed": false,
          "internalType": "address[]",
          "name": "voters",
          "type": "address[]"
        },
        {
          "indexed": false,
          "internalType": "address[]",
          "name": "voted",
          "type": "address[]"
        },
        {
          "indexed": false,
          "internalType": "uint256",
          "name": "year",
          "type": "uint256"
        },
        {
          "indexed": false,
          "internalType": "uint256",
          "name": "section",
          "type": "uint256"
        },
        {
          "indexed": false,
          "internalType": "enum AAiTElection.DEPTARTMENT_TYPE",
          "name": "department",
          "type": "uint8"
        }
      ],
      "name": "LogUpdateElection",
      "type": "event"
    },
    {
      "inputs": [
        {
          "internalType": "string",
          "name": "name",
          "type": "string"
        },
        {
          "internalType": "enum AAiTElection.ELECTION_TYPE",
          "name": "electionType",
          "type": "uint8"
        },
        {
          "internalType": "string",
          "name": "startDate",
          "type": "string"
        },
        {
          "internalType": "string",
          "name": "endDate",
          "type": "string"
        },
        {
          "internalType": "address[]",
          "name": "candidates",
          "type": "address[]"
        },
        {
          "internalType": "address[]",
          "name": "voters",
          "type": "address[]"
        },
        {
          "internalType": "uint256",
          "name": "year",
          "type": "uint256"
        },
        {
          "internalType": "uint256",
          "name": "section",
          "type": "uint256"
        },
        {
          "internalType": "enum AAiTElection.DEPTARTMENT_TYPE",
          "name": "department",
          "type": "uint8"
        }
      ],
      "name": "addElection",
      "outputs": [],
      "stateMutability": "nonpayable",
      "type": "function"
    },
    {
      "inputs": [
        {
          "internalType": "address",
          "name": "voterAddress",
          "type": "address"
        },
        {
          "internalType": "address",
          "name": "candidateAddress",
          "type": "address"
        }
      ],
      "name": "vote",
      "outputs": [],
      "stateMutability": "nonpayable",
      "type": "function"
    },
    {
      "inputs": [],
      "name": "burnAllTokens",
      "outputs": [],
      "stateMutability": "nonpayable",
      "type": "function"
    },
    {
      "inputs": [
        {
          "internalType": "string",
          "name": "electionName",
          "type": "string"
        },
        {
          "internalType": "address[]",
          "name": "winners",
          "type": "address[]"
        }
      ],
      "name": "declareWinner",
      "outputs": [],
      "stateMutability": "view",
      "type": "function",
      "constant": true
    },
    {
      "inputs": [],
      "name": "getAllElections",
      "outputs": [
        {
          "components": [
            {
              "internalType": "uint256",
              "name": "index",
              "type": "uint256"
            },
            {
              "internalType": "string",
              "name": "name",
              "type": "string"
            },
            {
              "internalType": "enum AAiTElection.ELECTION_TYPE",
              "name": "electionType",
              "type": "uint8"
            },
            {
              "internalType": "string",
              "name": "startDate",
              "type": "string"
            },
            {
              "internalType": "string",
              "name": "endDate",
              "type": "string"
            },
            {
              "internalType": "address[]",
              "name": "candidates",
              "type": "address[]"
            },
            {
              "internalType": "address[]",
              "name": "winners",
              "type": "address[]"
            },
            {
              "internalType": "address[]",
              "name": "voters",
              "type": "address[]"
            },
            {
              "internalType": "address[]",
              "name": "voted",
              "type": "address[]"
            },
            {
              "internalType": "uint256",
              "name": "year",
              "type": "uint256"
            },
            {
              "internalType": "uint256",
              "name": "section",
              "type": "uint256"
            },
            {
              "internalType": "enum AAiTElection.DEPTARTMENT_TYPE",
              "name": "department",
              "type": "uint8"
            }
          ],
          "internalType": "struct AAiTElection.ElectionStruct[]",
          "name": "",
          "type": "tuple[]"
        }
      ],
      "stateMutability": "view",
      "type": "function",
      "constant": true
    }
  ],
  "bytecode": "0x60806040523480156200001157600080fd5b506040516200391a3803806200391a8339818101604052810190620000379190620001ad565b336000806101000a81548173ffffffffffffffffffffffffffffffffffffffff021916908373ffffffffffffffffffffffffffffffffffffffff16021790555082600160006101000a81548173ffffffffffffffffffffffffffffffffffffffff021916908373ffffffffffffffffffffffffffffffffffffffff16021790555081600260006101000a81548173ffffffffffffffffffffffffffffffffffffffff021916908373ffffffffffffffffffffffffffffffffffffffff16021790555080600360006101000a81548173ffffffffffffffffffffffffffffffffffffffff021916908373ffffffffffffffffffffffffffffffffffffffff16021790555050505062000209565b600080fd5b600073ffffffffffffffffffffffffffffffffffffffff82169050919050565b6000620001758262000148565b9050919050565b620001878162000168565b81146200019357600080fd5b50565b600081519050620001a7816200017c565b92915050565b600080600060608486031215620001c957620001c862000143565b5b6000620001d98682870162000196565b9350506020620001ec8682870162000196565b9250506040620001ff8682870162000196565b9150509250925092565b61370180620002196000396000f3fe608060405234801561001057600080fd5b50600436106100575760003560e01c80631a41792d1461005c5780631afa74e5146100785780637fd5f268146100945780639ca37aab146100b2578063c17e2aa1146100ce575b600080fd5b610076600480360381019061007191906128c7565b6100d8565b005b610092600480360381019061008d9190612a1d565b610559565b005b61009c610938565b6040516100a99190612e61565b60405180910390f35b6100cc60048036038101906100c79190612e83565b610e1a565b005b6100d66112d8565b005b6100e1896113e5565b15610121576040517f08c379a000000000000000000000000000000000000000000000000000000000815260040161011890612f58565b60405180910390fd5b61012c83838361196d565b1561016c576040517f08c379a000000000000000000000000000000000000000000000000000000000815260040161016390612f58565b60405180910390fd5b6000600780549050905060606040518061018001604052808381526020018c81526020018b60028111156101a3576101a2612b20565b5b81526020018a81526020018981526020018881526020018281526020018781526020018281526020018681526020018581526020018460018111156101eb576101ea612b20565b5b81525060048c6040516101fe9190612fb4565b90815260200160405180910390206000820151816000015560208201518160010190805190602001906102329291906123bb565b5060408201518160020160006101000a81548160ff0219169083600281111561025e5761025d612b20565b5b0217905550606082015181600301908051906020019061027f9291906123bb565b50608082015181600401908051906020019061029c9291906123bb565b5060a08201518160050190805190602001906102b9929190612441565b5060c08201518160060190805190602001906102d6929190612441565b5060e08201518160070190805190602001906102f3929190612441565b50610100820151816008019080519060200190610311929190612441565b50610120820151816009015561014082015181600a015561016082015181600b0160006101000a81548160ff0219169083600181111561035457610353612b20565b5b021790555090505060076040518061018001604052808481526020018d81526020018c600281111561038957610388612b20565b5b81526020018b81526020018a81526020018981526020018381526020018881526020018381526020018781526020018681526020018560018111156103d1576103d0612b20565b5b81525090806001815401808255809150506001900390600052602060002090600c02016000909190919091506000820151816000015560208201518160010190805190602001906104239291906123bb565b5060408201518160020160006101000a81548160ff0219169083600281111561044f5761044e612b20565b5b021790555060608201518160030190805190602001906104709291906123bb565b50608082015181600401908051906020019061048d9291906123bb565b5060a08201518160050190805190602001906104aa929190612441565b5060c08201518160060190805190602001906104c7929190612441565b5060e08201518160070190805190602001906104e4929190612441565b50610100820151816008019080519060200190610502929190612441565b50610120820151816009015561014082015181600a015561016082015181600b0160006101000a81548160ff0219169083600181111561054557610544612b20565b5b021790555050505050505050505050505050565b6000600160009054906101000a900473ffffffffffffffffffffffffffffffffffffffff1690506000600260009054906101000a900473ffffffffffffffffffffffffffffffffffffffff1690508273ffffffffffffffffffffffffffffffffffffffff168473ffffffffffffffffffffffffffffffffffffffff161415610616576040517f08c379a000000000000000000000000000000000000000000000000000000000815260040161060d90613017565b60405180910390fd5b60008054906101000a900473ffffffffffffffffffffffffffffffffffffffff1673ffffffffffffffffffffffffffffffffffffffff168473ffffffffffffffffffffffffffffffffffffffff161415806106bd575060008054906101000a900473ffffffffffffffffffffffffffffffffffffffff1673ffffffffffffffffffffffffffffffffffffffff168373ffffffffffffffffffffffffffffffffffffffff1614155b6106fc576040517f08c379a00000000000000000000000000000000000000000000000000000000081526004016106f390613083565b60405180910390fd5b8073ffffffffffffffffffffffffffffffffffffffff1663a7771ee3856040518263ffffffff1660e01b815260040161073591906130b2565b602060405180830381865afa158015610752573d6000803e3d6000fd5b505050506040513d601f19601f820116820180604052508101906107769190613105565b6107b5576040517f08c379a00000000000000000000000000000000000000000000000000000000081526004016107ac9061317e565b60405180910390fd5b60008273ffffffffffffffffffffffffffffffffffffffff166370a08231866040518263ffffffff1660e01b81526004016107f091906130b2565b602060405180830381865afa15801561080d573d6000803e3d6000fd5b505050506040513d601f19601f8201168201806040525081019061083191906131b3565b11610871576040517f08c379a00000000000000000000000000000000000000000000000000000000081526004016108689061322c565b60405180910390fd5b8173ffffffffffffffffffffffffffffffffffffffff166323b872dd858560016040518463ffffffff1660e01b81526004016108af93929190613291565b6020604051808303816000875af11580156108ce573d6000803e3d6000fd5b505050506040513d601f19601f820116820180604052508101906108f29190613105565b50610932846040518060400160405280600c81526020017f656c656374696f6e4e616d650000000000000000000000000000000000000000815250611f4c565b50505050565b60606007805480602002602001604051908101604052809291908181526020016000905b82821015610e1157838290600052602060002090600c0201604051806101800160405290816000820154815260200160018201805461099a906132f7565b80601f01602080910402602001604051908101604052809291908181526020018280546109c6906132f7565b8015610a135780601f106109e857610100808354040283529160200191610a13565b820191906000526020600020905b8154815290600101906020018083116109f657829003601f168201915b505050505081526020016002820160009054906101000a900460ff166002811115610a4157610a40612b20565b5b6002811115610a5357610a52612b20565b5b8152602001600382018054610a67906132f7565b80601f0160208091040260200160405190810160405280929190818152602001828054610a93906132f7565b8015610ae05780601f10610ab557610100808354040283529160200191610ae0565b820191906000526020600020905b815481529060010190602001808311610ac357829003601f168201915b50505050508152602001600482018054610af9906132f7565b80601f0160208091040260200160405190810160405280929190818152602001828054610b25906132f7565b8015610b725780601f10610b4757610100808354040283529160200191610b72565b820191906000526020600020905b815481529060010190602001808311610b5557829003601f168201915b5050505050815260200160058201805480602002602001604051908101604052809291908181526020018280548015610c0057602002820191906000526020600020905b8160009054906101000a900473ffffffffffffffffffffffffffffffffffffffff1673ffffffffffffffffffffffffffffffffffffffff1681526020019060010190808311610bb6575b5050505050815260200160068201805480602002602001604051908101604052809291908181526020018280548015610c8e57602002820191906000526020600020905b8160009054906101000a900473ffffffffffffffffffffffffffffffffffffffff1673ffffffffffffffffffffffffffffffffffffffff1681526020019060010190808311610c44575b5050505050815260200160078201805480602002602001604051908101604052809291908181526020018280548015610d1c57602002820191906000526020600020905b8160009054906101000a900473ffffffffffffffffffffffffffffffffffffffff1673ffffffffffffffffffffffffffffffffffffffff1681526020019060010190808311610cd2575b5050505050815260200160088201805480602002602001604051908101604052809291908181526020018280548015610daa57602002820191906000526020600020905b8160009054906101000a900473ffffffffffffffffffffffffffffffffffffffff1673ffffffffffffffffffffffffffffffffffffffff1681526020019060010190808311610d60575b5050505050815260200160098201548152602001600a8201548152602001600b820160009054906101000a900460ff166001811115610dec57610deb612b20565b5b6001811115610dfe57610dfd612b20565b5b815250508152602001906001019061095c565b50505050905090565b6000600483604051610e2c9190612fb4565b90815260200160405180910390206040518061018001604052908160008201548152602001600182018054610e60906132f7565b80601f0160208091040260200160405190810160405280929190818152602001828054610e8c906132f7565b8015610ed95780601f10610eae57610100808354040283529160200191610ed9565b820191906000526020600020905b815481529060010190602001808311610ebc57829003601f168201915b505050505081526020016002820160009054906101000a900460ff166002811115610f0757610f06612b20565b5b6002811115610f1957610f18612b20565b5b8152602001600382018054610f2d906132f7565b80601f0160208091040260200160405190810160405280929190818152602001828054610f59906132f7565b8015610fa65780601f10610f7b57610100808354040283529160200191610fa6565b820191906000526020600020905b815481529060010190602001808311610f8957829003601f168201915b50505050508152602001600482018054610fbf906132f7565b80601f0160208091040260200160405190810160405280929190818152602001828054610feb906132f7565b80156110385780601f1061100d57610100808354040283529160200191611038565b820191906000526020600020905b81548152906001019060200180831161101b57829003601f168201915b50505050508152602001600582018054806020026020016040519081016040528092919081815260200182805480156110c657602002820191906000526020600020905b8160009054906101000a900473ffffffffffffffffffffffffffffffffffffffff1673ffffffffffffffffffffffffffffffffffffffff168152602001906001019080831161107c575b505050505081526020016006820180548060200260200160405190810160405280929190818152602001828054801561115457602002820191906000526020600020905b8160009054906101000a900473ffffffffffffffffffffffffffffffffffffffff1673ffffffffffffffffffffffffffffffffffffffff168152602001906001019080831161110a575b50505050508152602001600782018054806020026020016040519081016040528092919081815260200182805480156111e257602002820191906000526020600020905b8160009054906101000a900473ffffffffffffffffffffffffffffffffffffffff1673ffffffffffffffffffffffffffffffffffffffff1681526020019060010190808311611198575b505050505081526020016008820180548060200260200160405190810160405280929190818152602001828054801561127057602002820191906000526020600020905b8160009054906101000a900473ffffffffffffffffffffffffffffffffffffffff1673ffffffffffffffffffffffffffffffffffffffff1681526020019060010190808311611226575b5050505050815260200160098201548152602001600a8201548152602001600b820160009054906101000a900460ff1660018111156112b2576112b1612b20565b5b60018111156112c4576112c3612b20565b5b815250509050818160c00181905250505050565b60008054906101000a900473ffffffffffffffffffffffffffffffffffffffff1673ffffffffffffffffffffffffffffffffffffffff163373ffffffffffffffffffffffffffffffffffffffff161461133057600080fd5b6000600160009054906101000a900473ffffffffffffffffffffffffffffffffffffffff1690508073ffffffffffffffffffffffffffffffffffffffff1663aff1034760008054906101000a900473ffffffffffffffffffffffffffffffffffffffff166040518263ffffffff1660e01b81526004016113b091906130b2565b600060405180830381600087803b1580156113ca57600080fd5b505af11580156113de573d6000803e3d6000fd5b5050505050565b6000806007805480602002602001604051908101604052809291908181526020016000905b828210156118bf57838290600052602060002090600c02016040518061018001604052908160008201548152602001600182018054611448906132f7565b80601f0160208091040260200160405190810160405280929190818152602001828054611474906132f7565b80156114c15780601f10611496576101008083540402835291602001916114c1565b820191906000526020600020905b8154815290600101906020018083116114a457829003601f168201915b505050505081526020016002820160009054906101000a900460ff1660028111156114ef576114ee612b20565b5b600281111561150157611500612b20565b5b8152602001600382018054611515906132f7565b80601f0160208091040260200160405190810160405280929190818152602001828054611541906132f7565b801561158e5780601f106115635761010080835404028352916020019161158e565b820191906000526020600020905b81548152906001019060200180831161157157829003601f168201915b505050505081526020016004820180546115a7906132f7565b80601f01602080910402602001604051908101604052809291908181526020018280546115d3906132f7565b80156116205780601f106115f557610100808354040283529160200191611620565b820191906000526020600020905b81548152906001019060200180831161160357829003601f168201915b50505050508152602001600582018054806020026020016040519081016040528092919081815260200182805480156116ae57602002820191906000526020600020905b8160009054906101000a900473ffffffffffffffffffffffffffffffffffffffff1673ffffffffffffffffffffffffffffffffffffffff1681526020019060010190808311611664575b505050505081526020016006820180548060200260200160405190810160405280929190818152602001828054801561173c57602002820191906000526020600020905b8160009054906101000a900473ffffffffffffffffffffffffffffffffffffffff1673ffffffffffffffffffffffffffffffffffffffff16815260200190600101908083116116f2575b50505050508152602001600782018054806020026020016040519081016040528092919081815260200182805480156117ca57602002820191906000526020600020905b8160009054906101000a900473ffffffffffffffffffffffffffffffffffffffff1673ffffffffffffffffffffffffffffffffffffffff1681526020019060010190808311611780575b505050505081526020016008820180548060200260200160405190810160405280929190818152602001828054801561185857602002820191906000526020600020905b8160009054906101000a900473ffffffffffffffffffffffffffffffffffffffff1673ffffffffffffffffffffffffffffffffffffffff168152602001906001019080831161180e575b5050505050815260200160098201548152602001600a8201548152602001600b820160009054906101000a900460ff16600181111561189a57611899612b20565b5b60018111156118ac576118ab612b20565b5b815250508152602001906001019061140a565b50505050905060005b815181101561196157836040516020016118e29190612fb4565b6040516020818303038152906040528051906020012082828151811061190b5761190a613329565b5b6020026020010151602001516040516020016119279190612fb4565b60405160208183030381529060405280519060200120141561194e57600192505050611968565b808061195990613387565b9150506118c8565b5060009150505b919050565b6000806007805480602002602001604051908101604052809291908181526020016000905b82821015611e4757838290600052602060002090600c020160405180610180016040529081600082015481526020016001820180546119d0906132f7565b80601f01602080910402602001604051908101604052809291908181526020018280546119fc906132f7565b8015611a495780601f10611a1e57610100808354040283529160200191611a49565b820191906000526020600020905b815481529060010190602001808311611a2c57829003601f168201915b505050505081526020016002820160009054906101000a900460ff166002811115611a7757611a76612b20565b5b6002811115611a8957611a88612b20565b5b8152602001600382018054611a9d906132f7565b80601f0160208091040260200160405190810160405280929190818152602001828054611ac9906132f7565b8015611b165780601f10611aeb57610100808354040283529160200191611b16565b820191906000526020600020905b815481529060010190602001808311611af957829003601f168201915b50505050508152602001600482018054611b2f906132f7565b80601f0160208091040260200160405190810160405280929190818152602001828054611b5b906132f7565b8015611ba85780601f10611b7d57610100808354040283529160200191611ba8565b820191906000526020600020905b815481529060010190602001808311611b8b57829003601f168201915b5050505050815260200160058201805480602002602001604051908101604052809291908181526020018280548015611c3657602002820191906000526020600020905b8160009054906101000a900473ffffffffffffffffffffffffffffffffffffffff1673ffffffffffffffffffffffffffffffffffffffff1681526020019060010190808311611bec575b5050505050815260200160068201805480602002602001604051908101604052809291908181526020018280548015611cc457602002820191906000526020600020905b8160009054906101000a900473ffffffffffffffffffffffffffffffffffffffff1673ffffffffffffffffffffffffffffffffffffffff1681526020019060010190808311611c7a575b5050505050815260200160078201805480602002602001604051908101604052809291908181526020018280548015611d5257602002820191906000526020600020905b8160009054906101000a900473ffffffffffffffffffffffffffffffffffffffff1673ffffffffffffffffffffffffffffffffffffffff1681526020019060010190808311611d08575b5050505050815260200160088201805480602002602001604051908101604052809291908181526020018280548015611de057602002820191906000526020600020905b8160009054906101000a900473ffffffffffffffffffffffffffffffffffffffff1673ffffffffffffffffffffffffffffffffffffffff1681526020019060010190808311611d96575b5050505050815260200160098201548152602001600a8201548152602001600b820160009054906101000a900460ff166001811115611e2257611e21612b20565b5b6001811115611e3457611e33612b20565b5b8152505081526020019060010190611992565b50505050905060005b8151811015611f3e5785828281518110611e6d57611e6c613329565b5b60200260200101516101200151148015611ea5575084828281518110611e9657611e95613329565b5b60200260200101516101400151145b8015611f1b575083604051602001611ebd9190613406565b60405160208183030381529060405280519060200120828281518110611ee657611ee5613329565b5b60200260200101516101600151604051602001611f039190613406565b60405160208183030381529060405280519060200120145b15611f2b57600192505050611f45565b8080611f3690613387565b915050611e50565b5060009150505b9392505050565b6000600482604051611f5e9190612fb4565b9081526020016040518091039020600001549050600482604051611f829190612fb4565b9081526020016040518091039020600801839080600181540180825580915050600190039060005260206000200160009091909190916101000a81548173ffffffffffffffffffffffffffffffffffffffff021916908373ffffffffffffffffffffffffffffffffffffffff1602179055506004826040516120049190612fb4565b9081526020016040518091039020600701818154811061202757612026613329565b5b9060005260206000200160006101000a81549073ffffffffffffffffffffffffffffffffffffffff02191690556004826040516120649190612fb4565b90815260200160405180910390206006828154811061208657612085613329565b5b90600052602060002090600c02016000820154816000015560018201816001019080546120b2906132f7565b6120bd9291906124cb565b506002820160009054906101000a900460ff168160020160006101000a81548160ff021916908360028111156120f6576120f5612b20565b5b0217905550600382018160030190805461210f906132f7565b61211a9291906124cb565b50600482018160040190805461212f906132f7565b61213a9291906124cb565b506005820181600501908054612151929190612558565b506006820181600601908054612168929190612558565b50600782018160070190805461217f929190612558565b506008820181600801908054612196929190612558565b5060098201548160090155600a82015481600a0155600b820160009054906101000a900460ff1681600b0160006101000a81548160ff021916908360018111156121e3576121e2612b20565b5b02179055509050507fc07394751660e59a8ce96f2b1a019cabe001a668c8853247128b846725c0dee58160048460405161221d9190612fb4565b908152602001604051809103902060010160048560405161223e9190612fb4565b908152602001604051809103902060020160009054906101000a900460ff1660048660405161226d9190612fb4565b908152602001604051809103902060030160048760405161228e9190612fb4565b90815260200160405180910390206004016004886040516122af9190612fb4565b90815260200160405180910390206005016004896040516122d09190612fb4565b908152602001604051809103902060060160048a6040516122f19190612fb4565b908152602001604051809103902060070160048b6040516123129190612fb4565b908152602001604051809103902060080160048c6040516123339190612fb4565b90815260200160405180910390206009015460048d6040516123559190612fb4565b9081526020016040518091039020600a015460048e6040516123779190612fb4565b9081526020016040518091039020600b0160009054906101000a900460ff166040516123ae9c9b9a999897969594939291906135e0565b60405180910390a1505050565b8280546123c7906132f7565b90600052602060002090601f0160209004810192826123e95760008555612430565b82601f1061240257805160ff1916838001178555612430565b82800160010185558215612430579182015b8281111561242f578251825591602001919060010190612414565b5b50905061243d91906125aa565b5090565b8280548282559060005260206000209081019282156124ba579160200282015b828111156124b95782518260006101000a81548173ffffffffffffffffffffffffffffffffffffffff021916908373ffffffffffffffffffffffffffffffffffffffff16021790555091602001919060010190612461565b5b5090506124c791906125aa565b5090565b8280546124d7906132f7565b90600052602060002090601f0160209004810192826124f95760008555612547565b82601f1061250a5780548555612547565b8280016001018555821561254757600052602060002091601f016020900482015b8281111561254657825482559160010191906001019061252b565b5b50905061255491906125aa565b5090565b8280548282559060005260206000209081019282156125995760005260206000209182015b8281111561259857825482559160010191906001019061257d565b5b5090506125a691906125aa565b5090565b5b808211156125c35760008160009055506001016125ab565b5090565b6000604051905090565b600080fd5b600080fd5b600080fd5b600080fd5b6000601f19601f8301169050919050565b7f4e487b7100000000000000000000000000000000000000000000000000000000600052604160045260246000fd5b61262e826125e5565b810181811067ffffffffffffffff8211171561264d5761264c6125f6565b5b80604052505050565b60006126606125c7565b905061266c8282612625565b919050565b600067ffffffffffffffff82111561268c5761268b6125f6565b5b612695826125e5565b9050602081019050919050565b82818337600083830152505050565b60006126c46126bf84612671565b612656565b9050828152602081018484840111156126e0576126df6125e0565b5b6126eb8482856126a2565b509392505050565b600082601f830112612708576127076125db565b5b81356127188482602086016126b1565b91505092915050565b6003811061272e57600080fd5b50565b60008135905061274081612721565b92915050565b600067ffffffffffffffff821115612761576127606125f6565b5b602082029050602081019050919050565b600080fd5b600073ffffffffffffffffffffffffffffffffffffffff82169050919050565b60006127a282612777565b9050919050565b6127b281612797565b81146127bd57600080fd5b50565b6000813590506127cf816127a9565b92915050565b60006127e86127e384612746565b612656565b9050808382526020820190506020840283018581111561280b5761280a612772565b5b835b81811015612834578061282088826127c0565b84526020840193505060208101905061280d565b5050509392505050565b600082601f830112612853576128526125db565b5b81356128638482602086016127d5565b91505092915050565b6000819050919050565b61287f8161286c565b811461288a57600080fd5b50565b60008135905061289c81612876565b92915050565b600281106128af57600080fd5b50565b6000813590506128c1816128a2565b92915050565b60008060008060008060008060006101208a8c0312156128ea576128e96125d1565b5b60008a013567ffffffffffffffff811115612908576129076125d6565b5b6129148c828d016126f3565b99505060206129258c828d01612731565b98505060408a013567ffffffffffffffff811115612946576129456125d6565b5b6129528c828d016126f3565b97505060608a013567ffffffffffffffff811115612973576129726125d6565b5b61297f8c828d016126f3565b96505060808a013567ffffffffffffffff8111156129a05761299f6125d6565b5b6129ac8c828d0161283e565b95505060a08a013567ffffffffffffffff8111156129cd576129cc6125d6565b5b6129d98c828d0161283e565b94505060c06129ea8c828d0161288d565b93505060e06129fb8c828d0161288d565b925050610100612a0d8c828d016128b2565b9150509295985092959850929598565b60008060408385031215612a3457612a336125d1565b5b6000612a42858286016127c0565b9250506020612a53858286016127c0565b9150509250929050565b600081519050919050565b600082825260208201905092915050565b6000819050602082019050919050565b612a928161286c565b82525050565b600081519050919050565b600082825260208201905092915050565b60005b83811015612ad2578082015181840152602081019050612ab7565b83811115612ae1576000848401525b50505050565b6000612af282612a98565b612afc8185612aa3565b9350612b0c818560208601612ab4565b612b15816125e5565b840191505092915050565b7f4e487b7100000000000000000000000000000000000000000000000000000000600052602160045260246000fd5b60038110612b6057612b5f612b20565b5b50565b6000819050612b7182612b4f565b919050565b6000612b8182612b63565b9050919050565b612b9181612b76565b82525050565b600081519050919050565b600082825260208201905092915050565b6000819050602082019050919050565b612bcc81612797565b82525050565b6000612bde8383612bc3565b60208301905092915050565b6000602082019050919050565b6000612c0282612b97565b612c0c8185612ba2565b9350612c1783612bb3565b8060005b83811015612c48578151612c2f8882612bd2565b9750612c3a83612bea565b925050600181019050612c1b565b5085935050505092915050565b60028110612c6657612c65612b20565b5b50565b6000819050612c7782612c55565b919050565b6000612c8782612c69565b9050919050565b612c9781612c7c565b82525050565b600061018083016000830151612cb66000860182612a89565b5060208301518482036020860152612cce8282612ae7565b9150506040830151612ce36040860182612b88565b5060608301518482036060860152612cfb8282612ae7565b91505060808301518482036080860152612d158282612ae7565b91505060a083015184820360a0860152612d2f8282612bf7565b91505060c083015184820360c0860152612d498282612bf7565b91505060e083015184820360e0860152612d638282612bf7565b915050610100830151848203610100860152612d7f8282612bf7565b915050610120830151612d96610120860182612a89565b50610140830151612dab610140860182612a89565b50610160830151612dc0610160860182612c8e565b508091505092915050565b6000612dd78383612c9d565b905092915050565b6000602082019050919050565b6000612df782612a5d565b612e018185612a68565b935083602082028501612e1385612a79565b8060005b85811015612e4f5784840389528151612e308582612dcb565b9450612e3b83612ddf565b925060208a01995050600181019050612e17565b50829750879550505050505092915050565b60006020820190508181036000830152612e7b8184612dec565b905092915050565b60008060408385031215612e9a57612e996125d1565b5b600083013567ffffffffffffffff811115612eb857612eb76125d6565b5b612ec4858286016126f3565b925050602083013567ffffffffffffffff811115612ee557612ee46125d6565b5b612ef18582860161283e565b9150509250929050565b600082825260208201905092915050565b7f456c656374696f6e20616c726561647920657869737473000000000000000000600082015250565b6000612f42601783612efb565b9150612f4d82612f0c565b602082019050919050565b60006020820190508181036000830152612f7181612f35565b9050919050565b600081905092915050565b6000612f8e82612a98565b612f988185612f78565b9350612fa8818560208601612ab4565b80840191505092915050565b6000612fc08284612f83565b915081905092915050565b7f5065726d697373696f6e2044656e696564000000000000000000000000000000600082015250565b6000613001601183612efb565b915061300c82612fcb565b602082019050919050565b6000602082019050818103600083015261303081612ff4565b9050919050565b7f496e76616c6964204f7065726174696f6e000000000000000000000000000000600082015250565b600061306d601183612efb565b915061307882613037565b602082019050919050565b6000602082019050818103600083015261309c81613060565b9050919050565b6130ac81612797565b82525050565b60006020820190506130c760008301846130a3565b92915050565b60008115159050919050565b6130e2816130cd565b81146130ed57600080fd5b50565b6000815190506130ff816130d9565b92915050565b60006020828403121561311b5761311a6125d1565b5b6000613129848285016130f0565b91505092915050565b7f596f752063616e206e6f7420766f746500000000000000000000000000000000600082015250565b6000613168601083612efb565b915061317382613132565b602082019050919050565b600060208201905081810360008301526131978161315b565b9050919050565b6000815190506131ad81612876565b92915050565b6000602082840312156131c9576131c86125d1565b5b60006131d78482850161319e565b91505092915050565b7f496e73756666696369656e7420546f6b656e0000000000000000000000000000600082015250565b6000613216601283612efb565b9150613221826131e0565b602082019050919050565b6000602082019050818103600083015261324581613209565b9050919050565b6000819050919050565b6000819050919050565b600061327b6132766132718461324c565b613256565b61286c565b9050919050565b61328b81613260565b82525050565b60006060820190506132a660008301866130a3565b6132b360208301856130a3565b6132c06040830184613282565b949350505050565b7f4e487b7100000000000000000000000000000000000000000000000000000000600052602260045260246000fd5b6000600282049050600182168061330f57607f821691505b60208210811415613323576133226132c8565b5b50919050565b7f4e487b7100000000000000000000000000000000000000000000000000000000600052603260045260246000fd5b7f4e487b7100000000000000000000000000000000000000000000000000000000600052601160045260246000fd5b60006133928261286c565b91507fffffffffffffffffffffffffffffffffffffffffffffffffffffffffffffffff8214156133c5576133c4613358565b5b600182019050919050565b60008160f81b9050919050565b60006133e8826133d0565b9050919050565b6134006133fb82612c7c565b6133dd565b82525050565b600061341282846133ef565b60018201915081905092915050565b61342a8161286c565b82525050565b60008190508160005260206000209050919050565b60008154613452816132f7565b61345c8186612efb565b945060018216600081146134775760018114613489576134bc565b60ff19831686526020860193506134bc565b61349285613430565b60005b838110156134b457815481890152600182019150602081019050613495565b808801955050505b50505092915050565b6134ce81612b76565b82525050565b600081549050919050565b600082825260208201905092915050565b60008190508160005260206000209050919050565b60008160001c9050919050565b600073ffffffffffffffffffffffffffffffffffffffff82169050919050565b600061354561354083613505565b613512565b9050919050565b60006135588254613532565b9050919050565b6000600182019050919050565b6000613577826134d4565b61358181856134df565b935061358c836134f0565b8060005b838110156135c4576135a18261354c565b6135ab8882612bd2565b97506135b68361355f565b925050600181019050613590565b5085935050505092915050565b6135da81612c7c565b82525050565b6000610180820190506135f6600083018f613421565b8181036020830152613608818e613445565b9050613617604083018d6134c5565b8181036060830152613629818c613445565b9050818103608083015261363d818b613445565b905081810360a0830152613651818a61356c565b905081810360c0830152613665818961356c565b905081810360e0830152613679818861356c565b905081810361010083015261368e818761356c565b905061369e610120830186613421565b6136ac610140830185613421565b6136ba6101608301846135d1565b9d9c5050505050505050505050505056fea2646970667358221220340d294dfdf6345a469723e0fa0155783a20473874c34d738d4dd95f01d06dda64736f6c634300080a0033",
  "immutableReferences": {},
  "source": "// SPDX-License-Identifier: MIT\npragma solidity ^0.8.9;\n\n// import \"./Candidate.sol\";\n// import \"./Voter.sol\";\nimport \"./AAiTVoteToken.sol\";\nimport \"./AAiTStudent.sol\";\n\ncontract AAiTElection {\n\n    enum DEPTARTMENT_TYPE { SITE, ELEC }\n    enum ELECTION_TYPE { DEPARTMENT, BATCH, SECTION }\n\n    struct ElectionStruct {\n        uint256 index;\n        string name;\n        ELECTION_TYPE electionType;\n        string startDate;\n        string endDate;\n        address[] candidates;\n        address[] winners;\n        address[] voters;\n        address[] voted;\n        uint256 year;\n        uint256 section;\n        DEPTARTMENT_TYPE department;\n    }\n\n    address private owner;\n    address private AAiTVoteTokenAddress;\n    address private AAiTStudentAddress;\n    address private AAiTElectionTimerAddress;\n\n    mapping(string => ElectionStruct) private electionStructsMapping;\n    string[] private electionIndex;\n    ElectionStruct[] private electionValue;\n    ElectionStruct[] private allElections;\n    ElectionStruct[] private previousElections;\n\n    event LogNewElection(\n        uint256 index,\n        string name,\n        ELECTION_TYPE electionType,\n        string startDate,\n        string endDate,\n        address[] candidates,\n        address[] winners,\n        address[] voters,\n        address[] voted,\n        uint256 year,\n        uint256 section,\n        DEPTARTMENT_TYPE department\n    );\n    event LogUpdateElection(\n        uint256 index,\n        string name,\n        ELECTION_TYPE electionType,\n        string startDate,\n        string endDate,\n        address[] candidates,\n        address[] winners,\n        address[] voters,\n        address[] voted,\n        uint256 year,\n        uint256 section,\n        DEPTARTMENT_TYPE department\n    );\n\n    modifier onlyOwner() {\n        require(msg.sender == owner);\n        _;\n    }\n\n    constructor(address _AAiTVoteTokenAddress, address _AAiTStudentAddress, address _AAiTElectionTimerAddress) {\n        owner = msg.sender;\n        AAiTVoteTokenAddress = _AAiTVoteTokenAddress;\n        AAiTStudentAddress = _AAiTStudentAddress;\n        AAiTElectionTimerAddress = _AAiTElectionTimerAddress;\n    }\n\n    // ELECTION FUNCTIONS\n\n    function findElectionByName(string memory _name)\n        private\n        view\n        returns (bool)\n    {\n        ElectionStruct[] memory temp = allElections;\n        for (uint256 i = 0; i < temp.length; i++) {\n            if (\n                keccak256(abi.encodePacked(temp[i].name)) ==\n                keccak256(abi.encodePacked(_name))\n            ) {\n                return true;\n            }\n        }\n        return false;\n    }\n\n    function findElectionByType(\n        uint256 year,\n        uint256 section,\n        DEPTARTMENT_TYPE department\n    ) private view returns (bool) {\n        ElectionStruct[] memory temp = allElections;\n        for (uint256 i = 0; i < temp.length; i++) {\n            if (\n                temp[i].year == year &&\n                temp[i].section == section &&\n                keccak256(abi.encodePacked(temp[i].department)) ==\n                keccak256(abi.encodePacked(department))\n            ) {\n                return true;\n            }\n        }\n        return false;\n    }\n\n    function addElection(\n        string memory name,\n        ELECTION_TYPE electionType,\n        string memory startDate,\n        string memory endDate,\n        address[] memory candidates,\n        address[] memory voters,\n        uint256 year,\n        uint256 section,\n        DEPTARTMENT_TYPE department\n    ) public {\n        require(!findElectionByName(name), \"Election already exists\");\n        require(\n            !findElectionByType(year, section, department),\n            \"Election already exists\"\n        );\n        uint256 index = allElections.length;\n        address[] memory empty;\n        electionStructsMapping[name] = ElectionStruct(\n            index,\n            name,\n            electionType,\n            startDate,\n            endDate,\n            candidates,\n            empty,\n            voters,\n            empty,\n            year,\n            section,\n            department\n        );\n        allElections.push(\n            ElectionStruct({\n                index: index,\n                name: name,\n                electionType: electionType,\n                startDate: startDate,\n                endDate: endDate,\n                candidates: candidates,\n                winners: empty,\n                voters: voters,\n                voted: empty,\n                year: year,\n                section: section,\n                department: department\n            })\n        );\n    }\n\n    function removeElection(string memory name) internal onlyOwner {\n        require(\n            findElectionByName(name),\n            \"Election with this name does not exist\"\n        );\n        // uint256 rowToDelete = electionStructsMapping[name].index;\n        // string memory keyToMove = electionIndex[electionIndex.length - 1];\n        electionIndex[electionStructsMapping[name].index] = electionIndex[\n            electionIndex.length - 1\n        ];\n        electionStructsMapping[electionIndex[electionIndex.length - 1]]\n            .index = electionStructsMapping[name].index;\n\n        electionValue[electionStructsMapping[name].index] = electionValue[\n            electionValue.length - 1\n        ];\n        electionValue[electionStructsMapping[name].index]\n            .index = electionStructsMapping[name].index;\n        electionValue.pop();\n        electionIndex.pop();\n        delete allElections[electionStructsMapping[name].index];\n        previousElections.push(\n            electionStructsMapping[electionIndex[electionIndex.length - 1]]\n        );\n        delete electionStructsMapping[electionIndex[electionIndex.length - 1]];\n    }\n\n    function vote(address voterAddress, address candidateAddress) public {\n        AAiTVoteToken tempToken = AAiTVoteToken(AAiTVoteTokenAddress);\n        AAiTStudent tempStudent = AAiTStudent(AAiTStudentAddress);\n        require(voterAddress != candidateAddress, \"Permission Denied\");\n        require(\n            voterAddress != owner || candidateAddress != owner,\n            \"Invalid Operation\"\n        );\n        require(tempStudent.isVoter(voterAddress), \"You can not vote\");\n        require(tempToken.balanceOf(voterAddress) > 0, \"Insufficient Token\");\n\n        tempToken.transferFrom(voterAddress, candidateAddress, 1);\n        moveToVoted(voterAddress, \"electionName\");\n    }\n\n    function burnAllTokens() public onlyOwner {\n        AAiTVoteToken temp = AAiTVoteToken(AAiTVoteTokenAddress);\n        temp.burnRemainingTokens(owner);\n    }\n\n    function declareWinner(string memory electionName, address[] memory winners)\n        public\n        view\n    {\n        ElectionStruct memory temp = electionStructsMapping[electionName];\n        temp.winners = winners;\n\n        // removeElection(electionName);\n\n        // uint256 index = electionStructsMapping[electionName].index;\n        // uint256 winnerIndex = electionStructsMapping[electionName].winners.length;\n        // electionStructsMapping[electionName].winners.push(electionStructsMapping[electionName].candidates[winnerIndex]);\n    }\n\n    function moveToVoted(address voterAddress, string memory electionName)\n        private\n    {\n        uint256 index = electionStructsMapping[electionName].index;\n\n        electionStructsMapping[electionName].voted.push(voterAddress);\n        delete electionStructsMapping[electionName].voters[index];\n        // uint256 index = electionStructsMapping[electionName].index;\n        electionValue[index] = electionStructsMapping[electionName];\n        emit LogUpdateElection(\n            index,\n            electionStructsMapping[electionName].name,\n            electionStructsMapping[electionName].electionType,\n            electionStructsMapping[electionName].startDate,\n            electionStructsMapping[electionName].endDate,\n            electionStructsMapping[electionName].candidates,\n            electionStructsMapping[electionName].winners,\n            electionStructsMapping[electionName].voters,\n            electionStructsMapping[electionName].voted,\n            electionStructsMapping[electionName].year,\n            electionStructsMapping[electionName].section,\n            electionStructsMapping[electionName].department\n        );\n    }\n\n    // GET FUNCTIONS\n\n    function getAllElections() public view returns (ElectionStruct[] memory) {\n        return allElections;\n    }\n}\n",
  "sourcePath": "/home/dannyterefe/Documents/VSCode_Projects/Final_Project/blockchain_based_voting_system/dvbst_smart_contracts/contracts/AAiTElection.sol",
  "compiler": {
    "name": "solc",
    "version": "0.8.10+commit.fc410830.Emscripten.clang"
  },
  "schemaVersion": "3.4.4",
  "updatedAt": "2022-05-15T07:34:08.429Z",
  "networkType": "ethereum",
  "devdoc": {
    "kind": "dev",
    "methods": {},
    "version": 1
  },
  "userdoc": {
    "kind": "user",
    "methods": {},
    "version": 1
  }
}