{
  "contractName": "AAiTStudent",
  "abi": [
    {
      "inputs": [],
      "stateMutability": "nonpayable",
      "type": "constructor"
    },
    {
      "anonymous": false,
      "inputs": [
        {
          "indexed": true,
          "internalType": "address",
          "name": "userAddress",
          "type": "address"
        },
        {
          "indexed": false,
          "internalType": "uint256",
          "name": "index",
          "type": "uint256"
        }
      ],
      "name": "LogDeleteCandidate",
      "type": "event"
    },
    {
      "anonymous": false,
      "inputs": [
        {
          "indexed": true,
          "internalType": "address",
          "name": "userAddress",
          "type": "address"
        },
        {
          "indexed": false,
          "internalType": "uint256",
          "name": "index",
          "type": "uint256"
        }
      ],
      "name": "LogDeleteVoter",
      "type": "event"
    },
    {
      "anonymous": false,
      "inputs": [
        {
          "components": [
            {
              "internalType": "uint256",
              "name": "index",
              "type": "uint256"
            },
            {
              "internalType": "string",
              "name": "studentId",
              "type": "string"
            },
            {
              "internalType": "string",
              "name": "fName",
              "type": "string"
            },
            {
              "internalType": "string",
              "name": "lName",
              "type": "string"
            },
            {
              "internalType": "string",
              "name": "gName",
              "type": "string"
            },
            {
              "internalType": "uint256",
              "name": "DOB",
              "type": "uint256"
            },
            {
              "internalType": "uint256",
              "name": "currentYear",
              "type": "uint256"
            },
            {
              "internalType": "uint256",
              "name": "currentSection",
              "type": "uint256"
            },
            {
              "internalType": "enum AAiTStudent.DEPTARTMENT_TYPE",
              "name": "currentDepartment",
              "type": "uint8"
            },
            {
              "internalType": "address",
              "name": "userAddress",
              "type": "address"
            }
          ],
          "indexed": false,
          "internalType": "struct AAiTStudent.UserStruct",
          "name": "candidateInfo",
          "type": "tuple"
        },
        {
          "indexed": false,
          "internalType": "string",
          "name": "candidateEmail",
          "type": "string"
        },
        {
          "indexed": false,
          "internalType": "string",
          "name": "candidatePassword",
          "type": "string"
        },
        {
          "indexed": false,
          "internalType": "string",
          "name": "candidateBio",
          "type": "string"
        },
        {
          "indexed": false,
          "internalType": "string",
          "name": "candidateProfilePicture",
          "type": "string"
        }
      ],
      "name": "LogNewCandidate",
      "type": "event"
    },
    {
      "anonymous": false,
      "inputs": [
        {
          "components": [
            {
              "internalType": "uint256",
              "name": "index",
              "type": "uint256"
            },
            {
              "internalType": "string",
              "name": "studentId",
              "type": "string"
            },
            {
              "internalType": "string",
              "name": "fName",
              "type": "string"
            },
            {
              "internalType": "string",
              "name": "lName",
              "type": "string"
            },
            {
              "internalType": "string",
              "name": "gName",
              "type": "string"
            },
            {
              "internalType": "uint256",
              "name": "DOB",
              "type": "uint256"
            },
            {
              "internalType": "uint256",
              "name": "currentYear",
              "type": "uint256"
            },
            {
              "internalType": "uint256",
              "name": "currentSection",
              "type": "uint256"
            },
            {
              "internalType": "enum AAiTStudent.DEPTARTMENT_TYPE",
              "name": "currentDepartment",
              "type": "uint8"
            },
            {
              "internalType": "address",
              "name": "userAddress",
              "type": "address"
            }
          ],
          "indexed": false,
          "internalType": "struct AAiTStudent.UserStruct",
          "name": "voterInfo",
          "type": "tuple"
        },
        {
          "indexed": false,
          "internalType": "string",
          "name": "voterEmail",
          "type": "string"
        },
        {
          "indexed": false,
          "internalType": "string",
          "name": "voterPassword",
          "type": "string"
        }
      ],
      "name": "LogNewVoter",
      "type": "event"
    },
    {
      "anonymous": false,
      "inputs": [
        {
          "components": [
            {
              "internalType": "uint256",
              "name": "index",
              "type": "uint256"
            },
            {
              "internalType": "string",
              "name": "studentId",
              "type": "string"
            },
            {
              "internalType": "string",
              "name": "fName",
              "type": "string"
            },
            {
              "internalType": "string",
              "name": "lName",
              "type": "string"
            },
            {
              "internalType": "string",
              "name": "gName",
              "type": "string"
            },
            {
              "internalType": "uint256",
              "name": "DOB",
              "type": "uint256"
            },
            {
              "internalType": "uint256",
              "name": "currentYear",
              "type": "uint256"
            },
            {
              "internalType": "uint256",
              "name": "currentSection",
              "type": "uint256"
            },
            {
              "internalType": "enum AAiTStudent.DEPTARTMENT_TYPE",
              "name": "currentDepartment",
              "type": "uint8"
            },
            {
              "internalType": "address",
              "name": "userAddress",
              "type": "address"
            }
          ],
          "indexed": false,
          "internalType": "struct AAiTStudent.UserStruct",
          "name": "candidateInfo",
          "type": "tuple"
        },
        {
          "indexed": false,
          "internalType": "string",
          "name": "candidateEmail",
          "type": "string"
        },
        {
          "indexed": false,
          "internalType": "string",
          "name": "candidatePassword",
          "type": "string"
        },
        {
          "indexed": false,
          "internalType": "string",
          "name": "candidateBio",
          "type": "string"
        },
        {
          "indexed": false,
          "internalType": "string",
          "name": "candidateProfilePicture",
          "type": "string"
        }
      ],
      "name": "LogUpdateCandidate",
      "type": "event"
    },
    {
      "anonymous": false,
      "inputs": [
        {
          "components": [
            {
              "internalType": "uint256",
              "name": "index",
              "type": "uint256"
            },
            {
              "internalType": "string",
              "name": "studentId",
              "type": "string"
            },
            {
              "internalType": "string",
              "name": "fName",
              "type": "string"
            },
            {
              "internalType": "string",
              "name": "lName",
              "type": "string"
            },
            {
              "internalType": "string",
              "name": "gName",
              "type": "string"
            },
            {
              "internalType": "uint256",
              "name": "DOB",
              "type": "uint256"
            },
            {
              "internalType": "uint256",
              "name": "currentYear",
              "type": "uint256"
            },
            {
              "internalType": "uint256",
              "name": "currentSection",
              "type": "uint256"
            },
            {
              "internalType": "enum AAiTStudent.DEPTARTMENT_TYPE",
              "name": "currentDepartment",
              "type": "uint8"
            },
            {
              "internalType": "address",
              "name": "userAddress",
              "type": "address"
            }
          ],
          "indexed": false,
          "internalType": "struct AAiTStudent.UserStruct",
          "name": "voterInfo",
          "type": "tuple"
        },
        {
          "indexed": false,
          "internalType": "string",
          "name": "voterEmail",
          "type": "string"
        },
        {
          "indexed": false,
          "internalType": "string",
          "name": "voterPassword",
          "type": "string"
        }
      ],
      "name": "LogUpdateVoter",
      "type": "event"
    },
    {
      "inputs": [
        {
          "internalType": "address",
          "name": "userAddress",
          "type": "address"
        }
      ],
      "name": "isVoter",
      "outputs": [
        {
          "internalType": "bool",
          "name": "",
          "type": "bool"
        }
      ],
      "stateMutability": "view",
      "type": "function",
      "constant": true
    },
    {
      "inputs": [
        {
          "components": [
            {
              "internalType": "uint256",
              "name": "index",
              "type": "uint256"
            },
            {
              "internalType": "string",
              "name": "studentId",
              "type": "string"
            },
            {
              "internalType": "string",
              "name": "fName",
              "type": "string"
            },
            {
              "internalType": "string",
              "name": "lName",
              "type": "string"
            },
            {
              "internalType": "string",
              "name": "gName",
              "type": "string"
            },
            {
              "internalType": "uint256",
              "name": "DOB",
              "type": "uint256"
            },
            {
              "internalType": "uint256",
              "name": "currentYear",
              "type": "uint256"
            },
            {
              "internalType": "uint256",
              "name": "currentSection",
              "type": "uint256"
            },
            {
              "internalType": "enum AAiTStudent.DEPTARTMENT_TYPE",
              "name": "currentDepartment",
              "type": "uint8"
            },
            {
              "internalType": "address",
              "name": "userAddress",
              "type": "address"
            }
          ],
          "internalType": "struct AAiTStudent.UserStruct",
          "name": "voterInfo",
          "type": "tuple"
        },
        {
          "internalType": "string",
          "name": "email",
          "type": "string"
        },
        {
          "internalType": "string",
          "name": "password",
          "type": "string"
        }
      ],
      "name": "insertVoter",
      "outputs": [
        {
          "internalType": "uint256",
          "name": "",
          "type": "uint256"
        }
      ],
      "stateMutability": "nonpayable",
      "type": "function"
    },
    {
      "inputs": [
        {
          "internalType": "address",
          "name": "userAddress",
          "type": "address"
        }
      ],
      "name": "removeVoter",
      "outputs": [
        {
          "internalType": "bool",
          "name": "success",
          "type": "bool"
        }
      ],
      "stateMutability": "nonpayable",
      "type": "function"
    },
    {
      "inputs": [
        {
          "internalType": "address",
          "name": "userAddress",
          "type": "address"
        }
      ],
      "name": "isCandidate",
      "outputs": [
        {
          "internalType": "bool",
          "name": "isIndeed",
          "type": "bool"
        }
      ],
      "stateMutability": "view",
      "type": "function",
      "constant": true
    },
    {
      "inputs": [
        {
          "components": [
            {
              "internalType": "uint256",
              "name": "index",
              "type": "uint256"
            },
            {
              "internalType": "string",
              "name": "studentId",
              "type": "string"
            },
            {
              "internalType": "string",
              "name": "fName",
              "type": "string"
            },
            {
              "internalType": "string",
              "name": "lName",
              "type": "string"
            },
            {
              "internalType": "string",
              "name": "gName",
              "type": "string"
            },
            {
              "internalType": "uint256",
              "name": "DOB",
              "type": "uint256"
            },
            {
              "internalType": "uint256",
              "name": "currentYear",
              "type": "uint256"
            },
            {
              "internalType": "uint256",
              "name": "currentSection",
              "type": "uint256"
            },
            {
              "internalType": "enum AAiTStudent.DEPTARTMENT_TYPE",
              "name": "currentDepartment",
              "type": "uint8"
            },
            {
              "internalType": "address",
              "name": "userAddress",
              "type": "address"
            }
          ],
          "internalType": "struct AAiTStudent.UserStruct",
          "name": "candidateInfo",
          "type": "tuple"
        },
        {
          "internalType": "string",
          "name": "email",
          "type": "string"
        },
        {
          "internalType": "string",
          "name": "password",
          "type": "string"
        },
        {
          "internalType": "string",
          "name": "bio",
          "type": "string"
        },
        {
          "internalType": "string",
          "name": "profilePicture",
          "type": "string"
        }
      ],
      "name": "insertCandidate",
      "outputs": [
        {
          "internalType": "uint256",
          "name": "index",
          "type": "uint256"
        }
      ],
      "stateMutability": "nonpayable",
      "type": "function"
    },
    {
      "inputs": [
        {
          "internalType": "address",
          "name": "userAddress",
          "type": "address"
        }
      ],
      "name": "removeCandidate",
      "outputs": [
        {
          "internalType": "bool",
          "name": "success",
          "type": "bool"
        }
      ],
      "stateMutability": "nonpayable",
      "type": "function"
    },
    {
      "inputs": [
        {
          "internalType": "address",
          "name": "userAddress",
          "type": "address"
        }
      ],
      "name": "getVoter",
      "outputs": [
        {
          "components": [
            {
              "components": [
                {
                  "internalType": "uint256",
                  "name": "index",
                  "type": "uint256"
                },
                {
                  "internalType": "string",
                  "name": "studentId",
                  "type": "string"
                },
                {
                  "internalType": "string",
                  "name": "fName",
                  "type": "string"
                },
                {
                  "internalType": "string",
                  "name": "lName",
                  "type": "string"
                },
                {
                  "internalType": "string",
                  "name": "gName",
                  "type": "string"
                },
                {
                  "internalType": "uint256",
                  "name": "DOB",
                  "type": "uint256"
                },
                {
                  "internalType": "uint256",
                  "name": "currentYear",
                  "type": "uint256"
                },
                {
                  "internalType": "uint256",
                  "name": "currentSection",
                  "type": "uint256"
                },
                {
                  "internalType": "enum AAiTStudent.DEPTARTMENT_TYPE",
                  "name": "currentDepartment",
                  "type": "uint8"
                },
                {
                  "internalType": "address",
                  "name": "userAddress",
                  "type": "address"
                }
              ],
              "internalType": "struct AAiTStudent.UserStruct",
              "name": "voterInfo",
              "type": "tuple"
            },
            {
              "internalType": "uint256",
              "name": "vindex",
              "type": "uint256"
            },
            {
              "internalType": "string",
              "name": "voterEmail",
              "type": "string"
            },
            {
              "internalType": "string",
              "name": "voterPassword",
              "type": "string"
            }
          ],
          "internalType": "struct AAiTStudent.VoterStruct",
          "name": "",
          "type": "tuple"
        }
      ],
      "stateMutability": "view",
      "type": "function",
      "constant": true
    },
    {
      "inputs": [],
      "name": "getAllVoters",
      "outputs": [
        {
          "components": [
            {
              "components": [
                {
                  "internalType": "uint256",
                  "name": "index",
                  "type": "uint256"
                },
                {
                  "internalType": "string",
                  "name": "studentId",
                  "type": "string"
                },
                {
                  "internalType": "string",
                  "name": "fName",
                  "type": "string"
                },
                {
                  "internalType": "string",
                  "name": "lName",
                  "type": "string"
                },
                {
                  "internalType": "string",
                  "name": "gName",
                  "type": "string"
                },
                {
                  "internalType": "uint256",
                  "name": "DOB",
                  "type": "uint256"
                },
                {
                  "internalType": "uint256",
                  "name": "currentYear",
                  "type": "uint256"
                },
                {
                  "internalType": "uint256",
                  "name": "currentSection",
                  "type": "uint256"
                },
                {
                  "internalType": "enum AAiTStudent.DEPTARTMENT_TYPE",
                  "name": "currentDepartment",
                  "type": "uint8"
                },
                {
                  "internalType": "address",
                  "name": "userAddress",
                  "type": "address"
                }
              ],
              "internalType": "struct AAiTStudent.UserStruct",
              "name": "voterInfo",
              "type": "tuple"
            },
            {
              "internalType": "uint256",
              "name": "vindex",
              "type": "uint256"
            },
            {
              "internalType": "string",
              "name": "voterEmail",
              "type": "string"
            },
            {
              "internalType": "string",
              "name": "voterPassword",
              "type": "string"
            }
          ],
          "internalType": "struct AAiTStudent.VoterStruct[]",
          "name": "",
          "type": "tuple[]"
        }
      ],
      "stateMutability": "view",
      "type": "function",
      "constant": true
    },
    {
      "inputs": [
        {
          "internalType": "address",
          "name": "userAddress",
          "type": "address"
        }
      ],
      "name": "getCandidate",
      "outputs": [
        {
          "components": [
            {
              "components": [
                {
                  "internalType": "uint256",
                  "name": "index",
                  "type": "uint256"
                },
                {
                  "internalType": "string",
                  "name": "studentId",
                  "type": "string"
                },
                {
                  "internalType": "string",
                  "name": "fName",
                  "type": "string"
                },
                {
                  "internalType": "string",
                  "name": "lName",
                  "type": "string"
                },
                {
                  "internalType": "string",
                  "name": "gName",
                  "type": "string"
                },
                {
                  "internalType": "uint256",
                  "name": "DOB",
                  "type": "uint256"
                },
                {
                  "internalType": "uint256",
                  "name": "currentYear",
                  "type": "uint256"
                },
                {
                  "internalType": "uint256",
                  "name": "currentSection",
                  "type": "uint256"
                },
                {
                  "internalType": "enum AAiTStudent.DEPTARTMENT_TYPE",
                  "name": "currentDepartment",
                  "type": "uint8"
                },
                {
                  "internalType": "address",
                  "name": "userAddress",
                  "type": "address"
                }
              ],
              "internalType": "struct AAiTStudent.UserStruct",
              "name": "candidateInfo",
              "type": "tuple"
            },
            {
              "internalType": "uint256",
              "name": "vindex",
              "type": "uint256"
            },
            {
              "internalType": "string",
              "name": "candidateEmail",
              "type": "string"
            },
            {
              "internalType": "string",
              "name": "candidatePassword",
              "type": "string"
            },
            {
              "internalType": "string",
              "name": "candidateBio",
              "type": "string"
            },
            {
              "internalType": "string",
              "name": "candidateProfilePicture",
              "type": "string"
            }
          ],
          "internalType": "struct AAiTStudent.CandidateStruct",
          "name": "",
          "type": "tuple"
        }
      ],
      "stateMutability": "view",
      "type": "function",
      "constant": true
    },
    {
      "inputs": [],
      "name": "getAllCandidates",
      "outputs": [
        {
          "components": [
            {
              "components": [
                {
                  "internalType": "uint256",
                  "name": "index",
                  "type": "uint256"
                },
                {
                  "internalType": "string",
                  "name": "studentId",
                  "type": "string"
                },
                {
                  "internalType": "string",
                  "name": "fName",
                  "type": "string"
                },
                {
                  "internalType": "string",
                  "name": "lName",
                  "type": "string"
                },
                {
                  "internalType": "string",
                  "name": "gName",
                  "type": "string"
                },
                {
                  "internalType": "uint256",
                  "name": "DOB",
                  "type": "uint256"
                },
                {
                  "internalType": "uint256",
                  "name": "currentYear",
                  "type": "uint256"
                },
                {
                  "internalType": "uint256",
                  "name": "currentSection",
                  "type": "uint256"
                },
                {
                  "internalType": "enum AAiTStudent.DEPTARTMENT_TYPE",
                  "name": "currentDepartment",
                  "type": "uint8"
                },
                {
                  "internalType": "address",
                  "name": "userAddress",
                  "type": "address"
                }
              ],
              "internalType": "struct AAiTStudent.UserStruct",
              "name": "candidateInfo",
              "type": "tuple"
            },
            {
              "internalType": "uint256",
              "name": "vindex",
              "type": "uint256"
            },
            {
              "internalType": "string",
              "name": "candidateEmail",
              "type": "string"
            },
            {
              "internalType": "string",
              "name": "candidatePassword",
              "type": "string"
            },
            {
              "internalType": "string",
              "name": "candidateBio",
              "type": "string"
            },
            {
              "internalType": "string",
              "name": "candidateProfilePicture",
              "type": "string"
            }
          ],
          "internalType": "struct AAiTStudent.CandidateStruct[]",
          "name": "",
          "type": "tuple[]"
        }
      ],
      "stateMutability": "view",
      "type": "function",
      "constant": true
    }
  ],
  "bytecode": "0x608060405234801561001057600080fd5b5033600660006101000a81548173ffffffffffffffffffffffffffffffffffffffff021916908373ffffffffffffffffffffffffffffffffffffffff1602179055506154f7806100616000396000f3fe608060405234801561001057600080fd5b506004361061009e5760003560e01c8063a7771ee311610066578063a7771ee31461016f578063b7adcf1d1461019f578063d4f50f98146101cf578063d51b9e93146101ff578063f5db36641461022f5761009e565b80632e6997fe146100a357806335bbe70e146100c15780635aeca4fa146100df5780636dd091f91461010f57806386c1ff681461013f575b600080fd5b6100ab61025f565b6040516100b8919061444d565b60405180910390f35b6100c9610826565b6040516100d691906145a2565b60405180910390f35b6100f960048036038101906100f491906148fa565b610cc9565b60405161010691906149b0565b60405180910390f35b610129600480360381019061012491906149cb565b61140f565b6040516101369190614a13565b60405180910390f35b610159600480360381019061015491906149cb565b611c68565b6040516101669190614a13565b60405180910390f35b610189600480360381019061018491906149cb565b612435565b6040516101969190614a13565b60405180910390f35b6101b960048036038101906101b491906149cb565b61251a565b6040516101c69190614ad3565b60405180910390f35b6101e960048036038101906101e491906149cb565b612b23565b6040516101f69190614b66565b60405180910390f35b610219600480360381019061021491906149cb565b613007565b6040516102269190614a13565b60405180910390f35b61024960048036038101906102449190614b88565b6130ed565b60405161025691906149b0565b60405180910390f35b60606005805480602002602001604051908101604052809291908181526020016000905b8282101561081d57838290600052602060002090600e02016040518060c00160405290816000820160405180610140016040529081600082015481526020016001820180546102d190614cbe565b80601f01602080910402602001604051908101604052809291908181526020018280546102fd90614cbe565b801561034a5780601f1061031f5761010080835404028352916020019161034a565b820191906000526020600020905b81548152906001019060200180831161032d57829003601f168201915b5050505050815260200160028201805461036390614cbe565b80601f016020809104026020016040519081016040528092919081815260200182805461038f90614cbe565b80156103dc5780601f106103b1576101008083540402835291602001916103dc565b820191906000526020600020905b8154815290600101906020018083116103bf57829003601f168201915b505050505081526020016003820180546103f590614cbe565b80601f016020809104026020016040519081016040528092919081815260200182805461042190614cbe565b801561046e5780601f106104435761010080835404028352916020019161046e565b820191906000526020600020905b81548152906001019060200180831161045157829003601f168201915b5050505050815260200160048201805461048790614cbe565b80601f01602080910402602001604051908101604052809291908181526020018280546104b390614cbe565b80156105005780601f106104d557610100808354040283529160200191610500565b820191906000526020600020905b8154815290600101906020018083116104e357829003601f168201915b505050505081526020016005820154815260200160068201548152602001600782015481526020016008820160009054906101000a900460ff16600181111561054c5761054b61416b565b5b600181111561055e5761055d61416b565b5b81526020016008820160019054906101000a900473ffffffffffffffffffffffffffffffffffffffff1673ffffffffffffffffffffffffffffffffffffffff1673ffffffffffffffffffffffffffffffffffffffff1681525050815260200160098201548152602001600a820180546105d690614cbe565b80601f016020809104026020016040519081016040528092919081815260200182805461060290614cbe565b801561064f5780601f106106245761010080835404028352916020019161064f565b820191906000526020600020905b81548152906001019060200180831161063257829003601f168201915b50505050508152602001600b8201805461066890614cbe565b80601f016020809104026020016040519081016040528092919081815260200182805461069490614cbe565b80156106e15780601f106106b6576101008083540402835291602001916106e1565b820191906000526020600020905b8154815290600101906020018083116106c457829003601f168201915b50505050508152602001600c820180546106fa90614cbe565b80601f016020809104026020016040519081016040528092919081815260200182805461072690614cbe565b80156107735780601f1061074857610100808354040283529160200191610773565b820191906000526020600020905b81548152906001019060200180831161075657829003601f168201915b50505050508152602001600d8201805461078c90614cbe565b80601f01602080910402602001604051908101604052809291908181526020018280546107b890614cbe565b80156108055780601f106107da57610100808354040283529160200191610805565b820191906000526020600020905b8154815290600101906020018083116107e857829003601f168201915b50505050508152505081526020019060010190610283565b50505050905090565b60606002805480602002602001604051908101604052809291908181526020016000905b82821015610cc057838290600052602060002090600c020160405180608001604052908160008201604051806101400160405290816000820154815260200160018201805461089890614cbe565b80601f01602080910402602001604051908101604052809291908181526020018280546108c490614cbe565b80156109115780601f106108e657610100808354040283529160200191610911565b820191906000526020600020905b8154815290600101906020018083116108f457829003601f168201915b5050505050815260200160028201805461092a90614cbe565b80601f016020809104026020016040519081016040528092919081815260200182805461095690614cbe565b80156109a35780601f10610978576101008083540402835291602001916109a3565b820191906000526020600020905b81548152906001019060200180831161098657829003601f168201915b505050505081526020016003820180546109bc90614cbe565b80601f01602080910402602001604051908101604052809291908181526020018280546109e890614cbe565b8015610a355780601f10610a0a57610100808354040283529160200191610a35565b820191906000526020600020905b815481529060010190602001808311610a1857829003601f168201915b50505050508152602001600482018054610a4e90614cbe565b80601f0160208091040260200160405190810160405280929190818152602001828054610a7a90614cbe565b8015610ac75780601f10610a9c57610100808354040283529160200191610ac7565b820191906000526020600020905b815481529060010190602001808311610aaa57829003601f168201915b505050505081526020016005820154815260200160068201548152602001600782015481526020016008820160009054906101000a900460ff166001811115610b1357610b1261416b565b5b6001811115610b2557610b2461416b565b5b81526020016008820160019054906101000a900473ffffffffffffffffffffffffffffffffffffffff1673ffffffffffffffffffffffffffffffffffffffff1673ffffffffffffffffffffffffffffffffffffffff1681525050815260200160098201548152602001600a82018054610b9d90614cbe565b80601f0160208091040260200160405190810160405280929190818152602001828054610bc990614cbe565b8015610c165780601f10610beb57610100808354040283529160200191610c16565b820191906000526020600020905b815481529060010190602001808311610bf957829003601f168201915b50505050508152602001600b82018054610c2f90614cbe565b80601f0160208091040260200160405190810160405280929190818152602001828054610c5b90614cbe565b8015610ca85780601f10610c7d57610100808354040283529160200191610ca8565b820191906000526020600020905b815481529060010190602001808311610c8b57829003601f168201915b5050505050815250508152602001906001019061084a565b50505050905090565b6000600660009054906101000a900473ffffffffffffffffffffffffffffffffffffffff1673ffffffffffffffffffffffffffffffffffffffff1684610120015173ffffffffffffffffffffffffffffffffffffffff161415610d61576040517f08c379a0000000000000000000000000000000000000000000000000000000008152600401610d5890614d4d565b60405180910390fd5b610d6f846101200151613007565b15610daf576040517f08c379a0000000000000000000000000000000000000000000000000000000008152600401610da690614db9565b60405180910390fd5b610dbd846101200151612435565b15610dfd576040517f08c379a0000000000000000000000000000000000000000000000000000000008152600401610df490614e25565b60405180910390fd5b610e0a846020015161393e565b15610e4a576040517f08c379a0000000000000000000000000000000000000000000000000000000008152600401610e4190614e25565b60405180910390fd5b610e53836139f6565b15610e93576040517f08c379a0000000000000000000000000000000000000000000000000000000008152600401610e8a90614e25565b60405180910390fd5b610eaa846040015185606001518660800151613aab565b15610eea576040517f08c379a0000000000000000000000000000000000000000000000000000000008152600401610ee190614e25565b60405180910390fd5b8360008086610120015173ffffffffffffffffffffffffffffffffffffffff1673ffffffffffffffffffffffffffffffffffffffff168152602001908152602001600020600001600082015181600001556020820151816001019080519060200190610f57929190613e38565b506040820151816002019080519060200190610f74929190613e38565b506060820151816003019080519060200190610f91929190613e38565b506080820151816004019080519060200190610fae929190613e38565b5060a0820151816005015560c0820151816006015560e082015181600701556101008201518160080160006101000a81548160ff02191690836001811115610ff957610ff861416b565b5b02179055506101208201518160080160016101000a81548173ffffffffffffffffffffffffffffffffffffffff021916908373ffffffffffffffffffffffffffffffffffffffff1602179055509050508260008086610120015173ffffffffffffffffffffffffffffffffffffffff1673ffffffffffffffffffffffffffffffffffffffff168152602001908152602001600020600a0190805190602001906110a3929190613e38565b508160008086610120015173ffffffffffffffffffffffffffffffffffffffff1673ffffffffffffffffffffffffffffffffffffffff168152602001908152602001600020600b0190805190602001906110fe929190613e38565b5060018461012001519080600181540180825580915050600190039060005260206000200160009091909190916101000a81548173ffffffffffffffffffffffffffffffffffffffff021916908373ffffffffffffffffffffffffffffffffffffffff160217905550600180805490506111789190614e74565b60008086610120015173ffffffffffffffffffffffffffffffffffffffff1673ffffffffffffffffffffffffffffffffffffffff168152602001908152602001600020600901819055506002604051806080016040528086815260200160008088610120015173ffffffffffffffffffffffffffffffffffffffff1673ffffffffffffffffffffffffffffffffffffffff1681526020019081526020016000206009015481526020018581526020018481525090806001815401808255809150506001900390600052602060002090600c0201600090919091909150600082015181600001600082015181600001556020820151816001019080519060200190611283929190613e38565b5060408201518160020190805190602001906112a0929190613e38565b5060608201518160030190805190602001906112bd929190613e38565b5060808201518160040190805190602001906112da929190613e38565b5060a0820151816005015560c0820151816006015560e082015181600701556101008201518160080160006101000a81548160ff021916908360018111156113255761132461416b565b5b02179055506101208201518160080160016101000a81548173ffffffffffffffffffffffffffffffffffffffff021916908373ffffffffffffffffffffffffffffffffffffffff160217905550505060208201518160090155604082015181600a01908051906020019061139a929190613e38565b50606082015181600b0190805190602001906113b7929190613e38565b5050507f753b0f0dfa2e655bd7ab72ba3d1368ce3231d3b4c7b4301af57e375d34e85ed68484846040516113ed93929190614fd0565b60405180910390a1600180805490506114069190614e74565b90509392505050565b600061141a82613007565b611459576040517f08c379a000000000000000000000000000000000000000000000000000000000815260040161145090615068565b60405180910390fd5b6004600160048054905061146d9190614e74565b8154811061147e5761147d615088565b5b9060005260206000200160009054906101000a900473ffffffffffffffffffffffffffffffffffffffff166004600360008573ffffffffffffffffffffffffffffffffffffffff1673ffffffffffffffffffffffffffffffffffffffff16815260200190815260200160002060090154815481106114ff576114fe615088565b5b9060005260206000200160006101000a81548173ffffffffffffffffffffffffffffffffffffffff021916908373ffffffffffffffffffffffffffffffffffffffff160217905550600360008373ffffffffffffffffffffffffffffffffffffffff1673ffffffffffffffffffffffffffffffffffffffff1681526020019081526020016000206009015460036000600460016004805490506115a29190614e74565b815481106115b3576115b2615088565b5b9060005260206000200160009054906101000a900473ffffffffffffffffffffffffffffffffffffffff1673ffffffffffffffffffffffffffffffffffffffff1673ffffffffffffffffffffffffffffffffffffffff16815260200190815260200160002060090181905550600560016005805490506116339190614e74565b8154811061164457611643615088565b5b90600052602060002090600e02016005600360008573ffffffffffffffffffffffffffffffffffffffff1673ffffffffffffffffffffffffffffffffffffffff16815260200190815260200160002060090154815481106116a8576116a7615088565b5b90600052602060002090600e020160008201816000016000820154816000015560018201816001019080546116dc90614cbe565b6116e7929190613ebe565b5060028201816002019080546116fc90614cbe565b611707929190613ebe565b50600382018160030190805461171c90614cbe565b611727929190613ebe565b50600482018160040190805461173c90614cbe565b611747929190613ebe565b506005820154816005015560068201548160060155600782015481600701556008820160009054906101000a900460ff168160080160006101000a81548160ff0219169083600181111561179e5761179d61416b565b5b02179055506008820160019054906101000a900473ffffffffffffffffffffffffffffffffffffffff168160080160016101000a81548173ffffffffffffffffffffffffffffffffffffffff021916908373ffffffffffffffffffffffffffffffffffffffff160217905550505060098201548160090155600a820181600a0190805461182a90614cbe565b611835929190613ebe565b50600b820181600b0190805461184a90614cbe565b611855929190613ebe565b50600c820181600c0190805461186a90614cbe565b611875929190613ebe565b50600d820181600d0190805461188a90614cbe565b611895929190613ebe565b50905050600360008373ffffffffffffffffffffffffffffffffffffffff1673ffffffffffffffffffffffffffffffffffffffff168152602001908152602001600020600901546005600360008573ffffffffffffffffffffffffffffffffffffffff1673ffffffffffffffffffffffffffffffffffffffff168152602001908152602001600020600901548154811061193257611931615088565b5b90600052602060002090600e0201600901819055506005805480611959576119586150b7565b5b60019003818190600052602060002090600e0201600080820160008082016000905560018201600061198b9190613f4b565b60028201600061199b9190613f4b565b6003820160006119ab9190613f4b565b6004820160006119bb9190613f4b565b6005820160009055600682016000905560078201600090556008820160006101000a81549060ff02191690556008820160016101000a81549073ffffffffffffffffffffffffffffffffffffffff021916905550506009820160009055600a82016000611a289190613f4b565b600b82016000611a389190613f4b565b600c82016000611a489190613f4b565b600d82016000611a589190613f4b565b505090556004805480611a6e57611a6d6150b7565b5b6001900381819060005260206000200160006101000a81549073ffffffffffffffffffffffffffffffffffffffff02191690559055600360008373ffffffffffffffffffffffffffffffffffffffff1673ffffffffffffffffffffffffffffffffffffffff1681526020019081526020016000206000808201600080820160009055600182016000611b009190613f4b565b600282016000611b109190613f4b565b600382016000611b209190613f4b565b600482016000611b309190613f4b565b6005820160009055600682016000905560078201600090556008820160006101000a81549060ff02191690556008820160016101000a81549073ffffffffffffffffffffffffffffffffffffffff021916905550506009820160009055600a82016000611b9d9190613f4b565b600b82016000611bad9190613f4b565b600c82016000611bbd9190613f4b565b600d82016000611bcd9190613f4b565b50508173ffffffffffffffffffffffffffffffffffffffff167f2bd8a8e84d8bfb37ad6a2180ee9e45fcb8c8327db02c37b5a1baaeed5bf559d9600360008573ffffffffffffffffffffffffffffffffffffffff1673ffffffffffffffffffffffffffffffffffffffff16815260200190815260200160002060090154604051611c5791906149b0565b60405180910390a260019050919050565b6000611c7382612435565b611cb2576040517f08c379a0000000000000000000000000000000000000000000000000000000008152600401611ca990615132565b60405180910390fd5b6001808080549050611cc49190614e74565b81548110611cd557611cd4615088565b5b9060005260206000200160009054906101000a900473ffffffffffffffffffffffffffffffffffffffff1660016000808573ffffffffffffffffffffffffffffffffffffffff1673ffffffffffffffffffffffffffffffffffffffff1681526020019081526020016000206009015481548110611d5557611d54615088565b5b9060005260206000200160006101000a81548173ffffffffffffffffffffffffffffffffffffffff021916908373ffffffffffffffffffffffffffffffffffffffff1602179055506000808373ffffffffffffffffffffffffffffffffffffffff1673ffffffffffffffffffffffffffffffffffffffff168152602001908152602001600020600901546000806001808080549050611df49190614e74565b81548110611e0557611e04615088565b5b9060005260206000200160009054906101000a900473ffffffffffffffffffffffffffffffffffffffff1673ffffffffffffffffffffffffffffffffffffffff1673ffffffffffffffffffffffffffffffffffffffff1681526020019081526020016000206009018190555060026001600280549050611e859190614e74565b81548110611e9657611e95615088565b5b90600052602060002090600c020160026000808573ffffffffffffffffffffffffffffffffffffffff1673ffffffffffffffffffffffffffffffffffffffff1681526020019081526020016000206009015481548110611ef957611ef8615088565b5b90600052602060002090600c02016000820181600001600082015481600001556001820181600101908054611f2d90614cbe565b611f38929190613ebe565b506002820181600201908054611f4d90614cbe565b611f58929190613ebe565b506003820181600301908054611f6d90614cbe565b611f78929190613ebe565b506004820181600401908054611f8d90614cbe565b611f98929190613ebe565b506005820154816005015560068201548160060155600782015481600701556008820160009054906101000a900460ff168160080160006101000a81548160ff02191690836001811115611fef57611fee61416b565b5b02179055506008820160019054906101000a900473ffffffffffffffffffffffffffffffffffffffff168160080160016101000a81548173ffffffffffffffffffffffffffffffffffffffff021916908373ffffffffffffffffffffffffffffffffffffffff160217905550505060098201548160090155600a820181600a0190805461207b90614cbe565b612086929190613ebe565b50600b820181600b0190805461209b90614cbe565b6120a6929190613ebe565b509050506000808373ffffffffffffffffffffffffffffffffffffffff1673ffffffffffffffffffffffffffffffffffffffff1681526020019081526020016000206009015460026000808573ffffffffffffffffffffffffffffffffffffffff1673ffffffffffffffffffffffffffffffffffffffff168152602001908152602001600020600901548154811061214157612140615088565b5b90600052602060002090600c0201600901819055506002805480612168576121676150b7565b5b60019003818190600052602060002090600c0201600080820160008082016000905560018201600061219a9190613f4b565b6002820160006121aa9190613f4b565b6003820160006121ba9190613f4b565b6004820160006121ca9190613f4b565b6005820160009055600682016000905560078201600090556008820160006101000a81549060ff02191690556008820160016101000a81549073ffffffffffffffffffffffffffffffffffffffff021916905550506009820160009055600a820160006122379190613f4b565b600b820160006122479190613f4b565b50509055600180548061225d5761225c6150b7565b5b6001900381819060005260206000200160006101000a81549073ffffffffffffffffffffffffffffffffffffffff021916905590556000808373ffffffffffffffffffffffffffffffffffffffff1673ffffffffffffffffffffffffffffffffffffffff16815260200190815260200160002060008082016000808201600090556001820160006122ee9190613f4b565b6002820160006122fe9190613f4b565b60038201600061230e9190613f4b565b60048201600061231e9190613f4b565b6005820160009055600682016000905560078201600090556008820160006101000a81549060ff02191690556008820160016101000a81549073ffffffffffffffffffffffffffffffffffffffff021916905550506009820160009055600a8201600061238b9190613f4b565b600b8201600061239b9190613f4b565b50508173ffffffffffffffffffffffffffffffffffffffff167f6022a81f5fdb172bcc1728d681f14da036857b10ed770b53b03cb65bbb99bb486000808573ffffffffffffffffffffffffffffffffffffffff1673ffffffffffffffffffffffffffffffffffffffff1681526020019081526020016000206009015460405161242491906149b0565b60405180910390a260019050919050565b600080600180549050141561244d5760009050612515565b600060048054905014156124645760009050612515565b8173ffffffffffffffffffffffffffffffffffffffff1660016000808573ffffffffffffffffffffffffffffffffffffffff1673ffffffffffffffffffffffffffffffffffffffff16815260200190815260200160002060090154815481106124d0576124cf615088565b5b9060005260206000200160009054906101000a900473ffffffffffffffffffffffffffffffffffffffff1673ffffffffffffffffffffffffffffffffffffffff161490505b919050565b612522613f8b565b61252b82613007565b61256a576040517f08c379a000000000000000000000000000000000000000000000000000000000815260040161256190615068565b60405180910390fd5b600360008373ffffffffffffffffffffffffffffffffffffffff1673ffffffffffffffffffffffffffffffffffffffff1681526020019081526020016000206040518060c00160405290816000820160405180610140016040529081600082015481526020016001820180546125df90614cbe565b80601f016020809104026020016040519081016040528092919081815260200182805461260b90614cbe565b80156126585780601f1061262d57610100808354040283529160200191612658565b820191906000526020600020905b81548152906001019060200180831161263b57829003601f168201915b5050505050815260200160028201805461267190614cbe565b80601f016020809104026020016040519081016040528092919081815260200182805461269d90614cbe565b80156126ea5780601f106126bf576101008083540402835291602001916126ea565b820191906000526020600020905b8154815290600101906020018083116126cd57829003601f168201915b5050505050815260200160038201805461270390614cbe565b80601f016020809104026020016040519081016040528092919081815260200182805461272f90614cbe565b801561277c5780601f106127515761010080835404028352916020019161277c565b820191906000526020600020905b81548152906001019060200180831161275f57829003601f168201915b5050505050815260200160048201805461279590614cbe565b80601f01602080910402602001604051908101604052809291908181526020018280546127c190614cbe565b801561280e5780601f106127e35761010080835404028352916020019161280e565b820191906000526020600020905b8154815290600101906020018083116127f157829003601f168201915b505050505081526020016005820154815260200160068201548152602001600782015481526020016008820160009054906101000a900460ff16600181111561285a5761285961416b565b5b600181111561286c5761286b61416b565b5b81526020016008820160019054906101000a900473ffffffffffffffffffffffffffffffffffffffff1673ffffffffffffffffffffffffffffffffffffffff1673ffffffffffffffffffffffffffffffffffffffff1681525050815260200160098201548152602001600a820180546128e490614cbe565b80601f016020809104026020016040519081016040528092919081815260200182805461291090614cbe565b801561295d5780601f106129325761010080835404028352916020019161295d565b820191906000526020600020905b81548152906001019060200180831161294057829003601f168201915b50505050508152602001600b8201805461297690614cbe565b80601f01602080910402602001604051908101604052809291908181526020018280546129a290614cbe565b80156129ef5780601f106129c4576101008083540402835291602001916129ef565b820191906000526020600020905b8154815290600101906020018083116129d257829003601f168201915b50505050508152602001600c82018054612a0890614cbe565b80601f0160208091040260200160405190810160405280929190818152602001828054612a3490614cbe565b8015612a815780601f10612a5657610100808354040283529160200191612a81565b820191906000526020600020905b815481529060010190602001808311612a6457829003601f168201915b50505050508152602001600d82018054612a9a90614cbe565b80601f0160208091040260200160405190810160405280929190818152602001828054612ac690614cbe565b8015612b135780601f10612ae857610100808354040283529160200191612b13565b820191906000526020600020905b815481529060010190602001808311612af657829003601f168201915b5050505050815250509050919050565b612b2b613fc7565b612b3482612435565b612b73576040517f08c379a0000000000000000000000000000000000000000000000000000000008152600401612b6a90615132565b60405180910390fd5b6000808373ffffffffffffffffffffffffffffffffffffffff1673ffffffffffffffffffffffffffffffffffffffff168152602001908152602001600020604051806080016040529081600082016040518061014001604052908160008201548152602001600182018054612be790614cbe565b80601f0160208091040260200160405190810160405280929190818152602001828054612c1390614cbe565b8015612c605780601f10612c3557610100808354040283529160200191612c60565b820191906000526020600020905b815481529060010190602001808311612c4357829003601f168201915b50505050508152602001600282018054612c7990614cbe565b80601f0160208091040260200160405190810160405280929190818152602001828054612ca590614cbe565b8015612cf25780601f10612cc757610100808354040283529160200191612cf2565b820191906000526020600020905b815481529060010190602001808311612cd557829003601f168201915b50505050508152602001600382018054612d0b90614cbe565b80601f0160208091040260200160405190810160405280929190818152602001828054612d3790614cbe565b8015612d845780601f10612d5957610100808354040283529160200191612d84565b820191906000526020600020905b815481529060010190602001808311612d6757829003601f168201915b50505050508152602001600482018054612d9d90614cbe565b80601f0160208091040260200160405190810160405280929190818152602001828054612dc990614cbe565b8015612e165780601f10612deb57610100808354040283529160200191612e16565b820191906000526020600020905b815481529060010190602001808311612df957829003601f168201915b505050505081526020016005820154815260200160068201548152602001600782015481526020016008820160009054906101000a900460ff166001811115612e6257612e6161416b565b5b6001811115612e7457612e7361416b565b5b81526020016008820160019054906101000a900473ffffffffffffffffffffffffffffffffffffffff1673ffffffffffffffffffffffffffffffffffffffff1673ffffffffffffffffffffffffffffffffffffffff1681525050815260200160098201548152602001600a82018054612eec90614cbe565b80601f0160208091040260200160405190810160405280929190818152602001828054612f1890614cbe565b8015612f655780601f10612f3a57610100808354040283529160200191612f65565b820191906000526020600020905b815481529060010190602001808311612f4857829003601f168201915b50505050508152602001600b82018054612f7e90614cbe565b80601f0160208091040260200160405190810160405280929190818152602001828054612faa90614cbe565b8015612ff75780601f10612fcc57610100808354040283529160200191612ff7565b820191906000526020600020905b815481529060010190602001808311612fda57829003601f168201915b5050505050815250509050919050565b600080600480549050141561301f57600090506130e8565b6000600180549050141561303657600090506130e8565b8173ffffffffffffffffffffffffffffffffffffffff166004600360008573ffffffffffffffffffffffffffffffffffffffff1673ffffffffffffffffffffffffffffffffffffffff16815260200190815260200160002060090154815481106130a3576130a2615088565b5b9060005260206000200160009054906101000a900473ffffffffffffffffffffffffffffffffffffffff1673ffffffffffffffffffffffffffffffffffffffff161490505b919050565b6000600660009054906101000a900473ffffffffffffffffffffffffffffffffffffffff1673ffffffffffffffffffffffffffffffffffffffff1686610120015173ffffffffffffffffffffffffffffffffffffffff161415613185576040517f08c379a000000000000000000000000000000000000000000000000000000000815260040161317c90614d4d565b60405180910390fd5b613193866101200151612435565b156131d3576040517f08c379a00000000000000000000000000000000000000000000000000000000081526004016131ca9061519e565b60405180910390fd5b6131e1866101200151613007565b15613221576040517f08c379a00000000000000000000000000000000000000000000000000000000081526004016132189061520a565b60405180910390fd5b61322e8660200151613bbb565b1561326e576040517f08c379a00000000000000000000000000000000000000000000000000000000081526004016132659061520a565b60405180910390fd5b61327785613c73565b156132b7576040517f08c379a00000000000000000000000000000000000000000000000000000000081526004016132ae9061520a565b60405180910390fd5b6132ce866040015187606001518860800151613d28565b1561330e576040517f08c379a00000000000000000000000000000000000000000000000000000000081526004016133059061520a565b60405180910390fd5b856003600088610120015173ffffffffffffffffffffffffffffffffffffffff1673ffffffffffffffffffffffffffffffffffffffff16815260200190815260200160002060000160008201518160000155602082015181600101908051906020019061337c929190613e38565b506040820151816002019080519060200190613399929190613e38565b5060608201518160030190805190602001906133b6929190613e38565b5060808201518160040190805190602001906133d3929190613e38565b5060a0820151816005015560c0820151816006015560e082015181600701556101008201518160080160006101000a81548160ff0219169083600181111561341e5761341d61416b565b5b02179055506101208201518160080160016101000a81548173ffffffffffffffffffffffffffffffffffffffff021916908373ffffffffffffffffffffffffffffffffffffffff160217905550905050846003600088610120015173ffffffffffffffffffffffffffffffffffffffff1673ffffffffffffffffffffffffffffffffffffffff168152602001908152602001600020600a0190805190602001906134c9929190613e38565b50836003600088610120015173ffffffffffffffffffffffffffffffffffffffff1673ffffffffffffffffffffffffffffffffffffffff168152602001908152602001600020600b019080519060200190613525929190613e38565b50826003600088610120015173ffffffffffffffffffffffffffffffffffffffff1673ffffffffffffffffffffffffffffffffffffffff168152602001908152602001600020600c019080519060200190613581929190613e38565b50816003600088610120015173ffffffffffffffffffffffffffffffffffffffff1673ffffffffffffffffffffffffffffffffffffffff168152602001908152602001600020600d0190805190602001906135dd929190613e38565b5060048661012001519080600181540180825580915050600190039060005260206000200160009091909190916101000a81548173ffffffffffffffffffffffffffffffffffffffff021916908373ffffffffffffffffffffffffffffffffffffffff16021790555060016004805490506136589190614e74565b6003600088610120015173ffffffffffffffffffffffffffffffffffffffff1673ffffffffffffffffffffffffffffffffffffffff1681526020019081526020016000206009018190555060056040518060c00160405280888152602001600360008a610120015173ffffffffffffffffffffffffffffffffffffffff1673ffffffffffffffffffffffffffffffffffffffff1681526020019081526020016000206009015481526020018781526020018681526020018581526020018481525090806001815401808255809150506001900390600052602060002090600e0201600090919091909150600082015181600001600082015181600001556020820151816001019080519060200190613771929190613e38565b50604082015181600201908051906020019061378e929190613e38565b5060608201518160030190805190602001906137ab929190613e38565b5060808201518160040190805190602001906137c8929190613e38565b5060a0820151816005015560c0820151816006015560e082015181600701556101008201518160080160006101000a81548160ff021916908360018111156138135761381261416b565b5b02179055506101208201518160080160016101000a81548173ffffffffffffffffffffffffffffffffffffffff021916908373ffffffffffffffffffffffffffffffffffffffff160217905550505060208201518160090155604082015181600a019080519060200190613888929190613e38565b50606082015181600b0190805190602001906138a5929190613e38565b50608082015181600c0190805190602001906138c2929190613e38565b5060a082015181600d0190805190602001906138df929190613e38565b5050507fd0379bbd95b1d0f7a14d94eec93ff6089b8a350e35333ca02ff3c174611728e4868686868660405161391995949392919061522a565b60405180910390a160016004805490506139339190614e74565b905095945050505050565b600080600090505b6002805490508110156139eb578260405160200161396491906152dc565b604051602081830303815290604052805190602001206002828154811061398e5761398d615088565b5b90600052602060002090600c02016000016001016040516020016139b29190615387565b6040516020818303038152906040528051906020012014156139d85760019150506139f1565b80806139e39061539e565b915050613946565b50600090505b919050565b600080600090505b600280549050811015613aa05782604051602001613a1c91906152dc565b6040516020818303038152906040528051906020012060028281548110613a4657613a45615088565b5b90600052602060002090600c0201600a01604051602001613a679190615387565b604051602081830303815290604052805190602001201415613a8d576001915050613aa6565b8080613a989061539e565b9150506139fe565b50600090505b919050565b600080600090505b600280549050811015613bae57848484604051602001613ad593929190615433565b6040516020818303038152906040528051906020012060028281548110613aff57613afe615088565b5b90600052602060002090600c020160000160020160028381548110613b2757613b26615088565b5b90600052602060002090600c020160000160030160028481548110613b4f57613b4e615088565b5b90600052602060002090600c0201600001600401604051602001613b759392919061547a565b604051602081830303815290604052805190602001201415613b9b576001915050613bb4565b8080613ba69061539e565b915050613ab3565b50600090505b9392505050565b600080600090505b600580549050811015613c685782604051602001613be191906152dc565b6040516020818303038152906040528051906020012060058281548110613c0b57613c0a615088565b5b90600052602060002090600e0201600001600101604051602001613c2f9190615387565b604051602081830303815290604052805190602001201415613c55576001915050613c6e565b8080613c609061539e565b915050613bc3565b50600090505b919050565b600080600090505b600580549050811015613d1d5782604051602001613c9991906152dc565b6040516020818303038152906040528051906020012060058281548110613cc357613cc2615088565b5b90600052602060002090600e0201600a01604051602001613ce49190615387565b604051602081830303815290604052805190602001201415613d0a576001915050613d23565b8080613d159061539e565b915050613c7b565b50600090505b919050565b600080600090505b600580549050811015613e2b57848484604051602001613d5293929190615433565b6040516020818303038152906040528051906020012060058281548110613d7c57613d7b615088565b5b90600052602060002090600e020160000160020160058381548110613da457613da3615088565b5b90600052602060002090600e020160000160030160058481548110613dcc57613dcb615088565b5b90600052602060002090600e0201600001600401604051602001613df29392919061547a565b604051602081830303815290604052805190602001201415613e18576001915050613e31565b8080613e239061539e565b915050613d30565b50600090505b9392505050565b828054613e4490614cbe565b90600052602060002090601f016020900481019282613e665760008555613ead565b82601f10613e7f57805160ff1916838001178555613ead565b82800160010185558215613ead579182015b82811115613eac578251825591602001919060010190613e91565b5b509050613eba9190613ff5565b5090565b828054613eca90614cbe565b90600052602060002090601f016020900481019282613eec5760008555613f3a565b82601f10613efd5780548555613f3a565b82800160010185558215613f3a57600052602060002091601f016020900482015b82811115613f39578254825591600101919060010190613f1e565b5b509050613f479190613ff5565b5090565b508054613f5790614cbe565b6000825580601f10613f695750613f88565b601f016020900490600052602060002090810190613f879190613ff5565b5b50565b6040518060c00160405280613f9e614012565b815260200160008152602001606081526020016060815260200160608152602001606081525090565b6040518060800160405280613fda614012565b81526020016000815260200160608152602001606081525090565b5b8082111561400e576000816000905550600101613ff6565b5090565b60405180610140016040528060008152602001606081526020016060815260200160608152602001606081526020016000815260200160008152602001600081526020016000600181111561406a5761406961416b565b5b8152602001600073ffffffffffffffffffffffffffffffffffffffff1681525090565b600081519050919050565b600082825260208201905092915050565b6000819050602082019050919050565b6000819050919050565b6140cc816140b9565b82525050565b600081519050919050565b600082825260208201905092915050565b60005b8381101561410c5780820151818401526020810190506140f1565b8381111561411b576000848401525b50505050565b6000601f19601f8301169050919050565b600061413d826140d2565b61414781856140dd565b93506141578185602086016140ee565b61416081614121565b840191505092915050565b7f4e487b7100000000000000000000000000000000000000000000000000000000600052602160045260246000fd5b600281106141ab576141aa61416b565b5b50565b60008190506141bc8261419a565b919050565b60006141cc826141ae565b9050919050565b6141dc816141c1565b82525050565b600073ffffffffffffffffffffffffffffffffffffffff82169050919050565b600061420d826141e2565b9050919050565b61421d81614202565b82525050565b60006101408301600083015161423c60008601826140c3565b50602083015184820360208601526142548282614132565b9150506040830151848203604086015261426e8282614132565b915050606083015184820360608601526142888282614132565b915050608083015184820360808601526142a28282614132565b91505060a08301516142b760a08601826140c3565b5060c08301516142ca60c08601826140c3565b5060e08301516142dd60e08601826140c3565b506101008301516142f26101008601826141d3565b50610120830151614307610120860182614214565b508091505092915050565b600060c083016000830151848203600086015261432f8282614223565b915050602083015161434460208601826140c3565b506040830151848203604086015261435c8282614132565b915050606083015184820360608601526143768282614132565b915050608083015184820360808601526143908282614132565b91505060a083015184820360a08601526143aa8282614132565b9150508091505092915050565b60006143c38383614312565b905092915050565b6000602082019050919050565b60006143e38261408d565b6143ed8185614098565b9350836020820285016143ff856140a9565b8060005b8581101561443b578484038952815161441c85826143b7565b9450614427836143cb565b925060208a01995050600181019050614403565b50829750879550505050505092915050565b6000602082019050818103600083015261446781846143d8565b905092915050565b600081519050919050565b600082825260208201905092915050565b6000819050602082019050919050565b600060808301600083015184820360008601526144b88282614223565b91505060208301516144cd60208601826140c3565b50604083015184820360408601526144e58282614132565b915050606083015184820360608601526144ff8282614132565b9150508091505092915050565b6000614518838361449b565b905092915050565b6000602082019050919050565b60006145388261446f565b614542818561447a565b9350836020820285016145548561448b565b8060005b858110156145905784840389528151614571858261450c565b945061457c83614520565b925060208a01995050600181019050614558565b50829750879550505050505092915050565b600060208201905081810360008301526145bc818461452d565b905092915050565b6000604051905090565b600080fd5b600080fd5b600080fd5b7f4e487b7100000000000000000000000000000000000000000000000000000000600052604160045260246000fd5b61461582614121565b810181811067ffffffffffffffff82111715614634576146336145dd565b5b80604052505050565b60006146476145c4565b9050614653828261460c565b919050565b600080fd5b614666816140b9565b811461467157600080fd5b50565b6000813590506146838161465d565b92915050565b600080fd5b600080fd5b600067ffffffffffffffff8211156146ae576146ad6145dd565b5b6146b782614121565b9050602081019050919050565b82818337600083830152505050565b60006146e66146e184614693565b61463d565b9050828152602081018484840111156147025761470161468e565b5b61470d8482856146c4565b509392505050565b600082601f83011261472a57614729614689565b5b813561473a8482602086016146d3565b91505092915050565b6002811061475057600080fd5b50565b60008135905061476281614743565b92915050565b61477181614202565b811461477c57600080fd5b50565b60008135905061478e81614768565b92915050565b600061014082840312156147ab576147aa6145d8565b5b6147b661014061463d565b905060006147c684828501614674565b600083015250602082013567ffffffffffffffff8111156147ea576147e9614658565b5b6147f684828501614715565b602083015250604082013567ffffffffffffffff81111561481a57614819614658565b5b61482684828501614715565b604083015250606082013567ffffffffffffffff81111561484a57614849614658565b5b61485684828501614715565b606083015250608082013567ffffffffffffffff81111561487a57614879614658565b5b61488684828501614715565b60808301525060a061489a84828501614674565b60a08301525060c06148ae84828501614674565b60c08301525060e06148c284828501614674565b60e0830152506101006148d784828501614753565b610100830152506101206148ed8482850161477f565b6101208301525092915050565b600080600060608486031215614913576149126145ce565b5b600084013567ffffffffffffffff811115614931576149306145d3565b5b61493d86828701614794565b935050602084013567ffffffffffffffff81111561495e5761495d6145d3565b5b61496a86828701614715565b925050604084013567ffffffffffffffff81111561498b5761498a6145d3565b5b61499786828701614715565b9150509250925092565b6149aa816140b9565b82525050565b60006020820190506149c560008301846149a1565b92915050565b6000602082840312156149e1576149e06145ce565b5b60006149ef8482850161477f565b91505092915050565b60008115159050919050565b614a0d816149f8565b82525050565b6000602082019050614a286000830184614a04565b92915050565b600060c0830160008301518482036000860152614a4b8282614223565b9150506020830151614a6060208601826140c3565b5060408301518482036040860152614a788282614132565b91505060608301518482036060860152614a928282614132565b91505060808301518482036080860152614aac8282614132565b91505060a083015184820360a0860152614ac68282614132565b9150508091505092915050565b60006020820190508181036000830152614aed8184614a2e565b905092915050565b60006080830160008301518482036000860152614b128282614223565b9150506020830151614b2760208601826140c3565b5060408301518482036040860152614b3f8282614132565b91505060608301518482036060860152614b598282614132565b9150508091505092915050565b60006020820190508181036000830152614b808184614af5565b905092915050565b600080600080600060a08688031215614ba457614ba36145ce565b5b600086013567ffffffffffffffff811115614bc257614bc16145d3565b5b614bce88828901614794565b955050602086013567ffffffffffffffff811115614bef57614bee6145d3565b5b614bfb88828901614715565b945050604086013567ffffffffffffffff811115614c1c57614c1b6145d3565b5b614c2888828901614715565b935050606086013567ffffffffffffffff811115614c4957614c486145d3565b5b614c5588828901614715565b925050608086013567ffffffffffffffff811115614c7657614c756145d3565b5b614c8288828901614715565b9150509295509295909350565b7f4e487b7100000000000000000000000000000000000000000000000000000000600052602260045260246000fd5b60006002820490506001821680614cd657607f821691505b60208210811415614cea57614ce9614c8f565b5b50919050565b600082825260208201905092915050565b7f5065726d697373696f6e2044656e696564000000000000000000000000000000600082015250565b6000614d37601183614cf0565b9150614d4282614d01565b602082019050919050565b60006020820190508181036000830152614d6681614d2a565b9050919050565b7f5573657220416c726561647920612043616e6469646174650000000000000000600082015250565b6000614da3601883614cf0565b9150614dae82614d6d565b602082019050919050565b60006020820190508181036000830152614dd281614d96565b9050919050565b7f566f74657220416c726561647920457869737473000000000000000000000000600082015250565b6000614e0f601483614cf0565b9150614e1a82614dd9565b602082019050919050565b60006020820190508181036000830152614e3e81614e02565b9050919050565b7f4e487b7100000000000000000000000000000000000000000000000000000000600052601160045260246000fd5b6000614e7f826140b9565b9150614e8a836140b9565b925082821015614e9d57614e9c614e45565b5b828203905092915050565b600061014083016000830151614ec160008601826140c3565b5060208301518482036020860152614ed98282614132565b91505060408301518482036040860152614ef38282614132565b91505060608301518482036060860152614f0d8282614132565b91505060808301518482036080860152614f278282614132565b91505060a0830151614f3c60a08601826140c3565b5060c0830151614f4f60c08601826140c3565b5060e0830151614f6260e08601826140c3565b50610100830151614f776101008601826141d3565b50610120830151614f8c610120860182614214565b508091505092915050565b6000614fa2826140d2565b614fac8185614cf0565b9350614fbc8185602086016140ee565b614fc581614121565b840191505092915050565b60006060820190508181036000830152614fea8186614ea8565b90508181036020830152614ffe8185614f97565b905081810360408301526150128184614f97565b9050949350505050565b7f43616e64696461746520446f6573206e6f742065786973740000000000000000600082015250565b6000615052601883614cf0565b915061505d8261501c565b602082019050919050565b6000602082019050818103600083015261508181615045565b9050919050565b7f4e487b7100000000000000000000000000000000000000000000000000000000600052603260045260246000fd5b7f4e487b7100000000000000000000000000000000000000000000000000000000600052603160045260246000fd5b7f566f74657220446f6573206e6f74206578697374000000000000000000000000600082015250565b600061511c601483614cf0565b9150615127826150e6565b602082019050919050565b6000602082019050818103600083015261514b8161510f565b9050919050565b7f5573657220416c7265616479206120566f746572000000000000000000000000600082015250565b6000615188601483614cf0565b915061519382615152565b602082019050919050565b600060208201905081810360008301526151b78161517b565b9050919050565b7f43616e64696461746520416c7265616479204578697374730000000000000000600082015250565b60006151f4601883614cf0565b91506151ff826151be565b602082019050919050565b60006020820190508181036000830152615223816151e7565b9050919050565b600060a08201905081810360008301526152448188614ea8565b905081810360208301526152588187614f97565b9050818103604083015261526c8186614f97565b905081810360608301526152808185614f97565b905081810360808301526152948184614f97565b90509695505050505050565b600081905092915050565b60006152b6826140d2565b6152c081856152a0565b93506152d08185602086016140ee565b80840191505092915050565b60006152e882846152ab565b915081905092915050565b60008190508160005260206000209050919050565b6000815461531581614cbe565b61531f81866152a0565b9450600182166000811461533a576001811461534b5761537e565b60ff1983168652818601935061537e565b615354856152f3565b60005b8381101561537657815481890152600182019150602081019050615357565b838801955050505b50505092915050565b60006153938284615308565b915081905092915050565b60006153a9826140b9565b91507fffffffffffffffffffffffffffffffffffffffffffffffffffffffffffffffff8214156153dc576153db614e45565b5b600182019050919050565b7f2000000000000000000000000000000000000000000000000000000000000000600082015250565b600061541d6001836152a0565b9150615428826153e7565b600182019050919050565b600061543f82866152ab565b915061544a82615410565b915061545682856152ab565b915061546182615410565b915061546d82846152ab565b9150819050949350505050565b60006154868286615308565b915061549182615410565b915061549d8285615308565b91506154a882615410565b91506154b48284615308565b915081905094935050505056fea26469706673582212200f9bd40723730b572d164c01360cb2784cb28e0683226d500e2546435ff0683564736f6c634300080a0033",
  "immutableReferences": {},
  "source": "// SPDX-License-Identifier: MIT\npragma solidity ^0.8.9;\n\ncontract AAiTStudent {\n\n    enum DEPTARTMENT_TYPE { SITE, ELEC }\n\n    struct UserStruct {\n        uint256 index;\n        string studentId;\n        string fName;\n        string lName;\n        string gName;\n        uint256 DOB;\n        uint256 currentYear;\n        uint256 currentSection;\n        DEPTARTMENT_TYPE currentDepartment;\n        address userAddress;\n    }\n\n    struct VoterStruct {\n        UserStruct voterInfo;\n        uint256 vindex;\n        string voterEmail;\n        string voterPassword;\n    }\n\n    struct CandidateStruct {\n        UserStruct candidateInfo;\n        uint256 vindex;\n        string candidateEmail;\n        string candidatePassword;\n        string candidateBio;\n        string candidateProfilePicture;\n    }\n\n    mapping(address => VoterStruct) private voterStructsMapping;\n    address[] private voterIndex;\n    VoterStruct[] private voterValue;\n\n    event LogNewVoter(\n        UserStruct voterInfo,\n        string voterEmail,\n        string voterPassword\n    );\n    event LogUpdateVoter(\n        UserStruct voterInfo,\n        string voterEmail,\n        string voterPassword\n    );\n    event LogDeleteVoter(address indexed userAddress, uint256 index);\n\n    // mapping(address => UserStruct) private userStructsMapping;\n    // address[] private userIndex;\n    // UserStruct[] private userValue;\n\n    // event LogNewUser(\n    //     address indexed userAddress,\n    //     uint256 index,\n    //     string studentId,\n    //     string fName,\n    //     string lName,\n    //     string gName,\n    //     uint256 DOB,\n    //     uint256 currentYear,\n    //     uint256 currentSection,\n    //     string currentDepartment\n    // );\n    // event LogUpdateUser(\n    //     address indexed userAddress,\n    //     uint256 index,\n    //     string studentId,\n    //     string fName,\n    //     string lName,\n    //     string gName,\n    //     uint256 DOB,\n    //     uint256 currentYear,\n    //     uint256 currentSection,\n    //     string currentDepartment\n    // );\n    // event LogDeleteUser(address indexed userAddress, uint256 index);\n\n    mapping(address => CandidateStruct) private candidateStructsMapping;\n    address[] private candidateIndex;\n    CandidateStruct[] private candidateValue;\n\n    event LogNewCandidate(\n        UserStruct candidateInfo,\n        string candidateEmail,\n        string candidatePassword,\n        string candidateBio,\n        string candidateProfilePicture\n    );\n    event LogUpdateCandidate(\n        UserStruct candidateInfo,\n        string candidateEmail,\n        string candidatePassword,\n        string candidateBio,\n        string candidateProfilePicture\n    );\n    event LogDeleteCandidate(address indexed userAddress, uint256 index);\n\n    address private owner;\n\n    modifier onlyOwner() {\n        require(msg.sender == owner);\n        _;\n    }\n\n    constructor() {\n        owner = msg.sender;\n        // AAiTVoteTokenAddress = _AAiTVoteTokenAddress;\n    }\n\n    // function findUserByStudentId(string memory newStudentId)\n    //     internal\n    //     view\n    //     returns (bool)\n    // {\n    //     for (uint256 i = 0; i < userValue.length; i++) {\n    //         if (\n    //             keccak256(abi.encodePacked(userValue[i].studentId)) ==\n    //             keccak256(abi.encodePacked(newStudentId))\n    //         ) {\n    //             return true;\n    //         }\n    //     }\n    //     return false;\n    // }\n\n    // function findUserByFullName(\n    //     string memory newfName,\n    //     string memory newlName,\n    //     string memory newgName\n    // ) internal view returns (bool) {\n    //     for (uint256 i = 0; i < userValue.length; i++) {\n    //         if (\n    //             keccak256(\n    //                 abi.encodePacked(\n    //                     userValue[i].fName,\n    //                     \" \",\n    //                     userValue[i].lName,\n    //                     \" \",\n    //                     userValue[i].gName\n    //                 )\n    //             ) ==\n    //             keccak256(\n    //                 abi.encodePacked(newfName, \" \", newlName, \" \", newgName)\n    //             )\n    //         ) {\n    //             return true;\n    //         }\n    //     }\n    //     return false;\n    // }\n\n    // function isUser(address userAddress) internal view returns (bool) {\n    //     if (userIndex.length == 0) return false;\n    //     return (userIndex[userStructsMapping[userAddress].index] ==\n    //         userAddress);\n    // }\n\n    // function insertUser(\n    //     address userAddress,\n    //     string memory studentId,\n    //     string memory fName,\n    //     string memory lName,\n    //     string memory gName,\n    //     uint256 DOB,\n    //     uint256 currentYear,\n    //     uint256 currentSection,\n    //     string memory currentDepartment\n    // ) external returns (uint256 index) {\n    //     require(userAddress != owner, \"Permission Denied\");\n    //     require(!isUser(userAddress), \"User Already Exists\");\n    //     require(!findUserByStudentId(studentId), \"User Already Exists\");\n    //     require(\n    //         !findUserByFullName(fName, lName, gName),\n    //         \"User Already Exists\"\n    //     );\n\n    //     userStructsMapping[userAddress].studentId = studentId;\n    //     userStructsMapping[userAddress].fName = fName;\n    //     userStructsMapping[userAddress].lName = lName;\n    //     userStructsMapping[userAddress].gName = gName;\n    //     userStructsMapping[userAddress].DOB = DOB;\n    //     userStructsMapping[userAddress].currentYear = currentYear;\n    //     userStructsMapping[userAddress].currentSection = currentSection;\n    //     userStructsMapping[userAddress].currentDepartment = currentDepartment;\n    //     userStructsMapping[userAddress].userAddress = userAddress;\n    //     userIndex.push(userAddress);\n    //     userStructsMapping[userAddress].index = userIndex.length - 1;\n    //     userValue.push(\n    //         UserStruct(\n    //             userStructsMapping[userAddress].index,\n    //             studentId,\n    //             fName,\n    //             lName,\n    //             gName,\n    //             DOB,\n    //             currentYear,\n    //             currentSection,\n    //             currentDepartment,\n    //             userAddress\n    //         )\n    //     );\n    //     emit LogNewUser(\n    //         userAddress,\n    //         userStructsMapping[userAddress].index,\n    //         studentId,\n    //         fName,\n    //         lName,\n    //         gName,\n    //         DOB,\n    //         currentYear,\n    //         currentSection,\n    //         currentDepartment\n    //     );\n    //     return userIndex.length - 1;\n    // }\n\n    // function getUser(address userAddress)\n    //     external\n    //     view\n    //     returns (UserStruct memory)\n    // {\n    //     // if (!isUser(userAddress)) throw;\n    //     require(isUser(userAddress), \"User Does not exist\");\n\n    //     return (userStructsMapping[userAddress]);\n    // }\n\n    // function removeUser(address userAddress) external returns (bool success) {\n    //     require(isUser(userAddress), \"User Does not exist\");\n    //     // Candidate deployedCandidate = Candidate(candidateContractAddress);\n    //     // Voter deployedVoter = Voter(voterContractAddress);\n\n    //     if (isVoter(userAddress)) {\n    //         removeVoter(userAddress);\n    //     }\n    //     if (isCandidate(userAddress)) {\n    //         removeCandidate(userAddress);\n    //     }\n\n    //     userIndex[userStructsMapping[userAddress].index] = userIndex[userIndex.length - 1];\n    //     userStructsMapping[userIndex[userIndex.length - 1]].index = userStructsMapping[userAddress].index;\n\n    //     userValue[userStructsMapping[userAddress].index] = userValue[userValue.length - 1];\n    //     userValue[userStructsMapping[userAddress].index].index = userStructsMapping[userAddress].index;\n    //     userValue.pop();\n    //     userIndex.pop();\n    //     delete userStructsMapping[userAddress];\n    //     emit LogDeleteUser(userAddress, userStructsMapping[userAddress].index);\n\n    //     return true;\n    // }\n\n    // VOTER FUNCTIONS\n\n    function findVoterByStudentId(string memory newStudentId)\n        internal\n        view\n        returns (bool)\n    {\n        for (uint256 i = 0; i < voterValue.length; i++) {\n            if (\n                keccak256(\n                    abi.encodePacked(voterValue[i].voterInfo.studentId)\n                ) == keccak256(abi.encodePacked(newStudentId))\n            ) {\n                return true;\n            }\n        }\n        return false;\n        // return isIndeed;\n    }\n\n    function findVoterByEmail(string memory newEmail)\n        internal\n        view\n        returns (bool)\n    {\n        for (uint256 i = 0; i < voterValue.length; i++) {\n            if (\n                keccak256(abi.encodePacked(voterValue[i].voterEmail)) ==\n                keccak256(abi.encodePacked(newEmail))\n            ) {\n                return true;\n            }\n        }\n        return false;\n        // return isIndeed;\n    }\n\n    function findVoterByFullName(\n        string memory newfName,\n        string memory newlName,\n        string memory newgName\n    ) internal view returns (bool) {\n        for (uint256 i = 0; i < voterValue.length; i++) {\n            if (\n                keccak256(\n                    abi.encodePacked(\n                        voterValue[i].voterInfo.fName,\n                        \" \",\n                        voterValue[i].voterInfo.lName,\n                        \" \",\n                        voterValue[i].voterInfo.gName\n                    )\n                ) ==\n                keccak256(\n                    abi.encodePacked(newfName, \" \", newlName, \" \", newgName)\n                )\n            ) {\n                return true;\n            }\n        }\n        return false;\n    }\n\n    function isVoter(address userAddress) public view returns (bool) {\n        // UserStruct[] memory tempUsers = deployedUser.getAllUsers();\n        // require(isUser(userAddress), \"User Does not Exist\");\n\n        if (voterIndex.length == 0) return false;\n        if (candidateIndex.length == 0) return false;\n        return (voterIndex[voterStructsMapping[userAddress].vindex] ==\n            userAddress);\n    }\n\n    function insertVoter(\n        UserStruct memory voterInfo,\n        string memory email,\n        string memory password\n    ) public returns (uint256) {\n        // if (isUser(userAddress)) throw;\n        require(voterInfo.userAddress != owner, \"Permission Denied\");\n\n        require(!isCandidate(voterInfo.userAddress), \"User Already a Candidate\");\n        require(!isVoter(voterInfo.userAddress), \"Voter Already Exists\");\n        require(\n            !findVoterByStudentId(voterInfo.studentId),\n            \"Voter Already Exists\"\n        );\n        require(!findVoterByEmail(email), \"Voter Already Exists\");\n        require(\n            !findVoterByFullName(\n                voterInfo.fName,\n                voterInfo.lName,\n                voterInfo.gName\n            ),\n            \"Voter Already Exists\"\n        );\n\n        voterStructsMapping[voterInfo.userAddress].voterInfo = voterInfo;\n        voterStructsMapping[voterInfo.userAddress].voterEmail = email;\n        voterStructsMapping[voterInfo.userAddress].voterPassword = password;\n\n        voterIndex.push(voterInfo.userAddress);\n        voterStructsMapping[voterInfo.userAddress].vindex =\n            voterIndex.length -\n            1;\n        voterValue.push(\n            VoterStruct(\n                voterInfo,\n                voterStructsMapping[voterInfo.userAddress].vindex,\n                email,\n                password\n            )\n        );\n        emit LogNewVoter(voterInfo, email, password);\n        return voterIndex.length - 1;\n    }\n\n    function removeVoter(address userAddress) external returns (bool success) {\n        require(isVoter(userAddress), \"Voter Does not exist\");\n        // uint256 rowToDelete = voterStructsMapping[userAddress].vindex;\n        // address keyToMove = voterIndex[voterIndex.length - 1];\n        voterIndex[voterStructsMapping[userAddress].vindex] = voterIndex[\n            voterIndex.length - 1\n        ];\n        voterStructsMapping[voterIndex[voterIndex.length - 1]]\n            .vindex = voterStructsMapping[userAddress].vindex;\n\n        voterValue[voterStructsMapping[userAddress].vindex] = voterValue[\n            voterValue.length - 1\n        ];\n        voterValue[voterStructsMapping[userAddress].vindex]\n            .vindex = voterStructsMapping[userAddress].vindex;\n        voterValue.pop();\n        voterIndex.pop();\n        delete voterStructsMapping[userAddress];\n\n        emit LogDeleteVoter(\n            userAddress,\n            voterStructsMapping[userAddress].vindex\n        );\n\n        return true;\n    }\n\n    // CANDIDATE FUNCITONS\n\n    function findCandidateByStudentId(string memory newStudentId)\n        internal\n        view\n        returns (bool isIndeed)\n    {\n        // CandidateStruct[] memory temp = candidateValue;\n        for (uint256 i = 0; i < candidateValue.length; i++) {\n            if (\n                keccak256(\n                    abi.encodePacked(candidateValue[i].candidateInfo.studentId)\n                ) == keccak256(abi.encodePacked(newStudentId))\n            ) {\n                return true;\n            }\n        }\n        return false;\n        // return isIndeed;\n    }\n\n    function findCandidateByEmail(string memory newEmail)\n        internal\n        view\n        returns (bool isIndeed)\n    {\n        // CandidateStruct[] memory temp = candidateValue;\n        for (uint256 i = 0; i < candidateValue.length; i++) {\n            if (\n                keccak256(abi.encodePacked(candidateValue[i].candidateEmail)) ==\n                keccak256(abi.encodePacked(newEmail))\n            ) {\n                return true;\n            }\n        }\n        return false;\n        // return isIndeed;\n    }\n\n    function findCandidateByFullName(\n        string memory newfName,\n        string memory newlName,\n        string memory newgName\n    ) internal view returns (bool isIndeed) {\n        // CandidateStruct[] memory temp = candidateValue;\n        for (uint256 i = 0; i < candidateValue.length; i++) {\n            if (\n                keccak256(\n                    abi.encodePacked(\n                        candidateValue[i].candidateInfo.fName,\n                        \" \",\n                        candidateValue[i].candidateInfo.lName,\n                        \" \",\n                        candidateValue[i].candidateInfo.gName\n                    )\n                ) ==\n                keccak256(\n                    abi.encodePacked(newfName, \" \", newlName, \" \", newgName)\n                )\n            ) {\n                return true;\n            }\n        }\n        return false;\n    }\n\n    function isCandidate(address userAddress)\n        public\n        view\n        returns (bool isIndeed)\n    {\n        // UserStruct[] memory tempUsers = deployedUser.getAllUsers();\n        // require(isUser(userAddress), \"User Does not Exist\");\n        if (candidateIndex.length == 0) return false;\n\n        if (voterIndex.length == 0) return false;\n        // require(candidateIndex[candidateStructsMapping[userAddress].vindex] ==\n        //     userAddress,\"index out of bounds error over here\");\n        return (candidateIndex[candidateStructsMapping[userAddress].vindex] ==\n            userAddress);\n    }\n\n    function insertCandidate(\n        UserStruct memory candidateInfo,\n        string memory email,\n        string memory password,\n        string memory bio,\n        string memory profilePicture\n    ) public returns (uint256 index) {\n        // if (isUser(userAddress)) throw;\n        require(candidateInfo.userAddress != owner, \"Permission Denied\");\n\n        require(!isVoter(candidateInfo.userAddress), \"User Already a Voter\");\n        require(\n            !isCandidate(candidateInfo.userAddress),\n            \"Candidate Already Exists\"\n        );\n        require(\n            !findCandidateByStudentId(candidateInfo.studentId),\n            \"Candidate Already Exists\"\n        );\n        require(!findCandidateByEmail(email), \"Candidate Already Exists\");\n        require(\n            !findCandidateByFullName(\n                candidateInfo.fName,\n                candidateInfo.lName,\n                candidateInfo.gName\n            ),\n            \"Candidate Already Exists\"\n        );\n\n        candidateStructsMapping[candidateInfo.userAddress]\n            .candidateInfo = candidateInfo;\n        candidateStructsMapping[candidateInfo.userAddress]\n            .candidateEmail = email;\n        candidateStructsMapping[candidateInfo.userAddress]\n            .candidatePassword = password;\n        candidateStructsMapping[candidateInfo.userAddress].candidateBio = bio;\n        candidateStructsMapping[candidateInfo.userAddress]\n            .candidateProfilePicture = profilePicture;\n        // userStructsMapping[userAddress].gName = gName;\n        // userStructsMapping[userAddress].userAddress = userAddress;\n        candidateIndex.push(candidateInfo.userAddress);\n        candidateStructsMapping[candidateInfo.userAddress].vindex =\n            candidateIndex.length -\n            1;\n        candidateValue.push(\n            CandidateStruct(\n                candidateInfo,\n                candidateStructsMapping[candidateInfo.userAddress].vindex,\n                email,\n                password,\n                bio,\n                profilePicture\n            )\n        );\n        emit LogNewCandidate(\n            candidateInfo,\n            email,\n            password,\n            bio,\n            profilePicture\n        );\n        return candidateIndex.length - 1;\n    }\n\n    function removeCandidate(address userAddress)\n        public\n        returns (bool success)\n    {\n        require(isCandidate(userAddress), \"Candidate Does not exist\");\n        // uint256 rowToDelete = candidateStructsMapping[userAddress].vindex;\n        // address keyToMove = candidateIndex[candidateIndex.length - 1];\n        candidateIndex[\n            candidateStructsMapping[userAddress].vindex\n        ] = candidateIndex[candidateIndex.length - 1];\n        candidateStructsMapping[candidateIndex[candidateIndex.length - 1]]\n            .vindex = candidateStructsMapping[userAddress].vindex;\n\n        candidateValue[\n            candidateStructsMapping[userAddress].vindex\n        ] = candidateValue[candidateValue.length - 1];\n        candidateValue[candidateStructsMapping[userAddress].vindex]\n            .vindex = candidateStructsMapping[userAddress].vindex;\n        candidateValue.pop();\n        candidateIndex.pop();\n        delete candidateStructsMapping[userAddress];\n        emit LogDeleteCandidate(\n            userAddress,\n            candidateStructsMapping[userAddress].vindex\n        );\n\n        return true;\n    }\n\n    // function getAllUsers() public view returns (UserStruct[] memory) {\n    //     return userValue;\n    // }\n\n    function getVoter(address userAddress)\n        public\n        view\n        returns (VoterStruct memory)\n    {\n        // if (!isUser(userAddress)) throw;\n        require(isVoter(userAddress), \"Voter Does not exist\");\n\n        return (voterStructsMapping[userAddress]);\n    }\n\n    function getAllVoters() public view returns (VoterStruct[] memory) {\n        return voterValue;\n    }\n\n    function getCandidate(address userAddress)\n        public\n        view\n        returns (CandidateStruct memory)\n    {\n        // if (!isUser(userAddress)) throw;\n        require(isCandidate(userAddress), \"Candidate Does not exist\");\n\n        return (candidateStructsMapping[userAddress]);\n    }\n\n    function getAllCandidates() public view returns (CandidateStruct[] memory) {\n        return candidateValue;\n    }\n}\n",
  "sourcePath": "/home/dannyterefe/Documents/VSCode_Projects/Final_Project/blockchain_based_voting_system/dvbst_smart_contracts/contracts/AAiTStudent.sol",
  "compiler": {
    "name": "solc",
    "version": "0.8.10+commit.fc410830.Emscripten.clang"
  },
  "schemaVersion": "3.4.4",
  "updatedAt": "2022-05-15T07:34:08.643Z",
  "networkType": "ethereum",
  "devdoc": {
    "kind": "dev",
    "methods": {},
    "version": 1
  },
  "userdoc": {
    "kind": "user",
    "methods": {},
    "version": 1
  }
}