{
  "contractName": "AAiTStudent",
  "abi": [
    {
      "inputs": [
        {
          "internalType": "address",
          "name": "_AAiTUserContractAddress",
          "type": "address"
        }
      ],
      "stateMutability": "nonpayable",
      "type": "constructor"
    },
    {
      "inputs": [
        {
          "internalType": "address",
          "name": "userAddress",
          "type": "address"
        }
      ],
      "name": "isVoter",
      "outputs": [
        {
          "internalType": "bool",
          "name": "",
          "type": "bool"
        }
      ],
      "stateMutability": "view",
      "type": "function",
      "constant": true
    },
    {
      "inputs": [
        {
          "components": [
            {
              "components": [
                {
                  "internalType": "uint256",
                  "name": "index",
                  "type": "uint256"
                },
                {
                  "internalType": "string",
                  "name": "studentId",
                  "type": "string"
                },
                {
                  "internalType": "string",
                  "name": "fullName",
                  "type": "string"
                },
                {
                  "internalType": "uint256",
                  "name": "DOB",
                  "type": "uint256"
                },
                {
                  "internalType": "uint256",
                  "name": "currentYear",
                  "type": "uint256"
                },
                {
                  "internalType": "uint256",
                  "name": "currentSection",
                  "type": "uint256"
                },
                {
                  "internalType": "enum AAiTUser.DEPTARTMENT_TYPE",
                  "name": "currentDepartment",
                  "type": "uint8"
                },
                {
                  "internalType": "string",
                  "name": "email",
                  "type": "string"
                }
              ],
              "internalType": "struct AAiTUser.UserStruct",
              "name": "voterInfo",
              "type": "tuple"
            },
            {
              "internalType": "uint256",
              "name": "vindex",
              "type": "uint256"
            }
          ],
          "internalType": "struct AAiTUser.VoterStruct",
          "name": "voterInfo",
          "type": "tuple"
        },
        {
          "internalType": "address",
          "name": "userAddress",
          "type": "address"
        }
      ],
      "name": "insertVoter",
      "outputs": [
        {
          "internalType": "uint256",
          "name": "",
          "type": "uint256"
        }
      ],
      "stateMutability": "nonpayable",
      "type": "function"
    },
    {
      "inputs": [
        {
          "internalType": "address",
          "name": "userAddress",
          "type": "address"
        }
      ],
      "name": "removeVoter",
      "outputs": [
        {
          "internalType": "bool",
          "name": "success",
          "type": "bool"
        }
      ],
      "stateMutability": "nonpayable",
      "type": "function"
    },
    {
      "inputs": [
        {
          "internalType": "address",
          "name": "userAddress",
          "type": "address"
        }
      ],
      "name": "isCandidate",
      "outputs": [
        {
          "internalType": "bool",
          "name": "isIndeed",
          "type": "bool"
        }
      ],
      "stateMutability": "view",
      "type": "function",
      "constant": true
    },
    {
      "inputs": [
        {
          "components": [
            {
              "components": [
                {
                  "internalType": "uint256",
                  "name": "index",
                  "type": "uint256"
                },
                {
                  "internalType": "string",
                  "name": "studentId",
                  "type": "string"
                },
                {
                  "internalType": "string",
                  "name": "fullName",
                  "type": "string"
                },
                {
                  "internalType": "uint256",
                  "name": "DOB",
                  "type": "uint256"
                },
                {
                  "internalType": "uint256",
                  "name": "currentYear",
                  "type": "uint256"
                },
                {
                  "internalType": "uint256",
                  "name": "currentSection",
                  "type": "uint256"
                },
                {
                  "internalType": "enum AAiTUser.DEPTARTMENT_TYPE",
                  "name": "currentDepartment",
                  "type": "uint8"
                },
                {
                  "internalType": "string",
                  "name": "email",
                  "type": "string"
                }
              ],
              "internalType": "struct AAiTUser.UserStruct",
              "name": "candidateInfo",
              "type": "tuple"
            },
            {
              "internalType": "uint256",
              "name": "vindex",
              "type": "uint256"
            },
            {
              "internalType": "string",
              "name": "candidateBio",
              "type": "string"
            },
            {
              "internalType": "string",
              "name": "candidateProfilePicture",
              "type": "string"
            }
          ],
          "internalType": "struct AAiTUser.CandidateStruct",
          "name": "userInfo",
          "type": "tuple"
        },
        {
          "internalType": "address",
          "name": "userAddress",
          "type": "address"
        }
      ],
      "name": "insertCandidate",
      "outputs": [
        {
          "internalType": "uint256",
          "name": "index",
          "type": "uint256"
        }
      ],
      "stateMutability": "nonpayable",
      "type": "function"
    },
    {
      "inputs": [
        {
          "internalType": "address",
          "name": "userAddress",
          "type": "address"
        }
      ],
      "name": "removeCandidate",
      "outputs": [
        {
          "internalType": "bool",
          "name": "success",
          "type": "bool"
        }
      ],
      "stateMutability": "nonpayable",
      "type": "function"
    },
    {
      "inputs": [
        {
          "internalType": "address",
          "name": "userAddress",
          "type": "address"
        }
      ],
      "name": "getVoter",
      "outputs": [
        {
          "components": [
            {
              "components": [
                {
                  "components": [
                    {
                      "internalType": "uint256",
                      "name": "index",
                      "type": "uint256"
                    },
                    {
                      "internalType": "string",
                      "name": "studentId",
                      "type": "string"
                    },
                    {
                      "internalType": "string",
                      "name": "fullName",
                      "type": "string"
                    },
                    {
                      "internalType": "uint256",
                      "name": "DOB",
                      "type": "uint256"
                    },
                    {
                      "internalType": "uint256",
                      "name": "currentYear",
                      "type": "uint256"
                    },
                    {
                      "internalType": "uint256",
                      "name": "currentSection",
                      "type": "uint256"
                    },
                    {
                      "internalType": "enum AAiTUser.DEPTARTMENT_TYPE",
                      "name": "currentDepartment",
                      "type": "uint8"
                    },
                    {
                      "internalType": "string",
                      "name": "email",
                      "type": "string"
                    }
                  ],
                  "internalType": "struct AAiTUser.UserStruct",
                  "name": "voterInfo",
                  "type": "tuple"
                },
                {
                  "internalType": "uint256",
                  "name": "vindex",
                  "type": "uint256"
                }
              ],
              "internalType": "struct AAiTUser.VoterStruct",
              "name": "voterInfo",
              "type": "tuple"
            },
            {
              "internalType": "address",
              "name": "voterAddress",
              "type": "address"
            }
          ],
          "internalType": "struct AAiTStudent.VoterStruct",
          "name": "",
          "type": "tuple"
        }
      ],
      "stateMutability": "view",
      "type": "function",
      "constant": true
    },
    {
      "inputs": [
        {
          "internalType": "string",
          "name": "email",
          "type": "string"
        }
      ],
      "name": "getVoterByEmail",
      "outputs": [
        {
          "components": [
            {
              "components": [
                {
                  "components": [
                    {
                      "internalType": "uint256",
                      "name": "index",
                      "type": "uint256"
                    },
                    {
                      "internalType": "string",
                      "name": "studentId",
                      "type": "string"
                    },
                    {
                      "internalType": "string",
                      "name": "fullName",
                      "type": "string"
                    },
                    {
                      "internalType": "uint256",
                      "name": "DOB",
                      "type": "uint256"
                    },
                    {
                      "internalType": "uint256",
                      "name": "currentYear",
                      "type": "uint256"
                    },
                    {
                      "internalType": "uint256",
                      "name": "currentSection",
                      "type": "uint256"
                    },
                    {
                      "internalType": "enum AAiTUser.DEPTARTMENT_TYPE",
                      "name": "currentDepartment",
                      "type": "uint8"
                    },
                    {
                      "internalType": "string",
                      "name": "email",
                      "type": "string"
                    }
                  ],
                  "internalType": "struct AAiTUser.UserStruct",
                  "name": "voterInfo",
                  "type": "tuple"
                },
                {
                  "internalType": "uint256",
                  "name": "vindex",
                  "type": "uint256"
                }
              ],
              "internalType": "struct AAiTUser.VoterStruct",
              "name": "voterInfo",
              "type": "tuple"
            },
            {
              "internalType": "address",
              "name": "voterAddress",
              "type": "address"
            }
          ],
          "internalType": "struct AAiTStudent.VoterStruct",
          "name": "",
          "type": "tuple"
        }
      ],
      "stateMutability": "view",
      "type": "function",
      "constant": true
    },
    {
      "inputs": [],
      "name": "getAllVoters",
      "outputs": [
        {
          "components": [
            {
              "components": [
                {
                  "components": [
                    {
                      "internalType": "uint256",
                      "name": "index",
                      "type": "uint256"
                    },
                    {
                      "internalType": "string",
                      "name": "studentId",
                      "type": "string"
                    },
                    {
                      "internalType": "string",
                      "name": "fullName",
                      "type": "string"
                    },
                    {
                      "internalType": "uint256",
                      "name": "DOB",
                      "type": "uint256"
                    },
                    {
                      "internalType": "uint256",
                      "name": "currentYear",
                      "type": "uint256"
                    },
                    {
                      "internalType": "uint256",
                      "name": "currentSection",
                      "type": "uint256"
                    },
                    {
                      "internalType": "enum AAiTUser.DEPTARTMENT_TYPE",
                      "name": "currentDepartment",
                      "type": "uint8"
                    },
                    {
                      "internalType": "string",
                      "name": "email",
                      "type": "string"
                    }
                  ],
                  "internalType": "struct AAiTUser.UserStruct",
                  "name": "voterInfo",
                  "type": "tuple"
                },
                {
                  "internalType": "uint256",
                  "name": "vindex",
                  "type": "uint256"
                }
              ],
              "internalType": "struct AAiTUser.VoterStruct",
              "name": "voterInfo",
              "type": "tuple"
            },
            {
              "internalType": "address",
              "name": "voterAddress",
              "type": "address"
            }
          ],
          "internalType": "struct AAiTStudent.VoterStruct[]",
          "name": "",
          "type": "tuple[]"
        }
      ],
      "stateMutability": "view",
      "type": "function",
      "constant": true
    },
    {
      "inputs": [
        {
          "internalType": "address",
          "name": "userAddress",
          "type": "address"
        }
      ],
      "name": "getCandidate",
      "outputs": [
        {
          "components": [
            {
              "components": [
                {
                  "components": [
                    {
                      "internalType": "uint256",
                      "name": "index",
                      "type": "uint256"
                    },
                    {
                      "internalType": "string",
                      "name": "studentId",
                      "type": "string"
                    },
                    {
                      "internalType": "string",
                      "name": "fullName",
                      "type": "string"
                    },
                    {
                      "internalType": "uint256",
                      "name": "DOB",
                      "type": "uint256"
                    },
                    {
                      "internalType": "uint256",
                      "name": "currentYear",
                      "type": "uint256"
                    },
                    {
                      "internalType": "uint256",
                      "name": "currentSection",
                      "type": "uint256"
                    },
                    {
                      "internalType": "enum AAiTUser.DEPTARTMENT_TYPE",
                      "name": "currentDepartment",
                      "type": "uint8"
                    },
                    {
                      "internalType": "string",
                      "name": "email",
                      "type": "string"
                    }
                  ],
                  "internalType": "struct AAiTUser.UserStruct",
                  "name": "candidateInfo",
                  "type": "tuple"
                },
                {
                  "internalType": "uint256",
                  "name": "vindex",
                  "type": "uint256"
                },
                {
                  "internalType": "string",
                  "name": "candidateBio",
                  "type": "string"
                },
                {
                  "internalType": "string",
                  "name": "candidateProfilePicture",
                  "type": "string"
                }
              ],
              "internalType": "struct AAiTUser.CandidateStruct",
              "name": "candidateInfo",
              "type": "tuple"
            },
            {
              "internalType": "address",
              "name": "candidateAddress",
              "type": "address"
            }
          ],
          "internalType": "struct AAiTStudent.CandidateStruct",
          "name": "",
          "type": "tuple"
        }
      ],
      "stateMutability": "view",
      "type": "function",
      "constant": true
    },
    {
      "inputs": [
        {
          "internalType": "string",
          "name": "email",
          "type": "string"
        }
      ],
      "name": "getCandidateByEmail",
      "outputs": [
        {
          "components": [
            {
              "components": [
                {
                  "components": [
                    {
                      "internalType": "uint256",
                      "name": "index",
                      "type": "uint256"
                    },
                    {
                      "internalType": "string",
                      "name": "studentId",
                      "type": "string"
                    },
                    {
                      "internalType": "string",
                      "name": "fullName",
                      "type": "string"
                    },
                    {
                      "internalType": "uint256",
                      "name": "DOB",
                      "type": "uint256"
                    },
                    {
                      "internalType": "uint256",
                      "name": "currentYear",
                      "type": "uint256"
                    },
                    {
                      "internalType": "uint256",
                      "name": "currentSection",
                      "type": "uint256"
                    },
                    {
                      "internalType": "enum AAiTUser.DEPTARTMENT_TYPE",
                      "name": "currentDepartment",
                      "type": "uint8"
                    },
                    {
                      "internalType": "string",
                      "name": "email",
                      "type": "string"
                    }
                  ],
                  "internalType": "struct AAiTUser.UserStruct",
                  "name": "candidateInfo",
                  "type": "tuple"
                },
                {
                  "internalType": "uint256",
                  "name": "vindex",
                  "type": "uint256"
                },
                {
                  "internalType": "string",
                  "name": "candidateBio",
                  "type": "string"
                },
                {
                  "internalType": "string",
                  "name": "candidateProfilePicture",
                  "type": "string"
                }
              ],
              "internalType": "struct AAiTUser.CandidateStruct",
              "name": "candidateInfo",
              "type": "tuple"
            },
            {
              "internalType": "address",
              "name": "candidateAddress",
              "type": "address"
            }
          ],
          "internalType": "struct AAiTStudent.CandidateStruct",
          "name": "",
          "type": "tuple"
        }
      ],
      "stateMutability": "view",
      "type": "function",
      "constant": true
    },
    {
      "inputs": [],
      "name": "getAllCandidates",
      "outputs": [
        {
          "components": [
            {
              "components": [
                {
                  "components": [
                    {
                      "internalType": "uint256",
                      "name": "index",
                      "type": "uint256"
                    },
                    {
                      "internalType": "string",
                      "name": "studentId",
                      "type": "string"
                    },
                    {
                      "internalType": "string",
                      "name": "fullName",
                      "type": "string"
                    },
                    {
                      "internalType": "uint256",
                      "name": "DOB",
                      "type": "uint256"
                    },
                    {
                      "internalType": "uint256",
                      "name": "currentYear",
                      "type": "uint256"
                    },
                    {
                      "internalType": "uint256",
                      "name": "currentSection",
                      "type": "uint256"
                    },
                    {
                      "internalType": "enum AAiTUser.DEPTARTMENT_TYPE",
                      "name": "currentDepartment",
                      "type": "uint8"
                    },
                    {
                      "internalType": "string",
                      "name": "email",
                      "type": "string"
                    }
                  ],
                  "internalType": "struct AAiTUser.UserStruct",
                  "name": "candidateInfo",
                  "type": "tuple"
                },
                {
                  "internalType": "uint256",
                  "name": "vindex",
                  "type": "uint256"
                },
                {
                  "internalType": "string",
                  "name": "candidateBio",
                  "type": "string"
                },
                {
                  "internalType": "string",
                  "name": "candidateProfilePicture",
                  "type": "string"
                }
              ],
              "internalType": "struct AAiTUser.CandidateStruct",
              "name": "candidateInfo",
              "type": "tuple"
            },
            {
              "internalType": "address",
              "name": "candidateAddress",
              "type": "address"
            }
          ],
          "internalType": "struct AAiTStudent.CandidateStruct[]",
          "name": "",
          "type": "tuple[]"
        }
      ],
      "stateMutability": "view",
      "type": "function",
      "constant": true
    },
    {
      "inputs": [],
      "name": "removeAllUsers",
      "outputs": [],
      "stateMutability": "nonpayable",
      "type": "function"
    }
  ],
  "bytecode": "0x60806040523480156200001157600080fd5b5060405162004dff38038062004dff83398181016040528101906200003791906200012a565b33600760006101000a81548173ffffffffffffffffffffffffffffffffffffffff021916908373ffffffffffffffffffffffffffffffffffffffff16021790555080600660006101000a81548173ffffffffffffffffffffffffffffffffffffffff021916908373ffffffffffffffffffffffffffffffffffffffff160217905550506200015c565b600080fd5b600073ffffffffffffffffffffffffffffffffffffffff82169050919050565b6000620000f282620000c5565b9050919050565b6200010481620000e5565b81146200011057600080fd5b50565b6000815190506200012481620000f9565b92915050565b600060208284031215620001435762000142620000c0565b5b6000620001538482850162000113565b91505092915050565b614c93806200016c6000396000f3fe608060405234801561001057600080fd5b50600436106100cf5760003560e01c8063b22b44141161008c578063c666392811610066578063c666392814610260578063d4f50f981461026a578063d51b9e931461029a578063fa6d6373146102ca576100cf565b8063b22b4414146101d0578063b7adcf1d14610200578063bb7caa8614610230576100cf565b80632e6997fe146100d457806335bbe70e146100f25780635478e365146101105780636dd091f91461014057806386c1ff6814610170578063a7771ee3146101a0575b600080fd5b6100dc6102fa565b6040516100e99190613e91565b60405180910390f35b6100fa61071f565b6040516101079190613fef565b60405180910390f35b61012a6004803603810190610125919061415a565b610a20565b60405161013791906141e0565b60405180910390f35b61015a6004803603810190610155919061422e565b610de1565b6040516101679190614276565b60405180910390f35b61018a6004803603810190610185919061422e565b611517565b6040516101979190614276565b60405180910390f35b6101ba60048036038101906101b5919061422e565b611bc2565b6040516101c79190614276565b60405180910390f35b6101ea60048036038101906101e59190614476565b611caa565b6040516101f791906144e1565b60405180910390f35b61021a6004803603810190610215919061422e565b61223d565b6040516102279190614539565b60405180910390f35b61024a60048036038101906102459190614627565b61265c565b60405161025791906144e1565b60405180910390f35b610268612c68565b005b610284600480360381019061027f919061422e565b612cc4565b60405161029191906141e0565b60405180910390f35b6102b460048036038101906102af919061422e565b612fbe565b6040516102c19190614276565b60405180910390f35b6102e460048036038101906102df919061415a565b6130a7565b6040516102f19190614539565b60405180910390f35b60606005805480602002602001604051908101604052809291908181526020016000905b8282101561071657838290600052602060002090600c02016040518060400160405290816000820160405180608001604052908160008201604051806101000160405290816000820154815260200160018201805461037c906146b2565b80601f01602080910402602001604051908101604052809291908181526020018280546103a8906146b2565b80156103f55780601f106103ca576101008083540402835291602001916103f5565b820191906000526020600020905b8154815290600101906020018083116103d857829003601f168201915b5050505050815260200160028201805461040e906146b2565b80601f016020809104026020016040519081016040528092919081815260200182805461043a906146b2565b80156104875780601f1061045c57610100808354040283529160200191610487565b820191906000526020600020905b81548152906001019060200180831161046a57829003601f168201915b505050505081526020016003820154815260200160048201548152602001600582015481526020016006820160009054906101000a900460ff1660018111156104d3576104d2613bd7565b5b60018111156104e5576104e4613bd7565b5b81526020016007820180546104f9906146b2565b80601f0160208091040260200160405190810160405280929190818152602001828054610525906146b2565b80156105725780601f1061054757610100808354040283529160200191610572565b820191906000526020600020905b81548152906001019060200180831161055557829003601f168201915b505050505081525050815260200160088201548152602001600982018054610599906146b2565b80601f01602080910402602001604051908101604052809291908181526020018280546105c5906146b2565b80156106125780601f106105e757610100808354040283529160200191610612565b820191906000526020600020905b8154815290600101906020018083116105f557829003601f168201915b50505050508152602001600a8201805461062b906146b2565b80601f0160208091040260200160405190810160405280929190818152602001828054610657906146b2565b80156106a45780601f10610679576101008083540402835291602001916106a4565b820191906000526020600020905b81548152906001019060200180831161068757829003601f168201915b5050505050815250508152602001600b820160009054906101000a900473ffffffffffffffffffffffffffffffffffffffff1673ffffffffffffffffffffffffffffffffffffffff1673ffffffffffffffffffffffffffffffffffffffff16815250508152602001906001019061031e565b50505050905090565b60606002805480602002602001604051908101604052809291908181526020016000905b82821015610a1757838290600052602060002090600a0201604051806040016040529081600082016040518060400160405290816000820160405180610100016040529081600082015481526020016001820180546107a1906146b2565b80601f01602080910402602001604051908101604052809291908181526020018280546107cd906146b2565b801561081a5780601f106107ef5761010080835404028352916020019161081a565b820191906000526020600020905b8154815290600101906020018083116107fd57829003601f168201915b50505050508152602001600282018054610833906146b2565b80601f016020809104026020016040519081016040528092919081815260200182805461085f906146b2565b80156108ac5780601f10610881576101008083540402835291602001916108ac565b820191906000526020600020905b81548152906001019060200180831161088f57829003601f168201915b505050505081526020016003820154815260200160048201548152602001600582015481526020016006820160009054906101000a900460ff1660018111156108f8576108f7613bd7565b5b600181111561090a57610909613bd7565b5b815260200160078201805461091e906146b2565b80601f016020809104026020016040519081016040528092919081815260200182805461094a906146b2565b80156109975780601f1061096c57610100808354040283529160200191610997565b820191906000526020600020905b81548152906001019060200180831161097a57829003601f168201915b505050505081525050815260200160088201548152505081526020016009820160009054906101000a900473ffffffffffffffffffffffffffffffffffffffff1673ffffffffffffffffffffffffffffffffffffffff1673ffffffffffffffffffffffffffffffffffffffff168152505081526020019060010190610743565b50505050905090565b610a28613878565b60005b600280549050811015610da05782604051602001610a499190614720565b6040516020818303038152906040528051906020012060028281548110610a7357610a72614737565b5b90600052602060002090600a0201600001600001600701604051602001610a9a91906147fa565b604051602081830303815290604052805190602001201415610d8d5760028181548110610aca57610ac9614737565b5b90600052602060002090600a020160405180604001604052908160008201604051806040016040529081600082016040518061010001604052908160008201548152602001600182018054610b1e906146b2565b80601f0160208091040260200160405190810160405280929190818152602001828054610b4a906146b2565b8015610b975780601f10610b6c57610100808354040283529160200191610b97565b820191906000526020600020905b815481529060010190602001808311610b7a57829003601f168201915b50505050508152602001600282018054610bb0906146b2565b80601f0160208091040260200160405190810160405280929190818152602001828054610bdc906146b2565b8015610c295780601f10610bfe57610100808354040283529160200191610c29565b820191906000526020600020905b815481529060010190602001808311610c0c57829003601f168201915b505050505081526020016003820154815260200160048201548152602001600582015481526020016006820160009054906101000a900460ff166001811115610c7557610c74613bd7565b5b6001811115610c8757610c86613bd7565b5b8152602001600782018054610c9b906146b2565b80601f0160208091040260200160405190810160405280929190818152602001828054610cc7906146b2565b8015610d145780601f10610ce957610100808354040283529160200191610d14565b820191906000526020600020905b815481529060010190602001808311610cf757829003601f168201915b505050505081525050815260200160088201548152505081526020016009820160009054906101000a900473ffffffffffffffffffffffffffffffffffffffff1673ffffffffffffffffffffffffffffffffffffffff1673ffffffffffffffffffffffffffffffffffffffff1681525050915050610ddc565b8080610d9890614840565b915050610a2b565b506040517f08c379a0000000000000000000000000000000000000000000000000000000008152600401610dd3906148e6565b60405180910390fd5b919050565b6000610dec82612fbe565b610e2b576040517f08c379a0000000000000000000000000000000000000000000000000000000008152600401610e2290614952565b60405180910390fd5b60046001600480549050610e3f9190614972565b81548110610e5057610e4f614737565b5b9060005260206000200160009054906101000a900473ffffffffffffffffffffffffffffffffffffffff166004600360008573ffffffffffffffffffffffffffffffffffffffff1673ffffffffffffffffffffffffffffffffffffffff1681526020019081526020016000206000016008015481548110610ed457610ed3614737565b5b9060005260206000200160006101000a81548173ffffffffffffffffffffffffffffffffffffffff021916908373ffffffffffffffffffffffffffffffffffffffff160217905550600360008373ffffffffffffffffffffffffffffffffffffffff1673ffffffffffffffffffffffffffffffffffffffff168152602001908152602001600020600001600801546003600060046001600480549050610f7a9190614972565b81548110610f8b57610f8a614737565b5b9060005260206000200160009054906101000a900473ffffffffffffffffffffffffffffffffffffffff1673ffffffffffffffffffffffffffffffffffffffff1673ffffffffffffffffffffffffffffffffffffffff168152602001908152602001600020600001600801819055506005600160058054905061100e9190614972565b8154811061101f5761101e614737565b5b90600052602060002090600c02016005600360008573ffffffffffffffffffffffffffffffffffffffff1673ffffffffffffffffffffffffffffffffffffffff168152602001908152602001600020600001600801548154811061108657611085614737565b5b90600052602060002090600c0201600082018160000160008201816000016000820154816000015560018201816001019080546110c2906146b2565b6110cd9291906138ae565b5060028201816002019080546110e2906146b2565b6110ed9291906138ae565b506003820154816003015560048201548160040155600582015481600501556006820160009054906101000a900460ff168160060160006101000a81548160ff0219169083600181111561114457611143613bd7565b5b0217905550600782018160070190805461115d906146b2565b6111689291906138ae565b505050600882015481600801556009820181600901908054611189906146b2565b6111949291906138ae565b50600a820181600a019080546111a9906146b2565b6111b49291906138ae565b505050600b820160009054906101000a900473ffffffffffffffffffffffffffffffffffffffff1681600b0160006101000a81548173ffffffffffffffffffffffffffffffffffffffff021916908373ffffffffffffffffffffffffffffffffffffffff160217905550905050600360008373ffffffffffffffffffffffffffffffffffffffff1673ffffffffffffffffffffffffffffffffffffffff168152602001908152602001600020600001600801546005600360008573ffffffffffffffffffffffffffffffffffffffff1673ffffffffffffffffffffffffffffffffffffffff16815260200190815260200160002060000160080154815481106112c0576112bf614737565b5b90600052602060002090600c02016000016008018190555060058054806112ea576112e96149a6565b5b60019003818190600052602060002090600c020160008082016000808201600080820160009055600182016000611321919061393b565b600282016000611331919061393b565b6003820160009055600482016000905560058201600090556006820160006101000a81549060ff021916905560078201600061136d919061393b565b50506008820160009055600982016000611387919061393b565b600a82016000611397919061393b565b5050600b820160006101000a81549073ffffffffffffffffffffffffffffffffffffffff02191690555050905560048054806113d6576113d56149a6565b5b6001900381819060005260206000200160006101000a81549073ffffffffffffffffffffffffffffffffffffffff02191690559055600360008373ffffffffffffffffffffffffffffffffffffffff1673ffffffffffffffffffffffffffffffffffffffff1681526020019081526020016000206000808201600080820160008082016000905560018201600061146d919061393b565b60028201600061147d919061393b565b6003820160009055600482016000905560058201600090556006820160006101000a81549060ff02191690556007820160006114b9919061393b565b505060088201600090556009820160006114d3919061393b565b600a820160006114e3919061393b565b5050600b820160006101000a81549073ffffffffffffffffffffffffffffffffffffffff0219169055505060019050919050565b600061152282611bc2565b611561576040517f08c379a000000000000000000000000000000000000000000000000000000000815260040161155890614a21565b60405180910390fd5b60018080805490506115739190614972565b8154811061158457611583614737565b5b9060005260206000200160009054906101000a900473ffffffffffffffffffffffffffffffffffffffff1660016000808573ffffffffffffffffffffffffffffffffffffffff1673ffffffffffffffffffffffffffffffffffffffff168152602001908152602001600020600001600801548154811061160757611606614737565b5b9060005260206000200160006101000a81548173ffffffffffffffffffffffffffffffffffffffff021916908373ffffffffffffffffffffffffffffffffffffffff1602179055506000808373ffffffffffffffffffffffffffffffffffffffff1673ffffffffffffffffffffffffffffffffffffffff1681526020019081526020016000206000016008015460008060018080805490506116a99190614972565b815481106116ba576116b9614737565b5b9060005260206000200160009054906101000a900473ffffffffffffffffffffffffffffffffffffffff1673ffffffffffffffffffffffffffffffffffffffff1673ffffffffffffffffffffffffffffffffffffffff168152602001908152602001600020600001600801819055506002600160028054905061173d9190614972565b8154811061174e5761174d614737565b5b90600052602060002090600a020160026000808573ffffffffffffffffffffffffffffffffffffffff1673ffffffffffffffffffffffffffffffffffffffff16815260200190815260200160002060000160080154815481106117b4576117b3614737565b5b90600052602060002090600a0201600082018160000160008201816000016000820154816000015560018201816001019080546117f0906146b2565b6117fb9291906138ae565b506002820181600201908054611810906146b2565b61181b9291906138ae565b506003820154816003015560048201548160040155600582015481600501556006820160009054906101000a900460ff168160060160006101000a81548160ff0219169083600181111561187257611871613bd7565b5b0217905550600782018160070190805461188b906146b2565b6118969291906138ae565b5050506008820154816008015550506009820160009054906101000a900473ffffffffffffffffffffffffffffffffffffffff168160090160006101000a81548173ffffffffffffffffffffffffffffffffffffffff021916908373ffffffffffffffffffffffffffffffffffffffff1602179055509050506000808373ffffffffffffffffffffffffffffffffffffffff1673ffffffffffffffffffffffffffffffffffffffff1681526020019081526020016000206000016008015460026000808573ffffffffffffffffffffffffffffffffffffffff1673ffffffffffffffffffffffffffffffffffffffff16815260200190815260200160002060000160080154815481106119ac576119ab614737565b5b90600052602060002090600a02016000016008018190555060028054806119d6576119d56149a6565b5b60019003818190600052602060002090600a020160008082016000808201600080820160009055600182016000611a0d919061393b565b600282016000611a1d919061393b565b6003820160009055600482016000905560058201600090556006820160006101000a81549060ff0219169055600782016000611a59919061393b565b5050600882016000905550506009820160006101000a81549073ffffffffffffffffffffffffffffffffffffffff0219169055505090556001805480611aa257611aa16149a6565b5b6001900381819060005260206000200160006101000a81549073ffffffffffffffffffffffffffffffffffffffff021916905590556000808373ffffffffffffffffffffffffffffffffffffffff1673ffffffffffffffffffffffffffffffffffffffff16815260200190815260200160002060008082016000808201600080820160009055600182016000611b38919061393b565b600282016000611b48919061393b565b6003820160009055600482016000905560058201600090556006820160006101000a81549060ff0219169055600782016000611b84919061393b565b5050600882016000905550506009820160006101000a81549073ffffffffffffffffffffffffffffffffffffffff0219169055505060019050919050565b6000806001805490501415611bda5760009050611ca5565b60006004805490501415611bf15760009050611ca5565b8173ffffffffffffffffffffffffffffffffffffffff1660016000808573ffffffffffffffffffffffffffffffffffffffff1673ffffffffffffffffffffffffffffffffffffffff1681526020019081526020016000206000016008015481548110611c6057611c5f614737565b5b9060005260206000200160009054906101000a900473ffffffffffffffffffffffffffffffffffffffff1673ffffffffffffffffffffffffffffffffffffffff161490505b919050565b6000600760009054906101000a900473ffffffffffffffffffffffffffffffffffffffff1673ffffffffffffffffffffffffffffffffffffffff168273ffffffffffffffffffffffffffffffffffffffff161415611d3d576040517f08c379a0000000000000000000000000000000000000000000000000000000008152600401611d3490614a8d565b60405180910390fd5b611d4682612fbe565b15611d86576040517f08c379a0000000000000000000000000000000000000000000000000000000008152600401611d7d90614af9565b60405180910390fd5b611d8f82611bc2565b15611dcf576040517f08c379a0000000000000000000000000000000000000000000000000000000008152600401611dc690614b65565b60405180910390fd5b611de083600001516020015161358c565b15611e20576040517f08c379a0000000000000000000000000000000000000000000000000000000008152600401611e1790614b65565b60405180910390fd5b611e31836000015160e00151613647565b15611e71576040517f08c379a0000000000000000000000000000000000000000000000000000000008152600401611e6890614b65565b60405180910390fd5b826000808473ffffffffffffffffffffffffffffffffffffffff1673ffffffffffffffffffffffffffffffffffffffff168152602001908152602001600020600001600082015181600001600082015181600001556020820151816001019080519060200190611ee292919061397b565b506040820151816002019080519060200190611eff92919061397b565b50606082015181600301556080820151816004015560a0820151816005015560c08201518160060160006101000a81548160ff02191690836001811115611f4957611f48613bd7565b5b021790555060e0820151816007019080519060200190611f6a92919061397b565b50505060208201518160080155905050816000808473ffffffffffffffffffffffffffffffffffffffff1673ffffffffffffffffffffffffffffffffffffffff16815260200190815260200160002060090160006101000a81548173ffffffffffffffffffffffffffffffffffffffff021916908373ffffffffffffffffffffffffffffffffffffffff1602179055506001829080600181540180825580915050600190039060005260206000200160009091909190916101000a81548173ffffffffffffffffffffffffffffffffffffffff021916908373ffffffffffffffffffffffffffffffffffffffff1602179055506001808054905061206e9190614972565b6000808473ffffffffffffffffffffffffffffffffffffffff1673ffffffffffffffffffffffffffffffffffffffff16815260200190815260200160002060000160080181905550600260405180604001604052808581526020018473ffffffffffffffffffffffffffffffffffffffff1681525090806001815401808255809150506001900390600052602060002090600a020160009091909190915060008201518160000160008201518160000160008201518160000155602082015181600101908051906020019061214492919061397b565b50604082015181600201908051906020019061216192919061397b565b50606082015181600301556080820151816004015560a0820151816005015560c08201518160060160006101000a81548160ff021916908360018111156121ab576121aa613bd7565b5b021790555060e08201518160070190805190602001906121cc92919061397b565b50505060208201518160080155505060208201518160090160006101000a81548173ffffffffffffffffffffffffffffffffffffffff021916908373ffffffffffffffffffffffffffffffffffffffff1602179055505050600180805490506122359190614972565b905092915050565b612245613a01565b600360008373ffffffffffffffffffffffffffffffffffffffff1673ffffffffffffffffffffffffffffffffffffffff168152602001908152602001600020604051806040016040529081600082016040518060800160405290816000820160405180610100016040529081600082015481526020016001820180546122ca906146b2565b80601f01602080910402602001604051908101604052809291908181526020018280546122f6906146b2565b80156123435780601f1061231857610100808354040283529160200191612343565b820191906000526020600020905b81548152906001019060200180831161232657829003601f168201915b5050505050815260200160028201805461235c906146b2565b80601f0160208091040260200160405190810160405280929190818152602001828054612388906146b2565b80156123d55780601f106123aa576101008083540402835291602001916123d5565b820191906000526020600020905b8154815290600101906020018083116123b857829003601f168201915b505050505081526020016003820154815260200160048201548152602001600582015481526020016006820160009054906101000a900460ff16600181111561242157612420613bd7565b5b600181111561243357612432613bd7565b5b8152602001600782018054612447906146b2565b80601f0160208091040260200160405190810160405280929190818152602001828054612473906146b2565b80156124c05780601f10612495576101008083540402835291602001916124c0565b820191906000526020600020905b8154815290600101906020018083116124a357829003601f168201915b5050505050815250508152602001600882015481526020016009820180546124e7906146b2565b80601f0160208091040260200160405190810160405280929190818152602001828054612513906146b2565b80156125605780601f1061253557610100808354040283529160200191612560565b820191906000526020600020905b81548152906001019060200180831161254357829003601f168201915b50505050508152602001600a82018054612579906146b2565b80601f01602080910402602001604051908101604052809291908181526020018280546125a5906146b2565b80156125f25780601f106125c7576101008083540402835291602001916125f2565b820191906000526020600020905b8154815290600101906020018083116125d557829003601f168201915b5050505050815250508152602001600b820160009054906101000a900473ffffffffffffffffffffffffffffffffffffffff1673ffffffffffffffffffffffffffffffffffffffff1673ffffffffffffffffffffffffffffffffffffffff16815250509050919050565b6000600760009054906101000a900473ffffffffffffffffffffffffffffffffffffffff1673ffffffffffffffffffffffffffffffffffffffff168273ffffffffffffffffffffffffffffffffffffffff1614156126ef576040517f08c379a00000000000000000000000000000000000000000000000000000000081526004016126e690614a8d565b60405180910390fd5b6126f882611bc2565b15612738576040517f08c379a000000000000000000000000000000000000000000000000000000000815260040161272f90614bd1565b60405180910390fd5b61274182612fbe565b15612781576040517f08c379a000000000000000000000000000000000000000000000000000000000815260040161277890614c3d565b60405180910390fd5b612792836000015160200151613702565b156127d2576040517f08c379a00000000000000000000000000000000000000000000000000000000081526004016127c990614c3d565b60405180910390fd5b6127e3836000015160e001516137bd565b15612823576040517f08c379a000000000000000000000000000000000000000000000000000000000815260040161281a90614c3d565b60405180910390fd5b82600360008473ffffffffffffffffffffffffffffffffffffffff1673ffffffffffffffffffffffffffffffffffffffff16815260200190815260200160002060000160008201518160000160008201518160000155602082015181600101908051906020019061289592919061397b565b5060408201518160020190805190602001906128b292919061397b565b50606082015181600301556080820151816004015560a0820151816005015560c08201518160060160006101000a81548160ff021916908360018111156128fc576128fb613bd7565b5b021790555060e082015181600701908051906020019061291d92919061397b565b50505060208201518160080155604082015181600901908051906020019061294692919061397b565b50606082015181600a01908051906020019061296392919061397b565b5090505081600360008473ffffffffffffffffffffffffffffffffffffffff1673ffffffffffffffffffffffffffffffffffffffff168152602001908152602001600020600b0160006101000a81548173ffffffffffffffffffffffffffffffffffffffff021916908373ffffffffffffffffffffffffffffffffffffffff1602179055506004829080600181540180825580915050600190039060005260206000200160009091909190916101000a81548173ffffffffffffffffffffffffffffffffffffffff021916908373ffffffffffffffffffffffffffffffffffffffff1602179055506001600480549050612a5d9190614972565b600360008473ffffffffffffffffffffffffffffffffffffffff1673ffffffffffffffffffffffffffffffffffffffff16815260200190815260200160002060000160080181905550600560405180604001604052808581526020018473ffffffffffffffffffffffffffffffffffffffff1681525090806001815401808255809150506001900390600052602060002090600c0201600090919091909150600082015181600001600082015181600001600082015181600001556020820151816001019080519060200190612b3492919061397b565b506040820151816002019080519060200190612b5192919061397b565b50606082015181600301556080820151816004015560a0820151816005015560c08201518160060160006101000a81548160ff02191690836001811115612b9b57612b9a613bd7565b5b021790555060e0820151816007019080519060200190612bbc92919061397b565b505050602082015181600801556040820151816009019080519060200190612be592919061397b565b50606082015181600a019080519060200190612c0292919061397b565b505050602082015181600b0160006101000a81548173ffffffffffffffffffffffffffffffffffffffff021916908373ffffffffffffffffffffffffffffffffffffffff16021790555050506001600480549050612c609190614972565b905092915050565b600760009054906101000a900473ffffffffffffffffffffffffffffffffffffffff1673ffffffffffffffffffffffffffffffffffffffff163373ffffffffffffffffffffffffffffffffffffffff1614612cc257600080fd5b565b612ccc613878565b6000808373ffffffffffffffffffffffffffffffffffffffff1673ffffffffffffffffffffffffffffffffffffffff16815260200190815260200160002060405180604001604052908160008201604051806040016040529081600082016040518061010001604052908160008201548152602001600182018054612d50906146b2565b80601f0160208091040260200160405190810160405280929190818152602001828054612d7c906146b2565b8015612dc95780601f10612d9e57610100808354040283529160200191612dc9565b820191906000526020600020905b815481529060010190602001808311612dac57829003601f168201915b50505050508152602001600282018054612de2906146b2565b80601f0160208091040260200160405190810160405280929190818152602001828054612e0e906146b2565b8015612e5b5780601f10612e3057610100808354040283529160200191612e5b565b820191906000526020600020905b815481529060010190602001808311612e3e57829003601f168201915b505050505081526020016003820154815260200160048201548152602001600582015481526020016006820160009054906101000a900460ff166001811115612ea757612ea6613bd7565b5b6001811115612eb957612eb8613bd7565b5b8152602001600782018054612ecd906146b2565b80601f0160208091040260200160405190810160405280929190818152602001828054612ef9906146b2565b8015612f465780601f10612f1b57610100808354040283529160200191612f46565b820191906000526020600020905b815481529060010190602001808311612f2957829003601f168201915b505050505081525050815260200160088201548152505081526020016009820160009054906101000a900473ffffffffffffffffffffffffffffffffffffffff1673ffffffffffffffffffffffffffffffffffffffff1673ffffffffffffffffffffffffffffffffffffffff16815250509050919050565b6000806004805490501415612fd657600090506130a2565b60006001805490501415612fed57600090506130a2565b8173ffffffffffffffffffffffffffffffffffffffff166004600360008573ffffffffffffffffffffffffffffffffffffffff1673ffffffffffffffffffffffffffffffffffffffff168152602001908152602001600020600001600801548154811061305d5761305c614737565b5b9060005260206000200160009054906101000a900473ffffffffffffffffffffffffffffffffffffffff1673ffffffffffffffffffffffffffffffffffffffff161490505b919050565b6130af613a01565b60005b60058054905081101561354b57826040516020016130d09190614720565b60405160208183030381529060405280519060200120600582815481106130fa576130f9614737565b5b90600052602060002090600c020160000160000160070160405160200161312191906147fa565b604051602081830303815290604052805190602001201415613538576005818154811061315157613150614737565b5b90600052602060002090600c0201604051806040016040529081600082016040518060800160405290816000820160405180610100016040529081600082015481526020016001820180546131a5906146b2565b80601f01602080910402602001604051908101604052809291908181526020018280546131d1906146b2565b801561321e5780601f106131f35761010080835404028352916020019161321e565b820191906000526020600020905b81548152906001019060200180831161320157829003601f168201915b50505050508152602001600282018054613237906146b2565b80601f0160208091040260200160405190810160405280929190818152602001828054613263906146b2565b80156132b05780601f10613285576101008083540402835291602001916132b0565b820191906000526020600020905b81548152906001019060200180831161329357829003601f168201915b505050505081526020016003820154815260200160048201548152602001600582015481526020016006820160009054906101000a900460ff1660018111156132fc576132fb613bd7565b5b600181111561330e5761330d613bd7565b5b8152602001600782018054613322906146b2565b80601f016020809104026020016040519081016040528092919081815260200182805461334e906146b2565b801561339b5780601f106133705761010080835404028352916020019161339b565b820191906000526020600020905b81548152906001019060200180831161337e57829003601f168201915b5050505050815250508152602001600882015481526020016009820180546133c2906146b2565b80601f01602080910402602001604051908101604052809291908181526020018280546133ee906146b2565b801561343b5780601f106134105761010080835404028352916020019161343b565b820191906000526020600020905b81548152906001019060200180831161341e57829003601f168201915b50505050508152602001600a82018054613454906146b2565b80601f0160208091040260200160405190810160405280929190818152602001828054613480906146b2565b80156134cd5780601f106134a2576101008083540402835291602001916134cd565b820191906000526020600020905b8154815290600101906020018083116134b057829003601f168201915b5050505050815250508152602001600b820160009054906101000a900473ffffffffffffffffffffffffffffffffffffffff1673ffffffffffffffffffffffffffffffffffffffff1673ffffffffffffffffffffffffffffffffffffffff1681525050915050613587565b808061354390614840565b9150506130b2565b506040517f08c379a000000000000000000000000000000000000000000000000000000000815260040161357e906148e6565b60405180910390fd5b919050565b600080600090505b60028054905081101561363c57826040516020016135b29190614720565b60405160208183030381529060405280519060200120600282815481106135dc576135db614737565b5b90600052602060002090600a020160000160000160010160405160200161360391906147fa565b604051602081830303815290604052805190602001201415613629576001915050613642565b808061363490614840565b915050613594565b50600090505b919050565b600080600090505b6002805490508110156136f7578260405160200161366d9190614720565b604051602081830303815290604052805190602001206002828154811061369757613696614737565b5b90600052602060002090600a02016000016000016007016040516020016136be91906147fa565b6040516020818303038152906040528051906020012014156136e45760019150506136fd565b80806136ef90614840565b91505061364f565b50600090505b919050565b600080600090505b6005805490508110156137b257826040516020016137289190614720565b604051602081830303815290604052805190602001206005828154811061375257613751614737565b5b90600052602060002090600c020160000160000160010160405160200161377991906147fa565b60405160208183030381529060405280519060200120141561379f5760019150506137b8565b80806137aa90614840565b91505061370a565b50600090505b919050565b600080600090505b60058054905081101561386d57826040516020016137e39190614720565b604051602081830303815290604052805190602001206005828154811061380d5761380c614737565b5b90600052602060002090600c020160000160000160070160405160200161383491906147fa565b60405160208183030381529060405280519060200120141561385a576001915050613873565b808061386590614840565b9150506137c5565b50600090505b919050565b604051806040016040528061388b613a37565b8152602001600073ffffffffffffffffffffffffffffffffffffffff1681525090565b8280546138ba906146b2565b90600052602060002090601f0160209004810192826138dc576000855561392a565b82601f106138ed578054855561392a565b8280016001018555821561392a57600052602060002091601f016020900482015b8281111561392957825482559160010191906001019061390e565b5b5090506139379190613a57565b5090565b508054613947906146b2565b6000825580601f106139595750613978565b601f0160209004906000526020600020908101906139779190613a57565b5b50565b828054613987906146b2565b90600052602060002090601f0160209004810192826139a957600085556139f0565b82601f106139c257805160ff19168380011785556139f0565b828001600101855582156139f0579182015b828111156139ef5782518255916020019190600101906139d4565b5b5090506139fd9190613a57565b5090565b6040518060400160405280613a14613a74565b8152602001600073ffffffffffffffffffffffffffffffffffffffff1681525090565b6040518060400160405280613a4a613aa2565b8152602001600081525090565b5b80821115613a70576000816000905550600101613a58565b5090565b6040518060800160405280613a87613aa2565b81526020016000815260200160608152602001606081525090565b60405180610100016040528060008152602001606081526020016060815260200160008152602001600081526020016000815260200160006001811115613aec57613aeb613bd7565b5b8152602001606081525090565b600081519050919050565b600082825260208201905092915050565b6000819050602082019050919050565b6000819050919050565b613b3881613b25565b82525050565b600081519050919050565b600082825260208201905092915050565b60005b83811015613b78578082015181840152602081019050613b5d565b83811115613b87576000848401525b50505050565b6000601f19601f8301169050919050565b6000613ba982613b3e565b613bb38185613b49565b9350613bc3818560208601613b5a565b613bcc81613b8d565b840191505092915050565b7f4e487b7100000000000000000000000000000000000000000000000000000000600052602160045260246000fd5b60028110613c1757613c16613bd7565b5b50565b6000819050613c2882613c06565b919050565b6000613c3882613c1a565b9050919050565b613c4881613c2d565b82525050565b600061010083016000830151613c676000860182613b2f565b5060208301518482036020860152613c7f8282613b9e565b91505060408301518482036040860152613c998282613b9e565b9150506060830151613cae6060860182613b2f565b506080830151613cc16080860182613b2f565b5060a0830151613cd460a0860182613b2f565b5060c0830151613ce760c0860182613c3f565b5060e083015184820360e0860152613cff8282613b9e565b9150508091505092915050565b60006080830160008301518482036000860152613d298282613c4e565b9150506020830151613d3e6020860182613b2f565b5060408301518482036040860152613d568282613b9e565b91505060608301518482036060860152613d708282613b9e565b9150508091505092915050565b600073ffffffffffffffffffffffffffffffffffffffff82169050919050565b6000613da882613d7d565b9050919050565b613db881613d9d565b82525050565b60006040830160008301518482036000860152613ddb8282613d0c565b9150506020830151613df06020860182613daf565b508091505092915050565b6000613e078383613dbe565b905092915050565b6000602082019050919050565b6000613e2782613af9565b613e318185613b04565b935083602082028501613e4385613b15565b8060005b85811015613e7f5784840389528151613e608582613dfb565b9450613e6b83613e0f565b925060208a01995050600181019050613e47565b50829750879550505050505092915050565b60006020820190508181036000830152613eab8184613e1c565b905092915050565b600081519050919050565b600082825260208201905092915050565b6000819050602082019050919050565b60006040830160008301518482036000860152613efc8282613c4e565b9150506020830151613f116020860182613b2f565b508091505092915050565b60006040830160008301518482036000860152613f398282613edf565b9150506020830151613f4e6020860182613daf565b508091505092915050565b6000613f658383613f1c565b905092915050565b6000602082019050919050565b6000613f8582613eb3565b613f8f8185613ebe565b935083602082028501613fa185613ecf565b8060005b85811015613fdd5784840389528151613fbe8582613f59565b9450613fc983613f6d565b925060208a01995050600181019050613fa5565b50829750879550505050505092915050565b600060208201905081810360008301526140098184613f7a565b905092915050565b6000604051905090565b600080fd5b600080fd5b600080fd5b600080fd5b7f4e487b7100000000000000000000000000000000000000000000000000000000600052604160045260246000fd5b61406782613b8d565b810181811067ffffffffffffffff821117156140865761408561402f565b5b80604052505050565b6000614099614011565b90506140a5828261405e565b919050565b600067ffffffffffffffff8211156140c5576140c461402f565b5b6140ce82613b8d565b9050602081019050919050565b82818337600083830152505050565b60006140fd6140f8846140aa565b61408f565b9050828152602081018484840111156141195761411861402a565b5b6141248482856140db565b509392505050565b600082601f83011261414157614140614025565b5b81356141518482602086016140ea565b91505092915050565b6000602082840312156141705761416f61401b565b5b600082013567ffffffffffffffff81111561418e5761418d614020565b5b61419a8482850161412c565b91505092915050565b600060408301600083015184820360008601526141c08282613edf565b91505060208301516141d56020860182613daf565b508091505092915050565b600060208201905081810360008301526141fa81846141a3565b905092915050565b61420b81613d9d565b811461421657600080fd5b50565b60008135905061422881614202565b92915050565b6000602082840312156142445761424361401b565b5b600061425284828501614219565b91505092915050565b60008115159050919050565b6142708161425b565b82525050565b600060208201905061428b6000830184614267565b92915050565b600080fd5b600080fd5b6142a481613b25565b81146142af57600080fd5b50565b6000813590506142c18161429b565b92915050565b600281106142d457600080fd5b50565b6000813590506142e6816142c7565b92915050565b6000610100828403121561430357614302614291565b5b61430e61010061408f565b9050600061431e848285016142b2565b600083015250602082013567ffffffffffffffff81111561434257614341614296565b5b61434e8482850161412c565b602083015250604082013567ffffffffffffffff81111561437257614371614296565b5b61437e8482850161412c565b6040830152506060614392848285016142b2565b60608301525060806143a6848285016142b2565b60808301525060a06143ba848285016142b2565b60a08301525060c06143ce848285016142d7565b60c08301525060e082013567ffffffffffffffff8111156143f2576143f1614296565b5b6143fe8482850161412c565b60e08301525092915050565b6000604082840312156144205761441f614291565b5b61442a604061408f565b9050600082013567ffffffffffffffff81111561444a57614449614296565b5b614456848285016142ec565b600083015250602061446a848285016142b2565b60208301525092915050565b6000806040838503121561448d5761448c61401b565b5b600083013567ffffffffffffffff8111156144ab576144aa614020565b5b6144b78582860161440a565b92505060206144c885828601614219565b9150509250929050565b6144db81613b25565b82525050565b60006020820190506144f660008301846144d2565b92915050565b600060408301600083015184820360008601526145198282613d0c565b915050602083015161452e6020860182613daf565b508091505092915050565b6000602082019050818103600083015261455381846144fc565b905092915050565b60006080828403121561457157614570614291565b5b61457b608061408f565b9050600082013567ffffffffffffffff81111561459b5761459a614296565b5b6145a7848285016142ec565b60008301525060206145bb848285016142b2565b602083015250604082013567ffffffffffffffff8111156145df576145de614296565b5b6145eb8482850161412c565b604083015250606082013567ffffffffffffffff81111561460f5761460e614296565b5b61461b8482850161412c565b60608301525092915050565b6000806040838503121561463e5761463d61401b565b5b600083013567ffffffffffffffff81111561465c5761465b614020565b5b6146688582860161455b565b925050602061467985828601614219565b9150509250929050565b7f4e487b7100000000000000000000000000000000000000000000000000000000600052602260045260246000fd5b600060028204905060018216806146ca57607f821691505b602082108114156146de576146dd614683565b5b50919050565b600081905092915050565b60006146fa82613b3e565b61470481856146e4565b9350614714818560208601613b5a565b80840191505092915050565b600061472c82846146ef565b915081905092915050565b7f4e487b7100000000000000000000000000000000000000000000000000000000600052603260045260246000fd5b60008190508160005260206000209050919050565b60008154614788816146b2565b61479281866146e4565b945060018216600081146147ad57600181146147be576147f1565b60ff198316865281860193506147f1565b6147c785614766565b60005b838110156147e9578154818901526001820191506020810190506147ca565b838801955050505b50505092915050565b6000614806828461477b565b915081905092915050565b7f4e487b7100000000000000000000000000000000000000000000000000000000600052601160045260246000fd5b600061484b82613b25565b91507fffffffffffffffffffffffffffffffffffffffffffffffffffffffffffffffff82141561487e5761487d614811565b5b600182019050919050565b600082825260208201905092915050565b7f4e6f7420666f756e640000000000000000000000000000000000000000000000600082015250565b60006148d0600983614889565b91506148db8261489a565b602082019050919050565b600060208201905081810360008301526148ff816148c3565b9050919050565b7f43616e64696461746520446f6573206e6f742065786973740000000000000000600082015250565b600061493c601883614889565b915061494782614906565b602082019050919050565b6000602082019050818103600083015261496b8161492f565b9050919050565b600061497d82613b25565b915061498883613b25565b92508282101561499b5761499a614811565b5b828203905092915050565b7f4e487b7100000000000000000000000000000000000000000000000000000000600052603160045260246000fd5b7f566f74657220446f6573206e6f74206578697374000000000000000000000000600082015250565b6000614a0b601483614889565b9150614a16826149d5565b602082019050919050565b60006020820190508181036000830152614a3a816149fe565b9050919050565b7f5065726d697373696f6e2044656e696564000000000000000000000000000000600082015250565b6000614a77601183614889565b9150614a8282614a41565b602082019050919050565b60006020820190508181036000830152614aa681614a6a565b9050919050565b7f5573657220416c726561647920612043616e6469646174650000000000000000600082015250565b6000614ae3601883614889565b9150614aee82614aad565b602082019050919050565b60006020820190508181036000830152614b1281614ad6565b9050919050565b7f566f74657220416c726561647920457869737473000000000000000000000000600082015250565b6000614b4f601483614889565b9150614b5a82614b19565b602082019050919050565b60006020820190508181036000830152614b7e81614b42565b9050919050565b7f5573657220416c7265616479206120566f746572000000000000000000000000600082015250565b6000614bbb601483614889565b9150614bc682614b85565b602082019050919050565b60006020820190508181036000830152614bea81614bae565b9050919050565b7f43616e64696461746520416c7265616479204578697374730000000000000000600082015250565b6000614c27601883614889565b9150614c3282614bf1565b602082019050919050565b60006020820190508181036000830152614c5681614c1a565b905091905056fea2646970667358221220e6cd4f565dab74835984f0e8ccf5dedfd06ae1759e5fda28587a33aa36e5fb4764736f6c634300080a0033",
  "immutableReferences": {},
  "source": "// SPDX-License-Identifier: MIT\npragma solidity ^0.8.9;\n\nimport \"./AAiTUser.sol\";\n\ncontract AAiTStudent {\n    enum DEPTARTMENT_TYPE {\n        SITE,\n        ELEC\n    }\n\n    struct VoterStruct {\n        AAiTUser.VoterStruct voterInfo;\n        // uint256 vindex;\n        // string voterEmail;\n        // string voterPassword;\n        address voterAddress;\n    }\n\n    struct CandidateStruct {\n        AAiTUser.CandidateStruct candidateInfo;\n        // uint256 vindex;\n        // string candidateEmail;\n        // string candidatePassword;\n        // string candidateBio;\n        // string candidateProfilePicture;\n        address candidateAddress;\n    }\n\n    mapping(address => VoterStruct) private voterStructsMapping;\n    address[] private voterIndex;\n    VoterStruct[] private voterValue;\n\n    // event LogNewVoter(\n    //     AAiTUser.UserStruct voterInfo,\n    //     string voterEmail,\n    //     string voterPassword\n    // );\n    // event LogUpdateVoter(\n    //     AAiTUser.UserStruct voterInfo,\n    //     string voterEmail,\n    //     string voterPassword\n    // );\n    // event LogDeleteVoter(address indexed userAddress, uint256 index);\n\n    // mapping(address => UserStruct) private userStructsMapping;\n    // address[] private userIndex;\n    // UserStruct[] private userValue;\n\n    // event LogNewUser(\n    //     address indexed userAddress,\n    //     uint256 index,\n    //     string studentId,\n    //     string fName,\n    //     string lName,\n    //     string gName,\n    //     uint256 DOB,\n    //     uint256 currentYear,\n    //     uint256 currentSection,\n    //     string currentDepartment\n    // );\n    // event LogUpdateUser(\n    //     address indexed userAddress,\n    //     uint256 index,\n    //     string studentId,\n    //     string fName,\n    //     string lName,\n    //     string gName,\n    //     uint256 DOB,\n    //     uint256 currentYear,\n    //     uint256 currentSection,\n    //     string currentDepartment\n    // );\n    // event LogDeleteUser(address indexed userAddress, uint256 index);\n\n    mapping(address => CandidateStruct) private candidateStructsMapping;\n    address[] private candidateIndex;\n    CandidateStruct[] private candidateValue;\n    address private AAiTUserContractAddress;\n\n    // event LogNewCandidate(\n    //     AAiTUser.UserStruct candidateInfo,\n    //     string candidateEmail,\n    //     string candidatePassword,\n    //     string candidateBio,\n    //     string candidateProfilePicture\n    // );\n    // event LogUpdateCandidate(\n    //     AAiTUser.UserStruct candidateInfo,\n    //     string candidateEmail,\n    //     string candidatePassword,\n    //     string candidateBio,\n    //     string candidateProfilePicture\n    // );\n    // event LogDeleteCandidate(address indexed userAddress, uint256 index);\n\n    address private owner;\n\n    modifier onlyOwner() {\n        require(msg.sender == owner);\n        _;\n    }\n\n    constructor(address _AAiTUserContractAddress) {\n        owner = msg.sender;\n        AAiTUserContractAddress = _AAiTUserContractAddress;\n        // AAiTVoteTokenAddress = _AAiTVoteTokenAddress;\n    }\n\n    // VOTER FUNCTIONS\n\n    function findVoterByStudentId(string memory newStudentId)\n        internal\n        view\n        returns (bool)\n    {\n        for (uint256 i = 0; i < voterValue.length; i++) {\n            if (\n                keccak256(\n                    abi.encodePacked(\n                        voterValue[i].voterInfo.voterInfo.studentId\n                    )\n                ) == keccak256(abi.encodePacked(newStudentId))\n            ) {\n                return true;\n            }\n        }\n        return false;\n        // return isIndeed;\n    }\n\n    function findVoterByEmail(string memory newEmail)\n        internal\n        view\n        returns (bool)\n    {\n        for (uint256 i = 0; i < voterValue.length; i++) {\n            if (\n                keccak256(\n                    abi.encodePacked(voterValue[i].voterInfo.voterInfo.email)\n                ) == keccak256(abi.encodePacked(newEmail))\n            ) {\n                return true;\n            }\n        }\n        return false;\n        // return isIndeed;\n    }\n\n    // function findVoterByFullName(\n    //     // string memory newfName,\n    //     // string memory newlName,\n    //     string memory newFullName\n    // ) internal view returns (bool) {\n    //     for (uint256 i = 0; i < voterValue.length; i++) {\n    //         if (\n    //             keccak256(\n    //                 abi.encodePacked(voterValue[i].voterInfo.voterInfo.fullName)\n    //             ) == keccak256(abi.encodePacked(newFullName))\n    //         ) {\n    //             return true;\n    //         }\n    //     }\n    //     return false;\n    // }\n\n    function isVoter(\n        // string memory newfName,\n        // string memory newlName,\n        // string memory newgName,\n        address userAddress\n    ) public view returns (bool) {\n        // UserStruct[] memory tempUsers = deployedUser.getAllUsers();\n        // AAiTUser deployedUser = AAiTUser(AAiTUserContractAddress);\n        // require(\n        //     deployedUser.isUser(newfName, newlName, newgName),\n        //     \"User Does not Exist\"\n        // );\n        if (voterIndex.length == 0) return false;\n        if (candidateIndex.length == 0) return false;\n        return (voterIndex[voterStructsMapping[userAddress].voterInfo.vindex] ==\n            userAddress);\n    }\n\n    function insertVoter(\n        AAiTUser.VoterStruct memory voterInfo,\n        address userAddress\n    )\n        public\n        returns (\n            // string memory email,\n            // string memory password\n            uint256\n        )\n    {\n        // if (isUser(userAddress)) throw;\n        require(userAddress != owner, \"Permission Denied\");\n\n        require(\n            !isCandidate(\n                // voterInfo.voterInfo.fName,\n                // voterInfo.voterInfo.lName,\n                // voterInfo.voterInfo.gName,\n                userAddress\n            ),\n            \"User Already a Candidate\"\n        );\n        require(\n            !isVoter(\n                // voterInfo.voterInfo.fName,\n                // voterInfo.voterInfo.lName,\n                // voterInfo.voterInfo.gName,\n                userAddress\n            ),\n            \"Voter Already Exists\"\n        );\n        require(\n            !findVoterByStudentId(voterInfo.voterInfo.studentId),\n            \"Voter Already Exists\"\n        );\n        require(\n            !findVoterByEmail(voterInfo.voterInfo.email),\n            \"Voter Already Exists\"\n        );\n        // require(\n        //     !findVoterByFullName(\n        //         voterInfo.voterInfo.fullName\n        //         // voterInfo.voterInfo.lName,\n        //         // voterInfo.voterInfo.gName\n        //     ),\n        //     \"Voter Already Exists\"\n        // );\n\n        voterStructsMapping[userAddress].voterInfo = voterInfo;\n        // voterStructsMapping[userAddress].voterEmail = email;\n        // voterStructsMapping[userAddress].voterPassword = password;\n        voterStructsMapping[userAddress].voterAddress = userAddress;\n\n        voterIndex.push(userAddress);\n        voterStructsMapping[userAddress].voterInfo.vindex =\n            voterIndex.length -\n            1;\n        voterValue.push(VoterStruct(voterInfo, userAddress));\n        // emit LogNewVoter(voterInfo, email, password);\n        return voterIndex.length - 1;\n    }\n\n    function removeVoter(\n        // string memory newfName,\n        // string memory newlName,\n        // string memory newgName,\n        address userAddress\n    ) external returns (bool success) {\n        // require(findVoterByFullName(newfName, newlName, newgName), \"Voter Does not Exist\");\n        require(isVoter(userAddress), \"Voter Does not exist\");\n        // uint256 rowToDelete = voterStructsMapping[userAddress].vindex;\n        // address keyToMove = voterIndex[voterIndex.length - 1];\n        voterIndex[\n            voterStructsMapping[userAddress].voterInfo.vindex\n        ] = voterIndex[voterIndex.length - 1];\n        voterStructsMapping[voterIndex[voterIndex.length - 1]]\n            .voterInfo\n            .vindex = voterStructsMapping[userAddress].voterInfo.vindex;\n\n        voterValue[\n            voterStructsMapping[userAddress].voterInfo.vindex\n        ] = voterValue[voterValue.length - 1];\n        voterValue[voterStructsMapping[userAddress].voterInfo.vindex]\n            .voterInfo\n            .vindex = voterStructsMapping[userAddress].voterInfo.vindex;\n        voterValue.pop();\n        voterIndex.pop();\n        delete voterStructsMapping[userAddress];\n\n        // emit LogDeleteVoter(\n        //     userAddress,\n        //     voterStructsMapping[userAddress].vindex\n        // );\n\n        return true;\n    }\n\n    // CANDIDATE FUNCITONS\n\n    function findCandidateByStudentId(string memory newStudentId)\n        internal\n        view\n        returns (bool isIndeed)\n    {\n        // CandidateStruct[] memory temp = candidateValue;\n        for (uint256 i = 0; i < candidateValue.length; i++) {\n            if (\n                keccak256(\n                    abi.encodePacked(\n                        candidateValue[i].candidateInfo.candidateInfo.studentId\n                    )\n                ) == keccak256(abi.encodePacked(newStudentId))\n            ) {\n                return true;\n            }\n        }\n        return false;\n        // return isIndeed;\n    }\n\n    function findCandidateByEmail(string memory newEmail)\n        internal\n        view\n        returns (bool isIndeed)\n    {\n        // CandidateStruct[] memory temp = candidateValue;\n        for (uint256 i = 0; i < candidateValue.length; i++) {\n            if (\n                keccak256(\n                    abi.encodePacked(\n                        candidateValue[i].candidateInfo.candidateInfo.email\n                    )\n                ) == keccak256(abi.encodePacked(newEmail))\n            ) {\n                return true;\n            }\n        }\n        return false;\n        // return isIndeed;\n    }\n\n    // function findCandidateByFullName(\n    //     // string memory newfName,\n    //     // string memory newlName,\n    //     string memory newfullName\n    // ) internal view returns (bool isIndeed) {\n    //     // CandidateStruct[] memory temp = candidateValue;\n    //     for (uint256 i = 0; i < candidateValue.length; i++) {\n    //         if (\n    //             keccak256(\n    //                 abi.encodePacked(\n    //                     candidateValue[i].candidateInfo.candidateInfo.fullName\n    //                     )\n    //             ) ==\n    //             keccak256(\n    //                 abi.encodePacked(newfullName)\n    //             )\n    //         ) {\n    //             return true;\n    //         }\n    //     }\n    //     return false;\n    // }\n\n    function isCandidate(\n        // string memory newfName,\n        // string memory newlName,\n        // string memory newgName,\n        address userAddress\n    ) public view returns (bool isIndeed) {\n        // UserStruct[] memory tempUsers = deployedUser.getAllUsers();\n        // require(isUser(userAddress), \"User Does not Exist\");\n        // AAiTUser deployedUser = AAiTUser(AAiTUserContractAddress);\n        // require(\n        //     deployedUser.isUser(newfName, newlName, newgName),\n        //     \"User Does not Exist\"\n        // );\n        if (candidateIndex.length == 0) return false;\n\n        if (voterIndex.length == 0) return false;\n        // require(candidateIndex[candidateStructsMapping[userAddress].vindex] ==\n        //     userAddress,\"index out of bounds error over here\");\n        return (candidateIndex[\n            candidateStructsMapping[userAddress].candidateInfo.vindex\n        ] == userAddress);\n    }\n\n    function insertCandidate(\n        AAiTUser.CandidateStruct memory userInfo,\n        // string memory email,\n        // string memory password,\n        // string memory bio,\n        // string memory profilePicture,\n        address userAddress\n    ) public returns (uint256 index) {\n        // if (isUser(userAddress)) throw;\n        require(userAddress != owner, \"Permission Denied\");\n\n        require(\n            !isVoter(\n                // userInfo.candidateInfo.fName,\n                // userInfo.candidateInfo.lName,\n                // userInfo.candidateInfo.gName,\n                userAddress\n            ),\n            \"User Already a Voter\"\n        );\n        require(\n            !isCandidate(\n                // userInfo.candidateInfo.fName,\n                // userInfo.candidateInfo.lName,\n                // userInfo.candidateInfo.gName,\n                userAddress\n            ),\n            \"Candidate Already Exists\"\n        );\n        require(\n            !findCandidateByStudentId(userInfo.candidateInfo.studentId),\n            \"Candidate Already Exists\"\n        );\n        require(\n            !findCandidateByEmail(userInfo.candidateInfo.email),\n            \"Candidate Already Exists\"\n        );\n        // require(\n        //     !findCandidateByFullName(\n        //         userInfo.candidateInfo.fullName\n        //         // userInfo.candidateInfo.lName,\n        //         // userInfo.candidateInfo.gName\n        //     ),\n        //     \"Candidate Already Exists\"\n        // );\n\n        candidateStructsMapping[userAddress].candidateInfo = userInfo;\n        // candidateStructsMapping[userAddress]\n        //     .candidateEmail = email;\n        // candidateStructsMapping[userAddress]\n        //     .candidatePassword = password;\n        // candidateStructsMapping[userAddress].candidateBio = bio;\n        // candidateStructsMapping[userAddress].candidateAddress = userAddress;\n        // candidateStructsMapping[userAddress]\n        //     .candidateProfilePicture = profilePicture;\n        // userStructsMapping[userAddress].gName = gName;\n        candidateStructsMapping[userAddress].candidateAddress = userAddress;\n        candidateIndex.push(userAddress);\n        candidateStructsMapping[userAddress].candidateInfo.vindex =\n            candidateIndex.length -\n            1;\n        candidateValue.push(CandidateStruct(userInfo, userAddress));\n\n        //     emit LogNewCandidate(\n        //         candidateInfo,\n        //         email,\n        //         password,\n        //         bio,\n        //         profilePicture\n        //     );\n        return candidateIndex.length - 1;\n    }\n\n    function removeCandidate(\n        // string memory newfName,\n        // string memory newlName,\n        // string memory newgName,\n        address userAddress\n    ) public returns (bool success) {\n        require(isCandidate(userAddress), \"Candidate Does not exist\");\n        // uint256 rowToDelete = candidateStructsMapping[userAddress].vindex;\n        // address keyToMove = candidateIndex[candidateIndex.length - 1];\n        candidateIndex[\n            candidateStructsMapping[userAddress].candidateInfo.vindex\n        ] = candidateIndex[candidateIndex.length - 1];\n        candidateStructsMapping[candidateIndex[candidateIndex.length - 1]]\n            .candidateInfo\n            .vindex = candidateStructsMapping[userAddress].candidateInfo.vindex;\n\n        candidateValue[\n            candidateStructsMapping[userAddress].candidateInfo.vindex\n        ] = candidateValue[candidateValue.length - 1];\n        candidateValue[\n            candidateStructsMapping[userAddress].candidateInfo.vindex\n        ].candidateInfo.vindex = candidateStructsMapping[userAddress]\n            .candidateInfo\n            .vindex;\n        candidateValue.pop();\n        candidateIndex.pop();\n        delete candidateStructsMapping[userAddress];\n        // emit LogDeleteCandidate(\n        //     userAddress,\n        //     candidateStructsMapping[userAddress].vindex\n        // );\n\n        return true;\n    }\n\n    // function getAllUsers() public view returns (UserStruct[] memory) {\n    //     return userValue;\n    // }\n\n    function getVoter(address userAddress)\n        public\n        view\n        returns (VoterStruct memory)\n    {\n        // if (!isUser(userAddress)) throw;\n        // require(isVoter(userAddress), \"Voter Does not exist\");\n\n        return (voterStructsMapping[userAddress]);\n    }\n\n    function getVoterByEmail(string memory email)\n        public\n        view\n        returns (VoterStruct memory)\n    {\n        for (uint256 i = 0; i < voterValue.length; i++) {\n            if (\n                keccak256(\n                    abi.encodePacked(voterValue[i].voterInfo.voterInfo.email)\n                ) == keccak256(abi.encodePacked(email))\n            ) {\n                return voterValue[i];\n            }\n        }\n        revert(\"Not found\");\n    }\n\n    function getAllVoters() public view returns (VoterStruct[] memory) {\n        return voterValue;\n    }\n\n    function getCandidate(address userAddress)\n        public\n        view\n        returns (CandidateStruct memory)\n    {\n        // if (!isUser(userAddress)) throw;\n        // require(isCandidate(userAddress), \"Candidate Does not exist\");\n\n        return (candidateStructsMapping[userAddress]);\n    }\n\n    function getCandidateByEmail(string memory email)\n        public\n        view\n        returns (CandidateStruct memory)\n    {\n        for (uint256 i = 0; i < candidateValue.length; i++) {\n            if (\n                keccak256(\n                    abi.encodePacked(\n                        candidateValue[i].candidateInfo.candidateInfo.email\n                    )\n                ) == keccak256(abi.encodePacked(email))\n            ) {\n                return candidateValue[i];\n            }\n        }\n        revert(\"Not found\");\n    }\n\n    function getAllCandidates() public view returns (CandidateStruct[] memory) {\n        return candidateValue;\n    }\n\n    // function getVoterByType (uint256 year,\n    //     uint256 section,\n    //     DEPTARTMENT_TYPE department) public view returns (VoterStruct memory) {\n\n    //     // return temp2;\n    // }\n\n    function removeAllUsers() public onlyOwner {\n        // for (uint256 i = 0; i < voterValue.length; i++) {\n        //     delete voterStructsMapping[voterValue[i].voterAddress];\n        // }\n        // delete voterValue;\n        // delete voterIndex;\n        // for (uint256 i = 0; i < candidateValue.length; i++) {\n        //     delete candidateStructsMapping[candidateValue[i].candidateAddress];\n        // }\n        // delete candidateValue;\n        // delete candidateIndex;\n    }\n}\n",
  "sourcePath": "/home/dannyterefe/Documents/VSCode_Projects/Final_Project/blockchain_based_voting_system/dvbst_smart_contracts/contracts/AAiTStudent.sol",
  "compiler": {
    "name": "solc",
    "version": "0.8.10+commit.fc410830.Emscripten.clang"
  },
  "schemaVersion": "3.4.4",
  "updatedAt": "2022-05-25T12:52:35.513Z",
  "networkType": "ethereum",
  "devdoc": {
    "kind": "dev",
    "methods": {},
    "version": 1
  },
  "userdoc": {
    "kind": "user",
    "methods": {},
    "version": 1
  }
}