{
  "contractName": "AAiTElectionTimer",
  "abi": [
    {
      "inputs": [],
      "stateMutability": "nonpayable",
      "type": "constructor"
    },
    {
      "anonymous": false,
      "inputs": [
        {
          "indexed": false,
          "internalType": "string",
          "name": "currentPhase",
          "type": "string"
        }
      ],
      "name": "LogCurrentElectionPhase",
      "type": "event"
    },
    {
      "inputs": [],
      "name": "owner",
      "outputs": [
        {
          "internalType": "address",
          "name": "",
          "type": "address"
        }
      ],
      "stateMutability": "view",
      "type": "function",
      "constant": true
    },
    {
      "inputs": [],
      "name": "phase",
      "outputs": [
        {
          "internalType": "enum AAiTElectionTimer.PHASE_NAME",
          "name": "phaseName",
          "type": "uint8"
        },
        {
          "internalType": "uint256",
          "name": "start",
          "type": "uint256"
        },
        {
          "internalType": "uint256",
          "name": "end",
          "type": "uint256"
        }
      ],
      "stateMutability": "view",
      "type": "function",
      "constant": true
    },
    {
      "inputs": [
        {
          "internalType": "uint256",
          "name": "_votingDuration",
          "type": "uint256"
        },
        {
          "internalType": "uint256",
          "name": "_breakDuration",
          "type": "uint256"
        }
      ],
      "name": "startTimer",
      "outputs": [],
      "stateMutability": "nonpayable",
      "type": "function"
    },
    {
      "inputs": [],
      "name": "stopTimer",
      "outputs": [],
      "stateMutability": "nonpayable",
      "type": "function"
    },
    {
      "inputs": [],
      "name": "getRemainingTime",
      "outputs": [
        {
          "internalType": "uint256",
          "name": "",
          "type": "uint256"
        }
      ],
      "stateMutability": "view",
      "type": "function",
      "constant": true
    },
    {
      "inputs": [],
      "name": "getCurrentPhase",
      "outputs": [
        {
          "components": [
            {
              "internalType": "enum AAiTElectionTimer.PHASE_NAME",
              "name": "phaseName",
              "type": "uint8"
            },
            {
              "internalType": "uint256",
              "name": "start",
              "type": "uint256"
            },
            {
              "internalType": "uint256",
              "name": "end",
              "type": "uint256"
            }
          ],
          "internalType": "struct AAiTElectionTimer.ElectionPhase",
          "name": "",
          "type": "tuple"
        }
      ],
      "stateMutability": "view",
      "type": "function",
      "constant": true
    },
    {
      "inputs": [],
      "name": "checkCurrentPhase",
      "outputs": [],
      "stateMutability": "nonpayable",
      "type": "function"
    }
  ],
  "bytecode": "0x60a060405234801561001057600080fd5b503373ffffffffffffffffffffffffffffffffffffffff1660808173ffffffffffffffffffffffffffffffffffffffff16815250506040518060600160405280600a80811115610063576100626100c2565b5b8152602001600081526020016000815250600360008201518160000160006101000a81548160ff0219169083600a8111156100a1576100a06100c2565b5b021790555060208201518160010155604082015181600201559050506100f1565b7f4e487b7100000000000000000000000000000000000000000000000000000000600052602160045260246000fd5b60805161132661012160003960008181610a4c01528181610afe01528181610bd00152610d5d01526113266000f3fe608060405234801561001057600080fd5b506004361061007d5760003560e01c8063b1c9fe6e1161005b578063b1c9fe6e146100c8578063d473eb2b146100e8578063d90199e9146100f2578063efb98bcf1461010e5761007d565b806363af57b0146100825780638da5cb5b1461008c578063a3a40ea5146100aa575b600080fd5b61008a61012c565b005b610094610a4a565b6040516100a19190610fab565b60405180910390f35b6100b2610a6e565b6040516100bf9190611098565b60405180910390f35b6100d0610ad7565b6040516100df939291906110d1565b60405180910390f35b6100f0610afc565b005b61010c60048036038101906101079190611139565b610bce565b005b610116610cfb565b6040516101239190611179565b60405180910390f35b6000600a8111156101405761013f610fc6565b5b600360000160009054906101000a900460ff16600a81111561016557610164610fc6565b5b141561020857600360020154421061018757610182600054610d5b565b610a48565b60405180606001604052806000600a8111156101a6576101a5610fc6565b5b8152602001428152602001600360020154815250600360008201518160000160006101000a81548160ff0219169083600a8111156101e7576101e6610fc6565b5b02179055506020820151816001015560408201518160020155905050610a47565b6001600a81111561021c5761021b610fc6565b5b600360000160009054906101000a900460ff16600a81111561024157610240610fc6565b5b14156102e45760036002015442106102635761025e600154610d5b565b610a48565b60405180606001604052806001600a81111561028257610281610fc6565b5b8152602001428152602001600360020154815250600360008201518160000160006101000a81548160ff0219169083600a8111156102c3576102c2610fc6565b5b02179055506020820151816001015560408201518160020155905050610a46565b6002600a8111156102f8576102f7610fc6565b5b600360000160009054906101000a900460ff16600a81111561031d5761031c610fc6565b5b14156103c057600360020154421061033f5761033a600154610d5b565b610a48565b60405180606001604052806002600a81111561035e5761035d610fc6565b5b8152602001428152602001600360020154815250600360008201518160000160006101000a81548160ff0219169083600a81111561039f5761039e610fc6565b5b02179055506020820151816001015560408201518160020155905050610a45565b6003600a8111156103d4576103d3610fc6565b5b600360000160009054906101000a900460ff16600a8111156103f9576103f8610fc6565b5b141561049c57600360020154421061041b57610416600154610d5b565b610a48565b60405180606001604052806003600a81111561043a57610439610fc6565b5b8152602001428152602001600360020154815250600360008201518160000160006101000a81548160ff0219169083600a81111561047b5761047a610fc6565b5b02179055506020820151816001015560408201518160020155905050610a44565b6004600a8111156104b0576104af610fc6565b5b600360000160009054906101000a900460ff16600a8111156104d5576104d4610fc6565b5b14156105785760036002015442106104f7576104f2600054610d5b565b610a48565b60405180606001604052806004600a81111561051657610515610fc6565b5b8152602001428152602001600360020154815250600360008201518160000160006101000a81548160ff0219169083600a81111561055757610556610fc6565b5b02179055506020820151816001015560408201518160020155905050610a43565b6005600a81111561058c5761058b610fc6565b5b600360000160009054906101000a900460ff16600a8111156105b1576105b0610fc6565b5b14156106545760036002015442106105d3576105ce600154610d5b565b610a48565b60405180606001604052806005600a8111156105f2576105f1610fc6565b5b8152602001428152602001600360020154815250600360008201518160000160006101000a81548160ff0219169083600a81111561063357610632610fc6565b5b02179055506020820151816001015560408201518160020155905050610a42565b6007600a81111561066857610667610fc6565b5b600360000160009054906101000a900460ff16600a81111561068d5761068c610fc6565b5b14156107305760036002015442106106af576106aa600154610d5b565b610a48565b60405180606001604052806007600a8111156106ce576106cd610fc6565b5b8152602001428152602001600360020154815250600360008201518160000160006101000a81548160ff0219169083600a81111561070f5761070e610fc6565b5b02179055506020820151816001015560408201518160020155905050610a41565b6006600a81111561074457610743610fc6565b5b600360000160009054906101000a900460ff16600a81111561076957610768610fc6565b5b141561080c57600360020154421061078b57610786600054610d5b565b610a48565b60405180606001604052806006600a8111156107aa576107a9610fc6565b5b8152602001428152602001600360020154815250600360008201518160000160006101000a81548160ff0219169083600a8111156107eb576107ea610fc6565b5b02179055506020820151816001015560408201518160020155905050610a40565b6008600a8111156108205761081f610fc6565b5b600360000160009054906101000a900460ff16600a81111561084557610844610fc6565b5b14156108e55760036002015442106108645761085f610afc565b610a48565b60405180606001604052806008600a81111561088357610882610fc6565b5b8152602001428152602001600360020154815250600360008201518160000160006101000a81548160ff0219169083600a8111156108c4576108c3610fc6565b5b02179055506020820151816001015560408201518160020155905050610a3f565b6009600a8111156108f9576108f8610fc6565b5b600360000160009054906101000a900460ff16600a81111561091e5761091d610fc6565b5b14156109c15760036002015442106109405761093b600154610d5b565b610a48565b60405180606001604052806009600a81111561095f5761095e610fc6565b5b8152602001428152602001600360020154815250600360008201518160000160006101000a81548160ff0219169083600a8111156109a05761099f610fc6565b5b02179055506020820151816001015560408201518160020155905050610a3e565b6040518060600160405280600a808111156109df576109de610fc6565b5b8152602001600081526020016000815250600360008201518160000160006101000a81548160ff0219169083600a811115610a1d57610a1c610fc6565b5b02179055506020820151816001015560408201518160020155905050610a48565b5b5b5b5b5b5b5b5b5b5b565b7f000000000000000000000000000000000000000000000000000000000000000081565b610a76610f37565b60036040518060600160405290816000820160009054906101000a900460ff16600a811115610aa857610aa7610fc6565b5b600a811115610aba57610ab9610fc6565b5b815260200160018201548152602001600282015481525050905090565b60038060000160009054906101000a900460ff16908060010154908060020154905083565b7f000000000000000000000000000000000000000000000000000000000000000073ffffffffffffffffffffffffffffffffffffffff163373ffffffffffffffffffffffffffffffffffffffff1614610b5457600080fd5b6040518060600160405280600a80811115610b7257610b71610fc6565b5b8152602001600081526020016000815250600360008201518160000160006101000a81548160ff0219169083600a811115610bb057610baf610fc6565b5b02179055506020820151816001015560408201518160020155905050565b7f000000000000000000000000000000000000000000000000000000000000000073ffffffffffffffffffffffffffffffffffffffff163373ffffffffffffffffffffffffffffffffffffffff1614610c2657600080fd5b600a80811115610c3957610c38610fc6565b5b600360000160009054906101000a900460ff16600a811115610c5e57610c5d610fc6565b5b1415610cf757816000819055508060018190555060405180606001604052806000600a811115610c9157610c90610fc6565b5b815260200142815260200160005442610caa91906111c3565b815250600360008201518160000160006101000a81548160ff0219169083600a811115610cda57610cd9610fc6565b5b021790555060208201518160010155604082015181600201559050505b5050565b6000600a80811115610d1057610d0f610fc6565b5b600360000160009054906101000a900460ff16600a811115610d3557610d34610fc6565b5b1415610d445760009050610d58565b42600360020154610d559190611219565b90505b90565b7f000000000000000000000000000000000000000000000000000000000000000073ffffffffffffffffffffffffffffffffffffffff163373ffffffffffffffffffffffffffffffffffffffff1614610de9576040517f08c379a0000000000000000000000000000000000000000000000000000000008152600401610de0906112d0565b60405180910390fd5b6008600a811115610dfd57610dfc610fc6565b5b600360000160009054906101000a900460ff16600a811115610e2257610e21610fc6565b5b1415610ea5576040518060600160405280600a80811115610e4657610e45610fc6565b5b8152602001600081526020016000815250600360008201518160000160006101000a81548160ff0219169083600a811115610e8457610e83610fc6565b5b02179055506020820151816001015560408201518160020155905050610f34565b6001600360000160009054906101000a900460ff16600a811115610ecc57610ecb610fc6565b5b610ed691906111c3565b600a811115610ee857610ee7610fc6565b5b600360000160006101000a81548160ff0219169083600a811115610f0f57610f0e610fc6565b5b0217905550426003600101819055508042610f2a91906111c3565b6003600201819055505b50565b60405180606001604052806000600a811115610f5657610f55610fc6565b5b815260200160008152602001600081525090565b600073ffffffffffffffffffffffffffffffffffffffff82169050919050565b6000610f9582610f6a565b9050919050565b610fa581610f8a565b82525050565b6000602082019050610fc06000830184610f9c565b92915050565b7f4e487b7100000000000000000000000000000000000000000000000000000000600052602160045260246000fd5b600b811061100657611005610fc6565b5b50565b600081905061101782610ff5565b919050565b600061102782611009565b9050919050565b6110378161101c565b82525050565b6000819050919050565b6110508161103d565b82525050565b60608201600082015161106c600085018261102e565b50602082015161107f6020850182611047565b5060408201516110926040850182611047565b50505050565b60006060820190506110ad6000830184611056565b92915050565b6110bc8161101c565b82525050565b6110cb8161103d565b82525050565b60006060820190506110e660008301866110b3565b6110f360208301856110c2565b61110060408301846110c2565b949350505050565b600080fd5b6111168161103d565b811461112157600080fd5b50565b6000813590506111338161110d565b92915050565b600080604083850312156111505761114f611108565b5b600061115e85828601611124565b925050602061116f85828601611124565b9150509250929050565b600060208201905061118e60008301846110c2565b92915050565b7f4e487b7100000000000000000000000000000000000000000000000000000000600052601160045260246000fd5b60006111ce8261103d565b91506111d98361103d565b9250827fffffffffffffffffffffffffffffffffffffffffffffffffffffffffffffffff0382111561120e5761120d611194565b5b828201905092915050565b60006112248261103d565b915061122f8361103d565b92508282101561124257611241611194565b5b828203905092915050565b600082825260208201905092915050565b7f4f6e6c7920746865206f776e65722063616e206368616e67652074686520706860008201527f6173650000000000000000000000000000000000000000000000000000000000602082015250565b60006112ba60238361124d565b91506112c58261125e565b604082019050919050565b600060208201905081810360008301526112e9816112ad565b905091905056fea26469706673582212208262f14d6abec8ffc322cd5231966eb3239bd0116cba36cb8712c8b730b8e57364736f6c634300080a0033",
  "immutableReferences": {
    "3396": [
      {
        "length": 32,
        "start": 2636
      },
      {
        "length": 32,
        "start": 2814
      },
      {
        "length": 32,
        "start": 3024
      },
      {
        "length": 32,
        "start": 3421
      }
    ]
  },
  "source": "// SPDX-License-Identifier: MIT\npragma solidity ^0.8.9;\n\ncontract AAiTElectionTimer {\n    uint256 private votingDuration;\n    uint256 private breakDuration;\n    address public immutable owner;\n    string private val;\n\n    enum PHASE_NAME {\n        REGISTRATION,\n        REGISTRATION_BREAK,\n        SECTION_ELECTION,\n        SECTION_ELECTION_DONE,\n        SECTION_ELECTION_BREAK,\n        BATCH_ELECTION,\n        BATCH_ELECTION_BREAK,\n        BATCH_ELECTION_DONE,\n        DEPARTMENT_ELECTION,\n        DEPARTMENT_ELECTION_DONE,\n        COMPLETED\n    }\n\n    struct ElectionPhase {\n        PHASE_NAME phaseName;\n        uint256 start;\n        uint256 end;\n    }\n\n    ElectionPhase public phase;\n\n    event LogCurrentElectionPhase(string currentPhase);\n\n    modifier onlyOwner() {\n        require(msg.sender == owner);\n        _;\n    }\n\n    constructor() {\n        owner = msg.sender;\n        phase = ElectionPhase(PHASE_NAME.COMPLETED, 0, 0);\n        // val = \"unos\";\n    }\n\n    // function changeVal(string memory _newVal) internal {\n    //     require(msg.sender == owner, \"Only the owner can change the value\");\n    //     val = _newVal;\n    //     // IERC20(token).transferFrom(msg.sender, address(this), amount);\n    // }\n\n    // function getPhaseEnd() public view returns (uint256) {\n    //     return end;\n    // }\n\n    function startTimer(uint256 _votingDuration, uint256 _breakDuration)\n        public\n        onlyOwner\n    {\n        if (phase.phaseName == PHASE_NAME.COMPLETED) {\n            votingDuration = _votingDuration;\n            breakDuration = _breakDuration;\n            phase = ElectionPhase(\n                PHASE_NAME.REGISTRATION,\n                block.timestamp,\n                block.timestamp + votingDuration\n            );\n        }\n    }\n\n    function stopTimer() public onlyOwner {\n        phase = ElectionPhase(PHASE_NAME.COMPLETED, 0, 0);\n    }\n\n    function changePhase(uint256 _newEnd) internal {\n        require(msg.sender == owner, \"Only the owner can change the phase\");\n\n        if (phase.phaseName == PHASE_NAME.DEPARTMENT_ELECTION) {\n            phase = ElectionPhase(PHASE_NAME.COMPLETED, 0, 0);\n            // changeVal(\"unos\");\n            return;\n        }\n        phase.phaseName = PHASE_NAME(uint256(phase.phaseName) + 1);\n        phase.start = block.timestamp;\n        phase.end = block.timestamp + _newEnd;\n    }\n\n    function getRemainingTime() external view returns (uint256) {\n        if (phase.phaseName == PHASE_NAME.COMPLETED) {\n            return 0;\n        }\n        return phase.end - block.timestamp;\n    }\n\n    // function getVal() public view returns (string memory) {\n    //     return val;\n    // }\n\n    // function getCurrentPhase()\n    //     internal\n    //     view\n    //     returns (string memory)\n    // {\n    //     if (phase.phaseName == PHASE_NAME.INITIAL) {\n    //         return \"ON INITIAL\";\n    //     } else if (phase.phaseName == PHASE_NAME.INITIAL_BREAK) {\n    //         return \"ON INITIAL_BREAK\";\n    //     } else if (phase.phaseName == PHASE_NAME.MIDDLE) {\n    //         return \"ON MIDDLE\";\n    //     } else if (phase.phaseName == PHASE_NAME.MIDDLE_BREAK) {\n    //         return \"ON MIDDLE_BREAK\";\n    //     } else if (phase.phaseName == PHASE_NAME.FINAL) {\n    //         return \"ON FINAL\";\n    //     }\n    //     return \"ON UNKNOWN\";\n    // }\n\n    function getCurrentPhase() public view returns (ElectionPhase memory) {\n        return phase;\n    }\n\n    function checkCurrentPhase() external {\n        // require(msg.sender == owner, \"only owner\");\n        if (phase.phaseName == PHASE_NAME.REGISTRATION) {\n            if (block.timestamp >= phase.end) {\n                changePhase(votingDuration);\n                return;\n                // return \"ON REGISTRATION\";\n                // return phase;\n            }\n            phase = ElectionPhase(\n                PHASE_NAME.REGISTRATION,\n                block.timestamp,\n                phase.end\n            );\n            // return \"SECTION ELECTION INITIATED\";\n            // return phase;\n\n            // changeVal(\"initial phase\");\n        }else if (phase.phaseName == PHASE_NAME.REGISTRATION_BREAK) {\n            if (block.timestamp >= phase.end) {\n                \n                changePhase(breakDuration);\n                return;\n\n                // return \"ON SECTION_ELECTION\";\n                // return phase;\n            }\n            phase = ElectionPhase(\n                PHASE_NAME.REGISTRATION_BREAK,\n                block.timestamp,\n                phase.end\n            );\n            \n            // return \"SECTION ELECTION DONE\";\n            // return phase;\n        }  \n        else if (phase.phaseName == PHASE_NAME.SECTION_ELECTION) {\n            if (block.timestamp >= phase.end) {\n                changePhase(breakDuration);\n                return;\n\n                // return \"ON SECTION_ELECTION\";\n                // return phase;\n            }\n            phase = ElectionPhase(\n                PHASE_NAME.SECTION_ELECTION,\n                block.timestamp,\n                phase.end\n            );\n            \n            // return \"SECTION ELECTION DONE\";\n            // return phase;\n        }  else if (phase.phaseName == PHASE_NAME.SECTION_ELECTION_DONE) {\n            if (block.timestamp >= phase.end) {\n                changePhase(breakDuration);\n                return;\n\n                // return \"ON SECTION_ELECTION\";\n                // return phase;\n            }\n            phase = ElectionPhase(\n                PHASE_NAME.SECTION_ELECTION_DONE,\n                block.timestamp,\n                phase.end\n            );\n            \n            // return \"SECTION ELECTION DONE\";\n            // return phase;\n        } \n        \n        else if (phase.phaseName == PHASE_NAME.SECTION_ELECTION_BREAK) {\n            if (block.timestamp >= phase.end) {\n                changePhase(votingDuration);\n                return;\n\n                // return \"ON SECTION ELECTION BREAK\";\n                // return phase;\n            }\n            phase = ElectionPhase(\n                PHASE_NAME.SECTION_ELECTION_BREAK,\n                block.timestamp,\n                phase.end\n            );\n            // return \"BATCH ELECTION INITIATED\";\n            // return phase;\n\n            // changeVal(\"initial phase\");\n        } else if (phase.phaseName == PHASE_NAME.BATCH_ELECTION) {\n            if (block.timestamp >= phase.end) {\n                changePhase(breakDuration);\n                return;\n\n                // return \"ON BATCH ELECTION\";\n            }\n            phase = ElectionPhase(\n                PHASE_NAME.BATCH_ELECTION,\n                block.timestamp,\n                phase.end\n            );\n            // return phase;\n            // return \"BATCH ELECTION DONE\";\n        }else if (phase.phaseName == PHASE_NAME.BATCH_ELECTION_DONE) {\n            if (block.timestamp >= phase.end) {\n                changePhase(breakDuration);\n                return;\n\n                // return \"ON SECTION_ELECTION\";\n                // return phase;\n            }\n            phase = ElectionPhase(\n                PHASE_NAME.BATCH_ELECTION_DONE,\n                block.timestamp,\n                phase.end\n            );\n            \n            // return \"SECTION ELECTION DONE\";\n            // return phase;\n        }  else if (phase.phaseName == PHASE_NAME.BATCH_ELECTION_BREAK) {\n            if (block.timestamp >= phase.end) {\n                changePhase(votingDuration);\n                return;\n\n                // return phase;\n                // return \"ON BATCH ELECTION BREAK\";\n            }\n            phase = ElectionPhase(\n                PHASE_NAME.BATCH_ELECTION_BREAK,\n                block.timestamp,\n                phase.end\n            );\n            // return phase;\n            // return \"DEPARTMENT ELECTION INITIATED\";\n            // changeVal(\"initial phase\");\n        } else if (phase.phaseName == PHASE_NAME.DEPARTMENT_ELECTION) {\n            if (block.timestamp >= phase.end) {\n                stopTimer();\n                return;\n\n                // return phase;\n                // return \"ON DEPARTMENT ELECTION\";\n            }\n            phase = ElectionPhase(\n                PHASE_NAME.DEPARTMENT_ELECTION,\n                block.timestamp,\n                phase.end\n            );\n            // return phase;\n            // return \"DEPARTMENT ELECTION DONE\";\n        }else if (phase.phaseName == PHASE_NAME.DEPARTMENT_ELECTION_DONE) {\n            if (block.timestamp >= phase.end) {\n                changePhase(breakDuration);\n                return;\n\n                // return \"ON SECTION_ELECTION\";\n                // return phase;\n            }\n            phase = ElectionPhase(\n                PHASE_NAME.DEPARTMENT_ELECTION_DONE,\n                block.timestamp,\n                phase.end\n            );\n            \n            // return \"SECTION ELECTION DONE\";\n            // return phase;\n        }  else {\n            phase = ElectionPhase(PHASE_NAME.COMPLETED, 0, 0);\n            return;\n\n            // return \"UNKNOWN PHASE\";\n            // return phase;\n        }\n        // changeVal(\"to this\");\n        // if(token == address(0)) {\n        //   owner.transfer(amount);\n        // } else {\n        //   IERC20(token).transfer(owner, amount);\n        // }\n    }\n}\n",
  "sourcePath": "/home/dannyterefe/Documents/VSCode_Projects/Final_Project/blockchain_based_voting_system/dvbst_smart_contracts/contracts/AAiTElectionTimer.sol",
  "compiler": {
    "name": "solc",
    "version": "0.8.10+commit.fc410830.Emscripten.clang"
  },
  "schemaVersion": "3.4.4",
  "updatedAt": "2022-05-25T12:52:35.626Z",
  "networkType": "ethereum",
  "devdoc": {
    "kind": "dev",
    "methods": {},
    "version": 1
  },
  "userdoc": {
    "kind": "user",
    "methods": {},
    "version": 1
  }
}