{
  "contractName": "AAiTUser",
  "abi": [
    {
      "inputs": [],
      "stateMutability": "nonpayable",
      "type": "constructor"
    },
    {
      "inputs": [
        {
          "internalType": "string",
          "name": "fullName",
          "type": "string"
        }
      ],
      "name": "isUser",
      "outputs": [
        {
          "internalType": "bool",
          "name": "",
          "type": "bool"
        }
      ],
      "stateMutability": "view",
      "type": "function",
      "constant": true
    },
    {
      "inputs": [
        {
          "internalType": "string",
          "name": "studentId",
          "type": "string"
        },
        {
          "internalType": "string",
          "name": "fullName",
          "type": "string"
        },
        {
          "internalType": "uint256",
          "name": "DOB",
          "type": "uint256"
        },
        {
          "internalType": "uint256",
          "name": "currentYear",
          "type": "uint256"
        },
        {
          "internalType": "uint256",
          "name": "currentSection",
          "type": "uint256"
        },
        {
          "internalType": "enum AAiTUser.DEPTARTMENT_TYPE",
          "name": "currentDepartment",
          "type": "uint8"
        },
        {
          "internalType": "string",
          "name": "email",
          "type": "string"
        },
        {
          "internalType": "string",
          "name": "profilePicture",
          "type": "string"
        },
        {
          "internalType": "string",
          "name": "bio",
          "type": "string"
        },
        {
          "internalType": "enum AAiTUser.USER_TYPE",
          "name": "role",
          "type": "uint8"
        }
      ],
      "name": "insertUser",
      "outputs": [
        {
          "internalType": "uint256",
          "name": "index",
          "type": "uint256"
        }
      ],
      "stateMutability": "nonpayable",
      "type": "function"
    },
    {
      "inputs": [
        {
          "internalType": "string",
          "name": "fullName",
          "type": "string"
        }
      ],
      "name": "getUser",
      "outputs": [
        {
          "components": [
            {
              "internalType": "uint256",
              "name": "index",
              "type": "uint256"
            },
            {
              "internalType": "string",
              "name": "studentId",
              "type": "string"
            },
            {
              "internalType": "string",
              "name": "fullName",
              "type": "string"
            },
            {
              "internalType": "uint256",
              "name": "DOB",
              "type": "uint256"
            },
            {
              "internalType": "uint256",
              "name": "currentYear",
              "type": "uint256"
            },
            {
              "internalType": "uint256",
              "name": "currentSection",
              "type": "uint256"
            },
            {
              "internalType": "enum AAiTUser.DEPTARTMENT_TYPE",
              "name": "currentDepartment",
              "type": "uint8"
            },
            {
              "internalType": "string",
              "name": "email",
              "type": "string"
            }
          ],
          "internalType": "struct AAiTUser.UserStruct",
          "name": "",
          "type": "tuple"
        }
      ],
      "stateMutability": "view",
      "type": "function",
      "constant": true
    },
    {
      "inputs": [],
      "name": "getAllUsers",
      "outputs": [
        {
          "components": [
            {
              "internalType": "uint256",
              "name": "index",
              "type": "uint256"
            },
            {
              "internalType": "string",
              "name": "studentId",
              "type": "string"
            },
            {
              "internalType": "string",
              "name": "fullName",
              "type": "string"
            },
            {
              "internalType": "uint256",
              "name": "DOB",
              "type": "uint256"
            },
            {
              "internalType": "uint256",
              "name": "currentYear",
              "type": "uint256"
            },
            {
              "internalType": "uint256",
              "name": "currentSection",
              "type": "uint256"
            },
            {
              "internalType": "enum AAiTUser.DEPTARTMENT_TYPE",
              "name": "currentDepartment",
              "type": "uint8"
            },
            {
              "internalType": "string",
              "name": "email",
              "type": "string"
            }
          ],
          "internalType": "struct AAiTUser.UserStruct[]",
          "name": "",
          "type": "tuple[]"
        }
      ],
      "stateMutability": "view",
      "type": "function",
      "constant": true
    },
    {
      "inputs": [
        {
          "internalType": "string",
          "name": "fullName",
          "type": "string"
        }
      ],
      "name": "removeUser",
      "outputs": [
        {
          "internalType": "bool",
          "name": "success",
          "type": "bool"
        }
      ],
      "stateMutability": "nonpayable",
      "type": "function"
    },
    {
      "inputs": [],
      "name": "getAllVoters",
      "outputs": [
        {
          "components": [
            {
              "components": [
                {
                  "internalType": "uint256",
                  "name": "index",
                  "type": "uint256"
                },
                {
                  "internalType": "string",
                  "name": "studentId",
                  "type": "string"
                },
                {
                  "internalType": "string",
                  "name": "fullName",
                  "type": "string"
                },
                {
                  "internalType": "uint256",
                  "name": "DOB",
                  "type": "uint256"
                },
                {
                  "internalType": "uint256",
                  "name": "currentYear",
                  "type": "uint256"
                },
                {
                  "internalType": "uint256",
                  "name": "currentSection",
                  "type": "uint256"
                },
                {
                  "internalType": "enum AAiTUser.DEPTARTMENT_TYPE",
                  "name": "currentDepartment",
                  "type": "uint8"
                },
                {
                  "internalType": "string",
                  "name": "email",
                  "type": "string"
                }
              ],
              "internalType": "struct AAiTUser.UserStruct",
              "name": "voterInfo",
              "type": "tuple"
            },
            {
              "internalType": "uint256",
              "name": "vindex",
              "type": "uint256"
            }
          ],
          "internalType": "struct AAiTUser.VoterStruct[]",
          "name": "",
          "type": "tuple[]"
        }
      ],
      "stateMutability": "view",
      "type": "function",
      "constant": true
    },
    {
      "inputs": [],
      "name": "getAllCandidates",
      "outputs": [
        {
          "components": [
            {
              "components": [
                {
                  "internalType": "uint256",
                  "name": "index",
                  "type": "uint256"
                },
                {
                  "internalType": "string",
                  "name": "studentId",
                  "type": "string"
                },
                {
                  "internalType": "string",
                  "name": "fullName",
                  "type": "string"
                },
                {
                  "internalType": "uint256",
                  "name": "DOB",
                  "type": "uint256"
                },
                {
                  "internalType": "uint256",
                  "name": "currentYear",
                  "type": "uint256"
                },
                {
                  "internalType": "uint256",
                  "name": "currentSection",
                  "type": "uint256"
                },
                {
                  "internalType": "enum AAiTUser.DEPTARTMENT_TYPE",
                  "name": "currentDepartment",
                  "type": "uint8"
                },
                {
                  "internalType": "string",
                  "name": "email",
                  "type": "string"
                }
              ],
              "internalType": "struct AAiTUser.UserStruct",
              "name": "candidateInfo",
              "type": "tuple"
            },
            {
              "internalType": "uint256",
              "name": "vindex",
              "type": "uint256"
            },
            {
              "internalType": "string",
              "name": "candidateBio",
              "type": "string"
            },
            {
              "internalType": "string",
              "name": "candidateProfilePicture",
              "type": "string"
            }
          ],
          "internalType": "struct AAiTUser.CandidateStruct[]",
          "name": "",
          "type": "tuple[]"
        }
      ],
      "stateMutability": "view",
      "type": "function",
      "constant": true
    },
    {
      "inputs": [
        {
          "internalType": "string",
          "name": "email",
          "type": "string"
        }
      ],
      "name": "getUserByEmail",
      "outputs": [
        {
          "components": [
            {
              "components": [
                {
                  "internalType": "uint256",
                  "name": "index",
                  "type": "uint256"
                },
                {
                  "internalType": "string",
                  "name": "studentId",
                  "type": "string"
                },
                {
                  "internalType": "string",
                  "name": "fullName",
                  "type": "string"
                },
                {
                  "internalType": "uint256",
                  "name": "DOB",
                  "type": "uint256"
                },
                {
                  "internalType": "uint256",
                  "name": "currentYear",
                  "type": "uint256"
                },
                {
                  "internalType": "uint256",
                  "name": "currentSection",
                  "type": "uint256"
                },
                {
                  "internalType": "enum AAiTUser.DEPTARTMENT_TYPE",
                  "name": "currentDepartment",
                  "type": "uint8"
                },
                {
                  "internalType": "string",
                  "name": "email",
                  "type": "string"
                }
              ],
              "internalType": "struct AAiTUser.UserStruct",
              "name": "voterInfo",
              "type": "tuple"
            },
            {
              "internalType": "uint256",
              "name": "vindex",
              "type": "uint256"
            }
          ],
          "internalType": "struct AAiTUser.VoterStruct",
          "name": "zvoter",
          "type": "tuple"
        },
        {
          "components": [
            {
              "components": [
                {
                  "internalType": "uint256",
                  "name": "index",
                  "type": "uint256"
                },
                {
                  "internalType": "string",
                  "name": "studentId",
                  "type": "string"
                },
                {
                  "internalType": "string",
                  "name": "fullName",
                  "type": "string"
                },
                {
                  "internalType": "uint256",
                  "name": "DOB",
                  "type": "uint256"
                },
                {
                  "internalType": "uint256",
                  "name": "currentYear",
                  "type": "uint256"
                },
                {
                  "internalType": "uint256",
                  "name": "currentSection",
                  "type": "uint256"
                },
                {
                  "internalType": "enum AAiTUser.DEPTARTMENT_TYPE",
                  "name": "currentDepartment",
                  "type": "uint8"
                },
                {
                  "internalType": "string",
                  "name": "email",
                  "type": "string"
                }
              ],
              "internalType": "struct AAiTUser.UserStruct",
              "name": "candidateInfo",
              "type": "tuple"
            },
            {
              "internalType": "uint256",
              "name": "vindex",
              "type": "uint256"
            },
            {
              "internalType": "string",
              "name": "candidateBio",
              "type": "string"
            },
            {
              "internalType": "string",
              "name": "candidateProfilePicture",
              "type": "string"
            }
          ],
          "internalType": "struct AAiTUser.CandidateStruct",
          "name": "zcandidate",
          "type": "tuple"
        }
      ],
      "stateMutability": "view",
      "type": "function",
      "constant": true
    }
  ],
  "bytecode": "0x608060405234801561001057600080fd5b5033600660006101000a81548173ffffffffffffffffffffffffffffffffffffffff021916908373ffffffffffffffffffffffffffffffffffffffff160217905550613c58806100616000396000f3fe608060405234801561001057600080fd5b50600436106100885760003560e01c806335bbe70e1161005b57806335bbe70e1461013c578063600cee781461015a578063ce8a151c1461018a578063e2842d79146101ba57610088565b806305bbd7e01461008d57806318046ae1146100bd5780632e6997fe146100ee57806331feb6711461010c575b600080fd5b6100a760048036038101906100a29190612ee5565b6101d8565b6040516100b49190612f49565b60405180910390f35b6100d760048036038101906100d29190612ee5565b610285565b6040516100e59291906131e8565b60405180910390f35b6100f6610a77565b6040516101039190613352565b60405180910390f35b61012660048036038101906101219190612ee5565b610e32565b6040516101339190613432565b60405180910390f35b6101446110cc565b6040516101519190613553565b60405180910390f35b610174600480360381019061016f9190612ee5565b611363565b6040516101819190612f49565b60405180910390f35b6101a4600480360381019061019f91906135eb565b61179b565b6040516101b19190613765565b60405180910390f35b6101c2612706565b6040516101cf9190613842565b60405180910390f35b60008060018054905014156101f05760009050610280565b8160405160200161020191906138a0565b60405160208183030381529060405280519060200120600160008460405161022991906138a0565b9081526020016040518091039020600001548154811061024c5761024b6138b7565b5b9060005260206000200160405160200161026691906139db565b604051602081830303815290604052805190602001201490505b919050565b61028d612ae9565b610295612b09565b61029e8361297f565b6102dd576040517f08c379a00000000000000000000000000000000000000000000000000000000081526004016102d490613a4f565b60405180910390fd5b60005b6003805490508110156105f757836040516020016102fe91906138a0565b6040516020818303038152906040528051906020012060038281548110610328576103276138b7565b5b906000526020600020906009020160000160070160405160200161034c91906139db565b6040516020818303038152906040528051906020012014156105e457610370612b09565b60038281548110610384576103836138b7565b5b906000526020600020906009020181816040518060400160405290816000820160405180610100016040529081600082015481526020016001820180546103ca90613915565b80601f01602080910402602001604051908101604052809291908181526020018280546103f690613915565b80156104435780601f1061041857610100808354040283529160200191610443565b820191906000526020600020905b81548152906001019060200180831161042657829003601f168201915b5050505050815260200160028201805461045c90613915565b80601f016020809104026020016040519081016040528092919081815260200182805461048890613915565b80156104d55780601f106104aa576101008083540402835291602001916104d5565b820191906000526020600020905b8154815290600101906020018083116104b857829003601f168201915b505050505081526020016003820154815260200160048201548152602001600582015481526020016006820160009054906101000a900460ff16600181111561052157610520613005565b5b600181111561053357610532613005565b5b815260200160078201805461054790613915565b80601f016020809104026020016040519081016040528092919081815260200182805461057390613915565b80156105c05780601f10610595576101008083540402835291602001916105c0565b820191906000526020600020905b8154815290600101906020018083116105a357829003601f168201915b50505050508152505081526020016008820154815250509150935093505050610a72565b80806105ef90613a9e565b9150506102e0565b5060005b600480549050811015610a36578360405160200161061991906138a0565b6040516020818303038152906040528051906020012060048281548110610643576106426138b7565b5b90600052602060002090600b020160000160070160405160200161066791906139db565b604051602081830303815290604052805190602001201415610a235761068b612ae9565b80600483815481106106a05761069f6138b7565b5b90600052602060002090600b0201806040518060800160405290816000820160405180610100016040529081600082015481526020016001820180546106e590613915565b80601f016020809104026020016040519081016040528092919081815260200182805461071190613915565b801561075e5780601f106107335761010080835404028352916020019161075e565b820191906000526020600020905b81548152906001019060200180831161074157829003601f168201915b5050505050815260200160028201805461077790613915565b80601f01602080910402602001604051908101604052809291908181526020018280546107a390613915565b80156107f05780601f106107c5576101008083540402835291602001916107f0565b820191906000526020600020905b8154815290600101906020018083116107d357829003601f168201915b505050505081526020016003820154815260200160048201548152602001600582015481526020016006820160009054906101000a900460ff16600181111561083c5761083b613005565b5b600181111561084e5761084d613005565b5b815260200160078201805461086290613915565b80601f016020809104026020016040519081016040528092919081815260200182805461088e90613915565b80156108db5780601f106108b0576101008083540402835291602001916108db565b820191906000526020600020905b8154815290600101906020018083116108be57829003601f168201915b50505050508152505081526020016008820154815260200160098201805461090290613915565b80601f016020809104026020016040519081016040528092919081815260200182805461092e90613915565b801561097b5780601f106109505761010080835404028352916020019161097b565b820191906000526020600020905b81548152906001019060200180831161095e57829003601f168201915b50505050508152602001600a8201805461099490613915565b80601f01602080910402602001604051908101604052809291908181526020018280546109c090613915565b8015610a0d5780601f106109e257610100808354040283529160200191610a0d565b820191906000526020600020905b8154815290600101906020018083116109f057829003601f168201915b5050505050815250509050935093505050610a72565b8080610a2e90613a9e565b9150506105fb565b506040517f08c379a0000000000000000000000000000000000000000000000000000000008152600401610a6990613b33565b60405180910390fd5b915091565b60606004805480602002602001604051908101604052809291908181526020016000905b82821015610e2957838290600052602060002090600b0201604051806080016040529081600082016040518061010001604052908160008201548152602001600182018054610ae990613915565b80601f0160208091040260200160405190810160405280929190818152602001828054610b1590613915565b8015610b625780601f10610b3757610100808354040283529160200191610b62565b820191906000526020600020905b815481529060010190602001808311610b4557829003601f168201915b50505050508152602001600282018054610b7b90613915565b80601f0160208091040260200160405190810160405280929190818152602001828054610ba790613915565b8015610bf45780601f10610bc957610100808354040283529160200191610bf4565b820191906000526020600020905b815481529060010190602001808311610bd757829003601f168201915b505050505081526020016003820154815260200160048201548152602001600582015481526020016006820160009054906101000a900460ff166001811115610c4057610c3f613005565b5b6001811115610c5257610c51613005565b5b8152602001600782018054610c6690613915565b80601f0160208091040260200160405190810160405280929190818152602001828054610c9290613915565b8015610cdf5780601f10610cb457610100808354040283529160200191610cdf565b820191906000526020600020905b815481529060010190602001808311610cc257829003601f168201915b505050505081525050815260200160088201548152602001600982018054610d0690613915565b80601f0160208091040260200160405190810160405280929190818152602001828054610d3290613915565b8015610d7f5780601f10610d5457610100808354040283529160200191610d7f565b820191906000526020600020905b815481529060010190602001808311610d6257829003601f168201915b50505050508152602001600a82018054610d9890613915565b80601f0160208091040260200160405190810160405280929190818152602001828054610dc490613915565b8015610e115780601f10610de657610100808354040283529160200191610e11565b820191906000526020600020905b815481529060010190602001808311610df457829003601f168201915b50505050508152505081526020019060010190610a9b565b50505050905090565b610e3a612b37565b610e43826101d8565b610e82576040517f08c379a0000000000000000000000000000000000000000000000000000000008152600401610e7990613a4f565b60405180910390fd5b600082604051610e9291906138a0565b90815260200160405180910390206040518061010001604052908160008201548152602001600182018054610ec690613915565b80601f0160208091040260200160405190810160405280929190818152602001828054610ef290613915565b8015610f3f5780601f10610f1457610100808354040283529160200191610f3f565b820191906000526020600020905b815481529060010190602001808311610f2257829003601f168201915b50505050508152602001600282018054610f5890613915565b80601f0160208091040260200160405190810160405280929190818152602001828054610f8490613915565b8015610fd15780601f10610fa657610100808354040283529160200191610fd1565b820191906000526020600020905b815481529060010190602001808311610fb457829003601f168201915b505050505081526020016003820154815260200160048201548152602001600582015481526020016006820160009054906101000a900460ff16600181111561101d5761101c613005565b5b600181111561102f5761102e613005565b5b815260200160078201805461104390613915565b80601f016020809104026020016040519081016040528092919081815260200182805461106f90613915565b80156110bc5780601f10611091576101008083540402835291602001916110bc565b820191906000526020600020905b81548152906001019060200180831161109f57829003601f168201915b5050505050815250509050919050565b60606003805480602002602001604051908101604052809291908181526020016000905b8282101561135a578382906000526020600020906009020160405180604001604052908160008201604051806101000160405290816000820154815260200160018201805461113e90613915565b80601f016020809104026020016040519081016040528092919081815260200182805461116a90613915565b80156111b75780601f1061118c576101008083540402835291602001916111b7565b820191906000526020600020905b81548152906001019060200180831161119a57829003601f168201915b505050505081526020016002820180546111d090613915565b80601f01602080910402602001604051908101604052809291908181526020018280546111fc90613915565b80156112495780601f1061121e57610100808354040283529160200191611249565b820191906000526020600020905b81548152906001019060200180831161122c57829003601f168201915b505050505081526020016003820154815260200160048201548152602001600582015481526020016006820160009054906101000a900460ff16600181111561129557611294613005565b5b60018111156112a7576112a6613005565b5b81526020016007820180546112bb90613915565b80601f01602080910402602001604051908101604052809291908181526020018280546112e790613915565b80156113345780601f1061130957610100808354040283529160200191611334565b820191906000526020600020905b81548152906001019060200180831161131757829003601f168201915b5050505050815250508152602001600882015481525050815260200190600101906110f0565b50505050905090565b600061136e826101d8565b6113ad576040517f08c379a00000000000000000000000000000000000000000000000000000000081526004016113a490613a4f565b60405180910390fd5b60018080805490506113bf9190613b53565b815481106113d0576113cf6138b7565b5b9060005260206000200160016000846040516113ec91906138a0565b9081526020016040518091039020600001548154811061140f5761140e6138b7565b5b9060005260206000200190805461142590613915565b611430929190612b8e565b5060008260405161144191906138a0565b908152602001604051809103902060000154600060018080805490506114679190613b53565b81548110611478576114776138b7565b5b9060005260206000200160405161148f91906139db565b908152602001604051809103902060000181905550600260016002805490506114b89190613b53565b815481106114c9576114c86138b7565b5b906000526020600020906008020160026000846040516114e991906138a0565b9081526020016040518091039020600001548154811061150c5761150b6138b7565b5b906000526020600020906008020160008201548160000155600182018160010190805461153890613915565b611543929190612c1b565b50600282018160020190805461155890613915565b611563929190612c1b565b506003820154816003015560048201548160040155600582015481600501556006820160009054906101000a900460ff168160060160006101000a81548160ff021916908360018111156115ba576115b9613005565b5b021790555060078201816007019080546115d390613915565b6115de929190612c1b565b509050506000826040516115f291906138a0565b908152602001604051809103902060000154600260008460405161161691906138a0565b90815260200160405180910390206000015481548110611639576116386138b7565b5b90600052602060002090600802016000018190555060028054806116605761165f613b87565b5b600190038181906000526020600020906008020160008082016000905560018201600061168d9190612ca8565b60028201600061169d9190612ca8565b6003820160009055600482016000905560058201600090556006820160006101000a81549060ff02191690556007820160006116d99190612ca8565b5050905560018054806116ef576116ee613b87565b5b60019003818190600052602060002001600061170b9190612ca8565b905560008260405161171d91906138a0565b90815260200160405180910390206000808201600090556001820160006117449190612ca8565b6002820160006117549190612ca8565b6003820160009055600482016000905560058201600090556006820160006101000a81549060ff02191690556007820160006117909190612ca8565b505060019050919050565b6000600660009054906101000a900473ffffffffffffffffffffffffffffffffffffffff1673ffffffffffffffffffffffffffffffffffffffff163373ffffffffffffffffffffffffffffffffffffffff16146117f757600080fd5b6118008a6101d8565b15611840576040517f08c379a000000000000000000000000000000000000000000000000000000000815260040161183790613c02565b60405180910390fd5b6118498b612a34565b15611889576040517f08c379a000000000000000000000000000000000000000000000000000000000815260040161188090613c02565b60405180910390fd5b6118928561297f565b156118d2576040517f08c379a00000000000000000000000000000000000000000000000000000000081526004016118c990613c02565b60405180910390fd5b8a60008b6040516118e391906138a0565b90815260200160405180910390206001019080519060200190611907929190612ce8565b508960008b60405161191991906138a0565b9081526020016040518091039020600201908051906020019061193d929190612ce8565b508860008b60405161194f91906138a0565b9081526020016040518091039020600301819055508760008b60405161197591906138a0565b9081526020016040518091039020600401819055508660008b60405161199b91906138a0565b9081526020016040518091039020600501819055508560008b6040516119c191906138a0565b908152602001604051809103902060060160006101000a81548160ff021916908360018111156119f4576119f3613005565b5b02179055508460008b604051611a0a91906138a0565b90815260200160405180910390206007019080519060200190611a2e929190612ce8565b5060018a908060018154018082558091505060019003906000526020600020016000909190919091509080519060200190611a6a929190612ce8565b5060018080549050611a7c9190613b53565b60008b604051611a8c91906138a0565b908152602001604051809103902060000181905550600260405180610100016040528060008d604051611abf91906138a0565b90815260200160405180910390206000015481526020018d81526020018c81526020018b81526020018a8152602001898152602001886001811115611b0757611b06613005565b5b8152602001878152509080600181540180825580915050600190039060005260206000209060080201600090919091909150600082015181600001556020820151816001019080519060200190611b5f929190612ce8565b506040820151816002019080519060200190611b7c929190612ce8565b50606082015181600301556080820151816004015560a0820151816005015560c08201518160060160006101000a81548160ff02191690836001811115611bc657611bc5613005565b5b021790555060e0820151816007019080519060200190611be7929190612ce8565b50505060006002811115611bfe57611bfd613005565b5b826002811115611c1157611c10613005565b5b1415611f85576003604051806040016040528060008d604051611c3491906138a0565b90815260200160405180910390206040518061010001604052908160008201548152602001600182018054611c6890613915565b80601f0160208091040260200160405190810160405280929190818152602001828054611c9490613915565b8015611ce15780601f10611cb657610100808354040283529160200191611ce1565b820191906000526020600020905b815481529060010190602001808311611cc457829003601f168201915b50505050508152602001600282018054611cfa90613915565b80601f0160208091040260200160405190810160405280929190818152602001828054611d2690613915565b8015611d735780601f10611d4857610100808354040283529160200191611d73565b820191906000526020600020905b815481529060010190602001808311611d5657829003601f168201915b505050505081526020016003820154815260200160048201548152602001600582015481526020016006820160009054906101000a900460ff166001811115611dbf57611dbe613005565b5b6001811115611dd157611dd0613005565b5b8152602001600782018054611de590613915565b80601f0160208091040260200160405190810160405280929190818152602001828054611e1190613915565b8015611e5e5780601f10611e3357610100808354040283529160200191611e5e565b820191906000526020600020905b815481529060010190602001808311611e4157829003601f168201915b505050505081525050815260200160008d604051611e7c91906138a0565b9081526020016040518091039020600001548152509080600181540180825580915050600190039060005260206000209060090201600090919091909150600082015181600001600082015181600001556020820151816001019080519060200190611ee9929190612ce8565b506040820151816002019080519060200190611f06929190612ce8565b50606082015181600301556080820151816004015560a0820151816005015560c08201518160060160006101000a81548160ff02191690836001811115611f5057611f4f613005565b5b021790555060e0820151816007019080519060200190611f71929190612ce8565b5050506020820151816008015550506126e4565b60016002811115611f9957611f98613005565b5b826002811115611fac57611fab613005565b5b1415612366576004604051806080016040528060008d604051611fcf91906138a0565b9081526020016040518091039020604051806101000160405290816000820154815260200160018201805461200390613915565b80601f016020809104026020016040519081016040528092919081815260200182805461202f90613915565b801561207c5780601f106120515761010080835404028352916020019161207c565b820191906000526020600020905b81548152906001019060200180831161205f57829003601f168201915b5050505050815260200160028201805461209590613915565b80601f01602080910402602001604051908101604052809291908181526020018280546120c190613915565b801561210e5780601f106120e35761010080835404028352916020019161210e565b820191906000526020600020905b8154815290600101906020018083116120f157829003601f168201915b505050505081526020016003820154815260200160048201548152602001600582015481526020016006820160009054906101000a900460ff16600181111561215a57612159613005565b5b600181111561216c5761216b613005565b5b815260200160078201805461218090613915565b80601f01602080910402602001604051908101604052809291908181526020018280546121ac90613915565b80156121f95780601f106121ce576101008083540402835291602001916121f9565b820191906000526020600020905b8154815290600101906020018083116121dc57829003601f168201915b505050505081525050815260200160008d60405161221791906138a0565b90815260200160405180910390206000015481526020018681526020018581525090806001815401808255809150506001900390600052602060002090600b0201600090919091909150600082015181600001600082015181600001556020820151816001019080519060200190612290929190612ce8565b5060408201518160020190805190602001906122ad929190612ce8565b50606082015181600301556080820151816004015560a0820151816005015560c08201518160060160006101000a81548160ff021916908360018111156122f7576122f6613005565b5b021790555060e0820151816007019080519060200190612318929190612ce8565b505050602082015181600801556040820151816009019080519060200190612341929190612ce8565b50606082015181600a01908051906020019061235e929190612ce8565b5050506126e3565b60028081111561237957612378613005565b5b82600281111561238c5761238b613005565b5b14156126e2576005604051806020016040528060008d6040516123af91906138a0565b908152602001604051809103902060405180610100016040529081600082015481526020016001820180546123e390613915565b80601f016020809104026020016040519081016040528092919081815260200182805461240f90613915565b801561245c5780601f106124315761010080835404028352916020019161245c565b820191906000526020600020905b81548152906001019060200180831161243f57829003601f168201915b5050505050815260200160028201805461247590613915565b80601f01602080910402602001604051908101604052809291908181526020018280546124a190613915565b80156124ee5780601f106124c3576101008083540402835291602001916124ee565b820191906000526020600020905b8154815290600101906020018083116124d157829003601f168201915b505050505081526020016003820154815260200160048201548152602001600582015481526020016006820160009054906101000a900460ff16600181111561253a57612539613005565b5b600181111561254c5761254b613005565b5b815260200160078201805461256090613915565b80601f016020809104026020016040519081016040528092919081815260200182805461258c90613915565b80156125d95780601f106125ae576101008083540402835291602001916125d9565b820191906000526020600020905b8154815290600101906020018083116125bc57829003601f168201915b505050505081525050815250908060018154018082558091505060019003906000526020600020906008020160009091909190915060008201518160000160008201518160000155602082015181600101908051906020019061263d929190612ce8565b50604082015181600201908051906020019061265a929190612ce8565b50606082015181600301556080820151816004015560a0820151816005015560c08201518160060160006101000a81548160ff021916908360018111156126a4576126a3613005565b5b021790555060e08201518160070190805190602001906126c5929190612ce8565b5050505050600180805490506126db9190613b53565b90506126f8565b5b5b600180805490506126f59190613b53565b90505b9a9950505050505050505050565b60606002805480602002602001604051908101604052809291908181526020016000905b828210156129765783829060005260206000209060080201604051806101000160405290816000820154815260200160018201805461276890613915565b80601f016020809104026020016040519081016040528092919081815260200182805461279490613915565b80156127e15780601f106127b6576101008083540402835291602001916127e1565b820191906000526020600020905b8154815290600101906020018083116127c457829003601f168201915b505050505081526020016002820180546127fa90613915565b80601f016020809104026020016040519081016040528092919081815260200182805461282690613915565b80156128735780601f1061284857610100808354040283529160200191612873565b820191906000526020600020905b81548152906001019060200180831161285657829003601f168201915b505050505081526020016003820154815260200160048201548152602001600582015481526020016006820160009054906101000a900460ff1660018111156128bf576128be613005565b5b60018111156128d1576128d0613005565b5b81526020016007820180546128e590613915565b80601f016020809104026020016040519081016040528092919081815260200182805461291190613915565b801561295e5780601f106129335761010080835404028352916020019161295e565b820191906000526020600020905b81548152906001019060200180831161294157829003601f168201915b5050505050815250508152602001906001019061272a565b50505050905090565b600080600090505b600280549050811015612a2957826040516020016129a591906138a0565b60405160208183030381529060405280519060200120600282815481106129cf576129ce6138b7565b5b90600052602060002090600802016007016040516020016129f091906139db565b604051602081830303815290604052805190602001201415612a16576001915050612a2f565b8080612a2190613a9e565b915050612987565b50600090505b919050565b600080600090505b600280549050811015612ade5782604051602001612a5a91906138a0565b6040516020818303038152906040528051906020012060028281548110612a8457612a836138b7565b5b9060005260206000209060080201600101604051602001612aa591906139db565b604051602081830303815290604052805190602001201415612acb576001915050612ae4565b8080612ad690613a9e565b915050612a3c565b50600090505b919050565b6040518060400160405280612afc612b37565b8152602001600081525090565b6040518060800160405280612b1c612b37565b81526020016000815260200160608152602001606081525090565b60405180610100016040528060008152602001606081526020016060815260200160008152602001600081526020016000815260200160006001811115612b8157612b80613005565b5b8152602001606081525090565b828054612b9a90613915565b90600052602060002090601f016020900481019282612bbc5760008555612c0a565b82601f10612bcd5780548555612c0a565b82800160010185558215612c0a57600052602060002091601f016020900482015b82811115612c09578254825591600101919060010190612bee565b5b509050612c179190612d6e565b5090565b828054612c2790613915565b90600052602060002090601f016020900481019282612c495760008555612c97565b82601f10612c5a5780548555612c97565b82800160010185558215612c9757600052602060002091601f016020900482015b82811115612c96578254825591600101919060010190612c7b565b5b509050612ca49190612d6e565b5090565b508054612cb490613915565b6000825580601f10612cc65750612ce5565b601f016020900490600052602060002090810190612ce49190612d6e565b5b50565b828054612cf490613915565b90600052602060002090601f016020900481019282612d165760008555612d5d565b82601f10612d2f57805160ff1916838001178555612d5d565b82800160010185558215612d5d579182015b82811115612d5c578251825591602001919060010190612d41565b5b509050612d6a9190612d6e565b5090565b5b80821115612d87576000816000905550600101612d6f565b5090565b6000604051905090565b600080fd5b600080fd5b600080fd5b600080fd5b6000601f19601f8301169050919050565b7f4e487b7100000000000000000000000000000000000000000000000000000000600052604160045260246000fd5b612df282612da9565b810181811067ffffffffffffffff82111715612e1157612e10612dba565b5b80604052505050565b6000612e24612d8b565b9050612e308282612de9565b919050565b600067ffffffffffffffff821115612e5057612e4f612dba565b5b612e5982612da9565b9050602081019050919050565b82818337600083830152505050565b6000612e88612e8384612e35565b612e1a565b905082815260208101848484011115612ea457612ea3612da4565b5b612eaf848285612e66565b509392505050565b600082601f830112612ecc57612ecb612d9f565b5b8135612edc848260208601612e75565b91505092915050565b600060208284031215612efb57612efa612d95565b5b600082013567ffffffffffffffff811115612f1957612f18612d9a565b5b612f2584828501612eb7565b91505092915050565b60008115159050919050565b612f4381612f2e565b82525050565b6000602082019050612f5e6000830184612f3a565b92915050565b6000819050919050565b612f7781612f64565b82525050565b600081519050919050565b600082825260208201905092915050565b60005b83811015612fb7578082015181840152602081019050612f9c565b83811115612fc6576000848401525b50505050565b6000612fd782612f7d565b612fe18185612f88565b9350612ff1818560208601612f99565b612ffa81612da9565b840191505092915050565b7f4e487b7100000000000000000000000000000000000000000000000000000000600052602160045260246000fd5b6002811061304557613044613005565b5b50565b600081905061305682613034565b919050565b600061306682613048565b9050919050565b6130768161305b565b82525050565b6000610100830160008301516130956000860182612f6e565b50602083015184820360208601526130ad8282612fcc565b915050604083015184820360408601526130c78282612fcc565b91505060608301516130dc6060860182612f6e565b5060808301516130ef6080860182612f6e565b5060a083015161310260a0860182612f6e565b5060c083015161311560c086018261306d565b5060e083015184820360e086015261312d8282612fcc565b9150508091505092915050565b60006040830160008301518482036000860152613157828261307c565b915050602083015161316c6020860182612f6e565b508091505092915050565b60006080830160008301518482036000860152613194828261307c565b91505060208301516131a96020860182612f6e565b50604083015184820360408601526131c18282612fcc565b915050606083015184820360608601526131db8282612fcc565b9150508091505092915050565b60006040820190508181036000830152613202818561313a565b905081810360208301526132168184613177565b90509392505050565b600081519050919050565b600082825260208201905092915050565b6000819050602082019050919050565b60006080830160008301518482036000860152613268828261307c565b915050602083015161327d6020860182612f6e565b50604083015184820360408601526132958282612fcc565b915050606083015184820360608601526132af8282612fcc565b9150508091505092915050565b60006132c8838361324b565b905092915050565b6000602082019050919050565b60006132e88261321f565b6132f2818561322a565b9350836020820285016133048561323b565b8060005b85811015613340578484038952815161332185826132bc565b945061332c836132d0565b925060208a01995050600181019050613308565b50829750879550505050505092915050565b6000602082019050818103600083015261336c81846132dd565b905092915050565b60006101008301600083015161338d6000860182612f6e565b50602083015184820360208601526133a58282612fcc565b915050604083015184820360408601526133bf8282612fcc565b91505060608301516133d46060860182612f6e565b5060808301516133e76080860182612f6e565b5060a08301516133fa60a0860182612f6e565b5060c083015161340d60c086018261306d565b5060e083015184820360e08601526134258282612fcc565b9150508091505092915050565b6000602082019050818103600083015261344c8184613374565b905092915050565b600081519050919050565b600082825260208201905092915050565b6000819050602082019050919050565b6000604083016000830151848203600086015261349d828261307c565b91505060208301516134b26020860182612f6e565b508091505092915050565b60006134c98383613480565b905092915050565b6000602082019050919050565b60006134e982613454565b6134f3818561345f565b93508360208202850161350585613470565b8060005b85811015613541578484038952815161352285826134bd565b945061352d836134d1565b925060208a01995050600181019050613509565b50829750879550505050505092915050565b6000602082019050818103600083015261356d81846134de565b905092915050565b61357e81612f64565b811461358957600080fd5b50565b60008135905061359b81613575565b92915050565b600281106135ae57600080fd5b50565b6000813590506135c0816135a1565b92915050565b600381106135d357600080fd5b50565b6000813590506135e5816135c6565b92915050565b6000806000806000806000806000806101408b8d03121561360f5761360e612d95565b5b60008b013567ffffffffffffffff81111561362d5761362c612d9a565b5b6136398d828e01612eb7565b9a505060208b013567ffffffffffffffff81111561365a57613659612d9a565b5b6136668d828e01612eb7565b99505060406136778d828e0161358c565b98505060606136888d828e0161358c565b97505060806136998d828e0161358c565b96505060a06136aa8d828e016135b1565b95505060c08b013567ffffffffffffffff8111156136cb576136ca612d9a565b5b6136d78d828e01612eb7565b94505060e08b013567ffffffffffffffff8111156136f8576136f7612d9a565b5b6137048d828e01612eb7565b9350506101008b013567ffffffffffffffff81111561372657613725612d9a565b5b6137328d828e01612eb7565b9250506101206137448d828e016135d6565b9150509295989b9194979a5092959850565b61375f81612f64565b82525050565b600060208201905061377a6000830184613756565b92915050565b600081519050919050565b600082825260208201905092915050565b6000819050602082019050919050565b60006137b8838361307c565b905092915050565b6000602082019050919050565b60006137d882613780565b6137e2818561378b565b9350836020820285016137f48561379c565b8060005b85811015613830578484038952815161381185826137ac565b945061381c836137c0565b925060208a019950506001810190506137f8565b50829750879550505050505092915050565b6000602082019050818103600083015261385c81846137cd565b905092915050565b600081905092915050565b600061387a82612f7d565b6138848185613864565b9350613894818560208601612f99565b80840191505092915050565b60006138ac828461386f565b915081905092915050565b7f4e487b7100000000000000000000000000000000000000000000000000000000600052603260045260246000fd5b7f4e487b7100000000000000000000000000000000000000000000000000000000600052602260045260246000fd5b6000600282049050600182168061392d57607f821691505b60208210811415613941576139406138e6565b5b50919050565b60008190508160005260206000209050919050565b6000815461396981613915565b6139738186613864565b9450600182166000811461398e576001811461399f576139d2565b60ff198316865281860193506139d2565b6139a885613947565b60005b838110156139ca578154818901526001820191506020810190506139ab565b838801955050505b50505092915050565b60006139e7828461395c565b915081905092915050565b600082825260208201905092915050565b7f5573657220446f6573206e6f7420657869737400000000000000000000000000600082015250565b6000613a396013836139f2565b9150613a4482613a03565b602082019050919050565b60006020820190508181036000830152613a6881613a2c565b9050919050565b7f4e487b7100000000000000000000000000000000000000000000000000000000600052601160045260246000fd5b6000613aa982612f64565b91507fffffffffffffffffffffffffffffffffffffffffffffffffffffffffffffffff821415613adc57613adb613a6f565b5b600182019050919050565b7f4e6f7420666f756e640000000000000000000000000000000000000000000000600082015250565b6000613b1d6009836139f2565b9150613b2882613ae7565b602082019050919050565b60006020820190508181036000830152613b4c81613b10565b9050919050565b6000613b5e82612f64565b9150613b6983612f64565b925082821015613b7c57613b7b613a6f565b5b828203905092915050565b7f4e487b7100000000000000000000000000000000000000000000000000000000600052603160045260246000fd5b7f5573657220416c72656164792045786973747300000000000000000000000000600082015250565b6000613bec6013836139f2565b9150613bf782613bb6565b602082019050919050565b60006020820190508181036000830152613c1b81613bdf565b905091905056fea2646970667358221220290c66eb2aafc8eea373a46d13f9860ffca34362a04d6ecc41c772d8fe2c5ee264736f6c634300080a0033",
  "immutableReferences": {},
  "source": "// SPDX-License-Identifier: MIT\npragma solidity ^0.8.9;\n\nimport \"./AAiTElection.sol\";\n\ncontract AAiTUser {\n    enum DEPTARTMENT_TYPE {\n        SITE,\n        ELEC\n    }\n    enum USER_TYPE {\n        VOTER,\n        CANDIDATE,\n        ADMIN\n    }\n    struct UserStruct {\n        uint256 index;\n        string studentId;\n        string fullName;\n        // string lName;\n        // string gName;\n        uint256 DOB;\n        uint256 currentYear;\n        uint256 currentSection;\n        DEPTARTMENT_TYPE currentDepartment;\n        string email;\n    }\n    struct VoterStruct {\n        UserStruct voterInfo;\n        uint256 vindex;\n        // string voterEmail;\n        // string voterPassword;\n        // address voterAddress;\n    }\n\n    struct CandidateStruct {\n        UserStruct candidateInfo;\n        uint256 vindex;\n        // string candidateEmail;\n        // string candidatePassword;\n        string candidateBio;\n        string candidateProfilePicture;\n        // address candidateAddress;\n    }\n    struct AdminStruct {\n        UserStruct adminInfo;\n    }\n\n    mapping(string => UserStruct) private userStructsMapping;\n    string[] private userIndex;\n    UserStruct[] private userValue;\n    VoterStruct[] private votersList;\n    CandidateStruct[] private candidatesList;\n    AdminStruct[] private adminList;\n    address private owner;\n\n    modifier onlyOwner() {\n        require(msg.sender == owner);\n        _;\n    }\n\n    constructor() {\n        owner = msg.sender;\n    }\n\n    function findUserByStudentId(string memory newStudentId)\n        internal\n        view\n        returns (bool)\n    {\n        for (uint256 i = 0; i < userValue.length; i++) {\n            if (\n                keccak256(abi.encodePacked(userValue[i].studentId)) ==\n                keccak256(abi.encodePacked(newStudentId))\n            ) {\n                return true;\n            }\n        }\n        return false;\n    }\n\n    // function findUserByFullName(string memory fullName)\n    //     internal\n    //     view\n    //     returns (\n    //         // string memory newlName,\n    //         // string memory newgName\n    //         bool\n    //     )\n    // {\n    //     for (uint256 i = 0; i < userValue.length; i++) {\n    //         if (\n    //             keccak256(abi.encodePacked(fullName)) ==\n    //             keccak256(abi.encodePacked(userValue[i].fullName))\n    //         ) {\n    //             return true;\n    //         }\n    //     }\n    //     return false;\n    // }\n\n    function findUserByEmail(string memory newEmail)\n        internal\n        view\n        returns (bool)\n    {\n        for (uint256 i = 0; i < userValue.length; i++) {\n            if (\n                keccak256(abi.encodePacked(userValue[i].email)) ==\n                keccak256(abi.encodePacked(newEmail))\n            ) {\n                return true;\n            }\n        }\n        return false;\n        // return isIndeed;\n    }\n\n    function isUser(\n        // string memory newfName,\n        // string memory newlName,\n        string memory fullName\n    ) public view returns (bool) {\n        if (userIndex.length == 0) return false;\n        return (keccak256(\n            abi.encodePacked(userIndex[userStructsMapping[fullName].index])\n        ) ==\n            keccak256(\n                abi.encodePacked(fullName)\n            ));\n    }\n\n    function insertUser(\n        string memory studentId,\n        // string memory fName,\n        // string memory lName,\n        string memory fullName,\n        uint256 DOB,\n        uint256 currentYear,\n        uint256 currentSection,\n        DEPTARTMENT_TYPE currentDepartment,\n        string memory email,\n        string memory profilePicture,\n        string memory bio,\n        USER_TYPE role\n    ) external onlyOwner returns (uint256 index) {\n        // require(msg.sender != owner, \"Permission Denied\");\n        require(!isUser(fullName), \"User Already Exists\");\n        require(!findUserByStudentId(studentId), \"User Already Exists\");\n        // require(\n        //     !findUserByFullName(fullName),\n        //     \"User Already Exists\"\n        // );\n        require(!findUserByEmail(email), \"User Already Exists\");\n\n        // string memory fullName = AAiTElectionLibrary.bytes32ToString(\n        //     keccak256(abi.encodePacked(fName, \" \", lName, \" \", gName))\n        // );\n\n        userStructsMapping[fullName].studentId = studentId;\n        userStructsMapping[fullName].fullName = fullName;\n        // userStructsMapping[fullName].lName = lName;\n        // userStructsMapping[fullName].gName = gName;\n        userStructsMapping[fullName].DOB = DOB;\n        userStructsMapping[fullName].currentYear = currentYear;\n        userStructsMapping[fullName].currentSection = currentSection;\n        userStructsMapping[fullName].currentDepartment = currentDepartment;\n        userStructsMapping[fullName].email = email;\n        userIndex.push(fullName);\n        userStructsMapping[fullName].index = userIndex.length - 1;\n        userValue.push(\n            UserStruct(\n                userStructsMapping[fullName].index,\n                studentId,\n                fullName,\n                // lName,\n                // gName,\n                DOB,\n                currentYear,\n                currentSection,\n                currentDepartment,\n                email\n            )\n        );\n        if (role == USER_TYPE.VOTER) {\n            votersList.push(\n                VoterStruct(\n                    userStructsMapping[fullName],\n                    userStructsMapping[fullName].index\n                )\n            );\n        } else if (role == USER_TYPE.CANDIDATE) {\n            candidatesList.push(\n                CandidateStruct(\n                    userStructsMapping[fullName],\n                    userStructsMapping[fullName].index,\n                    profilePicture,\n                    bio\n                )\n            );\n        } else if (role == USER_TYPE.ADMIN) {\n            adminList.push(AdminStruct(userStructsMapping[fullName]));\n            return userIndex.length - 1;\n        }\n        // emit LogNewUser(\n        //     userStructsMapping[fullName].index,\n        //     studentId,\n        //     fName,\n        //     lName,\n        //     gName,\n        //     DOB,\n        //     currentYear,\n        //     currentSection,\n        //     currentDepartment\n        // );\n        return userIndex.length - 1;\n    }\n\n    function getUser(\n        // string memory fName,\n        // string memory lName,\n        string memory fullName\n    ) external view returns (UserStruct memory) {\n        // if (!isUser(userAddress)) throw;\n        require(isUser(fullName), \"User Does not exist\");\n        // string memory fullName = AAiTElectionLibrary.bytes32ToString(\n        //     keccak256(abi.encodePacked(fName, \" \", lName, \" \", gName))\n        // );\n\n        return (userStructsMapping[fullName]);\n    }\n\n    function getAllUsers() external view returns (UserStruct[] memory) {\n        return userValue;\n    }\n\n    function removeUser(\n        // string memory fName,\n        // string memory lName,\n        string memory fullName\n    ) external returns (bool success) {\n        require(isUser(fullName), \"User Does not exist\");\n        // string memory fullName = AAiTElectionLibrary.bytes32ToString(\n        //     keccak256(abi.encodePacked(fName, \" \", lName, \" \", gName))\n        // );\n        // Candidate deployedCandidate = Candidate(candidateContractAddress);\n        // Voter deployedVoter = Voter(voterContractAddress);\n\n        // if (isVoter(userAddress)) {\n        //     removeVoter(userAddress);\n        // }\n        // if (isCandidate(userAddress)) {\n        //     removeCandidate(userAddress);\n        // }\n\n        userIndex[userStructsMapping[fullName].index] = userIndex[\n            userIndex.length - 1\n        ];\n        userStructsMapping[userIndex[userIndex.length - 1]]\n            .index = userStructsMapping[fullName].index;\n\n        userValue[userStructsMapping[fullName].index] = userValue[\n            userValue.length - 1\n        ];\n        userValue[userStructsMapping[fullName].index]\n            .index = userStructsMapping[fullName].index;\n        userValue.pop();\n        userIndex.pop();\n        delete userStructsMapping[fullName];\n\n        return true;\n    }\n\n    function getAllVoters() external view returns (VoterStruct[] memory) {\n        return votersList;\n    }\n\n    function getAllCandidates()\n        external\n        view\n        returns (CandidateStruct[] memory)\n    {\n        return candidatesList;\n    }\n\n    function getUserByEmail(string memory email)\n        external\n        view\n        returns (VoterStruct memory zvoter, CandidateStruct memory zcandidate)\n    {\n        require(findUserByEmail(email), \"User Does not exist\");\n        for (uint256 i = 0; i < votersList.length; i++) {\n            if (\n                keccak256(abi.encodePacked(votersList[i].voterInfo.email)) ==\n                keccak256(abi.encodePacked(email))\n            ) {\n                CandidateStruct memory emptyCandidate;\n                return (votersList[i], emptyCandidate);\n            }\n        }\n        for (uint256 i = 0; i < candidatesList.length; i++) {\n            if (\n                keccak256(\n                    abi.encodePacked(candidatesList[i].candidateInfo.email)\n                ) == keccak256(abi.encodePacked(email))\n            ) {\n                VoterStruct memory emptyVoter;\n                return (emptyVoter, candidatesList[i]);\n            }\n        }\n        revert(\"Not found\");\n    }\n}\n",
  "sourcePath": "/home/dannyterefe/Documents/VSCode_Projects/Final_Project/blockchain_based_voting_system/dvbst_smart_contracts/contracts/AAiTUser.sol",
  "compiler": {
    "name": "solc",
    "version": "0.8.10+commit.fc410830.Emscripten.clang"
  },
  "schemaVersion": "3.4.4",
  "updatedAt": "2022-05-25T12:52:35.579Z",
  "networkType": "ethereum",
  "devdoc": {
    "kind": "dev",
    "methods": {},
    "version": 1
  },
  "userdoc": {
    "kind": "user",
    "methods": {},
    "version": 1
  }
}