{
  "contractName": "AAiTUser",
  "abi": [
    {
      "inputs": [],
      "stateMutability": "nonpayable",
      "type": "constructor"
    },
    {
      "inputs": [
        {
          "internalType": "string",
          "name": "newfName",
          "type": "string"
        },
        {
          "internalType": "string",
          "name": "newlName",
          "type": "string"
        },
        {
          "internalType": "string",
          "name": "newgName",
          "type": "string"
        }
      ],
      "name": "isUser",
      "outputs": [
        {
          "internalType": "bool",
          "name": "",
          "type": "bool"
        }
      ],
      "stateMutability": "view",
      "type": "function",
      "constant": true
    },
    {
      "inputs": [
        {
          "internalType": "string",
          "name": "studentId",
          "type": "string"
        },
        {
          "internalType": "string",
          "name": "fName",
          "type": "string"
        },
        {
          "internalType": "string",
          "name": "lName",
          "type": "string"
        },
        {
          "internalType": "string",
          "name": "gName",
          "type": "string"
        },
        {
          "internalType": "uint256",
          "name": "DOB",
          "type": "uint256"
        },
        {
          "internalType": "uint256",
          "name": "currentYear",
          "type": "uint256"
        },
        {
          "internalType": "uint256",
          "name": "currentSection",
          "type": "uint256"
        },
        {
          "internalType": "enum AAiTUser.DEPTARTMENT_TYPE",
          "name": "currentDepartment",
          "type": "uint8"
        },
        {
          "internalType": "string",
          "name": "email",
          "type": "string"
        },
        {
          "internalType": "string",
          "name": "profilePicture",
          "type": "string"
        },
        {
          "internalType": "string",
          "name": "bio",
          "type": "string"
        }
      ],
      "name": "insertUser",
      "outputs": [
        {
          "internalType": "uint256",
          "name": "index",
          "type": "uint256"
        }
      ],
      "stateMutability": "nonpayable",
      "type": "function"
    },
    {
      "inputs": [
        {
          "internalType": "string",
          "name": "fName",
          "type": "string"
        },
        {
          "internalType": "string",
          "name": "lName",
          "type": "string"
        },
        {
          "internalType": "string",
          "name": "gName",
          "type": "string"
        }
      ],
      "name": "getUser",
      "outputs": [
        {
          "components": [
            {
              "internalType": "uint256",
              "name": "index",
              "type": "uint256"
            },
            {
              "internalType": "string",
              "name": "studentId",
              "type": "string"
            },
            {
              "internalType": "string",
              "name": "fName",
              "type": "string"
            },
            {
              "internalType": "string",
              "name": "lName",
              "type": "string"
            },
            {
              "internalType": "string",
              "name": "gName",
              "type": "string"
            },
            {
              "internalType": "uint256",
              "name": "DOB",
              "type": "uint256"
            },
            {
              "internalType": "uint256",
              "name": "currentYear",
              "type": "uint256"
            },
            {
              "internalType": "uint256",
              "name": "currentSection",
              "type": "uint256"
            },
            {
              "internalType": "enum AAiTUser.DEPTARTMENT_TYPE",
              "name": "currentDepartment",
              "type": "uint8"
            },
            {
              "internalType": "string",
              "name": "email",
              "type": "string"
            }
          ],
          "internalType": "struct AAiTUser.UserStruct",
          "name": "",
          "type": "tuple"
        }
      ],
      "stateMutability": "view",
      "type": "function",
      "constant": true
    },
    {
      "inputs": [],
      "name": "getAllUsers",
      "outputs": [
        {
          "components": [
            {
              "internalType": "uint256",
              "name": "index",
              "type": "uint256"
            },
            {
              "internalType": "string",
              "name": "studentId",
              "type": "string"
            },
            {
              "internalType": "string",
              "name": "fName",
              "type": "string"
            },
            {
              "internalType": "string",
              "name": "lName",
              "type": "string"
            },
            {
              "internalType": "string",
              "name": "gName",
              "type": "string"
            },
            {
              "internalType": "uint256",
              "name": "DOB",
              "type": "uint256"
            },
            {
              "internalType": "uint256",
              "name": "currentYear",
              "type": "uint256"
            },
            {
              "internalType": "uint256",
              "name": "currentSection",
              "type": "uint256"
            },
            {
              "internalType": "enum AAiTUser.DEPTARTMENT_TYPE",
              "name": "currentDepartment",
              "type": "uint8"
            },
            {
              "internalType": "string",
              "name": "email",
              "type": "string"
            }
          ],
          "internalType": "struct AAiTUser.UserStruct[]",
          "name": "",
          "type": "tuple[]"
        }
      ],
      "stateMutability": "view",
      "type": "function",
      "constant": true
    },
    {
      "inputs": [
        {
          "internalType": "string",
          "name": "fName",
          "type": "string"
        },
        {
          "internalType": "string",
          "name": "lName",
          "type": "string"
        },
        {
          "internalType": "string",
          "name": "gName",
          "type": "string"
        }
      ],
      "name": "removeUser",
      "outputs": [
        {
          "internalType": "bool",
          "name": "success",
          "type": "bool"
        }
      ],
      "stateMutability": "nonpayable",
      "type": "function"
    },
    {
      "inputs": [],
      "name": "getAllVoters",
      "outputs": [
        {
          "components": [
            {
              "components": [
                {
                  "internalType": "uint256",
                  "name": "index",
                  "type": "uint256"
                },
                {
                  "internalType": "string",
                  "name": "studentId",
                  "type": "string"
                },
                {
                  "internalType": "string",
                  "name": "fName",
                  "type": "string"
                },
                {
                  "internalType": "string",
                  "name": "lName",
                  "type": "string"
                },
                {
                  "internalType": "string",
                  "name": "gName",
                  "type": "string"
                },
                {
                  "internalType": "uint256",
                  "name": "DOB",
                  "type": "uint256"
                },
                {
                  "internalType": "uint256",
                  "name": "currentYear",
                  "type": "uint256"
                },
                {
                  "internalType": "uint256",
                  "name": "currentSection",
                  "type": "uint256"
                },
                {
                  "internalType": "enum AAiTUser.DEPTARTMENT_TYPE",
                  "name": "currentDepartment",
                  "type": "uint8"
                },
                {
                  "internalType": "string",
                  "name": "email",
                  "type": "string"
                }
              ],
              "internalType": "struct AAiTUser.UserStruct",
              "name": "voterInfo",
              "type": "tuple"
            },
            {
              "internalType": "uint256",
              "name": "vindex",
              "type": "uint256"
            }
          ],
          "internalType": "struct AAiTUser.VoterStruct[]",
          "name": "",
          "type": "tuple[]"
        }
      ],
      "stateMutability": "view",
      "type": "function",
      "constant": true
    },
    {
      "inputs": [],
      "name": "getAllCandidates",
      "outputs": [
        {
          "components": [
            {
              "components": [
                {
                  "internalType": "uint256",
                  "name": "index",
                  "type": "uint256"
                },
                {
                  "internalType": "string",
                  "name": "studentId",
                  "type": "string"
                },
                {
                  "internalType": "string",
                  "name": "fName",
                  "type": "string"
                },
                {
                  "internalType": "string",
                  "name": "lName",
                  "type": "string"
                },
                {
                  "internalType": "string",
                  "name": "gName",
                  "type": "string"
                },
                {
                  "internalType": "uint256",
                  "name": "DOB",
                  "type": "uint256"
                },
                {
                  "internalType": "uint256",
                  "name": "currentYear",
                  "type": "uint256"
                },
                {
                  "internalType": "uint256",
                  "name": "currentSection",
                  "type": "uint256"
                },
                {
                  "internalType": "enum AAiTUser.DEPTARTMENT_TYPE",
                  "name": "currentDepartment",
                  "type": "uint8"
                },
                {
                  "internalType": "string",
                  "name": "email",
                  "type": "string"
                }
              ],
              "internalType": "struct AAiTUser.UserStruct",
              "name": "candidateInfo",
              "type": "tuple"
            },
            {
              "internalType": "uint256",
              "name": "vindex",
              "type": "uint256"
            },
            {
              "internalType": "string",
              "name": "candidateBio",
              "type": "string"
            },
            {
              "internalType": "string",
              "name": "candidateProfilePicture",
              "type": "string"
            }
          ],
          "internalType": "struct AAiTUser.CandidateStruct[]",
          "name": "",
          "type": "tuple[]"
        }
      ],
      "stateMutability": "view",
      "type": "function",
      "constant": true
    },
    {
      "inputs": [
        {
          "internalType": "string",
          "name": "email",
          "type": "string"
        }
      ],
      "name": "getUserByEmail",
      "outputs": [
        {
          "components": [
            {
              "components": [
                {
                  "internalType": "uint256",
                  "name": "index",
                  "type": "uint256"
                },
                {
                  "internalType": "string",
                  "name": "studentId",
                  "type": "string"
                },
                {
                  "internalType": "string",
                  "name": "fName",
                  "type": "string"
                },
                {
                  "internalType": "string",
                  "name": "lName",
                  "type": "string"
                },
                {
                  "internalType": "string",
                  "name": "gName",
                  "type": "string"
                },
                {
                  "internalType": "uint256",
                  "name": "DOB",
                  "type": "uint256"
                },
                {
                  "internalType": "uint256",
                  "name": "currentYear",
                  "type": "uint256"
                },
                {
                  "internalType": "uint256",
                  "name": "currentSection",
                  "type": "uint256"
                },
                {
                  "internalType": "enum AAiTUser.DEPTARTMENT_TYPE",
                  "name": "currentDepartment",
                  "type": "uint8"
                },
                {
                  "internalType": "string",
                  "name": "email",
                  "type": "string"
                }
              ],
              "internalType": "struct AAiTUser.UserStruct",
              "name": "voterInfo",
              "type": "tuple"
            },
            {
              "internalType": "uint256",
              "name": "vindex",
              "type": "uint256"
            }
          ],
          "internalType": "struct AAiTUser.VoterStruct",
          "name": "zvoter",
          "type": "tuple"
        },
        {
          "components": [
            {
              "components": [
                {
                  "internalType": "uint256",
                  "name": "index",
                  "type": "uint256"
                },
                {
                  "internalType": "string",
                  "name": "studentId",
                  "type": "string"
                },
                {
                  "internalType": "string",
                  "name": "fName",
                  "type": "string"
                },
                {
                  "internalType": "string",
                  "name": "lName",
                  "type": "string"
                },
                {
                  "internalType": "string",
                  "name": "gName",
                  "type": "string"
                },
                {
                  "internalType": "uint256",
                  "name": "DOB",
                  "type": "uint256"
                },
                {
                  "internalType": "uint256",
                  "name": "currentYear",
                  "type": "uint256"
                },
                {
                  "internalType": "uint256",
                  "name": "currentSection",
                  "type": "uint256"
                },
                {
                  "internalType": "enum AAiTUser.DEPTARTMENT_TYPE",
                  "name": "currentDepartment",
                  "type": "uint8"
                },
                {
                  "internalType": "string",
                  "name": "email",
                  "type": "string"
                }
              ],
              "internalType": "struct AAiTUser.UserStruct",
              "name": "candidateInfo",
              "type": "tuple"
            },
            {
              "internalType": "uint256",
              "name": "vindex",
              "type": "uint256"
            },
            {
              "internalType": "string",
              "name": "candidateBio",
              "type": "string"
            },
            {
              "internalType": "string",
              "name": "candidateProfilePicture",
              "type": "string"
            }
          ],
          "internalType": "struct AAiTUser.CandidateStruct",
          "name": "zcandidate",
          "type": "tuple"
        }
      ],
      "stateMutability": "view",
      "type": "function",
      "constant": true
    }
  ],
  "bytecode": "0x608060405234801561001057600080fd5b5033600560006101000a81548173ffffffffffffffffffffffffffffffffffffffff021916908373ffffffffffffffffffffffffffffffffffffffff160217905550614b27806100616000396000f3fe608060405234801561001057600080fd5b50600436106100885760003560e01c80637e0a49211161005b5780637e0a49211461012a578063885b7f891461015a578063ca8f69f21461018a578063e2842d79146101ba57610088565b806318046ae11461008d5780632e6997fe146100be57806335bbe70e146100dc57806343f95102146100fa575b600080fd5b6100a760048036038101906100a29190613b29565b6101d8565b6040516100b5929190613e2e565b60405180910390f35b6100c6610c12565b6040516100d39190613f98565b60405180910390f35b6100e46110f1565b6040516100f191906140b9565b60405180910390f35b610114600480360381019061010f919061412c565b6114ac565b60405161012191906142f3565b60405180910390f35b610144600480360381019061013f919061430e565b6125a3565b60405161015191906143d0565b60405180910390f35b610174600480360381019061016f919061430e565b612a97565b60405161018191906144e1565b60405180910390f35b6101a4600480360381019061019f919061430e565b612e91565b6040516101b191906143d0565b60405180910390f35b6101c2612f76565b6040516101cf91906145c5565b60405180910390f35b6101e061371f565b6101e861373f565b6101f183613313565b610230576040517f08c379a000000000000000000000000000000000000000000000000000000000815260040161022790614644565b60405180910390fd5b60005b60038054905081101561066e578360405160200161025191906146a0565b604051602081830303815290604052805190602001206003828154811061027b5761027a6146b7565b5b90600052602060002090600b020160000160090160405160200161029f91906147db565b60405160208183030381529060405280519060200120141561065b576102c361373f565b600382815481106102d7576102d66146b7565b5b90600052602060002090600b0201818160405180604001604052908160008201604051806101400160405290816000820154815260200160018201805461031d90614715565b80601f016020809104026020016040519081016040528092919081815260200182805461034990614715565b80156103965780601f1061036b57610100808354040283529160200191610396565b820191906000526020600020905b81548152906001019060200180831161037957829003601f168201915b505050505081526020016002820180546103af90614715565b80601f01602080910402602001604051908101604052809291908181526020018280546103db90614715565b80156104285780601f106103fd57610100808354040283529160200191610428565b820191906000526020600020905b81548152906001019060200180831161040b57829003601f168201915b5050505050815260200160038201805461044190614715565b80601f016020809104026020016040519081016040528092919081815260200182805461046d90614715565b80156104ba5780601f1061048f576101008083540402835291602001916104ba565b820191906000526020600020905b81548152906001019060200180831161049d57829003601f168201915b505050505081526020016004820180546104d390614715565b80601f01602080910402602001604051908101604052809291908181526020018280546104ff90614715565b801561054c5780601f106105215761010080835404028352916020019161054c565b820191906000526020600020905b81548152906001019060200180831161052f57829003601f168201915b505050505081526020016005820154815260200160068201548152602001600782015481526020016008820160009054906101000a900460ff16600181111561059857610597613c13565b5b60018111156105aa576105a9613c13565b5b81526020016009820180546105be90614715565b80601f01602080910402602001604051908101604052809291908181526020018280546105ea90614715565b80156106375780601f1061060c57610100808354040283529160200191610637565b820191906000526020600020905b81548152906001019060200180831161061a57829003601f168201915b5050505050815250508152602001600a820154815250509150935093505050610c0d565b808061066690614821565b915050610233565b5060005b600480549050811015610bd1578360405160200161069091906146a0565b60405160208183030381529060405280519060200120600482815481106106ba576106b96146b7565b5b90600052602060002090600d02016000016009016040516020016106de91906147db565b604051602081830303815290604052805190602001201415610bbe5761070261371f565b8060048381548110610717576107166146b7565b5b90600052602060002090600d02018060405180608001604052908160008201604051806101400160405290816000820154815260200160018201805461075c90614715565b80601f016020809104026020016040519081016040528092919081815260200182805461078890614715565b80156107d55780601f106107aa576101008083540402835291602001916107d5565b820191906000526020600020905b8154815290600101906020018083116107b857829003601f168201915b505050505081526020016002820180546107ee90614715565b80601f016020809104026020016040519081016040528092919081815260200182805461081a90614715565b80156108675780601f1061083c57610100808354040283529160200191610867565b820191906000526020600020905b81548152906001019060200180831161084a57829003601f168201915b5050505050815260200160038201805461088090614715565b80601f01602080910402602001604051908101604052809291908181526020018280546108ac90614715565b80156108f95780601f106108ce576101008083540402835291602001916108f9565b820191906000526020600020905b8154815290600101906020018083116108dc57829003601f168201915b5050505050815260200160048201805461091290614715565b80601f016020809104026020016040519081016040528092919081815260200182805461093e90614715565b801561098b5780601f106109605761010080835404028352916020019161098b565b820191906000526020600020905b81548152906001019060200180831161096e57829003601f168201915b505050505081526020016005820154815260200160068201548152602001600782015481526020016008820160009054906101000a900460ff1660018111156109d7576109d6613c13565b5b60018111156109e9576109e8613c13565b5b81526020016009820180546109fd90614715565b80601f0160208091040260200160405190810160405280929190818152602001828054610a2990614715565b8015610a765780601f10610a4b57610100808354040283529160200191610a76565b820191906000526020600020905b815481529060010190602001808311610a5957829003601f168201915b5050505050815250508152602001600a8201548152602001600b82018054610a9d90614715565b80601f0160208091040260200160405190810160405280929190818152602001828054610ac990614715565b8015610b165780601f10610aeb57610100808354040283529160200191610b16565b820191906000526020600020905b815481529060010190602001808311610af957829003601f168201915b50505050508152602001600c82018054610b2f90614715565b80601f0160208091040260200160405190810160405280929190818152602001828054610b5b90614715565b8015610ba85780601f10610b7d57610100808354040283529160200191610ba8565b820191906000526020600020905b815481529060010190602001808311610b8b57829003601f168201915b5050505050815250509050935093505050610c0d565b8080610bc990614821565b915050610672565b506040517f08c379a0000000000000000000000000000000000000000000000000000000008152600401610c04906148b6565b60405180910390fd5b915091565b60606004805480602002602001604051908101604052809291908181526020016000905b828210156110e857838290600052602060002090600d0201604051806080016040529081600082016040518061014001604052908160008201548152602001600182018054610c8490614715565b80601f0160208091040260200160405190810160405280929190818152602001828054610cb090614715565b8015610cfd5780601f10610cd257610100808354040283529160200191610cfd565b820191906000526020600020905b815481529060010190602001808311610ce057829003601f168201915b50505050508152602001600282018054610d1690614715565b80601f0160208091040260200160405190810160405280929190818152602001828054610d4290614715565b8015610d8f5780601f10610d6457610100808354040283529160200191610d8f565b820191906000526020600020905b815481529060010190602001808311610d7257829003601f168201915b50505050508152602001600382018054610da890614715565b80601f0160208091040260200160405190810160405280929190818152602001828054610dd490614715565b8015610e215780601f10610df657610100808354040283529160200191610e21565b820191906000526020600020905b815481529060010190602001808311610e0457829003601f168201915b50505050508152602001600482018054610e3a90614715565b80601f0160208091040260200160405190810160405280929190818152602001828054610e6690614715565b8015610eb35780601f10610e8857610100808354040283529160200191610eb3565b820191906000526020600020905b815481529060010190602001808311610e9657829003601f168201915b505050505081526020016005820154815260200160068201548152602001600782015481526020016008820160009054906101000a900460ff166001811115610eff57610efe613c13565b5b6001811115610f1157610f10613c13565b5b8152602001600982018054610f2590614715565b80601f0160208091040260200160405190810160405280929190818152602001828054610f5190614715565b8015610f9e5780601f10610f7357610100808354040283529160200191610f9e565b820191906000526020600020905b815481529060010190602001808311610f8157829003601f168201915b5050505050815250508152602001600a8201548152602001600b82018054610fc590614715565b80601f0160208091040260200160405190810160405280929190818152602001828054610ff190614715565b801561103e5780601f106110135761010080835404028352916020019161103e565b820191906000526020600020905b81548152906001019060200180831161102157829003601f168201915b50505050508152602001600c8201805461105790614715565b80601f016020809104026020016040519081016040528092919081815260200182805461108390614715565b80156110d05780601f106110a5576101008083540402835291602001916110d0565b820191906000526020600020905b8154815290600101906020018083116110b357829003601f168201915b50505050508152505081526020019060010190610c36565b50505050905090565b60606003805480602002602001604051908101604052809291908181526020016000905b828210156114a357838290600052602060002090600b020160405180604001604052908160008201604051806101400160405290816000820154815260200160018201805461116390614715565b80601f016020809104026020016040519081016040528092919081815260200182805461118f90614715565b80156111dc5780601f106111b1576101008083540402835291602001916111dc565b820191906000526020600020905b8154815290600101906020018083116111bf57829003601f168201915b505050505081526020016002820180546111f590614715565b80601f016020809104026020016040519081016040528092919081815260200182805461122190614715565b801561126e5780601f106112435761010080835404028352916020019161126e565b820191906000526020600020905b81548152906001019060200180831161125157829003601f168201915b5050505050815260200160038201805461128790614715565b80601f01602080910402602001604051908101604052809291908181526020018280546112b390614715565b80156113005780601f106112d557610100808354040283529160200191611300565b820191906000526020600020905b8154815290600101906020018083116112e357829003601f168201915b5050505050815260200160048201805461131990614715565b80601f016020809104026020016040519081016040528092919081815260200182805461134590614715565b80156113925780601f1061136757610100808354040283529160200191611392565b820191906000526020600020905b81548152906001019060200180831161137557829003601f168201915b505050505081526020016005820154815260200160068201548152602001600782015481526020016008820160009054906101000a900460ff1660018111156113de576113dd613c13565b5b60018111156113f0576113ef613c13565b5b815260200160098201805461140490614715565b80601f016020809104026020016040519081016040528092919081815260200182805461143090614715565b801561147d5780601f106114525761010080835404028352916020019161147d565b820191906000526020600020905b81548152906001019060200180831161146057829003601f168201915b5050505050815250508152602001600a8201548152505081526020019060010190611115565b50505050905090565b6000600560009054906101000a900473ffffffffffffffffffffffffffffffffffffffff1673ffffffffffffffffffffffffffffffffffffffff163373ffffffffffffffffffffffffffffffffffffffff161461150857600080fd5b6115138b8b8b612e91565b15611553576040517f08c379a000000000000000000000000000000000000000000000000000000000815260040161154a90614922565b60405180910390fd5b61155c8c6133c8565b1561159c576040517f08c379a000000000000000000000000000000000000000000000000000000000815260040161159390614922565b60405180910390fd5b6115a78b8b8b61347d565b156115e7576040517f08c379a00000000000000000000000000000000000000000000000000000000081526004016115de90614922565b60405180910390fd5b6115f084613313565b15611630576040517f08c379a000000000000000000000000000000000000000000000000000000000815260040161162790614922565b60405180910390fd5b60006116658c8c8c60405160200161164a9392919061498e565b60405160208183030381529060405280519060200120613584565b90508c60008260405161167891906146a0565b9081526020016040518091039020600101908051906020019061169c92919061376d565b508b6000826040516116ae91906146a0565b908152602001604051809103902060020190805190602001906116d292919061376d565b508a6000826040516116e491906146a0565b9081526020016040518091039020600301908051906020019061170892919061376d565b508960008260405161171a91906146a0565b9081526020016040518091039020600401908051906020019061173e92919061376d565b508860008260405161175091906146a0565b9081526020016040518091039020600501819055508760008260405161177691906146a0565b9081526020016040518091039020600601819055508660008260405161179c91906146a0565b908152602001604051809103902060070181905550856000826040516117c291906146a0565b908152602001604051809103902060080160006101000a81548160ff021916908360018111156117f5576117f4613c13565b5b02179055508460008260405161180b91906146a0565b9081526020016040518091039020600901908051906020019061182f92919061376d565b5060018190806001815401808255809150506001900390600052602060002001600090919091909150908051906020019061186b92919061376d565b506001808054905061187d91906149d5565b60008260405161188d91906146a0565b90815260200160405180910390206000018190555060026040518061014001604052806000846040516118c091906146a0565b90815260200160405180910390206000015481526020018f81526020018e81526020018d81526020018c81526020018b81526020018a815260200189815260200188600181111561191457611913613c13565b5b81526020018781525090806001815401808255809150506001900390600052602060002090600a020160009091909190915060008201518160000155602082015181600101908051906020019061196c92919061376d565b50604082015181600201908051906020019061198992919061376d565b5060608201518160030190805190602001906119a692919061376d565b5060808201518160040190805190602001906119c392919061376d565b5060a0820151816005015560c0820151816006015560e082015181600701556101008201518160080160006101000a81548160ff02191690836001811115611a0e57611a0d613c13565b5b0217905550610120820151816009019080519060200190611a3092919061376d565b505050604051602001611a4290614a2f565b6040516020818303038152906040528051906020012084604051602001611a6991906146a0565b60405160208183030381529060405280519060200120148015611ad55750604051602001611a9690614a2f565b6040516020818303038152906040528051906020012083604051602001611abd91906146a0565b60405160208183030381529060405280519060200120145b15611fa85760036040518060400160405280600084604051611af791906146a0565b90815260200160405180910390206040518061014001604052908160008201548152602001600182018054611b2b90614715565b80601f0160208091040260200160405190810160405280929190818152602001828054611b5790614715565b8015611ba45780601f10611b7957610100808354040283529160200191611ba4565b820191906000526020600020905b815481529060010190602001808311611b8757829003601f168201915b50505050508152602001600282018054611bbd90614715565b80601f0160208091040260200160405190810160405280929190818152602001828054611be990614715565b8015611c365780601f10611c0b57610100808354040283529160200191611c36565b820191906000526020600020905b815481529060010190602001808311611c1957829003601f168201915b50505050508152602001600382018054611c4f90614715565b80601f0160208091040260200160405190810160405280929190818152602001828054611c7b90614715565b8015611cc85780601f10611c9d57610100808354040283529160200191611cc8565b820191906000526020600020905b815481529060010190602001808311611cab57829003601f168201915b50505050508152602001600482018054611ce190614715565b80601f0160208091040260200160405190810160405280929190818152602001828054611d0d90614715565b8015611d5a5780601f10611d2f57610100808354040283529160200191611d5a565b820191906000526020600020905b815481529060010190602001808311611d3d57829003601f168201915b505050505081526020016005820154815260200160068201548152602001600782015481526020016008820160009054906101000a900460ff166001811115611da657611da5613c13565b5b6001811115611db857611db7613c13565b5b8152602001600982018054611dcc90614715565b80601f0160208091040260200160405190810160405280929190818152602001828054611df890614715565b8015611e455780601f10611e1a57610100808354040283529160200191611e45565b820191906000526020600020905b815481529060010190602001808311611e2857829003601f168201915b5050505050815250508152602001600084604051611e6391906146a0565b90815260200160405180910390206000015481525090806001815401808255809150506001900390600052602060002090600b0201600090919091909150600082015181600001600082015181600001556020820151816001019080519060200190611ed092919061376d565b506040820151816002019080519060200190611eed92919061376d565b506060820151816003019080519060200190611f0a92919061376d565b506080820151816004019080519060200190611f2792919061376d565b5060a0820151816005015560c0820151816006015560e082015181600701556101008201518160080160006101000a81548160ff02191690836001811115611f7257611f71613c13565b5b0217905550610120820151816009019080519060200190611f9492919061376d565b505050602082015181600a0155505061257f565b604051602001611fb790614a2f565b6040516020818303038152906040528051906020012083604051602001611fde91906146a0565b604051602081830303815290604052805190602001201415801561204c575060405160200161200c90614a2f565b604051602081830303815290604052805190602001208460405160200161203391906146a0565b6040516020818303038152906040528051906020012014155b15612565576004604051806080016040528060008460405161206e91906146a0565b908152602001604051809103902060405180610140016040529081600082015481526020016001820180546120a290614715565b80601f01602080910402602001604051908101604052809291908181526020018280546120ce90614715565b801561211b5780601f106120f05761010080835404028352916020019161211b565b820191906000526020600020905b8154815290600101906020018083116120fe57829003601f168201915b5050505050815260200160028201805461213490614715565b80601f016020809104026020016040519081016040528092919081815260200182805461216090614715565b80156121ad5780601f10612182576101008083540402835291602001916121ad565b820191906000526020600020905b81548152906001019060200180831161219057829003601f168201915b505050505081526020016003820180546121c690614715565b80601f01602080910402602001604051908101604052809291908181526020018280546121f290614715565b801561223f5780601f106122145761010080835404028352916020019161223f565b820191906000526020600020905b81548152906001019060200180831161222257829003601f168201915b5050505050815260200160048201805461225890614715565b80601f016020809104026020016040519081016040528092919081815260200182805461228490614715565b80156122d15780601f106122a6576101008083540402835291602001916122d1565b820191906000526020600020905b8154815290600101906020018083116122b457829003601f168201915b505050505081526020016005820154815260200160068201548152602001600782015481526020016008820160009054906101000a900460ff16600181111561231d5761231c613c13565b5b600181111561232f5761232e613c13565b5b815260200160098201805461234390614715565b80601f016020809104026020016040519081016040528092919081815260200182805461236f90614715565b80156123bc5780601f10612391576101008083540402835291602001916123bc565b820191906000526020600020905b81548152906001019060200180831161239f57829003601f168201915b50505050508152505081526020016000846040516123da91906146a0565b90815260200160405180910390206000015481526020018681526020018581525090806001815401808255809150506001900390600052602060002090600d020160009091909190915060008201518160000160008201518160000155602082015181600101908051906020019061245392919061376d565b50604082015181600201908051906020019061247092919061376d565b50606082015181600301908051906020019061248d92919061376d565b5060808201518160040190805190602001906124aa92919061376d565b5060a0820151816005015560c0820151816006015560e082015181600701556101008201518160080160006101000a81548160ff021916908360018111156124f5576124f4613c13565b5b021790555061012082015181600901908051906020019061251792919061376d565b505050602082015181600a0155604082015181600b01908051906020019061254092919061376d565b50606082015181600c01908051906020019061255d92919061376d565b50505061257e565b6001808054905061257691906149d5565b915050612594565b5b6001808054905061259091906149d5565b9150505b9b9a5050505050505050505050565b60006125b0848484612e91565b6125ef576040517f08c379a00000000000000000000000000000000000000000000000000000000081526004016125e690614644565b60405180910390fd5b60006126248585856040516020016126099392919061498e565b60405160208183030381529060405280519060200120613584565b9050600180808054905061263891906149d5565b81548110612649576126486146b7565b5b90600052602060002001600160008360405161266591906146a0565b90815260200160405180910390206000015481548110612688576126876146b7565b5b9060005260206000200190805461269e90614715565b6126a99291906137f3565b506000816040516126ba91906146a0565b908152602001604051809103902060000154600060018080805490506126e091906149d5565b815481106126f1576126f06146b7565b5b9060005260206000200160405161270891906147db565b9081526020016040518091039020600001819055506002600160028054905061273191906149d5565b81548110612742576127416146b7565b5b90600052602060002090600a0201600260008360405161276291906146a0565b90815260200160405180910390206000015481548110612785576127846146b7565b5b90600052602060002090600a02016000820154816000015560018201816001019080546127b190614715565b6127bc929190613880565b5060028201816002019080546127d190614715565b6127dc929190613880565b5060038201816003019080546127f190614715565b6127fc929190613880565b50600482018160040190805461281190614715565b61281c929190613880565b506005820154816005015560068201548160060155600782015481600701556008820160009054906101000a900460ff168160080160006101000a81548160ff0219169083600181111561287357612872613c13565b5b0217905550600982018160090190805461288c90614715565b612897929190613880565b509050506000816040516128ab91906146a0565b90815260200160405180910390206000015460026000836040516128cf91906146a0565b908152602001604051809103902060000154815481106128f2576128f16146b7565b5b90600052602060002090600a020160000181905550600280548061291957612918614a44565b5b60019003818190600052602060002090600a0201600080820160009055600182016000612946919061390d565b600282016000612956919061390d565b600382016000612966919061390d565b600482016000612976919061390d565b6005820160009055600682016000905560078201600090556008820160006101000a81549060ff02191690556009820160006129b2919061390d565b5050905560018054806129c8576129c7614a44565b5b6001900381819060005260206000200160006129e4919061390d565b90556000816040516129f691906146a0565b9081526020016040518091039020600080820160009055600182016000612a1d919061390d565b600282016000612a2d919061390d565b600382016000612a3d919061390d565b600482016000612a4d919061390d565b6005820160009055600682016000905560078201600090556008820160006101000a81549060ff0219169055600982016000612a89919061390d565b505060019150509392505050565b612a9f61394d565b612aaa848484612e91565b612ae9576040517f08c379a0000000000000000000000000000000000000000000000000000000008152600401612ae090614644565b60405180910390fd5b6000612b1e858585604051602001612b039392919061498e565b60405160208183030381529060405280519060200120613584565b9050600081604051612b3091906146a0565b90815260200160405180910390206040518061014001604052908160008201548152602001600182018054612b6490614715565b80601f0160208091040260200160405190810160405280929190818152602001828054612b9090614715565b8015612bdd5780601f10612bb257610100808354040283529160200191612bdd565b820191906000526020600020905b815481529060010190602001808311612bc057829003601f168201915b50505050508152602001600282018054612bf690614715565b80601f0160208091040260200160405190810160405280929190818152602001828054612c2290614715565b8015612c6f5780601f10612c4457610100808354040283529160200191612c6f565b820191906000526020600020905b815481529060010190602001808311612c5257829003601f168201915b50505050508152602001600382018054612c8890614715565b80601f0160208091040260200160405190810160405280929190818152602001828054612cb490614715565b8015612d015780601f10612cd657610100808354040283529160200191612d01565b820191906000526020600020905b815481529060010190602001808311612ce457829003601f168201915b50505050508152602001600482018054612d1a90614715565b80601f0160208091040260200160405190810160405280929190818152602001828054612d4690614715565b8015612d935780601f10612d6857610100808354040283529160200191612d93565b820191906000526020600020905b815481529060010190602001808311612d7657829003601f168201915b505050505081526020016005820154815260200160068201548152602001600782015481526020016008820160009054906101000a900460ff166001811115612ddf57612dde613c13565b5b6001811115612df157612df0613c13565b5b8152602001600982018054612e0590614715565b80601f0160208091040260200160405190810160405280929190818152602001828054612e3190614715565b8015612e7e5780601f10612e5357610100808354040283529160200191612e7e565b820191906000526020600020905b815481529060010190602001808311612e6157829003601f168201915b5050505050815250509150509392505050565b6000806001805490501415612ea95760009050612f6f565b838383604051602001612ebe9392919061498e565b6040516020818303038152906040528051906020012060016000612f0b878787604051602001612ef09392919061498e565b60405160208183030381529060405280519060200120613584565b604051612f1891906146a0565b90815260200160405180910390206000015481548110612f3b57612f3a6146b7565b5b90600052602060002001604051602001612f5591906147db565b604051602081830303815290604052805190602001201490505b9392505050565b60606002805480602002602001604051908101604052809291908181526020016000905b8282101561330a57838290600052602060002090600a02016040518061014001604052908160008201548152602001600182018054612fd890614715565b80601f016020809104026020016040519081016040528092919081815260200182805461300490614715565b80156130515780601f1061302657610100808354040283529160200191613051565b820191906000526020600020905b81548152906001019060200180831161303457829003601f168201915b5050505050815260200160028201805461306a90614715565b80601f016020809104026020016040519081016040528092919081815260200182805461309690614715565b80156130e35780601f106130b8576101008083540402835291602001916130e3565b820191906000526020600020905b8154815290600101906020018083116130c657829003601f168201915b505050505081526020016003820180546130fc90614715565b80601f016020809104026020016040519081016040528092919081815260200182805461312890614715565b80156131755780601f1061314a57610100808354040283529160200191613175565b820191906000526020600020905b81548152906001019060200180831161315857829003601f168201915b5050505050815260200160048201805461318e90614715565b80601f01602080910402602001604051908101604052809291908181526020018280546131ba90614715565b80156132075780601f106131dc57610100808354040283529160200191613207565b820191906000526020600020905b8154815290600101906020018083116131ea57829003601f168201915b505050505081526020016005820154815260200160068201548152602001600782015481526020016008820160009054906101000a900460ff16600181111561325357613252613c13565b5b600181111561326557613264613c13565b5b815260200160098201805461327990614715565b80601f01602080910402602001604051908101604052809291908181526020018280546132a590614715565b80156132f25780601f106132c7576101008083540402835291602001916132f2565b820191906000526020600020905b8154815290600101906020018083116132d557829003601f168201915b50505050508152505081526020019060010190612f9a565b50505050905090565b600080600090505b6002805490508110156133bd578260405160200161333991906146a0565b6040516020818303038152906040528051906020012060028281548110613363576133626146b7565b5b90600052602060002090600a020160090160405160200161338491906147db565b6040516020818303038152906040528051906020012014156133aa5760019150506133c3565b80806133b590614821565b91505061331b565b50600090505b919050565b600080600090505b60028054905081101561347257826040516020016133ee91906146a0565b6040516020818303038152906040528051906020012060028281548110613418576134176146b7565b5b90600052602060002090600a020160010160405160200161343991906147db565b60405160208183030381529060405280519060200120141561345f576001915050613478565b808061346a90614821565b9150506133d0565b50600090505b919050565b600080600090505b600280549050811015613577578484846040516020016134a79392919061498e565b60405160208183030381529060405280519060200120600282815481106134d1576134d06146b7565b5b90600052602060002090600a0201600201600283815481106134f6576134f56146b7565b5b90600052602060002090600a02016003016002848154811061351b5761351a6146b7565b5b90600052602060002090600a020160040160405160200161353e93929190614a73565b60405160208183030381529060405280519060200120141561356457600191505061357d565b808061356f90614821565b915050613485565b50600090505b9392505050565b606060005b60208160ff161080156135db5750600060f81b838260ff16602081106135b2576135b16146b7565b5b1a60f81b7effffffffffffffffffffffffffffffffffffffffffffffffffffffffffffff191614155b156135f35780806135eb90614ac7565b915050613589565b60008160ff1667ffffffffffffffff811115613612576136116139fe565b5b6040519080825280601f01601f1916602001820160405280156136445781602001600182028036833780820191505090505b509050600091505b60208260ff1610801561369e5750600060f81b848360ff1660208110613675576136746146b7565b5b1a60f81b7effffffffffffffffffffffffffffffffffffffffffffffffffffffffffffff191614155b1561371557838260ff16602081106136b9576136b86146b7565b5b1a60f81b818360ff16815181106136d3576136d26146b7565b5b60200101907effffffffffffffffffffffffffffffffffffffffffffffffffffffffffffff1916908160001a905350818061370d90614ac7565b92505061364c565b8092505050919050565b604051806040016040528061373261394d565b8152602001600081525090565b604051806080016040528061375261394d565b81526020016000815260200160608152602001606081525090565b82805461377990614715565b90600052602060002090601f01602090048101928261379b57600085556137e2565b82601f106137b457805160ff19168380011785556137e2565b828001600101855582156137e2579182015b828111156137e15782518255916020019190600101906137c6565b5b5090506137ef91906139b2565b5090565b8280546137ff90614715565b90600052602060002090601f016020900481019282613821576000855561386f565b82601f10613832578054855561386f565b8280016001018555821561386f57600052602060002091601f016020900482015b8281111561386e578254825591600101919060010190613853565b5b50905061387c91906139b2565b5090565b82805461388c90614715565b90600052602060002090601f0160209004810192826138ae57600085556138fc565b82601f106138bf57805485556138fc565b828001600101855582156138fc57600052602060002091601f016020900482015b828111156138fb5782548255916001019190600101906138e0565b5b50905061390991906139b2565b5090565b50805461391990614715565b6000825580601f1061392b575061394a565b601f01602090049060005260206000209081019061394991906139b2565b5b50565b6040518061014001604052806000815260200160608152602001606081526020016060815260200160608152602001600081526020016000815260200160008152602001600060018111156139a5576139a4613c13565b5b8152602001606081525090565b5b808211156139cb5760008160009055506001016139b3565b5090565b6000604051905090565b600080fd5b600080fd5b600080fd5b600080fd5b6000601f19601f8301169050919050565b7f4e487b7100000000000000000000000000000000000000000000000000000000600052604160045260246000fd5b613a36826139ed565b810181811067ffffffffffffffff82111715613a5557613a546139fe565b5b80604052505050565b6000613a686139cf565b9050613a748282613a2d565b919050565b600067ffffffffffffffff821115613a9457613a936139fe565b5b613a9d826139ed565b9050602081019050919050565b82818337600083830152505050565b6000613acc613ac784613a79565b613a5e565b905082815260208101848484011115613ae857613ae76139e8565b5b613af3848285613aaa565b509392505050565b600082601f830112613b1057613b0f6139e3565b5b8135613b20848260208601613ab9565b91505092915050565b600060208284031215613b3f57613b3e6139d9565b5b600082013567ffffffffffffffff811115613b5d57613b5c6139de565b5b613b6984828501613afb565b91505092915050565b6000819050919050565b613b8581613b72565b82525050565b600081519050919050565b600082825260208201905092915050565b60005b83811015613bc5578082015181840152602081019050613baa565b83811115613bd4576000848401525b50505050565b6000613be582613b8b565b613bef8185613b96565b9350613bff818560208601613ba7565b613c08816139ed565b840191505092915050565b7f4e487b7100000000000000000000000000000000000000000000000000000000600052602160045260246000fd5b60028110613c5357613c52613c13565b5b50565b6000819050613c6482613c42565b919050565b6000613c7482613c56565b9050919050565b613c8481613c69565b82525050565b600061014083016000830151613ca36000860182613b7c565b5060208301518482036020860152613cbb8282613bda565b91505060408301518482036040860152613cd58282613bda565b91505060608301518482036060860152613cef8282613bda565b91505060808301518482036080860152613d098282613bda565b91505060a0830151613d1e60a0860182613b7c565b5060c0830151613d3160c0860182613b7c565b5060e0830151613d4460e0860182613b7c565b50610100830151613d59610100860182613c7b565b50610120830151848203610120860152613d738282613bda565b9150508091505092915050565b60006040830160008301518482036000860152613d9d8282613c8a565b9150506020830151613db26020860182613b7c565b508091505092915050565b60006080830160008301518482036000860152613dda8282613c8a565b9150506020830151613def6020860182613b7c565b5060408301518482036040860152613e078282613bda565b91505060608301518482036060860152613e218282613bda565b9150508091505092915050565b60006040820190508181036000830152613e488185613d80565b90508181036020830152613e5c8184613dbd565b90509392505050565b600081519050919050565b600082825260208201905092915050565b6000819050602082019050919050565b60006080830160008301518482036000860152613eae8282613c8a565b9150506020830151613ec36020860182613b7c565b5060408301518482036040860152613edb8282613bda565b91505060608301518482036060860152613ef58282613bda565b9150508091505092915050565b6000613f0e8383613e91565b905092915050565b6000602082019050919050565b6000613f2e82613e65565b613f388185613e70565b935083602082028501613f4a85613e81565b8060005b85811015613f865784840389528151613f678582613f02565b9450613f7283613f16565b925060208a01995050600181019050613f4e565b50829750879550505050505092915050565b60006020820190508181036000830152613fb28184613f23565b905092915050565b600081519050919050565b600082825260208201905092915050565b6000819050602082019050919050565b600060408301600083015184820360008601526140038282613c8a565b91505060208301516140186020860182613b7c565b508091505092915050565b600061402f8383613fe6565b905092915050565b6000602082019050919050565b600061404f82613fba565b6140598185613fc5565b93508360208202850161406b85613fd6565b8060005b858110156140a757848403895281516140888582614023565b945061409383614037565b925060208a0199505060018101905061406f565b50829750879550505050505092915050565b600060208201905081810360008301526140d38184614044565b905092915050565b6140e481613b72565b81146140ef57600080fd5b50565b600081359050614101816140db565b92915050565b6002811061411457600080fd5b50565b60008135905061412681614107565b92915050565b60008060008060008060008060008060006101608c8e031215614152576141516139d9565b5b60008c013567ffffffffffffffff8111156141705761416f6139de565b5b61417c8e828f01613afb565b9b505060208c013567ffffffffffffffff81111561419d5761419c6139de565b5b6141a98e828f01613afb565b9a505060408c013567ffffffffffffffff8111156141ca576141c96139de565b5b6141d68e828f01613afb565b99505060608c013567ffffffffffffffff8111156141f7576141f66139de565b5b6142038e828f01613afb565b98505060806142148e828f016140f2565b97505060a06142258e828f016140f2565b96505060c06142368e828f016140f2565b95505060e06142478e828f01614117565b9450506101008c013567ffffffffffffffff811115614269576142686139de565b5b6142758e828f01613afb565b9350506101208c013567ffffffffffffffff811115614297576142966139de565b5b6142a38e828f01613afb565b9250506101408c013567ffffffffffffffff8111156142c5576142c46139de565b5b6142d18e828f01613afb565b9150509295989b509295989b9093969950565b6142ed81613b72565b82525050565b600060208201905061430860008301846142e4565b92915050565b600080600060608486031215614327576143266139d9565b5b600084013567ffffffffffffffff811115614345576143446139de565b5b61435186828701613afb565b935050602084013567ffffffffffffffff811115614372576143716139de565b5b61437e86828701613afb565b925050604084013567ffffffffffffffff81111561439f5761439e6139de565b5b6143ab86828701613afb565b9150509250925092565b60008115159050919050565b6143ca816143b5565b82525050565b60006020820190506143e560008301846143c1565b92915050565b6000610140830160008301516144046000860182613b7c565b506020830151848203602086015261441c8282613bda565b915050604083015184820360408601526144368282613bda565b915050606083015184820360608601526144508282613bda565b9150506080830151848203608086015261446a8282613bda565b91505060a083015161447f60a0860182613b7c565b5060c083015161449260c0860182613b7c565b5060e08301516144a560e0860182613b7c565b506101008301516144ba610100860182613c7b565b506101208301518482036101208601526144d48282613bda565b9150508091505092915050565b600060208201905081810360008301526144fb81846143eb565b905092915050565b600081519050919050565b600082825260208201905092915050565b6000819050602082019050919050565b600061453b8383613c8a565b905092915050565b6000602082019050919050565b600061455b82614503565b614565818561450e565b9350836020820285016145778561451f565b8060005b858110156145b35784840389528151614594858261452f565b945061459f83614543565b925060208a0199505060018101905061457b565b50829750879550505050505092915050565b600060208201905081810360008301526145df8184614550565b905092915050565b600082825260208201905092915050565b7f5573657220446f6573206e6f7420657869737400000000000000000000000000600082015250565b600061462e6013836145e7565b9150614639826145f8565b602082019050919050565b6000602082019050818103600083015261465d81614621565b9050919050565b600081905092915050565b600061467a82613b8b565b6146848185614664565b9350614694818560208601613ba7565b80840191505092915050565b60006146ac828461466f565b915081905092915050565b7f4e487b7100000000000000000000000000000000000000000000000000000000600052603260045260246000fd5b7f4e487b7100000000000000000000000000000000000000000000000000000000600052602260045260246000fd5b6000600282049050600182168061472d57607f821691505b60208210811415614741576147406146e6565b5b50919050565b60008190508160005260206000209050919050565b6000815461476981614715565b6147738186614664565b9450600182166000811461478e576001811461479f576147d2565b60ff198316865281860193506147d2565b6147a885614747565b60005b838110156147ca578154818901526001820191506020810190506147ab565b838801955050505b50505092915050565b60006147e7828461475c565b915081905092915050565b7f4e487b7100000000000000000000000000000000000000000000000000000000600052601160045260246000fd5b600061482c82613b72565b91507fffffffffffffffffffffffffffffffffffffffffffffffffffffffffffffffff82141561485f5761485e6147f2565b5b600182019050919050565b7f4e6f7420666f756e640000000000000000000000000000000000000000000000600082015250565b60006148a06009836145e7565b91506148ab8261486a565b602082019050919050565b600060208201905081810360008301526148cf81614893565b9050919050565b7f5573657220416c72656164792045786973747300000000000000000000000000600082015250565b600061490c6013836145e7565b9150614917826148d6565b602082019050919050565b6000602082019050818103600083015261493b816148ff565b9050919050565b7f2000000000000000000000000000000000000000000000000000000000000000600082015250565b6000614978600183614664565b915061498382614942565b600182019050919050565b600061499a828661466f565b91506149a58261496b565b91506149b1828561466f565b91506149bc8261496b565b91506149c8828461466f565b9150819050949350505050565b60006149e082613b72565b91506149eb83613b72565b9250828210156149fe576149fd6147f2565b5b828203905092915050565b50565b6000614a19600083614664565b9150614a2482614a09565b600082019050919050565b6000614a3a82614a0c565b9150819050919050565b7f4e487b7100000000000000000000000000000000000000000000000000000000600052603160045260246000fd5b6000614a7f828661475c565b9150614a8a8261496b565b9150614a96828561475c565b9150614aa18261496b565b9150614aad828461475c565b9150819050949350505050565b600060ff82169050919050565b6000614ad282614aba565b915060ff821415614ae657614ae56147f2565b5b60018201905091905056fea2646970667358221220024c125ed231cff868f18ad34f57a7378bc49a03324690d41d02f47c9111bb4664736f6c634300080a0033",
  "immutableReferences": {},
  "source": "// SPDX-License-Identifier: MIT\npragma solidity ^0.8.9;\n\ncontract AAiTUser {\n    enum DEPTARTMENT_TYPE {\n        SITE,\n        ELEC\n    }\n    struct UserStruct {\n        uint256 index;\n        string studentId;\n        string fName;\n        string lName;\n        string gName;\n        uint256 DOB;\n        uint256 currentYear;\n        uint256 currentSection;\n        DEPTARTMENT_TYPE currentDepartment;\n        string email;\n    }\n    struct VoterStruct {\n        UserStruct voterInfo;\n        uint256 vindex;\n        // string voterEmail;\n        // string voterPassword;\n        // address voterAddress;\n    }\n\n    struct CandidateStruct {\n        UserStruct candidateInfo;\n        uint256 vindex;\n        // string candidateEmail;\n        // string candidatePassword;\n        string candidateBio;\n        string candidateProfilePicture;\n        // address candidateAddress;\n    }\n\n    mapping(string => UserStruct) private userStructsMapping;\n    string[] private userIndex;\n    UserStruct[] private userValue;\n    VoterStruct[] private votersList;\n    CandidateStruct[] private candidatesList;\n    address private owner;\n\n    modifier onlyOwner() {\n        require(msg.sender == owner);\n        _;\n    }\n\n    constructor() {\n        owner = msg.sender;\n    }\n\n    function bytes32ToString(bytes32 _bytes32)\n        internal\n        pure\n        returns (string memory)\n    {\n        uint8 i = 0;\n        while (i < 32 && _bytes32[i] != 0) {\n            i++;\n        }\n        bytes memory bytesArray = new bytes(i);\n        for (i = 0; i < 32 && _bytes32[i] != 0; i++) {\n            bytesArray[i] = _bytes32[i];\n        }\n        return string(bytesArray);\n    }\n\n    function findUserByStudentId(string memory newStudentId)\n        internal\n        view\n        returns (bool)\n    {\n        for (uint256 i = 0; i < userValue.length; i++) {\n            if (\n                keccak256(abi.encodePacked(userValue[i].studentId)) ==\n                keccak256(abi.encodePacked(newStudentId))\n            ) {\n                return true;\n            }\n        }\n        return false;\n    }\n\n    function findUserByFullName(\n        string memory newfName,\n        string memory newlName,\n        string memory newgName\n    ) internal view returns (bool) {\n        for (uint256 i = 0; i < userValue.length; i++) {\n            if (\n                keccak256(\n                    abi.encodePacked(\n                        userValue[i].fName,\n                        \" \",\n                        userValue[i].lName,\n                        \" \",\n                        userValue[i].gName\n                    )\n                ) ==\n                keccak256(\n                    abi.encodePacked(newfName, \" \", newlName, \" \", newgName)\n                )\n            ) {\n                return true;\n            }\n        }\n        return false;\n    }\n\n    function findUserByEmail(string memory newEmail)\n        internal\n        view\n        returns (bool)\n    {\n        for (uint256 i = 0; i < userValue.length; i++) {\n            if (\n                keccak256(abi.encodePacked(userValue[i].email)) ==\n                keccak256(abi.encodePacked(newEmail))\n            ) {\n                return true;\n            }\n        }\n        return false;\n        // return isIndeed;\n    }\n\n    function isUser(\n        string memory newfName,\n        string memory newlName,\n        string memory newgName\n    ) public view returns (bool) {\n        if (userIndex.length == 0) return false;\n        return (keccak256(\n            abi.encodePacked(\n                userIndex[\n                    userStructsMapping[\n                        bytes32ToString(\n                            keccak256(\n                                abi.encodePacked(\n                                    newfName,\n                                    \" \",\n                                    newlName,\n                                    \" \",\n                                    newgName\n                                )\n                            )\n                        )\n                    ].index\n                ]\n            )\n        ) ==\n            keccak256(\n                abi.encodePacked(newfName, \" \", newlName, \" \", newgName)\n            ));\n    }\n\n    function insertUser(\n        string memory studentId,\n        string memory fName,\n        string memory lName,\n        string memory gName,\n        uint256 DOB,\n        uint256 currentYear,\n        uint256 currentSection,\n        DEPTARTMENT_TYPE currentDepartment,\n        string memory email,\n        string memory profilePicture,\n        string memory bio\n    ) external onlyOwner returns (uint256 index) {\n        // require(msg.sender != owner, \"Permission Denied\");\n        require(!isUser(fName, lName, gName), \"User Already Exists\");\n        require(!findUserByStudentId(studentId), \"User Already Exists\");\n        require(\n            !findUserByFullName(fName, lName, gName),\n            \"User Already Exists\"\n        );\n        require(!findUserByEmail(email), \"User Already Exists\");\n\n        string memory fullName = bytes32ToString(\n            keccak256(abi.encodePacked(fName, \" \", lName, \" \", gName))\n        );\n\n        userStructsMapping[fullName].studentId = studentId;\n        userStructsMapping[fullName].fName = fName;\n        userStructsMapping[fullName].lName = lName;\n        userStructsMapping[fullName].gName = gName;\n        userStructsMapping[fullName].DOB = DOB;\n        userStructsMapping[fullName].currentYear = currentYear;\n        userStructsMapping[fullName].currentSection = currentSection;\n        userStructsMapping[fullName].currentDepartment = currentDepartment;\n        userStructsMapping[fullName].email = email;\n        userIndex.push(fullName);\n        userStructsMapping[fullName].index = userIndex.length - 1;\n        userValue.push(\n            UserStruct(\n                userStructsMapping[fullName].index,\n                studentId,\n                fName,\n                lName,\n                gName,\n                DOB,\n                currentYear,\n                currentSection,\n                currentDepartment,\n                email\n            )\n        );\n        if (\n            keccak256(abi.encodePacked(profilePicture)) == keccak256(abi.encodePacked(\"\")) &&\n            keccak256(abi.encodePacked(bio)) == keccak256(abi.encodePacked(\"\"))\n        ) {\n            votersList.push(\n                VoterStruct(\n                    userStructsMapping[fullName],\n                    userStructsMapping[fullName].index\n                )\n            );\n        } else if (\n            keccak256(abi.encodePacked(bio)) != keccak256(abi.encodePacked(\"\")) &&\n            keccak256(abi.encodePacked(profilePicture)) != keccak256(abi.encodePacked(\"\"))\n        ) {\n            candidatesList.push(\n                CandidateStruct(\n                    userStructsMapping[fullName],\n                    userStructsMapping[fullName].index,\n                    profilePicture,\n                    bio\n                )\n            );\n        } else {\n            return userIndex.length - 1;\n        }\n        // emit LogNewUser(\n        //     userStructsMapping[fullName].index,\n        //     studentId,\n        //     fName,\n        //     lName,\n        //     gName,\n        //     DOB,\n        //     currentYear,\n        //     currentSection,\n        //     currentDepartment\n        // );\n        return userIndex.length - 1;\n    }\n\n    function getUser(\n        string memory fName,\n        string memory lName,\n        string memory gName\n    ) external view returns (UserStruct memory) {\n        // if (!isUser(userAddress)) throw;\n        require(isUser(fName, lName, gName), \"User Does not exist\");\n        string memory fullName = bytes32ToString(\n            keccak256(abi.encodePacked(fName, \" \", lName, \" \", gName))\n        );\n\n        return (userStructsMapping[fullName]);\n    }\n\n    function getAllUsers() external view returns (UserStruct[] memory) {\n        return userValue;\n    }\n\n    function removeUser(\n        string memory fName,\n        string memory lName,\n        string memory gName\n    ) external returns (bool success) {\n        require(isUser(fName, lName, gName), \"User Does not exist\");\n        string memory fullName = bytes32ToString(\n            keccak256(abi.encodePacked(fName, \" \", lName, \" \", gName))\n        );\n        // Candidate deployedCandidate = Candidate(candidateContractAddress);\n        // Voter deployedVoter = Voter(voterContractAddress);\n\n        // if (isVoter(userAddress)) {\n        //     removeVoter(userAddress);\n        // }\n        // if (isCandidate(userAddress)) {\n        //     removeCandidate(userAddress);\n        // }\n\n        userIndex[userStructsMapping[fullName].index] = userIndex[\n            userIndex.length - 1\n        ];\n        userStructsMapping[userIndex[userIndex.length - 1]]\n            .index = userStructsMapping[fullName].index;\n\n        userValue[userStructsMapping[fullName].index] = userValue[\n            userValue.length - 1\n        ];\n        userValue[userStructsMapping[fullName].index]\n            .index = userStructsMapping[fullName].index;\n        userValue.pop();\n        userIndex.pop();\n        delete userStructsMapping[fullName];\n\n        return true;\n    }\n\n    function getAllVoters() external view returns (VoterStruct[] memory) {\n        return votersList;\n    }\n\n    function getAllCandidates()\n        external\n        view\n        returns (CandidateStruct[] memory)\n    {\n        return candidatesList;\n    }\n\n    function getUserByEmail(string memory email)\n        external\n        view\n        returns (VoterStruct memory zvoter, CandidateStruct memory zcandidate)\n    {\n        require(findUserByEmail(email), \"User Does not exist\");\n        for (uint256 i = 0; i < votersList.length; i++) {\n            if (\n                keccak256(abi.encodePacked(votersList[i].voterInfo.email)) ==\n                keccak256(abi.encodePacked(email))\n            ) {\n                CandidateStruct memory emptyCandidate;\n                return (votersList[i], emptyCandidate);\n            }\n        }\n        for (uint256 i = 0; i < candidatesList.length; i++) {\n            if (\n                keccak256(\n                    abi.encodePacked(candidatesList[i].candidateInfo.email)\n                ) == keccak256(abi.encodePacked(email))\n            ) {\n                VoterStruct memory emptyVoter;\n                return (emptyVoter, candidatesList[i]);\n            }\n        }\n        revert(\"Not found\");\n    }\n}\n",
  "sourcePath": "/home/dannyterefe/Documents/VSCode_Projects/Final_Project/blockchain_based_voting_system/dvbst_smart_contracts/contracts/AAiTUser.sol",
  "compiler": {
    "name": "solc",
    "version": "0.8.10+commit.fc410830.Emscripten.clang"
  },
  "schemaVersion": "3.4.4",
  "updatedAt": "2022-05-18T19:49:22.008Z",
  "networkType": "ethereum",
  "devdoc": {
    "kind": "dev",
    "methods": {},
    "version": 1
  },
  "userdoc": {
    "kind": "user",
    "methods": {},
    "version": 1
  }
}