{
  "contractName": "AAiTElection",
  "abi": [
    {
      "inputs": [
        {
          "internalType": "address",
          "name": "_AAiTVoteTokenAddress",
          "type": "address"
        },
        {
          "internalType": "address",
          "name": "_AAiTStudentAddress",
          "type": "address"
        },
        {
          "internalType": "address",
          "name": "_AAiTElectionTimerAddress",
          "type": "address"
        }
      ],
      "stateMutability": "nonpayable",
      "type": "constructor"
    },
    {
      "inputs": [
        {
          "internalType": "address",
          "name": "voterAddress",
          "type": "address"
        },
        {
          "internalType": "address",
          "name": "candidateAddress",
          "type": "address"
        }
      ],
      "name": "vote",
      "outputs": [],
      "stateMutability": "nonpayable",
      "type": "function"
    },
    {
      "inputs": [
        {
          "internalType": "string",
          "name": "electionName",
          "type": "string"
        }
      ],
      "name": "declareWinner",
      "outputs": [],
      "stateMutability": "view",
      "type": "function",
      "constant": true
    },
    {
      "inputs": [
        {
          "internalType": "address",
          "name": "candidateAddress",
          "type": "address"
        }
      ],
      "name": "blacklistCandidate",
      "outputs": [],
      "stateMutability": "nonpayable",
      "type": "function"
    },
    {
      "inputs": [
        {
          "internalType": "string",
          "name": "electionName",
          "type": "string"
        }
      ],
      "name": "getElectionResult",
      "outputs": [
        {
          "components": [
            {
              "internalType": "string",
              "name": "candidateFullName",
              "type": "string"
            },
            {
              "internalType": "address",
              "name": "candidateAddress",
              "type": "address"
            },
            {
              "internalType": "uint256",
              "name": "votes",
              "type": "uint256"
            }
          ],
          "internalType": "struct AAiTElection.ElectionResultStruct[]",
          "name": "",
          "type": "tuple[]"
        }
      ],
      "stateMutability": "view",
      "type": "function",
      "constant": true
    },
    {
      "inputs": [],
      "name": "getAllElections",
      "outputs": [
        {
          "components": [
            {
              "internalType": "uint256",
              "name": "index",
              "type": "uint256"
            },
            {
              "internalType": "string",
              "name": "name",
              "type": "string"
            },
            {
              "internalType": "enum AAiTElection.ELECTION_TYPE",
              "name": "electionType",
              "type": "uint8"
            },
            {
              "internalType": "uint256",
              "name": "startDate",
              "type": "uint256"
            },
            {
              "internalType": "uint256",
              "name": "endDate",
              "type": "uint256"
            },
            {
              "internalType": "address[]",
              "name": "candidates",
              "type": "address[]"
            },
            {
              "internalType": "address[]",
              "name": "winners",
              "type": "address[]"
            },
            {
              "internalType": "address[]",
              "name": "voters",
              "type": "address[]"
            },
            {
              "internalType": "address[]",
              "name": "voted",
              "type": "address[]"
            },
            {
              "internalType": "uint256",
              "name": "year",
              "type": "uint256"
            },
            {
              "internalType": "uint256",
              "name": "section",
              "type": "uint256"
            },
            {
              "internalType": "enum AAiTElection.DEPTARTMENT_TYPE",
              "name": "department",
              "type": "uint8"
            }
          ],
          "internalType": "struct AAiTElection.ElectionStruct[]",
          "name": "",
          "type": "tuple[]"
        }
      ],
      "stateMutability": "view",
      "type": "function",
      "constant": true
    },
    {
      "inputs": [
        {
          "internalType": "uint256",
          "name": "year",
          "type": "uint256"
        },
        {
          "internalType": "uint256",
          "name": "section",
          "type": "uint256"
        },
        {
          "internalType": "enum AAiTElection.DEPTARTMENT_TYPE",
          "name": "department",
          "type": "uint8"
        }
      ],
      "name": "getElectionByType",
      "outputs": [
        {
          "components": [
            {
              "internalType": "uint256",
              "name": "index",
              "type": "uint256"
            },
            {
              "internalType": "string",
              "name": "name",
              "type": "string"
            },
            {
              "internalType": "enum AAiTElection.ELECTION_TYPE",
              "name": "electionType",
              "type": "uint8"
            },
            {
              "internalType": "uint256",
              "name": "startDate",
              "type": "uint256"
            },
            {
              "internalType": "uint256",
              "name": "endDate",
              "type": "uint256"
            },
            {
              "internalType": "address[]",
              "name": "candidates",
              "type": "address[]"
            },
            {
              "internalType": "address[]",
              "name": "winners",
              "type": "address[]"
            },
            {
              "internalType": "address[]",
              "name": "voters",
              "type": "address[]"
            },
            {
              "internalType": "address[]",
              "name": "voted",
              "type": "address[]"
            },
            {
              "internalType": "uint256",
              "name": "year",
              "type": "uint256"
            },
            {
              "internalType": "uint256",
              "name": "section",
              "type": "uint256"
            },
            {
              "internalType": "enum AAiTElection.DEPTARTMENT_TYPE",
              "name": "department",
              "type": "uint8"
            }
          ],
          "internalType": "struct AAiTElection.ElectionStruct",
          "name": "",
          "type": "tuple"
        }
      ],
      "stateMutability": "view",
      "type": "function",
      "constant": true
    }
  ],
  "bytecode": "0x60806040526040518060c001604052806040518060400160405280601681526020017f42696f6d65646963616c20456e67696e656572696e670000000000000000000081525081526020016040518060400160405280601481526020017f4368656d6963616c20456e67696e656572696e6700000000000000000000000081525081526020016040518060400160405280601181526020017f436976696c20456e67696e656572696e6700000000000000000000000000000081525081526020016040518060400160405280601681526020017f456c656374726963616c20456e67696e656572696e670000000000000000000081525081526020016040518060400160405280601681526020017f4d656368616e6963616c20456e67696e656572696e670000000000000000000081525081526020016040518060400160405280601481526020017f536f66747761726520456e67696e656572696e67000000000000000000000000815250815250600090600662000181929190620002c2565b503480156200018f57600080fd5b5060405162004482380380620044828339818101604052810190620001b59190620004b1565b33600160006101000a81548173ffffffffffffffffffffffffffffffffffffffff021916908373ffffffffffffffffffffffffffffffffffffffff16021790555080600a60006101000a81548173ffffffffffffffffffffffffffffffffffffffff021916908373ffffffffffffffffffffffffffffffffffffffff16021790555081600b60006101000a81548173ffffffffffffffffffffffffffffffffffffffff021916908373ffffffffffffffffffffffffffffffffffffffff16021790555082600c60006101000a81548173ffffffffffffffffffffffffffffffffffffffff021916908373ffffffffffffffffffffffffffffffffffffffff16021790555050505062000572565b82805482825590600052602060002090810192821562000316579160200282015b82811115620003155782518290805190602001906200030492919062000329565b5091602001919060010190620002e3565b5b509050620003259190620003ba565b5090565b82805462000337906200053c565b90600052602060002090601f0160209004810192826200035b5760008555620003a7565b82601f106200037657805160ff1916838001178555620003a7565b82800160010185558215620003a7579182015b82811115620003a657825182559160200191906001019062000389565b5b509050620003b69190620003e2565b5090565b5b80821115620003de5760008181620003d4919062000401565b50600101620003bb565b5090565b5b80821115620003fd576000816000905550600101620003e3565b5090565b5080546200040f906200053c565b6000825580601f1062000423575062000444565b601f016020900490600052602060002090810190620004439190620003e2565b5b50565b600080fd5b600073ffffffffffffffffffffffffffffffffffffffff82169050919050565b600062000479826200044c565b9050919050565b6200048b816200046c565b81146200049757600080fd5b50565b600081519050620004ab8162000480565b92915050565b600080600060608486031215620004cd57620004cc62000447565b5b6000620004dd868287016200049a565b9350506020620004f0868287016200049a565b925050604062000503868287016200049a565b9150509250925092565b7f4e487b7100000000000000000000000000000000000000000000000000000000600052602260045260246000fd5b600060028204905060018216806200055557607f821691505b602082108114156200056c576200056b6200050d565b5b50919050565b613f0080620005826000396000f3fe608060405234801561001057600080fd5b50600436106100625760003560e01c8063014e9f03146100675780631afa74e51461008357806324d6562c1461009f5780637fd5f268146100bb578063897de252146100d9578063e9cb0c7414610109575b600080fd5b610081600480360381019061007c9190612d80565b610139565b005b61009d60048036038101906100989190612e27565b610777565b005b6100b960048036038101906100b49190612e67565b610cec565b005b6100c3611272565b6040516100d09190613294565b60405180910390f35b6100f360048036038101906100ee9190612d80565b611644565b60405161010091906133c8565b60405180910390f35b610123600480360381019061011e919061343b565b6119c7565b60405161013091906135ae565b60405180910390f35b600060028260405161014b919061360c565b9081526020016040518091039020604051806101800160405290816000820154815260200160018201805461017f90613652565b80601f01602080910402602001604051908101604052809291908181526020018280546101ab90613652565b80156101f85780601f106101cd576101008083540402835291602001916101f8565b820191906000526020600020905b8154815290600101906020018083116101db57829003601f168201915b505050505081526020016002820160009054906101000a900460ff16600281111561022657610225612f61565b5b600281111561023857610237612f61565b5b81526020016003820154815260200160048201548152602001600582018054806020026020016040519081016040528092919081815260200182805480156102d557602002820191906000526020600020905b8160009054906101000a900473ffffffffffffffffffffffffffffffffffffffff1673ffffffffffffffffffffffffffffffffffffffff168152602001906001019080831161028b575b505050505081526020016006820180548060200260200160405190810160405280929190818152602001828054801561036357602002820191906000526020600020905b8160009054906101000a900473ffffffffffffffffffffffffffffffffffffffff1673ffffffffffffffffffffffffffffffffffffffff1681526020019060010190808311610319575b50505050508152602001600782018054806020026020016040519081016040528092919081815260200182805480156103f157602002820191906000526020600020905b8160009054906101000a900473ffffffffffffffffffffffffffffffffffffffff1673ffffffffffffffffffffffffffffffffffffffff16815260200190600101908083116103a7575b505050505081526020016008820180548060200260200160405190810160405280929190818152602001828054801561047f57602002820191906000526020600020905b8160009054906101000a900473ffffffffffffffffffffffffffffffffffffffff1673ffffffffffffffffffffffffffffffffffffffff1681526020019060010190808311610435575b5050505050815260200160098201548152602001600a8201548152602001600b820160009054906101000a900460ff1660058111156104c1576104c0612f61565b5b60058111156104d3576104d2612f61565b5b81525050905060008160a001515167ffffffffffffffff8111156104fa576104f9612c55565b5b6040519080825280602002602001820160405280156105285781602001602082028036833780820191505090505b5090506000600367ffffffffffffffff81111561054857610547612c55565b5b6040519080825280602002602001820160405280156105765781602001602082028036833780820191505090505b50905060005b8360a001515181101561067557600c60009054906101000a900473ffffffffffffffffffffffffffffffffffffffff1673ffffffffffffffffffffffffffffffffffffffff166370a082318560a0015183815181106105de576105dd613684565b5b60200260200101516040518263ffffffff1660e01b815260040161060291906136c2565b602060405180830381865afa15801561061f573d6000803e3d6000fd5b505050506040513d601f19601f8201168201806040525081019061064391906136f2565b83828151811061065657610655613684565b5b602002602001018181525050808061066d9061374e565b91505061057c565b506000610681836128f6565b905060005b8460a001515181101561073557818482815181106106a7576106a6613684565b5b60200260200101511415610722578460a0015181815181106106cc576106cb613684565b5b60200260200101518382815181106106e7576106e6613684565b5b602002602001019073ffffffffffffffffffffffffffffffffffffffff16908173ffffffffffffffffffffffffffffffffffffffff16815250505b808061072d9061374e565b915050610686565b50818460c0018190525060028460400190600281111561075857610757612f61565b5b9081600281111561076c5761076b612f61565b5b815250505050505050565b6000600b60009054906101000a900473ffffffffffffffffffffffffffffffffffffffff1673ffffffffffffffffffffffffffffffffffffffff1663d4f50f98846040518263ffffffff1660e01b81526004016107d491906136c2565b600060405180830381865afa1580156107f1573d6000803e3d6000fd5b505050506040513d6000823e3d601f19601f8201168201806040525081019061081a9190613a41565b90508173ffffffffffffffffffffffffffffffffffffffff168373ffffffffffffffffffffffffffffffffffffffff161415806108a55750600160009054906101000a900473ffffffffffffffffffffffffffffffffffffffff1673ffffffffffffffffffffffffffffffffffffffff168373ffffffffffffffffffffffffffffffffffffffff1614155b806108fe5750600160009054906101000a900473ffffffffffffffffffffffffffffffffffffffff1673ffffffffffffffffffffffffffffffffffffffff168273ffffffffffffffffffffffffffffffffffffffff1614155b806109a15750600b60009054906101000a900473ffffffffffffffffffffffffffffffffffffffff1673ffffffffffffffffffffffffffffffffffffffff1663a7771ee3846040518263ffffffff1660e01b815260040161095f91906136c2565b602060405180830381865afa15801561097c573d6000803e3d6000fd5b505050506040513d601f19601f820116820180604052508101906109a09190613ac2565b5b80610a4757506000600c60009054906101000a900473ffffffffffffffffffffffffffffffffffffffff1673ffffffffffffffffffffffffffffffffffffffff166370a08231856040518263ffffffff1660e01b8152600401610a0491906136c2565b602060405180830381865afa158015610a21573d6000803e3d6000fd5b505050506040513d601f19601f82011682018060405250810190610a4591906136f2565b115b80610ab05750610aae610aa38260000151600001516080015183600001516000015160a0015184600001516000015160c001516001811115610a8c57610a8b612f61565b5b6005811115610a9e57610a9d612f61565b5b6119c7565b610100015184612966565b155b610aef576040517f08c379a0000000000000000000000000000000000000000000000000000000008152600401610ae690613b4c565b60405180910390fd5b600c60009054906101000a900473ffffffffffffffffffffffffffffffffffffffff1673ffffffffffffffffffffffffffffffffffffffff166323b872dd848460016040518463ffffffff1660e01b8152600401610b4f93929190613bb1565b6020604051808303816000875af1158015610b6e573d6000803e3d6000fd5b505050506040513d601f19601f82011682018060405250810190610b929190613ac2565b506000610be88260000151600001516080015183600001516000015160a0015184600001516000015160c001516001811115610bd157610bd0612f61565b5b6005811115610be357610be2612f61565b5b6119c7565b602001519050600281604051610bfe919061360c565b9081526020016040518091039020600801849080600181540180825580915050600190039060005260206000200160009091909190916101000a81548173ffffffffffffffffffffffffffffffffffffffff021916908373ffffffffffffffffffffffffffffffffffffffff160217905550600281604051610c80919061360c565b90815260200160405180910390206008016004600283604051610ca3919061360c565b90815260200160405180910390206000015481548110610cc657610cc5613684565b5b90600052602060002090600c0201600801908054610ce5929190612a75565b5050505050565b600160009054906101000a900473ffffffffffffffffffffffffffffffffffffffff1673ffffffffffffffffffffffffffffffffffffffff163373ffffffffffffffffffffffffffffffffffffffff1614610d4657600080fd5b6008600b60009054906101000a900473ffffffffffffffffffffffffffffffffffffffff1673ffffffffffffffffffffffffffffffffffffffff1663b7adcf1d836040518263ffffffff1660e01b8152600401610da391906136c2565b600060405180830381865afa158015610dc0573d6000803e3d6000fd5b505050506040513d6000823e3d601f19601f82011682018060405250810190610de99190613d20565b90806001815401808255809150506001900390600052602060002090600c0201600090919091909150600082015181600001600082015181600001600082015181600001556020820151816001019080519060200190610e4a929190612ac7565b506040820151816002019080519060200190610e67929190612ac7565b50606082015181600301556080820151816004015560a0820151816005015560c08201518160060160006101000a81548160ff02191690836001811115610eb157610eb0612f61565b5b021790555060e0820151816007019080519060200190610ed2929190612ac7565b505050602082015181600801556040820151816009019080519060200190610efb929190612ac7565b50606082015181600a019080519060200190610f18929190612ac7565b505050602082015181600b0160006101000a81548173ffffffffffffffffffffffffffffffffffffffff021916908373ffffffffffffffffffffffffffffffffffffffff160217905550505060005b60058054905081101561126e5761102760058281548110610f8b57610f8a613684565b5b90600052602060002090600c020160050180548060200260200160405190810160405280929190818152602001828054801561101c57602002820191906000526020600020905b8160009054906101000a900473ffffffffffffffffffffffffffffffffffffffff1673ffffffffffffffffffffffffffffffffffffffff1681526020019060010190808311610fd2575b505050505083612966565b1561125b57600581815481106110405761103f613684565b5b90600052602060002090600c02016005016111046005838154811061106857611067613684565b5b90600052602060002090600c02016005018054806020026020016040519081016040528092919081815260200182805480156110f957602002820191906000526020600020905b8160009054906101000a900473ffffffffffffffffffffffffffffffffffffffff1673ffffffffffffffffffffffffffffffffffffffff16815260200190600101908083116110af575b5050505050846129ee565b8154811061111557611114613684565b5b9060005260206000200160006101000a81549073ffffffffffffffffffffffffffffffffffffffff02191690556005818154811061115657611155613684565b5b90600052602060002090600c020160050160026005838154811061117d5761117c613684565b5b90600052602060002090600c020160010160405161119b9190613dfd565b90815260200160405180910390206005019080546111ba929190612a75565b50600b60009054906101000a900473ffffffffffffffffffffffffffffffffffffffff1673ffffffffffffffffffffffffffffffffffffffff16636dd091f9836040518263ffffffff1660e01b815260040161121691906136c2565b6020604051808303816000875af1158015611235573d6000803e3d6000fd5b505050506040513d601f19601f820116820180604052508101906112599190613ac2565b505b80806112669061374e565b915050610f67565b5050565b60606005805480602002602001604051908101604052809291908181526020016000905b8282101561163b57838290600052602060002090600c020160405180610180016040529081600082015481526020016001820180546112d490613652565b80601f016020809104026020016040519081016040528092919081815260200182805461130090613652565b801561134d5780601f106113225761010080835404028352916020019161134d565b820191906000526020600020905b81548152906001019060200180831161133057829003601f168201915b505050505081526020016002820160009054906101000a900460ff16600281111561137b5761137a612f61565b5b600281111561138d5761138c612f61565b5b815260200160038201548152602001600482015481526020016005820180548060200260200160405190810160405280929190818152602001828054801561142a57602002820191906000526020600020905b8160009054906101000a900473ffffffffffffffffffffffffffffffffffffffff1673ffffffffffffffffffffffffffffffffffffffff16815260200190600101908083116113e0575b50505050508152602001600682018054806020026020016040519081016040528092919081815260200182805480156114b857602002820191906000526020600020905b8160009054906101000a900473ffffffffffffffffffffffffffffffffffffffff1673ffffffffffffffffffffffffffffffffffffffff168152602001906001019080831161146e575b505050505081526020016007820180548060200260200160405190810160405280929190818152602001828054801561154657602002820191906000526020600020905b8160009054906101000a900473ffffffffffffffffffffffffffffffffffffffff1673ffffffffffffffffffffffffffffffffffffffff16815260200190600101908083116114fc575b50505050508152602001600882018054806020026020016040519081016040528092919081815260200182805480156115d457602002820191906000526020600020905b8160009054906101000a900473ffffffffffffffffffffffffffffffffffffffff1673ffffffffffffffffffffffffffffffffffffffff168152602001906001019080831161158a575b5050505050815260200160098201548152602001600a8201548152602001600b820160009054906101000a900460ff16600581111561161657611615612f61565b5b600581111561162857611627612f61565b5b8152505081526020019060010190611296565b50505050905090565b60606000600283604051611658919061360c565b90815260200160405180910390206005018054905067ffffffffffffffff81111561168657611685612c55565b5b6040519080825280602002602001820160405280156116bf57816020015b6116ac612b4d565b8152602001906001900390816116a45790505b50905060005b6002846040516116d5919061360c565b9081526020016040518091039020600501805490508110156119bd576000600b60009054906101000a900473ffffffffffffffffffffffffffffffffffffffff1673ffffffffffffffffffffffffffffffffffffffff1663b7adcf1d600287604051611741919061360c565b9081526020016040518091039020600501848154811061176457611763613684565b5b9060005260206000200160009054906101000a900473ffffffffffffffffffffffffffffffffffffffff166040518263ffffffff1660e01b81526004016117ab91906136c2565b600060405180830381865afa1580156117c8573d6000803e3d6000fd5b505050506040513d6000823e3d601f19601f820116820180604052508101906117f19190613d20565b905060006040518060600160405280836000015160000151604001518152602001600288604051611822919061360c565b9081526020016040518091039020600501858154811061184557611844613684565b5b9060005260206000200160009054906101000a900473ffffffffffffffffffffffffffffffffffffffff1673ffffffffffffffffffffffffffffffffffffffff168152602001600c60009054906101000a900473ffffffffffffffffffffffffffffffffffffffff1673ffffffffffffffffffffffffffffffffffffffff166370a0823160028a6040516118d9919061360c565b908152602001604051809103902060050187815481106118fc576118fb613684565b5b9060005260206000200160009054906101000a900473ffffffffffffffffffffffffffffffffffffffff166040518263ffffffff1660e01b815260040161194391906136c2565b602060405180830381865afa158015611960573d6000803e3d6000fd5b505050506040513d601f19601f8201168201806040525081019061198491906136f2565b81525090508084848151811061199d5761199c613684565b5b6020026020010181905250505080806119b59061374e565b9150506116c5565b5080915050919050565b6119cf612b84565b6000600a60009054906101000a900473ffffffffffffffffffffffffffffffffffffffff1673ffffffffffffffffffffffffffffffffffffffff1663a3a40ea56040518163ffffffff1660e01b8152600401606060405180830381865afa158015611a3e573d6000803e3d6000fd5b505050506040513d601f19601f82011682018060405250810190611a629190613e9d565b90506008600a811115611a7857611a77612f61565b5b8160000151600a811115611a8f57611a8e612f61565b5b1480611ac357506009600a811115611aaa57611aa9612f61565b5b8160000151600a811115611ac157611ac0612f61565b5b145b15611ef85760005b600580549050811015611ef257836005811115611aeb57611aea612f61565b5b60058281548110611aff57611afe613684565b5b90600052602060002090600c0201600b0160009054906101000a900460ff166005811115611b3057611b2f612f61565b5b1415611edf5760058181548110611b4a57611b49613684565b5b90600052602060002090600c02016040518061018001604052908160008201548152602001600182018054611b7e90613652565b80601f0160208091040260200160405190810160405280929190818152602001828054611baa90613652565b8015611bf75780601f10611bcc57610100808354040283529160200191611bf7565b820191906000526020600020905b815481529060010190602001808311611bda57829003601f168201915b505050505081526020016002820160009054906101000a900460ff166002811115611c2557611c24612f61565b5b6002811115611c3757611c36612f61565b5b8152602001600382015481526020016004820154815260200160058201805480602002602001604051908101604052809291908181526020018280548015611cd457602002820191906000526020600020905b8160009054906101000a900473ffffffffffffffffffffffffffffffffffffffff1673ffffffffffffffffffffffffffffffffffffffff1681526020019060010190808311611c8a575b5050505050815260200160068201805480602002602001604051908101604052809291908181526020018280548015611d6257602002820191906000526020600020905b8160009054906101000a900473ffffffffffffffffffffffffffffffffffffffff1673ffffffffffffffffffffffffffffffffffffffff1681526020019060010190808311611d18575b5050505050815260200160078201805480602002602001604051908101604052809291908181526020018280548015611df057602002820191906000526020600020905b8160009054906101000a900473ffffffffffffffffffffffffffffffffffffffff1673ffffffffffffffffffffffffffffffffffffffff1681526020019060010190808311611da6575b5050505050815260200160088201805480602002602001604051908101604052809291908181526020018280548015611e7e57602002820191906000526020600020905b8160009054906101000a900473ffffffffffffffffffffffffffffffffffffffff1673ffffffffffffffffffffffffffffffffffffffff1681526020019060010190808311611e34575b5050505050815260200160098201548152602001600a8201548152602001600b820160009054906101000a900460ff166005811115611ec057611ebf612f61565b5b6005811115611ed257611ed1612f61565b5b81525050925050506128ef565b8080611eea9061374e565b915050611acb565b506128ed565b6005600a811115611f0c57611f0b612f61565b5b8160000151600a811115611f2357611f22612f61565b5b1480611f5757506007600a811115611f3e57611f3d612f61565b5b8160000151600a811115611f5557611f54612f61565b5b145b156123bc5760005b6005805490508110156123b657836005811115611f7f57611f7e612f61565b5b60058281548110611f9357611f92613684565b5b90600052602060002090600c0201600b0160009054906101000a900460ff166005811115611fc457611fc3612f61565b5b148015611ff557508560058281548110611fe157611fe0613684565b5b90600052602060002090600c020160090154145b156123a3576005818154811061200e5761200d613684565b5b90600052602060002090600c0201604051806101800160405290816000820154815260200160018201805461204290613652565b80601f016020809104026020016040519081016040528092919081815260200182805461206e90613652565b80156120bb5780601f10612090576101008083540402835291602001916120bb565b820191906000526020600020905b81548152906001019060200180831161209e57829003601f168201915b505050505081526020016002820160009054906101000a900460ff1660028111156120e9576120e8612f61565b5b60028111156120fb576120fa612f61565b5b815260200160038201548152602001600482015481526020016005820180548060200260200160405190810160405280929190818152602001828054801561219857602002820191906000526020600020905b8160009054906101000a900473ffffffffffffffffffffffffffffffffffffffff1673ffffffffffffffffffffffffffffffffffffffff168152602001906001019080831161214e575b505050505081526020016006820180548060200260200160405190810160405280929190818152602001828054801561222657602002820191906000526020600020905b8160009054906101000a900473ffffffffffffffffffffffffffffffffffffffff1673ffffffffffffffffffffffffffffffffffffffff16815260200190600101908083116121dc575b50505050508152602001600782018054806020026020016040519081016040528092919081815260200182805480156122b457602002820191906000526020600020905b8160009054906101000a900473ffffffffffffffffffffffffffffffffffffffff1673ffffffffffffffffffffffffffffffffffffffff168152602001906001019080831161226a575b505050505081526020016008820180548060200260200160405190810160405280929190818152602001828054801561234257602002820191906000526020600020905b8160009054906101000a900473ffffffffffffffffffffffffffffffffffffffff1673ffffffffffffffffffffffffffffffffffffffff16815260200190600101908083116122f8575b5050505050815260200160098201548152602001600a8201548152602001600b820160009054906101000a900460ff16600581111561238457612383612f61565b5b600581111561239657612395612f61565b5b81525050925050506128ef565b80806123ae9061374e565b915050611f5f565b506128ec565b6002600a8111156123d0576123cf612f61565b5b8160000151600a8111156123e7576123e6612f61565b5b148061241b57506003600a81111561240257612401612f61565b5b8160000151600a81111561241957612418612f61565b5b145b156128b05760005b6005805490508110156128aa5783600581111561244357612442612f61565b5b6005828154811061245757612456613684565b5b90600052602060002090600c0201600b0160009054906101000a900460ff16600581111561248857612487612f61565b5b1480156124b9575085600582815481106124a5576124a4613684565b5b90600052602060002090600c020160090154145b80156124e9575084600582815481106124d5576124d4613684565b5b90600052602060002090600c0201600a0154145b15612897576005818154811061250257612501613684565b5b90600052602060002090600c0201604051806101800160405290816000820154815260200160018201805461253690613652565b80601f016020809104026020016040519081016040528092919081815260200182805461256290613652565b80156125af5780601f10612584576101008083540402835291602001916125af565b820191906000526020600020905b81548152906001019060200180831161259257829003601f168201915b505050505081526020016002820160009054906101000a900460ff1660028111156125dd576125dc612f61565b5b60028111156125ef576125ee612f61565b5b815260200160038201548152602001600482015481526020016005820180548060200260200160405190810160405280929190818152602001828054801561268c57602002820191906000526020600020905b8160009054906101000a900473ffffffffffffffffffffffffffffffffffffffff1673ffffffffffffffffffffffffffffffffffffffff1681526020019060010190808311612642575b505050505081526020016006820180548060200260200160405190810160405280929190818152602001828054801561271a57602002820191906000526020600020905b8160009054906101000a900473ffffffffffffffffffffffffffffffffffffffff1673ffffffffffffffffffffffffffffffffffffffff16815260200190600101908083116126d0575b50505050508152602001600782018054806020026020016040519081016040528092919081815260200182805480156127a857602002820191906000526020600020905b8160009054906101000a900473ffffffffffffffffffffffffffffffffffffffff1673ffffffffffffffffffffffffffffffffffffffff168152602001906001019080831161275e575b505050505081526020016008820180548060200260200160405190810160405280929190818152602001828054801561283657602002820191906000526020600020905b8160009054906101000a900473ffffffffffffffffffffffffffffffffffffffff1673ffffffffffffffffffffffffffffffffffffffff16815260200190600101908083116127ec575b5050505050815260200160098201548152602001600a8201548152602001600b820160009054906101000a900460ff16600581111561287857612877612f61565b5b600581111561288a57612889612f61565b5b81525050925050506128ef565b80806128a29061374e565b915050612423565b506128eb565b6040517f08c379a00000000000000000000000000000000000000000000000000000000081526004016128e290613b4c565b60405180910390fd5b5b5b505b9392505050565b6000806000905060005b835181101561295c578184828151811061291d5761291c613684565b5b602002602001015111156129495783818151811061293e5761293d613684565b5b602002602001015191505b80806129549061374e565b915050612900565b5080915050919050565b600080600090505b83518110156129e2578273ffffffffffffffffffffffffffffffffffffffff168482815181106129a1576129a0613684565b5b602002602001015173ffffffffffffffffffffffffffffffffffffffff1614156129cf5760019150506129e8565b80806129da9061374e565b91505061296e565b50600090505b92915050565b600080600090505b8351811015612a69578273ffffffffffffffffffffffffffffffffffffffff16848281518110612a2957612a28613684565b5b602002602001015173ffffffffffffffffffffffffffffffffffffffff161415612a565780915050612a6f565b8080612a619061374e565b9150506129f6565b50825190505b92915050565b828054828255906000526020600020908101928215612ab65760005260206000209182015b82811115612ab5578254825591600101919060010190612a9a565b5b509050612ac39190612c09565b5090565b828054612ad390613652565b90600052602060002090601f016020900481019282612af55760008555612b3c565b82601f10612b0e57805160ff1916838001178555612b3c565b82800160010185558215612b3c579182015b82811115612b3b578251825591602001919060010190612b20565b5b509050612b499190612c09565b5090565b604051806060016040528060608152602001600073ffffffffffffffffffffffffffffffffffffffff168152602001600081525090565b604051806101800160405280600081526020016060815260200160006002811115612bb257612bb1612f61565b5b8152602001600081526020016000815260200160608152602001606081526020016060815260200160608152602001600081526020016000815260200160006005811115612c0357612c02612f61565b5b81525090565b5b80821115612c22576000816000905550600101612c0a565b5090565b6000604051905090565b600080fd5b600080fd5b600080fd5b600080fd5b6000601f19601f8301169050919050565b7f4e487b7100000000000000000000000000000000000000000000000000000000600052604160045260246000fd5b612c8d82612c44565b810181811067ffffffffffffffff82111715612cac57612cab612c55565b5b80604052505050565b6000612cbf612c26565b9050612ccb8282612c84565b919050565b600067ffffffffffffffff821115612ceb57612cea612c55565b5b612cf482612c44565b9050602081019050919050565b82818337600083830152505050565b6000612d23612d1e84612cd0565b612cb5565b905082815260208101848484011115612d3f57612d3e612c3f565b5b612d4a848285612d01565b509392505050565b600082601f830112612d6757612d66612c3a565b5b8135612d77848260208601612d10565b91505092915050565b600060208284031215612d9657612d95612c30565b5b600082013567ffffffffffffffff811115612db457612db3612c35565b5b612dc084828501612d52565b91505092915050565b600073ffffffffffffffffffffffffffffffffffffffff82169050919050565b6000612df482612dc9565b9050919050565b612e0481612de9565b8114612e0f57600080fd5b50565b600081359050612e2181612dfb565b92915050565b60008060408385031215612e3e57612e3d612c30565b5b6000612e4c85828601612e12565b9250506020612e5d85828601612e12565b9150509250929050565b600060208284031215612e7d57612e7c612c30565b5b6000612e8b84828501612e12565b91505092915050565b600081519050919050565b600082825260208201905092915050565b6000819050602082019050919050565b6000819050919050565b612ed381612ec0565b82525050565b600081519050919050565b600082825260208201905092915050565b60005b83811015612f13578082015181840152602081019050612ef8565b83811115612f22576000848401525b50505050565b6000612f3382612ed9565b612f3d8185612ee4565b9350612f4d818560208601612ef5565b612f5681612c44565b840191505092915050565b7f4e487b7100000000000000000000000000000000000000000000000000000000600052602160045260246000fd5b60038110612fa157612fa0612f61565b5b50565b6000819050612fb282612f90565b919050565b6000612fc282612fa4565b9050919050565b612fd281612fb7565b82525050565b600081519050919050565b600082825260208201905092915050565b6000819050602082019050919050565b61300d81612de9565b82525050565b600061301f8383613004565b60208301905092915050565b6000602082019050919050565b600061304382612fd8565b61304d8185612fe3565b935061305883612ff4565b8060005b838110156130895781516130708882613013565b975061307b8361302b565b92505060018101905061305c565b5085935050505092915050565b600681106130a7576130a6612f61565b5b50565b60008190506130b882613096565b919050565b60006130c8826130aa565b9050919050565b6130d8816130bd565b82525050565b6000610180830160008301516130f76000860182612eca565b506020830151848203602086015261310f8282612f28565b91505060408301516131246040860182612fc9565b5060608301516131376060860182612eca565b50608083015161314a6080860182612eca565b5060a083015184820360a08601526131628282613038565b91505060c083015184820360c086015261317c8282613038565b91505060e083015184820360e08601526131968282613038565b9150506101008301518482036101008601526131b28282613038565b9150506101208301516131c9610120860182612eca565b506101408301516131de610140860182612eca565b506101608301516131f36101608601826130cf565b508091505092915050565b600061320a83836130de565b905092915050565b6000602082019050919050565b600061322a82612e94565b6132348185612e9f565b93508360208202850161324685612eb0565b8060005b85811015613282578484038952815161326385826131fe565b945061326e83613212565b925060208a0199505060018101905061324a565b50829750879550505050505092915050565b600060208201905081810360008301526132ae818461321f565b905092915050565b600081519050919050565b600082825260208201905092915050565b6000819050602082019050919050565b600060608301600083015184820360008601526132ff8282612f28565b91505060208301516133146020860182613004565b5060408301516133276040860182612eca565b508091505092915050565b600061333e83836132e2565b905092915050565b6000602082019050919050565b600061335e826132b6565b61336881856132c1565b93508360208202850161337a856132d2565b8060005b858110156133b657848403895281516133978582613332565b94506133a283613346565b925060208a0199505060018101905061337e565b50829750879550505050505092915050565b600060208201905081810360008301526133e28184613353565b905092915050565b6133f381612ec0565b81146133fe57600080fd5b50565b600081359050613410816133ea565b92915050565b6006811061342357600080fd5b50565b60008135905061343581613416565b92915050565b60008060006060848603121561345457613453612c30565b5b600061346286828701613401565b935050602061347386828701613401565b925050604061348486828701613426565b9150509250925092565b6000610180830160008301516134a76000860182612eca565b50602083015184820360208601526134bf8282612f28565b91505060408301516134d46040860182612fc9565b5060608301516134e76060860182612eca565b5060808301516134fa6080860182612eca565b5060a083015184820360a08601526135128282613038565b91505060c083015184820360c086015261352c8282613038565b91505060e083015184820360e08601526135468282613038565b9150506101008301518482036101008601526135628282613038565b915050610120830151613579610120860182612eca565b5061014083015161358e610140860182612eca565b506101608301516135a36101608601826130cf565b508091505092915050565b600060208201905081810360008301526135c8818461348e565b905092915050565b600081905092915050565b60006135e682612ed9565b6135f081856135d0565b9350613600818560208601612ef5565b80840191505092915050565b600061361882846135db565b915081905092915050565b7f4e487b7100000000000000000000000000000000000000000000000000000000600052602260045260246000fd5b6000600282049050600182168061366a57607f821691505b6020821081141561367e5761367d613623565b5b50919050565b7f4e487b7100000000000000000000000000000000000000000000000000000000600052603260045260246000fd5b6136bc81612de9565b82525050565b60006020820190506136d760008301846136b3565b92915050565b6000815190506136ec816133ea565b92915050565b60006020828403121561370857613707612c30565b5b6000613716848285016136dd565b91505092915050565b7f4e487b7100000000000000000000000000000000000000000000000000000000600052601160045260246000fd5b600061375982612ec0565b91507fffffffffffffffffffffffffffffffffffffffffffffffffffffffffffffffff82141561378c5761378b61371f565b5b600182019050919050565b600080fd5b600080fd5b60006137b46137af84612cd0565b612cb5565b9050828152602081018484840111156137d0576137cf612c3f565b5b6137db848285612ef5565b509392505050565b600082601f8301126137f8576137f7612c3a565b5b81516138088482602086016137a1565b91505092915050565b6002811061381e57600080fd5b50565b60008151905061383081613811565b92915050565b6000610100828403121561384d5761384c613797565b5b613858610100612cb5565b90506000613868848285016136dd565b600083015250602082015167ffffffffffffffff81111561388c5761388b61379c565b5b613898848285016137e3565b602083015250604082015167ffffffffffffffff8111156138bc576138bb61379c565b5b6138c8848285016137e3565b60408301525060606138dc848285016136dd565b60608301525060806138f0848285016136dd565b60808301525060a0613904848285016136dd565b60a08301525060c061391884828501613821565b60c08301525060e082015167ffffffffffffffff81111561393c5761393b61379c565b5b613948848285016137e3565b60e08301525092915050565b60006040828403121561396a57613969613797565b5b6139746040612cb5565b9050600082015167ffffffffffffffff8111156139945761399361379c565b5b6139a084828501613836565b60008301525060206139b4848285016136dd565b60208301525092915050565b6000815190506139cf81612dfb565b92915050565b6000604082840312156139eb576139ea613797565b5b6139f56040612cb5565b9050600082015167ffffffffffffffff811115613a1557613a1461379c565b5b613a2184828501613954565b6000830152506020613a35848285016139c0565b60208301525092915050565b600060208284031215613a5757613a56612c30565b5b600082015167ffffffffffffffff811115613a7557613a74612c35565b5b613a81848285016139d5565b91505092915050565b60008115159050919050565b613a9f81613a8a565b8114613aaa57600080fd5b50565b600081519050613abc81613a96565b92915050565b600060208284031215613ad857613ad7612c30565b5b6000613ae684828501613aad565b91505092915050565b600082825260208201905092915050565b7f496e76616c6964204f7065726174696f6e000000000000000000000000000000600082015250565b6000613b36601183613aef565b9150613b4182613b00565b602082019050919050565b60006020820190508181036000830152613b6581613b29565b9050919050565b6000819050919050565b6000819050919050565b6000613b9b613b96613b9184613b6c565b613b76565b612ec0565b9050919050565b613bab81613b80565b82525050565b6000606082019050613bc660008301866136b3565b613bd360208301856136b3565b613be06040830184613ba2565b949350505050565b600060808284031215613bfe57613bfd613797565b5b613c086080612cb5565b9050600082015167ffffffffffffffff811115613c2857613c2761379c565b5b613c3484828501613836565b6000830152506020613c48848285016136dd565b602083015250604082015167ffffffffffffffff811115613c6c57613c6b61379c565b5b613c78848285016137e3565b604083015250606082015167ffffffffffffffff811115613c9c57613c9b61379c565b5b613ca8848285016137e3565b60608301525092915050565b600060408284031215613cca57613cc9613797565b5b613cd46040612cb5565b9050600082015167ffffffffffffffff811115613cf457613cf361379c565b5b613d0084828501613be8565b6000830152506020613d14848285016139c0565b60208301525092915050565b600060208284031215613d3657613d35612c30565b5b600082015167ffffffffffffffff811115613d5457613d53612c35565b5b613d6084828501613cb4565b91505092915050565b60008190508160005260206000209050919050565b60008154613d8b81613652565b613d9581866135d0565b94506001821660008114613db05760018114613dc157613df4565b60ff19831686528186019350613df4565b613dca85613d69565b60005b83811015613dec57815481890152600182019150602081019050613dcd565b838801955050505b50505092915050565b6000613e098284613d7e565b915081905092915050565b600b8110613e2157600080fd5b50565b600081519050613e3381613e14565b92915050565b600060608284031215613e4f57613e4e613797565b5b613e596060612cb5565b90506000613e6984828501613e24565b6000830152506020613e7d848285016136dd565b6020830152506040613e91848285016136dd565b60408301525092915050565b600060608284031215613eb357613eb2612c30565b5b6000613ec184828501613e39565b9150509291505056fea2646970667358221220b2030c12d699a716635e21abc0fee064e4811f2784c82167393ce54f6f8b2be964736f6c634300080a0033",
  "immutableReferences": {},
  "source": "// SPDX-License-Identifier: MIT\npragma solidity ^0.8.9;\n\n// import \"./Candidate.sol\";\n// import \"./Voter.sol\";\nimport \"./AAiTVoteToken.sol\";\nimport \"./AAiTStudent.sol\";\nimport \"./AAiTElectionTimer.sol\";\nimport \"./AAiTElectionHandler.sol\";\n\nlibrary AAiTElectionLibrary {\n    function contains(address[] memory array, address value)\n        internal\n        pure\n        returns (bool)\n    {\n        for (uint256 i = 0; i < array.length; i++) {\n            if (array[i] == value) {\n                return true;\n            }\n        }\n        return false;\n    }\n\n    function indexOf(address[] memory array, address value)\n        internal\n        pure\n        returns (uint256)\n    {\n        for (uint256 i = 0; i < array.length; i++) {\n            if (array[i] == value) {\n                return i;\n            }\n        }\n        return array.length;\n    }\n\n    function findLargest(uint256[] memory array)\n        internal\n        pure\n        returns (uint256)\n    {\n        uint256 largest = 0;\n        for (uint256 i = 0; i < array.length; i++) {\n            if (array[i] > largest) {\n                largest = array[i];\n            }\n        }\n        return largest;\n    }\n\n    function bytes32ToString(bytes32 _bytes32)\n        internal\n        pure\n        returns (string memory)\n    {\n        uint8 i = 0;\n        while (i < 32 && _bytes32[i] != 0) {\n            i++;\n        }\n        bytes memory bytesArray = new bytes(i);\n        for (i = 0; i < 32 && _bytes32[i] != 0; i++) {\n            bytesArray[i] = _bytes32[i];\n        }\n        return string(bytesArray);\n    }\n}\n\ncontract AAiTElection {\n    enum DEPTARTMENT_TYPE {\n        BIOMED,\n        CHEMICAL,\n        CIVIL,\n        ELEC,\n        MECHANICAL,\n        SITE\n    }\n    enum ELECTION_TYPE {\n        PENDING,\n        ONGOING,\n        COMPLETED\n    }\n    string[] private deptTypes = [\n        \"Biomedical Engineering\",\n        \"Chemical Engineering\",\n        \"Civil Engineering\",\n        \"Electrical Engineering\",\n        \"Mechanical Engineering\",\n        \"Software Engineering\"\n    ];\n\n    struct ElectionStruct {\n        uint256 index;\n        string name;\n        ELECTION_TYPE electionType;\n        uint256 startDate;\n        uint256 endDate;\n        address[] candidates;\n        address[] winners;\n        address[] voters;\n        address[] voted;\n        uint256 year;\n        uint256 section;\n        DEPTARTMENT_TYPE department;\n    }\n\n    struct ElectionResultStruct {\n        string candidateFullName;\n        // string candidateLName;\n        // string candidateGName;\n        address candidateAddress;\n        uint256 votes;\n    }\n\n    address private owner;\n    // address private AAiTVoteTokenAddress;\n    // address private AAiTStudentAddress;\n    // address private AAiTElectionTimerAddress;\n\n    mapping(string => ElectionStruct) private electionStructsMapping;\n    string[] private electionIndex;\n    ElectionStruct[] private electionValue;\n    ElectionStruct[] private allElections;\n    ElectionStruct[] private midTransistionElections;\n    ElectionStruct[] private previousElections;\n    AAiTStudent.CandidateStruct[] private blacklistedCandidates;\n\n    AAiTElectionHandler electionHandler;\n    AAiTElectionTimer electionTimer;\n    AAiTStudent student;\n    AAiTVoteToken voteToken;\n\n    // event LogNewElection(\n    //     uint256 index,\n    //     string name,\n    //     ELECTION_TYPE electionType,\n    //     string startDate,\n    //     string endDate,\n    //     address[] candidates,\n    //     address[] winners,\n    //     address[] voters,\n    //     address[] voted,\n    //     uint256 year,\n    //     uint256 section,\n    //     DEPTARTMENT_TYPE department\n    // );\n    // event LogUpdateElection(\n    //     uint256 index,\n    //     string name,\n    //     ELECTION_TYPE electionType,\n    //     string startDate,\n    //     string endDate,\n    //     address[] candidates,\n    //     address[] winners,\n    //     address[] voters,\n    //     address[] voted,\n    //     uint256 year,\n    //     uint256 section,\n    //     DEPTARTMENT_TYPE department\n    // );\n\n    modifier onlyOwner() {\n        require(msg.sender == owner);\n        _;\n    }\n\n    constructor(\n        address _AAiTVoteTokenAddress,\n        address _AAiTStudentAddress,\n        address _AAiTElectionTimerAddress\n    ) {\n        owner = msg.sender;\n        // AAiTVoteTokenAddress = _AAiTVoteTokenAddress;\n        // AAiTStudentAddress = _AAiTStudentAddress;\n        // AAiTElectionTimerAddress = _AAiTElectionTimerAddress;\n        // electionHandler = AAiTElectionHandler(AAiTElectionHandlerAddress);\n        electionTimer = AAiTElectionTimer(_AAiTElectionTimerAddress);\n        student = AAiTStudent(_AAiTStudentAddress);\n        voteToken = AAiTVoteToken(_AAiTVoteTokenAddress);\n    }\n\n    // ELECTION FUNCTIONS\n\n    function findElectionByName(string memory _name)\n        private\n        view\n        returns (bool)\n    {\n        for (uint256 i = 0; i < allElections.length; i++) {\n            if (\n                keccak256(abi.encodePacked(allElections[i].name)) ==\n                keccak256(abi.encodePacked(_name))\n            ) {\n                return true;\n            }\n        }\n        return false;\n    }\n\n    function findElectionByType(\n        uint256 year,\n        uint256 section,\n        DEPTARTMENT_TYPE department\n    ) private view returns (bool) {\n        for (uint256 i = 0; i < allElections.length; i++) {\n            if (\n                allElections[i].year == year &&\n                allElections[i].section == section &&\n                keccak256(abi.encodePacked(allElections[i].department)) ==\n                keccak256(abi.encodePacked(department))\n            ) {\n                return true;\n            }\n        }\n        return false;\n    }\n\n    // function addElection(\n    //     string memory name,\n    //     ELECTION_TYPE electionType,\n    //     string memory startDate,\n    //     string memory endDate,\n    //     address[] memory candidates,\n    //     address[] memory voters,\n    //     uint256 year,\n    //     uint256 section,\n    //     DEPTARTMENT_TYPE department\n    // ) public {\n    //     require(\n    //         !findElectionByName(name) ||\n    //             !findElectionByType(year, section, department),\n    //         \"exists\"\n    //     );\n\n    //     uint256 index = allElections.length;\n    //     address[] memory empty;\n    //     electionStructsMapping[name] = ElectionStruct(\n    //         allElections.length,\n    //         name,\n    //         electionType,\n    //         startDate,\n    //         endDate,\n    //         candidates,\n    //         empty,\n    //         voters,\n    //         empty,\n    //         year,\n    //         section,\n    //         department\n    //     );\n    //     allElections.push(\n    //         ElectionStruct({\n    //             index: allElections.length,\n    //             name: name,\n    //             electionType: electionType,\n    //             startDate: startDate,\n    //             endDate: endDate,\n    //             candidates: candidates,\n    //             winners: empty,\n    //             voters: voters,\n    //             voted: empty,\n    //             year: year,\n    //             section: section,\n    //             department: department\n    //         })\n    //     );\n    // }\n\n    function removeElection(string memory name) internal onlyOwner {\n        require(findElectionByName(name), \"No Election\");\n        // uint256 rowToDelete = electionStructsMapping[name].index;\n        // string memory keyToMove = electionIndex[electionIndex.length - 1];\n        electionIndex[electionStructsMapping[name].index] = electionIndex[\n            electionIndex.length - 1\n        ];\n        electionStructsMapping[electionIndex[electionIndex.length - 1]]\n            .index = electionStructsMapping[name].index;\n\n        electionValue[electionStructsMapping[name].index] = electionValue[\n            electionValue.length - 1\n        ];\n        electionValue[electionStructsMapping[name].index]\n            .index = electionStructsMapping[name].index;\n        electionValue.pop();\n        electionIndex.pop();\n        delete allElections[electionStructsMapping[name].index];\n        previousElections.push(\n            electionStructsMapping[electionIndex[electionIndex.length - 1]]\n        );\n        delete electionStructsMapping[electionIndex[electionIndex.length - 1]];\n    }\n\n    function vote(address voterAddress, address candidateAddress) public {\n        // AAiTVoteToken tempToken = AAiTVoteToken(AAiTVoteTokenAddress);\n        // AAiTStudent student = AAiTStudent(AAiTStudentAddress);\n        AAiTStudent.VoterStruct memory tempVoter = student.getVoter(\n            voterAddress\n        );\n        require(\n            voterAddress != candidateAddress ||\n                voterAddress != owner ||\n                candidateAddress != owner ||\n                student.isVoter(\n                    // tempVoter.voterInfo.voterInfo.fName,\n                    // tempVoter.voterInfo.voterInfo.lName,\n                    // tempVoter.voterInfo.voterInfo.gName,\n                    voterAddress\n                ) ||\n                voteToken.balanceOf(voterAddress) > 0 ||\n                !AAiTElectionLibrary.contains(\n                    getElectionByType(\n                        tempVoter.voterInfo.voterInfo.currentYear,\n                        tempVoter.voterInfo.voterInfo.currentSection,\n                        DEPTARTMENT_TYPE(\n                            uint256(\n                                tempVoter.voterInfo.voterInfo.currentDepartment\n                            )\n                        )\n                    ).voted,\n                    voterAddress\n                ),\n            \"Invalid Operation\"\n        );\n\n        // require(\n        //     ,\n        //     \"You have already voted\"\n        // );\n        voteToken.transferFrom(voterAddress, candidateAddress, 1);\n        // moveToVoted(\n        //     voterAddress,\n        //     getElectionByType(\n        //         tempVoter.voterInfo.voterInfo.currentYear,\n        //         tempVoter.voterInfo.voterInfo.currentSection,\n        //         DEPTARTMENT_TYPE(\n        //             uint256(tempVoter.voterInfo.voterInfo.currentDepartment)\n        //         )\n        //     ).name\n        // );\n        string memory tempName = getElectionByType(\n            tempVoter.voterInfo.voterInfo.currentYear,\n            tempVoter.voterInfo.voterInfo.currentSection,\n            DEPTARTMENT_TYPE(\n                uint256(tempVoter.voterInfo.voterInfo.currentDepartment)\n            )\n        ).name;\n\n        electionStructsMapping[tempName].voted.push(voterAddress);\n        // delete electionStructsMapping[electionName].voters[index];\n        // uint256 index = electionStructsMapping[electionName].index;\n        electionValue[electionStructsMapping[tempName].index]\n            .voted = electionStructsMapping[tempName].voted;\n    }\n\n    function declareWinner(string memory electionName) public view {\n        // AAiTVoteToken tempToken = AAiTVoteToken(AAiTVoteTokenAddress);\n        ElectionStruct memory temp = electionStructsMapping[electionName];\n\n        uint256[] memory tempVoteCount = new uint256[](temp.candidates.length);\n        address[] memory winners = new address[](3);\n        for (uint256 i = 0; i < temp.candidates.length; i++) {\n            tempVoteCount[i] = voteToken.balanceOf(temp.candidates[i]);\n            // tempVoteCount.push(tempToken.balanceOf(temp.candidates[i]));\n        }\n        uint256 max = AAiTElectionLibrary.findLargest(tempVoteCount);\n        for (uint256 i = 0; i < temp.candidates.length; i++) {\n            if (tempVoteCount[i] == max) {\n                winners[i] = temp.candidates[i];\n            }\n        }\n\n        temp.winners = winners;\n        temp.electionType = ELECTION_TYPE.COMPLETED;\n\n        // sort candidates\n        // uint256[] memory sortedCandidates = temp.candidates;\n\n        // removeElection(electionName);\n\n        // uint256 index = electionStructsMapping[electionName].index;\n        // uint256 winnerIndex = electionStructsMapping[electionName].winners.length;\n        // electionStructsMapping[electionName].winners.push(electionStructsMapping[electionName].candidates[winnerIndex]);\n    }\n\n    function blacklistCandidate(address candidateAddress) public onlyOwner {\n        // AAiTStudent student = AAiTStudent(AAiTStudentAddress);\n        // AAiTStudent.CandidateStruct memory tempCandidate = student.getCandidate(\n        //     candidateAddress\n        // );\n        blacklistedCandidates.push(student.getCandidate(candidateAddress));\n        // ElectionStruct[] memory tempElection = allElections;\n        for (uint256 i = 0; i < allElections.length; i++) {\n            if (\n                AAiTElectionLibrary.contains(\n                    allElections[i].candidates,\n                    candidateAddress\n                )\n            ) {\n                delete allElections[i].candidates[\n                    AAiTElectionLibrary.indexOf(\n                        allElections[i].candidates,\n                        candidateAddress\n                    )\n                ];\n\n                electionStructsMapping[allElections[i].name]\n                    .candidates = allElections[i].candidates;\n\n                student.removeCandidate(\n                    // tempCandidate.candidateInfo.candidateInfo.fName,\n                    // tempCandidate.candidateInfo.candidateInfo.lName,\n                    // tempCandidate.candidateInfo.candidateInfo.gName,\n                    candidateAddress\n                );\n            }\n        }\n    }\n\n    // function endElection(string memory electionName) public onlyOwner {\n    //     declareWinner(electionName);\n    //     removeElection(electionName);\n    // }\n\n\n    function getElectionResult(string memory electionName)\n        public\n        view\n        returns (ElectionResultStruct[] memory)\n    {\n        // ElectionStruct memory temp = electionStructsMapping[electionName];\n        ElectionResultStruct[] memory result = new ElectionResultStruct[](\n            electionStructsMapping[electionName].candidates.length\n        );\n        // AAiTVoteToken tempToken = AAiTVoteToken(AAiTVoteTokenAddress);\n        // AAiTStudent student = AAiTStudent(AAiTStudentAddress);\n\n        for (\n            uint256 i = 0;\n            i < electionStructsMapping[electionName].candidates.length;\n            i++\n        ) {\n            AAiTStudent.CandidateStruct memory tempCandidate = student\n                .getCandidate(\n                    electionStructsMapping[electionName].candidates[i]\n                );\n            ElectionResultStruct memory tempResult = ElectionResultStruct(\n                tempCandidate.candidateInfo.candidateInfo.fullName,\n                // tempCandidate.candidateInfo.candidateInfo.lName,\n                // tempCandidate.candidateInfo.candidateInfo.gName,\n                electionStructsMapping[electionName].candidates[i],\n                voteToken.balanceOf(\n                    electionStructsMapping[electionName].candidates[i]\n                )\n            );\n            result[i] = tempResult;\n        }\n        return result;\n    }\n\n    // function moveToVoted(address voterAddress, string memory electionName)\n    //     private\n    // {\n    //     // uint256 index = electionStructsMapping[electionName].index;\n\n    //     electionStructsMapping[electionName].voted.push(voterAddress);\n    //     // delete electionStructsMapping[electionName].voters[index];\n    //     // uint256 index = electionStructsMapping[electionName].index;\n    //     electionValue[electionStructsMapping[electionName].index]\n    //         .voted = electionStructsMapping[electionName].voted;\n    //     // emit LogUpdateElection(\n    //     //     index,\n    //     //     electionStructsMapping[electionName].name,\n    //     //     electionStructsMapping[electionName].electionType,\n    //     //     electionStructsMapping[electionName].startDate,\n    //     //     electionStructsMapping[electionName].endDate,\n    //     //     electionStructsMapping[electionName].candidates,\n    //     //     electionStructsMapping[electionName].winners,\n    //     //     electionStructsMapping[electionName].voters,\n    //     //     electionStructsMapping[electionName].voted,\n    //     //     electionStructsMapping[electionName].year,\n    //     //     electionStructsMapping[electionName].section,\n    //     //     electionStructsMapping[electionName].department\n    //     // );\n    // }\n\n    // GET FUNCTIONS\n\n    function getAllElections() public view returns (ElectionStruct[] memory) {\n        return allElections;\n    }\n\n    function getElectionByType(\n        uint256 year,\n        uint256 section,\n        AAiTElection.DEPTARTMENT_TYPE department\n    ) public view returns (AAiTElection.ElectionStruct memory) {\n        // AAiTElectionTimer electionTimer = AAiTElectionTimer(\n        //     AAiTElectionTimerAddress\n        // );\n        // AAiTElection tempElection = AAiTElection(AAiTElectionAddress);\n        // AAiTElection.ElectionStruct[] memory allElections = tempElection\n        //     .getAllElections();\n        AAiTElectionTimer.ElectionPhase memory tempPhase = electionTimer\n            .getCurrentPhase();\n        if (\n            tempPhase.phaseName ==\n            AAiTElectionTimer.PHASE_NAME.DEPARTMENT_ELECTION ||\n            tempPhase.phaseName ==\n            AAiTElectionTimer.PHASE_NAME.DEPARTMENT_ELECTION_DONE\n        ) {\n            for (uint256 i = 0; i < allElections.length; i++) {\n                if (allElections[i].department == department) {\n                    return allElections[i];\n                }\n            }\n        } else if (\n            tempPhase.phaseName ==\n            AAiTElectionTimer.PHASE_NAME.BATCH_ELECTION ||\n            tempPhase.phaseName ==\n            AAiTElectionTimer.PHASE_NAME.BATCH_ELECTION_DONE\n        ) {\n            for (uint256 i = 0; i < allElections.length; i++) {\n                if (\n                    allElections[i].department == department &&\n                    allElections[i].year == year\n                ) {\n                    return allElections[i];\n                }\n            }\n        } else if (\n            tempPhase.phaseName ==\n            AAiTElectionTimer.PHASE_NAME.SECTION_ELECTION ||\n            tempPhase.phaseName ==\n            AAiTElectionTimer.PHASE_NAME.SECTION_ELECTION_DONE\n        ) {\n            for (uint256 i = 0; i < allElections.length; i++) {\n                if (\n                    allElections[i].department == department &&\n                    allElections[i].year == year &&\n                    allElections[i].section == section\n                ) {\n                    return allElections[i];\n                }\n            }\n        } else {\n            revert(\"Invalid Operation\");\n        }\n    }\n}\n",
  "sourcePath": "/home/dannyterefe/Documents/VSCode_Projects/Final_Project/blockchain_based_voting_system/dvbst_smart_contracts/contracts/AAiTElection.sol",
  "compiler": {
    "name": "solc",
    "version": "0.8.10+commit.fc410830.Emscripten.clang"
  },
  "schemaVersion": "3.4.4",
  "updatedAt": "2022-05-25T12:52:35.322Z",
  "networkType": "ethereum",
  "devdoc": {
    "kind": "dev",
    "methods": {},
    "version": 1
  },
  "userdoc": {
    "kind": "user",
    "methods": {},
    "version": 1
  }
}