{
  "contractName": "AAiTElectionHandler",
  "abi": [
    {
      "inputs": [
        {
          "internalType": "address",
          "name": "_AAiTVoteTokenAddress",
          "type": "address"
        },
        {
          "internalType": "address",
          "name": "_AAiTStudentAddress",
          "type": "address"
        },
        {
          "internalType": "address",
          "name": "_AAiTElectionTimerAddress",
          "type": "address"
        },
        {
          "internalType": "address",
          "name": "_AAiTElectionAddress",
          "type": "address"
        }
      ],
      "stateMutability": "nonpayable",
      "type": "constructor"
    },
    {
      "inputs": [
        {
          "internalType": "uint256",
          "name": "index",
          "type": "uint256"
        },
        {
          "internalType": "uint256",
          "name": "startDate",
          "type": "uint256"
        },
        {
          "internalType": "uint256",
          "name": "endDate",
          "type": "uint256"
        },
        {
          "internalType": "uint256",
          "name": "year",
          "type": "uint256"
        },
        {
          "internalType": "uint256",
          "name": "section",
          "type": "uint256"
        },
        {
          "internalType": "enum AAiTElection.DEPTARTMENT_TYPE",
          "name": "department",
          "type": "uint8"
        },
        {
          "components": [
            {
              "internalType": "uint256",
              "name": "index",
              "type": "uint256"
            },
            {
              "internalType": "string",
              "name": "name",
              "type": "string"
            },
            {
              "internalType": "enum AAiTElection.ELECTION_TYPE",
              "name": "electionType",
              "type": "uint8"
            },
            {
              "internalType": "uint256",
              "name": "startDate",
              "type": "uint256"
            },
            {
              "internalType": "uint256",
              "name": "endDate",
              "type": "uint256"
            },
            {
              "internalType": "address[]",
              "name": "candidates",
              "type": "address[]"
            },
            {
              "internalType": "address[]",
              "name": "winners",
              "type": "address[]"
            },
            {
              "internalType": "address[]",
              "name": "voters",
              "type": "address[]"
            },
            {
              "internalType": "address[]",
              "name": "voted",
              "type": "address[]"
            },
            {
              "internalType": "uint256",
              "name": "year",
              "type": "uint256"
            },
            {
              "internalType": "uint256",
              "name": "section",
              "type": "uint256"
            },
            {
              "internalType": "enum AAiTElection.DEPTARTMENT_TYPE",
              "name": "department",
              "type": "uint8"
            }
          ],
          "internalType": "struct AAiTElection.ElectionStruct[]",
          "name": "allElections",
          "type": "tuple[]"
        }
      ],
      "name": "createElection",
      "outputs": [
        {
          "components": [
            {
              "internalType": "uint256",
              "name": "index",
              "type": "uint256"
            },
            {
              "internalType": "string",
              "name": "name",
              "type": "string"
            },
            {
              "internalType": "enum AAiTElection.ELECTION_TYPE",
              "name": "electionType",
              "type": "uint8"
            },
            {
              "internalType": "uint256",
              "name": "startDate",
              "type": "uint256"
            },
            {
              "internalType": "uint256",
              "name": "endDate",
              "type": "uint256"
            },
            {
              "internalType": "address[]",
              "name": "candidates",
              "type": "address[]"
            },
            {
              "internalType": "address[]",
              "name": "winners",
              "type": "address[]"
            },
            {
              "internalType": "address[]",
              "name": "voters",
              "type": "address[]"
            },
            {
              "internalType": "address[]",
              "name": "voted",
              "type": "address[]"
            },
            {
              "internalType": "uint256",
              "name": "year",
              "type": "uint256"
            },
            {
              "internalType": "uint256",
              "name": "section",
              "type": "uint256"
            },
            {
              "internalType": "enum AAiTElection.DEPTARTMENT_TYPE",
              "name": "department",
              "type": "uint8"
            }
          ],
          "internalType": "struct AAiTElection.ElectionStruct",
          "name": "",
          "type": "tuple"
        }
      ],
      "stateMutability": "nonpayable",
      "type": "function"
    },
    {
      "inputs": [],
      "name": "generateElectionsPerPhase",
      "outputs": [],
      "stateMutability": "nonpayable",
      "type": "function"
    },
    {
      "inputs": [],
      "name": "burnAllTokens",
      "outputs": [],
      "stateMutability": "nonpayable",
      "type": "function"
    },
    {
      "inputs": [],
      "name": "mintAndSendTokens",
      "outputs": [],
      "stateMutability": "nonpayable",
      "type": "function"
    },
    {
      "inputs": [],
      "name": "endAllOngoingElections",
      "outputs": [],
      "stateMutability": "nonpayable",
      "type": "function"
    }
  ],
  "bytecode": "0x60806040526040518060c001604052806040518060400160405280601681526020017f42696f6d65646963616c20456e67696e656572696e670000000000000000000081525081526020016040518060400160405280601481526020017f4368656d6963616c20456e67696e656572696e6700000000000000000000000081525081526020016040518060400160405280601181526020017f436976696c20456e67696e656572696e6700000000000000000000000000000081525081526020016040518060400160405280601681526020017f456c656374726963616c20456e67696e656572696e670000000000000000000081525081526020016040518060400160405280601681526020017f4d656368616e6963616c20456e67696e656572696e670000000000000000000081525081526020016040518060400160405280601481526020017f536f66747761726520456e67696e656572696e6700000000000000000000000081525081525060049060066200018192919062000303565b503480156200018f57600080fd5b506040516200446a3803806200446a8339818101604052810190620001b59190620004f2565b336000806101000a81548173ffffffffffffffffffffffffffffffffffffffff021916908373ffffffffffffffffffffffffffffffffffffffff16021790555081600660006101000a81548173ffffffffffffffffffffffffffffffffffffffff021916908373ffffffffffffffffffffffffffffffffffffffff16021790555082600760006101000a81548173ffffffffffffffffffffffffffffffffffffffff021916908373ffffffffffffffffffffffffffffffffffffffff16021790555083600860006101000a81548173ffffffffffffffffffffffffffffffffffffffff021916908373ffffffffffffffffffffffffffffffffffffffff16021790555080600960006101000a81548173ffffffffffffffffffffffffffffffffffffffff021916908373ffffffffffffffffffffffffffffffffffffffff16021790555050505050620005c9565b82805482825590600052602060002090810192821562000357579160200282015b8281111562000356578251829080519060200190620003459291906200036a565b509160200191906001019062000324565b5b509050620003669190620003fb565b5090565b828054620003789062000593565b90600052602060002090601f0160209004810192826200039c5760008555620003e8565b82601f10620003b757805160ff1916838001178555620003e8565b82800160010185558215620003e8579182015b82811115620003e7578251825591602001919060010190620003ca565b5b509050620003f7919062000423565b5090565b5b808211156200041f576000818162000415919062000442565b50600101620003fc565b5090565b5b808211156200043e57600081600090555060010162000424565b5090565b508054620004509062000593565b6000825580601f1062000464575062000485565b601f01602090049060005260206000209081019062000484919062000423565b5b50565b600080fd5b600073ffffffffffffffffffffffffffffffffffffffff82169050919050565b6000620004ba826200048d565b9050919050565b620004cc81620004ad565b8114620004d857600080fd5b50565b600081519050620004ec81620004c1565b92915050565b600080600080608085870312156200050f576200050e62000488565b5b60006200051f87828801620004db565b94505060206200053287828801620004db565b93505060406200054587828801620004db565b92505060606200055887828801620004db565b91505092959194509250565b7f4e487b7100000000000000000000000000000000000000000000000000000000600052602260045260246000fd5b60006002820490506001821680620005ac57607f821691505b60208210811415620005c357620005c262000564565b5b50919050565b613e9180620005d96000396000f3fe608060405234801561001057600080fd5b50600436106100575760003560e01c80636c3d82ac1461005c57806370c1c92f146100665780637bc0296714610070578063a47ea0ef1461007a578063c17e2aa1146100aa575b600080fd5b6100646100b4565b005b61006e6106fc565b005b610078610a34565b005b610094600480360381019061008f91906129ac565b610c9e565b6040516100a19190612d9e565b60405180910390f35b6100b26110e6565b005b60008054906101000a900473ffffffffffffffffffffffffffffffffffffffff1673ffffffffffffffffffffffffffffffffffffffff163373ffffffffffffffffffffffffffffffffffffffff161461010c57600080fd5b6000600660009054906101000a900473ffffffffffffffffffffffffffffffffffffffff1673ffffffffffffffffffffffffffffffffffffffff1663a3a40ea56040518163ffffffff1660e01b8152600401606060405180830381865afa15801561017b573d6000803e3d6000fd5b505050506040513d601f19601f8201168201806040525081019061019f9190612e5e565b90506000600960009054906101000a900473ffffffffffffffffffffffffffffffffffffffff1673ffffffffffffffffffffffffffffffffffffffff16637fd5f2686040518163ffffffff1660e01b8152600401600060405180830381865afa158015610210573d6000803e3d6000fd5b505050506040513d6000823e3d601f19601f820116820180604052508101906102399190613234565b90506002600a81111561024f5761024e612b01565b5b8260000151600a81111561026657610265612b01565b5b14156104655760005b60048054905081101561045f576000600190505b600681101561044b576000600190505b60038110156104375760006102cc6005805490508760200151886040015186868960058111156102c6576102c5612b01565b5b8b610c9e565b905060058190806001815401808255809150506001900390600052602060002090600c0201600090919091909150600082015181600001556020820151816001019080519060200190610320929190612261565b5060408201518160020160006101000a81548160ff0219169083600281111561034c5761034b612b01565b5b0217905550606082015181600301556080820151816004015560a08201518160050190805190602001906103819291906122e7565b5060c082015181600601908051906020019061039e9291906122e7565b5060e08201518160070190805190602001906103bb9291906122e7565b506101008201518160080190805190602001906103d99291906122e7565b50610120820151816009015561014082015181600a015561016082015181600b0160006101000a81548160ff0219169083600581111561041c5761041b612b01565b5b0217905550505050808061042f906132ac565b915050610293565b508080610443906132ac565b915050610283565b508080610457906132ac565b91505061026f565b506106f8565b6005600a81111561047957610478612b01565b5b8260000151600a8111156104905761048f612b01565b5b141561066c5760005b600480549050811015610666576000600190505b60068110156106525760006104e7600580549050866020015187604001518560008860058111156104e1576104e0612b01565b5b8a610c9e565b905060058190806001815401808255809150506001900390600052602060002090600c020160009091909190915060008201518160000155602082015181600101908051906020019061053b929190612261565b5060408201518160020160006101000a81548160ff0219169083600281111561056757610566612b01565b5b0217905550606082015181600301556080820151816004015560a082015181600501908051906020019061059c9291906122e7565b5060c08201518160060190805190602001906105b99291906122e7565b5060e08201518160070190805190602001906105d69291906122e7565b506101008201518160080190805190602001906105f49291906122e7565b50610120820151816009015561014082015181600a015561016082015181600b0160006101000a81548160ff0219169083600581111561063757610636612b01565b5b0217905550505050808061064a906132ac565b9150506104ad565b50808061065e906132ac565b915050610499565b506106f7565b6008600a8111156106805761067f612b01565b5b8260000151600a81111561069757610696612b01565b5b14156106f65760005b6004805490508110156106f45760006106de600580549050856020015186604001516000808760058111156106d8576106d7612b01565b5b89610c9e565b90505080806106ec906132ac565b9150506106a0565b505b5b5b5050565b60008054906101000a900473ffffffffffffffffffffffffffffffffffffffff1673ffffffffffffffffffffffffffffffffffffffff163373ffffffffffffffffffffffffffffffffffffffff161461075457600080fd5b6000600660009054906101000a900473ffffffffffffffffffffffffffffffffffffffff1673ffffffffffffffffffffffffffffffffffffffff1663a3a40ea56040518163ffffffff1660e01b8152600401606060405180830381865afa1580156107c3573d6000803e3d6000fd5b505050506040513d601f19601f820116820180604052508101906107e79190612e5e565b90506000600960009054906101000a900473ffffffffffffffffffffffffffffffffffffffff1673ffffffffffffffffffffffffffffffffffffffff16637fd5f2686040518163ffffffff1660e01b8152600401600060405180830381865afa158015610858573d6000803e3d6000fd5b505050506040513d6000823e3d601f19601f820116820180604052508101906108819190613234565b90506008600a81111561089757610896612b01565b5b8260000151600a8111156108ae576108ad612b01565b5b14806108e257506002600a8111156108c9576108c8612b01565b5b8260000151600a8111156108e0576108df612b01565b5b145b8061091557506005600a8111156108fc576108fb612b01565b5b8260000151600a81111561091357610912612b01565b5b145b15610a305760005b8151811015610a2e576001600281111561093a57610939612b01565b5b82828151811061094d5761094c6132f5565b5b602002602001015160400151600281111561096b5761096a612b01565b5b1415610a1b57600960009054906101000a900473ffffffffffffffffffffffffffffffffffffffff1673ffffffffffffffffffffffffffffffffffffffff1663014e9f038383815181106109c2576109c16132f5565b5b6020026020010151602001516040518263ffffffff1660e01b81526004016109ea919061336e565b60006040518083038186803b158015610a0257600080fd5b505afa158015610a16573d6000803e3d6000fd5b505050505b8080610a26906132ac565b91505061091d565b505b5050565b60008054906101000a900473ffffffffffffffffffffffffffffffffffffffff1673ffffffffffffffffffffffffffffffffffffffff163373ffffffffffffffffffffffffffffffffffffffff1614610a8c57600080fd5b6000600760009054906101000a900473ffffffffffffffffffffffffffffffffffffffff1673ffffffffffffffffffffffffffffffffffffffff166335bbe70e6040518163ffffffff1660e01b8152600401600060405180830381865afa158015610afb573d6000803e3d6000fd5b505050506040513d6000823e3d601f19601f82011682018060405250810190610b24919061368c565b9050600081519050600860009054906101000a900473ffffffffffffffffffffffffffffffffffffffff1673ffffffffffffffffffffffffffffffffffffffff1663a0712d6883516040518263ffffffff1660e01b8152600401610b8891906136e4565b600060405180830381600087803b158015610ba257600080fd5b505af1158015610bb6573d6000803e3d6000fd5b5050505060005b8251811015610c9957600860009054906101000a900473ffffffffffffffffffffffffffffffffffffffff1673ffffffffffffffffffffffffffffffffffffffff1663a9059cbb848381518110610c1757610c166132f5565b5b60200260200101516020015160016040518363ffffffff1660e01b8152600401610c42929190613753565b6020604051808303816000875af1158015610c61573d6000803e3d6000fd5b505050506040513d601f19601f82011682018060405250810190610c8591906137b4565b508080610c91906132ac565b915050610bbd565b505050565b610ca6612371565b60008054906101000a900473ffffffffffffffffffffffffffffffffffffffff1673ffffffffffffffffffffffffffffffffffffffff163373ffffffffffffffffffffffffffffffffffffffff1614610cfe57600080fd5b6060600086148015610d105750600085145b15610e685760006040518061018001604052808b81526020016004876005811115610d3e57610d3d612b01565b5b81548110610d4f57610d4e6132f5565b5b906000526020600020018054610d6490613810565b80601f0160208091040260200160405190810160405280929190818152602001828054610d9090613810565b8015610ddd5780601f10610db257610100808354040283529160200191610ddd565b820191906000526020600020905b815481529060010190602001808311610dc057829003601f168201915b5050505050815260200160016002811115610dfb57610dfa612b01565b5b81526020018a8152602001898152602001610e18898989896114b9565b8152602001838152602001610e2f898989896117d2565b8152602001838152602001888152602001878152602001866005811115610e5957610e58612b01565b5b815250905080925050506110db565b6000851415610f79576000610edb6004866005811115610e8b57610e8a612b01565b5b81548110610e9c57610e9b6132f5565b5b90600052602060002001610eaf89611aeb565b604051602001610ec092919061395e565b60405160208183030381529060405280519060200120611c4c565b905060006040518061018001604052808c815260200183815260200160016002811115610f0b57610f0a612b01565b5b81526020018b81526020018a8152602001610f288a8a8a8a6114b9565b8152602001848152602001610f3f8a8a8a8a6117d2565b8152602001848152602001898152602001888152602001876005811115610f6957610f68612b01565b5b81525090508093505050506110db565b60008614158015610f8b575060008514155b156110a05760006110046004866005811115610faa57610fa9612b01565b5b81548110610fbb57610fba6132f5565b5b90600052602060002001610fce89611aeb565b610fd789611aeb565b604051602001610fe9939291906139d9565b60405160208183030381529060405280519060200120611c4c565b905060006040518061018001604052808c81526020018381526020016001600281111561103457611033612b01565b5b81526020018b81526020018a81526020016110508a8a8a611de7565b81526020018481526020016110668a8a8a612024565b81526020018481526020018981526020018881526020018760058111156110905761108f612b01565b5b81525090508093505050506110db565b6040517f08c379a00000000000000000000000000000000000000000000000000000000081526004016110d290613a6c565b60405180910390fd5b979650505050505050565b60008054906101000a900473ffffffffffffffffffffffffffffffffffffffff1673ffffffffffffffffffffffffffffffffffffffff163373ffffffffffffffffffffffffffffffffffffffff161461113e57600080fd5b6000600760009054906101000a900473ffffffffffffffffffffffffffffffffffffffff1673ffffffffffffffffffffffffffffffffffffffff16632e6997fe6040518163ffffffff1660e01b8152600401600060405180830381865afa1580156111ad573d6000803e3d6000fd5b505050506040513d6000823e3d601f19601f820116820180604052508101906111d69190613ca5565b90506000600760009054906101000a900473ffffffffffffffffffffffffffffffffffffffff1673ffffffffffffffffffffffffffffffffffffffff166335bbe70e6040518163ffffffff1660e01b8152600401600060405180830381865afa158015611247573d6000803e3d6000fd5b505050506040513d6000823e3d601f19601f82011682018060405250810190611270919061368c565b905060005b825181101561133c57600860009054906101000a900473ffffffffffffffffffffffffffffffffffffffff1673ffffffffffffffffffffffffffffffffffffffff166389afcb448483815181106112cf576112ce6132f5565b5b6020026020010151602001516040518263ffffffff1660e01b81526004016112f79190613cee565b600060405180830381600087803b15801561131157600080fd5b505af1158015611325573d6000803e3d6000fd5b505050508080611334906132ac565b915050611275565b5060005b815181101561140757600860009054906101000a900473ffffffffffffffffffffffffffffffffffffffff1673ffffffffffffffffffffffffffffffffffffffff166389afcb4483838151811061139a576113996132f5565b5b6020026020010151602001516040518263ffffffff1660e01b81526004016113c29190613cee565b600060405180830381600087803b1580156113dc57600080fd5b505af11580156113f0573d6000803e3d6000fd5b5050505080806113ff906132ac565b915050611340565b50600860009054906101000a900473ffffffffffffffffffffffffffffffffffffffff1673ffffffffffffffffffffffffffffffffffffffff166389afcb4460008054906101000a900473ffffffffffffffffffffffffffffffffffffffff166040518263ffffffff1660e01b81526004016114839190613cee565b600060405180830381600087803b15801561149d57600080fd5b505af11580156114b1573d6000803e3d6000fd5b505050505050565b60606000600367ffffffffffffffff8111156114d8576114d7612498565b5b6040519080825280602002602001820160405280156115065781602001602082028036833780820191505090505b5090506000861480156115195750600085145b156116535760005b835181101561164d5784600581111561153d5761153c612b01565b5b8482815181106115505761154f6132f5565b5b60200260200101516101600151600581111561156f5761156e612b01565b5b141561163a5760005b84828151811061158b5761158a6132f5565b5b602002602001015160c0015151811015611638578482815181106115b2576115b16132f5565b5b602002602001015160c0015181815181106115d0576115cf6132f5565b5b60200260200101518382815181106115eb576115ea6132f5565b5b602002602001019073ffffffffffffffffffffffffffffffffffffffff16908173ffffffffffffffffffffffffffffffffffffffff16815250508080611630906132ac565b915050611578565b505b8080611645906132ac565b915050611521565b506117c5565b60008514156117bb5760005b83518110156117b55784600581111561167b5761167a612b01565b5b84828151811061168e5761168d6132f5565b5b6020026020010151610160015160058111156116ad576116ac612b01565b5b1480156116d85750868482815181106116c9576116c86132f5565b5b60200260200101516101200151145b156117a25760005b8482815181106116f3576116f26132f5565b5b602002602001015160c00151518110156117a05784828151811061171a576117196132f5565b5b602002602001015160c001518181518110611738576117376132f5565b5b6020026020010151838281518110611753576117526132f5565b5b602002602001019073ffffffffffffffffffffffffffffffffffffffff16908173ffffffffffffffffffffffffffffffffffffffff16815250508080611798906132ac565b9150506116e0565b505b80806117ad906132ac565b91505061165f565b506117c4565b809150506117ca565b5b809150505b949350505050565b60606000600367ffffffffffffffff8111156117f1576117f0612498565b5b60405190808252806020026020018201604052801561181f5781602001602082028036833780820191505090505b5090506000861480156118325750600085145b1561196c5760005b83518110156119665784600581111561185657611855612b01565b5b848281518110611869576118686132f5565b5b60200260200101516101600151600581111561188857611887612b01565b5b14156119535760005b8482815181106118a4576118a36132f5565b5b602002602001015160e0015151811015611951578482815181106118cb576118ca6132f5565b5b602002602001015160e0015181815181106118e9576118e86132f5565b5b6020026020010151838281518110611904576119036132f5565b5b602002602001019073ffffffffffffffffffffffffffffffffffffffff16908173ffffffffffffffffffffffffffffffffffffffff16815250508080611949906132ac565b915050611891565b505b808061195e906132ac565b91505061183a565b50611ade565b6000851415611ad45760005b8351811015611ace5784600581111561199457611993612b01565b5b8482815181106119a7576119a66132f5565b5b6020026020010151610160015160058111156119c6576119c5612b01565b5b1480156119f15750868482815181106119e2576119e16132f5565b5b60200260200101516101200151145b15611abb5760005b848281518110611a0c57611a0b6132f5565b5b602002602001015160e0015151811015611ab957848281518110611a3357611a326132f5565b5b602002602001015160e001518181518110611a5157611a506132f5565b5b6020026020010151838281518110611a6c57611a6b6132f5565b5b602002602001019073ffffffffffffffffffffffffffffffffffffffff16908173ffffffffffffffffffffffffffffffffffffffff16815250508080611ab1906132ac565b9150506119f9565b505b8080611ac6906132ac565b915050611978565b50611add565b80915050611ae3565b5b809150505b949350505050565b60606000821415611b33576040518060400160405280600181526020017f30000000000000000000000000000000000000000000000000000000000000008152509050611c47565b600082905060005b60008214611b65578080611b4e906132ac565b915050600a82611b5e9190613d38565b9150611b3b565b60008167ffffffffffffffff811115611b8157611b80612498565b5b6040519080825280601f01601f191660200182016040528015611bb35781602001600182028036833780820191505090505b5090505b60008514611c4057600182611bcc9190613d69565b9150600a85611bdb9190613d9d565b6030611be79190613dce565b60f81b818381518110611bfd57611bfc6132f5565b5b60200101907effffffffffffffffffffffffffffffffffffffffffffffffffffffffffffff1916908160001a905350600a85611c399190613d38565b9450611bb7565b8093505050505b919050565b606060005b60208160ff16108015611ca35750600060f81b838260ff1660208110611c7a57611c796132f5565b5b1a60f81b7effffffffffffffffffffffffffffffffffffffffffffffffffffffffffffff191614155b15611cbb578080611cb390613e31565b915050611c51565b60008160ff1667ffffffffffffffff811115611cda57611cd9612498565b5b6040519080825280601f01601f191660200182016040528015611d0c5781602001600182028036833780820191505090505b509050600091505b60208260ff16108015611d665750600060f81b848360ff1660208110611d3d57611d3c6132f5565b5b1a60f81b7effffffffffffffffffffffffffffffffffffffffffffffffffffffffffffff191614155b15611ddd57838260ff1660208110611d8157611d806132f5565b5b1a60f81b818360ff1681518110611d9b57611d9a6132f5565b5b60200101907effffffffffffffffffffffffffffffffffffffffffffffffffffffffffffff1916908160001a9053508180611dd590613e31565b925050611d14565b8092505050919050565b60606000600260009054906101000a900473ffffffffffffffffffffffffffffffffffffffff16905060008173ffffffffffffffffffffffffffffffffffffffff16632e6997fe6040518163ffffffff1660e01b8152600401600060405180830381865afa158015611e5d573d6000803e3d6000fd5b505050506040513d6000823e3d601f19601f82011682018060405250810190611e869190613ca5565b90506000815167ffffffffffffffff811115611ea557611ea4612498565b5b604051908082528060200260200182016040528015611ed35781602001602082028036833780820191505090505b50905060005b82518110156120165787838281518110611ef657611ef56132f5565b5b6020026020010151600001516000015160800151148015611f3c575086838281518110611f2657611f256132f5565b5b6020026020010151600001516000015160a00151145b8015611f915750856005811115611f5657611f55612b01565b5b838281518110611f6957611f686132f5565b5b6020026020010151600001516000015160c001516001811115611f8f57611f8e612b01565b5b145b1561200357828181518110611fa957611fa86132f5565b5b602002602001015160200151828281518110611fc857611fc76132f5565b5b602002602001019073ffffffffffffffffffffffffffffffffffffffff16908173ffffffffffffffffffffffffffffffffffffffff16815250505b808061200e906132ac565b915050611ed9565b508093505050509392505050565b60606000600260009054906101000a900473ffffffffffffffffffffffffffffffffffffffff16905060008173ffffffffffffffffffffffffffffffffffffffff166335bbe70e6040518163ffffffff1660e01b8152600401600060405180830381865afa15801561209a573d6000803e3d6000fd5b505050506040513d6000823e3d601f19601f820116820180604052508101906120c3919061368c565b90506000815167ffffffffffffffff8111156120e2576120e1612498565b5b6040519080825280602002602001820160405280156121105781602001602082028036833780820191505090505b50905060005b82518110156122535787838281518110612133576121326132f5565b5b6020026020010151600001516000015160800151148015612179575086838281518110612163576121626132f5565b5b6020026020010151600001516000015160a00151145b80156121ce575085600581111561219357612192612b01565b5b8382815181106121a6576121a56132f5565b5b6020026020010151600001516000015160c0015160018111156121cc576121cb612b01565b5b145b15612240578281815181106121e6576121e56132f5565b5b602002602001015160200151828281518110612205576122046132f5565b5b602002602001019073ffffffffffffffffffffffffffffffffffffffff16908173ffffffffffffffffffffffffffffffffffffffff16815250505b808061224b906132ac565b915050612116565b508093505050509392505050565b82805461226d90613810565b90600052602060002090601f01602090048101928261228f57600085556122d6565b82601f106122a857805160ff19168380011785556122d6565b828001600101855582156122d6579182015b828111156122d55782518255916020019190600101906122ba565b5b5090506122e391906123f6565b5090565b828054828255906000526020600020908101928215612360579160200282015b8281111561235f5782518260006101000a81548173ffffffffffffffffffffffffffffffffffffffff021916908373ffffffffffffffffffffffffffffffffffffffff16021790555091602001919060010190612307565b5b50905061236d91906123f6565b5090565b60405180610180016040528060008152602001606081526020016000600281111561239f5761239e612b01565b5b81526020016000815260200160008152602001606081526020016060815260200160608152602001606081526020016000815260200160008152602001600060058111156123f0576123ef612b01565b5b81525090565b5b8082111561240f5760008160009055506001016123f7565b5090565b6000604051905090565b600080fd5b600080fd5b6000819050919050565b61243a81612427565b811461244557600080fd5b50565b60008135905061245781612431565b92915050565b6006811061246a57600080fd5b50565b60008135905061247c8161245d565b92915050565b600080fd5b6000601f19601f8301169050919050565b7f4e487b7100000000000000000000000000000000000000000000000000000000600052604160045260246000fd5b6124d082612487565b810181811067ffffffffffffffff821117156124ef576124ee612498565b5b80604052505050565b6000612502612413565b905061250e82826124c7565b919050565b600067ffffffffffffffff82111561252e5761252d612498565b5b602082029050602081019050919050565b600080fd5b600080fd5b600080fd5b600080fd5b600067ffffffffffffffff82111561256e5761256d612498565b5b61257782612487565b9050602081019050919050565b82818337600083830152505050565b60006125a66125a184612553565b6124f8565b9050828152602081018484840111156125c2576125c161254e565b5b6125cd848285612584565b509392505050565b600082601f8301126125ea576125e9612482565b5b81356125fa848260208601612593565b91505092915050565b6003811061261057600080fd5b50565b60008135905061262281612603565b92915050565b600067ffffffffffffffff82111561264357612642612498565b5b602082029050602081019050919050565b600073ffffffffffffffffffffffffffffffffffffffff82169050919050565b600061267f82612654565b9050919050565b61268f81612674565b811461269a57600080fd5b50565b6000813590506126ac81612686565b92915050565b60006126c56126c084612628565b6124f8565b905080838252602082019050602084028301858111156126e8576126e761253f565b5b835b8181101561271157806126fd888261269d565b8452602084019350506020810190506126ea565b5050509392505050565b600082601f8301126127305761272f612482565b5b81356127408482602086016126b2565b91505092915050565b600061018082840312156127605761275f612544565b5b61276b6101806124f8565b9050600061277b84828501612448565b600083015250602082013567ffffffffffffffff81111561279f5761279e612549565b5b6127ab848285016125d5565b60208301525060406127bf84828501612613565b60408301525060606127d384828501612448565b60608301525060806127e784828501612448565b60808301525060a082013567ffffffffffffffff81111561280b5761280a612549565b5b6128178482850161271b565b60a08301525060c082013567ffffffffffffffff81111561283b5761283a612549565b5b6128478482850161271b565b60c08301525060e082013567ffffffffffffffff81111561286b5761286a612549565b5b6128778482850161271b565b60e08301525061010082013567ffffffffffffffff81111561289c5761289b612549565b5b6128a88482850161271b565b610100830152506101206128be84828501612448565b610120830152506101406128d484828501612448565b610140830152506101606128ea8482850161246d565b6101608301525092915050565b600061290a61290584612513565b6124f8565b9050808382526020820190506020840283018581111561292d5761292c61253f565b5b835b8181101561297457803567ffffffffffffffff81111561295257612951612482565b5b80860161295f8982612749565b8552602085019450505060208101905061292f565b5050509392505050565b600082601f83011261299357612992612482565b5b81356129a38482602086016128f7565b91505092915050565b600080600080600080600060e0888a0312156129cb576129ca61241d565b5b60006129d98a828b01612448565b97505060206129ea8a828b01612448565b96505060406129fb8a828b01612448565b9550506060612a0c8a828b01612448565b9450506080612a1d8a828b01612448565b93505060a0612a2e8a828b0161246d565b92505060c088013567ffffffffffffffff811115612a4f57612a4e612422565b5b612a5b8a828b0161297e565b91505092959891949750929550565b612a7381612427565b82525050565b600081519050919050565b600082825260208201905092915050565b60005b83811015612ab3578082015181840152602081019050612a98565b83811115612ac2576000848401525b50505050565b6000612ad382612a79565b612add8185612a84565b9350612aed818560208601612a95565b612af681612487565b840191505092915050565b7f4e487b7100000000000000000000000000000000000000000000000000000000600052602160045260246000fd5b60038110612b4157612b40612b01565b5b50565b6000819050612b5282612b30565b919050565b6000612b6282612b44565b9050919050565b612b7281612b57565b82525050565b600081519050919050565b600082825260208201905092915050565b6000819050602082019050919050565b612bad81612674565b82525050565b6000612bbf8383612ba4565b60208301905092915050565b6000602082019050919050565b6000612be382612b78565b612bed8185612b83565b9350612bf883612b94565b8060005b83811015612c29578151612c108882612bb3565b9750612c1b83612bcb565b925050600181019050612bfc565b5085935050505092915050565b60068110612c4757612c46612b01565b5b50565b6000819050612c5882612c36565b919050565b6000612c6882612c4a565b9050919050565b612c7881612c5d565b82525050565b600061018083016000830151612c976000860182612a6a565b5060208301518482036020860152612caf8282612ac8565b9150506040830151612cc46040860182612b69565b506060830151612cd76060860182612a6a565b506080830151612cea6080860182612a6a565b5060a083015184820360a0860152612d028282612bd8565b91505060c083015184820360c0860152612d1c8282612bd8565b91505060e083015184820360e0860152612d368282612bd8565b915050610100830151848203610100860152612d528282612bd8565b915050610120830151612d69610120860182612a6a565b50610140830151612d7e610140860182612a6a565b50610160830151612d93610160860182612c6f565b508091505092915050565b60006020820190508181036000830152612db88184612c7e565b905092915050565b600b8110612dcd57600080fd5b50565b600081519050612ddf81612dc0565b92915050565b600081519050612df481612431565b92915050565b600060608284031215612e1057612e0f612544565b5b612e1a60606124f8565b90506000612e2a84828501612dd0565b6000830152506020612e3e84828501612de5565b6020830152506040612e5284828501612de5565b60408301525092915050565b600060608284031215612e7457612e7361241d565b5b6000612e8284828501612dfa565b91505092915050565b6000612e9e612e9984612553565b6124f8565b905082815260208101848484011115612eba57612eb961254e565b5b612ec5848285612a95565b509392505050565b600082601f830112612ee257612ee1612482565b5b8151612ef2848260208601612e8b565b91505092915050565b600081519050612f0a81612603565b92915050565b600081519050612f1f81612686565b92915050565b6000612f38612f3384612628565b6124f8565b90508083825260208201905060208402830185811115612f5b57612f5a61253f565b5b835b81811015612f845780612f708882612f10565b845260208401935050602081019050612f5d565b5050509392505050565b600082601f830112612fa357612fa2612482565b5b8151612fb3848260208601612f25565b91505092915050565b600081519050612fcb8161245d565b92915050565b60006101808284031215612fe857612fe7612544565b5b612ff36101806124f8565b9050600061300384828501612de5565b600083015250602082015167ffffffffffffffff81111561302757613026612549565b5b61303384828501612ecd565b602083015250604061304784828501612efb565b604083015250606061305b84828501612de5565b606083015250608061306f84828501612de5565b60808301525060a082015167ffffffffffffffff81111561309357613092612549565b5b61309f84828501612f8e565b60a08301525060c082015167ffffffffffffffff8111156130c3576130c2612549565b5b6130cf84828501612f8e565b60c08301525060e082015167ffffffffffffffff8111156130f3576130f2612549565b5b6130ff84828501612f8e565b60e08301525061010082015167ffffffffffffffff81111561312457613123612549565b5b61313084828501612f8e565b6101008301525061012061314684828501612de5565b6101208301525061014061315c84828501612de5565b6101408301525061016061317284828501612fbc565b6101608301525092915050565b600061319261318d84612513565b6124f8565b905080838252602082019050602084028301858111156131b5576131b461253f565b5b835b818110156131fc57805167ffffffffffffffff8111156131da576131d9612482565b5b8086016131e78982612fd1565b855260208501945050506020810190506131b7565b5050509392505050565b600082601f83011261321b5761321a612482565b5b815161322b84826020860161317f565b91505092915050565b60006020828403121561324a5761324961241d565b5b600082015167ffffffffffffffff81111561326857613267612422565b5b61327484828501613206565b91505092915050565b7f4e487b7100000000000000000000000000000000000000000000000000000000600052601160045260246000fd5b60006132b782612427565b91507fffffffffffffffffffffffffffffffffffffffffffffffffffffffffffffffff8214156132ea576132e961327d565b5b600182019050919050565b7f4e487b7100000000000000000000000000000000000000000000000000000000600052603260045260246000fd5b600082825260208201905092915050565b600061334082612a79565b61334a8185613324565b935061335a818560208601612a95565b61336381612487565b840191505092915050565b600060208201905081810360008301526133888184613335565b905092915050565b600067ffffffffffffffff8211156133ab576133aa612498565b5b602082029050602081019050919050565b600281106133c957600080fd5b50565b6000815190506133db816133bc565b92915050565b600061010082840312156133f8576133f7612544565b5b6134036101006124f8565b9050600061341384828501612de5565b600083015250602082015167ffffffffffffffff81111561343757613436612549565b5b61344384828501612ecd565b602083015250604082015167ffffffffffffffff81111561346757613466612549565b5b61347384828501612ecd565b604083015250606061348784828501612de5565b606083015250608061349b84828501612de5565b60808301525060a06134af84828501612de5565b60a08301525060c06134c3848285016133cc565b60c08301525060e082015167ffffffffffffffff8111156134e7576134e6612549565b5b6134f384828501612ecd565b60e08301525092915050565b60006040828403121561351557613514612544565b5b61351f60406124f8565b9050600082015167ffffffffffffffff81111561353f5761353e612549565b5b61354b848285016133e1565b600083015250602061355f84828501612de5565b60208301525092915050565b60006040828403121561358157613580612544565b5b61358b60406124f8565b9050600082015167ffffffffffffffff8111156135ab576135aa612549565b5b6135b7848285016134ff565b60008301525060206135cb84828501612f10565b60208301525092915050565b60006135ea6135e584613390565b6124f8565b9050808382526020820190506020840283018581111561360d5761360c61253f565b5b835b8181101561365457805167ffffffffffffffff81111561363257613631612482565b5b80860161363f898261356b565b8552602085019450505060208101905061360f565b5050509392505050565b600082601f83011261367357613672612482565b5b81516136838482602086016135d7565b91505092915050565b6000602082840312156136a2576136a161241d565b5b600082015167ffffffffffffffff8111156136c0576136bf612422565b5b6136cc8482850161365e565b91505092915050565b6136de81612427565b82525050565b60006020820190506136f960008301846136d5565b92915050565b61370881612674565b82525050565b6000819050919050565b6000819050919050565b600061373d6137386137338461370e565b613718565b612427565b9050919050565b61374d81613722565b82525050565b600060408201905061376860008301856136ff565b6137756020830184613744565b9392505050565b60008115159050919050565b6137918161377c565b811461379c57600080fd5b50565b6000815190506137ae81613788565b92915050565b6000602082840312156137ca576137c961241d565b5b60006137d88482850161379f565b91505092915050565b7f4e487b7100000000000000000000000000000000000000000000000000000000600052602260045260246000fd5b6000600282049050600182168061382857607f821691505b6020821081141561383c5761383b6137e1565b5b50919050565b600081905092915050565b60008190508160005260206000209050919050565b6000815461386f81613810565b6138798186613842565b9450600182166000811461389457600181146138a5576138d8565b60ff198316865281860193506138d8565b6138ae8561384d565b60005b838110156138d0578154818901526001820191506020810190506138b1565b838801955050505b50505092915050565b7f2059656172200000000000000000000000000000000000000000000000000000600082015250565b6000613917600683613842565b9150613922826138e1565b600682019050919050565b600061393882612a79565b6139428185613842565b9350613952818560208601612a95565b80840191505092915050565b600061396a8285613862565b91506139758261390a565b9150613981828461392d565b91508190509392505050565b7f2053656374696f6e200000000000000000000000000000000000000000000000600082015250565b60006139c3600983613842565b91506139ce8261398d565b600982019050919050565b60006139e58286613862565b91506139f08261390a565b91506139fc828561392d565b9150613a07826139b6565b9150613a13828461392d565b9150819050949350505050565b7f496e76616c6964204f7065726174696f6e000000000000000000000000000000600082015250565b6000613a56601183613324565b9150613a6182613a20565b602082019050919050565b60006020820190508181036000830152613a8581613a49565b9050919050565b600067ffffffffffffffff821115613aa757613aa6612498565b5b602082029050602081019050919050565b600060808284031215613ace57613acd612544565b5b613ad860806124f8565b9050600082015167ffffffffffffffff811115613af857613af7612549565b5b613b04848285016133e1565b6000830152506020613b1884828501612de5565b602083015250604082015167ffffffffffffffff811115613b3c57613b3b612549565b5b613b4884828501612ecd565b604083015250606082015167ffffffffffffffff811115613b6c57613b6b612549565b5b613b7884828501612ecd565b60608301525092915050565b600060408284031215613b9a57613b99612544565b5b613ba460406124f8565b9050600082015167ffffffffffffffff811115613bc457613bc3612549565b5b613bd084828501613ab8565b6000830152506020613be484828501612f10565b60208301525092915050565b6000613c03613bfe84613a8c565b6124f8565b90508083825260208201905060208402830185811115613c2657613c2561253f565b5b835b81811015613c6d57805167ffffffffffffffff811115613c4b57613c4a612482565b5b808601613c588982613b84565b85526020850194505050602081019050613c28565b5050509392505050565b600082601f830112613c8c57613c8b612482565b5b8151613c9c848260208601613bf0565b91505092915050565b600060208284031215613cbb57613cba61241d565b5b600082015167ffffffffffffffff811115613cd957613cd8612422565b5b613ce584828501613c77565b91505092915050565b6000602082019050613d0360008301846136ff565b92915050565b7f4e487b7100000000000000000000000000000000000000000000000000000000600052601260045260246000fd5b6000613d4382612427565b9150613d4e83612427565b925082613d5e57613d5d613d09565b5b828204905092915050565b6000613d7482612427565b9150613d7f83612427565b925082821015613d9257613d9161327d565b5b828203905092915050565b6000613da882612427565b9150613db383612427565b925082613dc357613dc2613d09565b5b828206905092915050565b6000613dd982612427565b9150613de483612427565b9250827fffffffffffffffffffffffffffffffffffffffffffffffffffffffffffffffff03821115613e1957613e1861327d565b5b828201905092915050565b600060ff82169050919050565b6000613e3c82613e24565b915060ff821415613e5057613e4f61327d565b5b60018201905091905056fea2646970667358221220cc36fafb7d1b7768a73e243dfe243506ad2bb1b34f01b2f23526b1cf5a97f4d264736f6c634300080a0033",
  "immutableReferences": {},
  "source": "// SPDX-License-Identifier: MIT\npragma solidity ^0.8.9;\n\nimport \"./AAiTElection.sol\";\nimport \"./AAiTVoteToken.sol\";\nimport \"./AAiTStudent.sol\";\nimport \"./AAiTElectionTimer.sol\";\nimport \"@openzeppelin/contracts/utils/Strings.sol\";\n\ncontract AAiTElectionHandler {\n    address private owner;\n    address private AAiTVoteTokenAddress;\n    address private AAiTStudentAddress;\n    address private AAiTElectionTimerAddress;\n    string[] private deptTypes = [\n        \"Biomedical Engineering\",\n        \"Chemical Engineering\",\n        \"Civil Engineering\",\n        \"Electrical Engineering\",\n        \"Mechanical Engineering\",\n        \"Software Engineering\"\n    ];\n\n    AAiTElection.ElectionStruct[] private pendingElections;\n    // address private AAiTElectionAddress;\n\n    modifier onlyOwner() {\n        require(msg.sender == owner);\n        _;\n    }\n\n    AAiTElectionTimer electionTimer;\n    AAiTStudent student;\n    AAiTVoteToken voteToken;\n    AAiTElection election;\n\n    constructor(\n        address _AAiTVoteTokenAddress,\n        address _AAiTStudentAddress,\n        address _AAiTElectionTimerAddress,\n        address _AAiTElectionAddress\n    ) {\n        owner = msg.sender;\n        // AAiTVoteTokenAddress = _AAiTVoteTokenAddress;\n        // AAiTStudentAddress = _AAiTStudentAddress;\n        // AAiTElectionTimerAddress = _AAiTElectionTimerAddress;\n        // AAiTElectionAddress = _AAiTElectionAddress;\n\n        electionTimer = AAiTElectionTimer(_AAiTElectionTimerAddress);\n        student = AAiTStudent(_AAiTStudentAddress);\n        voteToken = AAiTVoteToken(_AAiTVoteTokenAddress);\n        election = AAiTElection(_AAiTElectionAddress);\n    }\n\n    function createElection(\n        uint256 index,\n        uint256 startDate,\n        uint256 endDate,\n        uint256 year,\n        uint256 section,\n        AAiTElection.DEPTARTMENT_TYPE department,\n        AAiTElection.ElectionStruct[] memory allElections\n    ) public onlyOwner returns (AAiTElection.ElectionStruct memory) {\n        address[] memory empty;\n\n        if (year == 0 && section == 0) {\n            // string memory name = AAiTElectionLibrary.bytes32ToString(\n            //     keccak256(\n            //         abi.encodePacked(\n            //             deptTypes[department]\n            //             // \" Year \",\n            //             // Strings.toString(year),\n            //             // \" Section \",\n            //             // Strings.toString(section)\n            //         )\n            //     )\n            // );\n\n            AAiTElection.ElectionStruct memory electionStruct = AAiTElection\n                .ElectionStruct(\n                    index,\n                    deptTypes[uint256(department)],\n                    AAiTElection.ELECTION_TYPE.ONGOING,\n                    startDate,\n                    endDate,\n                    mergeCandidates(year, section, department, allElections),\n                    empty,\n                    mergeVoters(year, section, department, allElections),\n                    empty,\n                    year,\n                    section,\n                    department\n                );\n            return electionStruct;\n        } else if (section == 0) {\n            string memory name = AAiTElectionLibrary.bytes32ToString(\n                keccak256(\n                    abi.encodePacked(\n                        deptTypes[uint256(department)],\n                        \" Year \",\n                        Strings.toString(year)\n                    )\n                )\n            );\n            AAiTElection.ElectionStruct memory electionStruct = AAiTElection\n                .ElectionStruct(\n                    index,\n                    name,\n                    AAiTElection.ELECTION_TYPE.ONGOING,\n                    startDate,\n                    endDate,\n                    mergeCandidates(year, section, department, allElections),\n                    empty,\n                    mergeVoters(year, section, department, allElections),\n                    empty,\n                    year,\n                    section,\n                    department\n                );\n            return electionStruct;\n        } else if (year != 0 && section != 0) {\n            string memory name = AAiTElectionLibrary.bytes32ToString(\n                keccak256(\n                    abi.encodePacked(\n                        deptTypes[uint256(department)],\n                        \" Year \",\n                        Strings.toString(year),\n                        \" Section \",\n                        Strings.toString(section)\n                    )\n                )\n            );\n            AAiTElection.ElectionStruct memory electionStruct = AAiTElection\n                .ElectionStruct(\n                    index,\n                    name,\n                    AAiTElection.ELECTION_TYPE.ONGOING,\n                    startDate,\n                    endDate,\n                    generateCandidatesForElection(year, section, department),\n                    empty,\n                    generateVotersForElection(year, section, department),\n                    empty,\n                    year,\n                    section,\n                    department\n                );\n            return electionStruct;\n        } else {\n            revert(\"Invalid Operation\");\n        }\n    }\n\n    function generateElectionsPerPhase() public onlyOwner {\n        AAiTElectionTimer.ElectionPhase memory tempPhase = electionTimer\n            .getCurrentPhase();\n        AAiTElection.ElectionStruct[] memory allElections = election\n            .getAllElections();\n        if (\n            tempPhase.phaseName == AAiTElectionTimer.PHASE_NAME.SECTION_ELECTION\n        ) {\n            for (uint256 i = 0; i < deptTypes.length; i++) {\n                for (uint256 j = 1; j < 6; j++) {\n                    for (uint256 k = 1; k < 3; k++) {\n                        AAiTElection.ElectionStruct\n                            memory electionStruct = createElection(\n                                pendingElections.length,\n                                tempPhase.start,\n                                tempPhase.end,\n                                j,\n                                k,\n                                AAiTElection.DEPTARTMENT_TYPE(i),\n                                allElections\n                            );\n                        pendingElections.push(electionStruct);\n                    }\n                }\n            }\n            // if (allElections[i].department == department) {\n            //     return allElections[i];\n            // }\n        } else if (\n            tempPhase.phaseName == AAiTElectionTimer.PHASE_NAME.BATCH_ELECTION\n        ) {\n            for (uint256 i = 0; i < deptTypes.length; i++) {\n                for (uint256 j = 1; j < 6; j++) {\n                    // for (uint256 k = 1; k < 3; k++) {\n                    AAiTElection.ElectionStruct\n                        memory electionStruct = createElection(\n                            pendingElections.length,\n                            tempPhase.start,\n                            tempPhase.end,\n                            j,\n                            0,\n                            AAiTElection.DEPTARTMENT_TYPE(i),\n                            allElections\n                        );\n                    pendingElections.push(electionStruct);\n                    // }\n                }\n                // if (\n                //     allElections[i].department == department &&\n                //     allElections[i].year == year\n                // ) {\n                //     return allElections[i];\n                // }\n            }\n        } else if (\n            tempPhase.phaseName ==\n            AAiTElectionTimer.PHASE_NAME.DEPARTMENT_ELECTION\n        ) {\n            for (uint256 i = 0; i < deptTypes.length; i++) {\n                // if (\n                //     allElections[i].department == department &&\n                //     allElections[i].year == year &&\n                //     allElections[i].section == section\n                // ) {\n                //     return allElections[i];\n                // }\n\n                AAiTElection.ElectionStruct\n                    memory electionStruct = createElection(\n                        pendingElections.length,\n                        tempPhase.start,\n                        tempPhase.end,\n                        0,\n                        0,\n                        AAiTElection.DEPTARTMENT_TYPE(i),\n                        allElections\n                    );\n            }\n        }\n    }\n\n    function burnAllTokens() public onlyOwner {\n        // AAiTVoteToken tempToken = AAiTVoteToken(AAiTVoteTokenAddress);\n        // AAiTStudent tempStudent = AAiTStudent(AAiTStudentAddress);\n        AAiTStudent.CandidateStruct[] memory tempCandidate = student\n            .getAllCandidates();\n        AAiTStudent.VoterStruct[] memory tempVoter = student.getAllVoters();\n        for (uint256 i = 0; i < tempCandidate.length; i++) {\n            voteToken.burn(tempCandidate[i].candidateAddress);\n        }\n        for (uint256 i = 0; i < tempVoter.length; i++) {\n            voteToken.burn(tempVoter[i].voterAddress);\n        }\n        voteToken.burn(owner);\n        // temp.burnRemainingTokens(owner);\n    }\n\n    function mintAndSendTokens() public onlyOwner {\n        // AAiTVoteToken tempToken = AAiTVoteToken(AAiTVoteTokenAddress);\n        // AAiTStudent tempStudent = AAiTStudent(AAiTStudentAddress);\n        AAiTStudent.VoterStruct[] memory tempVoters = student.getAllVoters();\n        uint256 totalTokenCount = tempVoters.length;\n        voteToken.mint(tempVoters.length);\n        for (uint256 i = 0; i < tempVoters.length; i++) {\n            voteToken.transfer(tempVoters[i].voterAddress, 1);\n        }\n    }\n\n    function generateVotersForElection(\n        uint256 year,\n        uint256 section,\n        AAiTElection.DEPTARTMENT_TYPE department\n    ) internal view returns (address[] memory) {\n        AAiTStudent tempStudent = AAiTStudent(AAiTStudentAddress);\n        AAiTStudent.VoterStruct[] memory tempVoters = tempStudent\n            .getAllVoters();\n        address[] memory newVoters = new address[](tempVoters.length);\n        // if (year == 0 && section == 0) {\n        //     for (uint256 i = 0; i < tempVoters.length; i++) {\n        //         if (\n        //             uint256(tempVoters[i].voterInfo.currentDepartment) ==\n        //             uint256(department)\n        //         ) {\n        //             newVoters[i] = tempVoters[i].voterAddress;\n        //         }\n        //     }\n        // } else if (section == 0) {\n        //     for (uint256 i = 0; i < tempVoters.length; i++) {\n        //         if (\n        //             tempVoters[i].voterInfo.currentYear == year &&\n        //             uint256(tempVoters[i].voterInfo.currentDepartment) ==\n        //             uint256(department)\n        //         ) {\n        //             newVoters[i] = tempVoters[i].voterAddress;\n        //         }\n        //     }\n        // } else {\n        for (uint256 i = 0; i < tempVoters.length; i++) {\n            if (\n                tempVoters[i].voterInfo.voterInfo.currentYear == year &&\n                tempVoters[i].voterInfo.voterInfo.currentSection == section &&\n                uint256(tempVoters[i].voterInfo.voterInfo.currentDepartment) ==\n                uint256(department)\n            ) {\n                newVoters[i] = tempVoters[i].voterAddress;\n            }\n        }\n        // }\n        return newVoters;\n    }\n\n    function generateCandidatesForElection(\n        uint256 year,\n        uint256 section,\n        AAiTElection.DEPTARTMENT_TYPE department\n    ) internal view returns (address[] memory) {\n        AAiTStudent tempStudent = AAiTStudent(AAiTStudentAddress);\n        AAiTStudent.CandidateStruct[] memory tempCandidates = tempStudent\n            .getAllCandidates();\n        address[] memory newCandidates = new address[](tempCandidates.length);\n        // if (year == 0 && section == 0) {\n        //     for (uint256 i = 0; i < tempCandidates.length; i++) {\n        //         if (\n        //             uint256(\n        //                 tempCandidates[i].candidateInfo.currentDepartment\n        //             ) == uint256(department)\n        //         ) {\n        //             newCandidates[i] = tempCandidates[i].candidateAddress;\n        //         }\n        //     }\n        // } else if (section == 0) {\n        //     for (uint256 i = 0; i < tempCandidates.length; i++) {\n        //         if (\n        //             tempCandidates[i].candidateInfo.currentYear == year &&\n        //             uint256(\n        //                 tempCandidates[i].candidateInfo.currentDepartment\n        //             ) ==\n        //             uint256(department)\n        //         ) {\n        //             newCandidates[i] = tempCandidates[i].candidateAddress;\n        //         }\n        //     }\n        // } else {\n        for (uint256 i = 0; i < tempCandidates.length; i++) {\n            if (\n                tempCandidates[i].candidateInfo.candidateInfo.currentYear ==\n                year &&\n                tempCandidates[i].candidateInfo.candidateInfo.currentSection ==\n                section &&\n                uint256(\n                    tempCandidates[i]\n                        .candidateInfo\n                        .candidateInfo\n                        .currentDepartment\n                ) ==\n                uint256(department)\n            ) {\n                newCandidates[i] = tempCandidates[i].candidateAddress;\n            }\n        }\n        // }\n        return newCandidates;\n    }\n\n    function mergeCandidates(\n        uint256 year,\n        uint256 section,\n        AAiTElection.DEPTARTMENT_TYPE department,\n        AAiTElection.ElectionStruct[] memory allElections\n    ) internal view returns (address[] memory) {\n        address[] memory newCandidates = new address[](3);\n        // AAiTElection tempElection = AAiTElection(AAiTElectionAddress);\n        // AAiTElection.ElectionStruct[] memory allElections = tempElection\n        //     .getAllElections();\n\n        if (year == 0 && section == 0) {\n            for (uint256 i = 0; i < allElections.length; i++) {\n                if (allElections[i].department == department) {\n                    // candidates.push(candidates[i].candidateInfo.userAddress);\n                    for (\n                        uint256 j = 0;\n                        j < allElections[i].winners.length;\n                        j++\n                    ) {\n                        newCandidates[j] = allElections[i].winners[j];\n                    }\n                }\n            }\n        } else if (section == 0) {\n            for (uint256 i = 0; i < allElections.length; i++) {\n                if (\n                    allElections[i].department == department &&\n                    allElections[i].year == year\n                ) {\n                    // candidates.push(candidates[i].candidateInfo.userAddress);\n                    for (\n                        uint256 j = 0;\n                        j < allElections[i].winners.length;\n                        j++\n                    ) {\n                        newCandidates[j] = allElections[i].winners[j];\n                    }\n                }\n            }\n        } else {\n            return newCandidates;\n        }\n\n        return newCandidates;\n    }\n\n    function mergeVoters(\n        uint256 year,\n        uint256 section,\n        AAiTElection.DEPTARTMENT_TYPE department,\n        AAiTElection.ElectionStruct[] memory allElections\n    ) internal view returns (address[] memory) {\n        address[] memory newVoters = new address[](3);\n        //  AAiTElection tempElection = AAiTElection(AAiTElectionAddress);\n        // AAiTElection.ElectionStruct[] memory allElections = tempElection\n        //     .getAllElections();\n        if (year == 0 && section == 0) {\n            for (uint256 i = 0; i < allElections.length; i++) {\n                if (allElections[i].department == department) {\n                    for (\n                        uint256 j = 0;\n                        j < allElections[i].voters.length;\n                        j++\n                    ) {\n                        newVoters[j] = allElections[i].voters[j];\n                    }\n                }\n            }\n        } else if (section == 0) {\n            for (uint256 i = 0; i < allElections.length; i++) {\n                if (\n                    allElections[i].department == department &&\n                    allElections[i].year == year\n                ) {\n                    for (\n                        uint256 j = 0;\n                        j < allElections[i].voters.length;\n                        j++\n                    ) {\n                        newVoters[j] = allElections[i].voters[j];\n                    }\n                }\n            }\n        } else {\n            return newVoters;\n        }\n\n        return newVoters;\n    }\n\n    function endAllOngoingElections() public onlyOwner {\n        // ElectionStruct[] memory temp = allElections;\n        AAiTElectionTimer.ElectionPhase memory tempPhase = electionTimer\n            .getCurrentPhase();\n        AAiTElection.ElectionStruct[] memory allElections = election\n            .getAllElections();\n\n        if (\n            tempPhase.phaseName ==\n            AAiTElectionTimer.PHASE_NAME.DEPARTMENT_ELECTION ||\n            tempPhase.phaseName ==\n            AAiTElectionTimer.PHASE_NAME.SECTION_ELECTION ||\n            tempPhase.phaseName == AAiTElectionTimer.PHASE_NAME.BATCH_ELECTION\n        ) {\n            for (uint256 i = 0; i < allElections.length; i++) {\n                if (allElections[i].electionType == AAiTElection.ELECTION_TYPE.ONGOING) {\n                    election.declareWinner(allElections[i].name);\n                    // endElection(allElections[i].name);\n                }\n            }\n        }\n    }\n}\n",
  "sourcePath": "/home/dannyterefe/Documents/VSCode_Projects/Final_Project/blockchain_based_voting_system/dvbst_smart_contracts/contracts/AAiTElectionHandler.sol",
  "compiler": {
    "name": "solc",
    "version": "0.8.10+commit.fc410830.Emscripten.clang"
  },
  "schemaVersion": "3.4.4",
  "updatedAt": "2022-05-25T12:52:35.673Z",
  "networkType": "ethereum",
  "devdoc": {
    "kind": "dev",
    "methods": {},
    "version": 1
  },
  "userdoc": {
    "kind": "user",
    "methods": {},
    "version": 1
  }
}